{
  "contractName": "Derp",
  "abi": [
    {
      "inputs": [],
      "stateMutability": "nonpayable",
      "type": "constructor"
    },
    {
      "anonymous": false,
      "inputs": [
        {
          "indexed": false,
          "internalType": "address",
          "name": "account",
          "type": "address"
        }
      ],
      "name": "AllReviewTokensRequested",
      "type": "event"
    },
    {
      "anonymous": false,
      "inputs": [
        {
          "indexed": false,
          "internalType": "address",
          "name": "account",
          "type": "address"
        },
        {
          "indexed": false,
          "internalType": "uint64",
          "name": "product",
          "type": "uint64"
        }
      ],
      "name": "ReviewTokenRequested",
      "type": "event"
    },
    {
      "anonymous": false,
      "inputs": [
        {
          "indexed": false,
          "internalType": "address",
          "name": "account",
          "type": "address"
        }
      ],
      "name": "ReviewTokensGranted",
      "type": "event"
    },
    {
      "inputs": [],
      "name": "PER_PURCHASE_TOKENS",
      "outputs": [
        {
          "internalType": "int8",
          "name": "",
          "type": "int8"
        }
      ],
      "stateMutability": "view",
      "type": "function",
      "constant": true
    },
    {
      "inputs": [],
      "name": "REVIEW_COST",
      "outputs": [
        {
          "internalType": "int8",
          "name": "",
          "type": "int8"
        }
      ],
      "stateMutability": "view",
      "type": "function",
      "constant": true
    },
    {
      "inputs": [],
      "name": "REVIEW_REWARD",
      "outputs": [
        {
          "internalType": "int8",
          "name": "",
          "type": "int8"
        }
      ],
      "stateMutability": "view",
      "type": "function",
      "constant": true
    },
    {
      "inputs": [],
      "name": "UPVOTE_COST",
      "outputs": [
        {
          "internalType": "int8",
          "name": "",
          "type": "int8"
        }
      ],
      "stateMutability": "view",
      "type": "function",
      "constant": true
    },
    {
      "inputs": [],
      "name": "UPVOTE_REWARD",
      "outputs": [
        {
          "internalType": "int8",
          "name": "",
          "type": "int8"
        }
      ],
      "stateMutability": "view",
      "type": "function",
      "constant": true
    },
    {
      "inputs": [],
      "name": "requestAllReviewTokens",
      "outputs": [],
      "stateMutability": "nonpayable",
      "type": "function"
    },
    {
      "inputs": [
        {
          "internalType": "uint64",
          "name": "productId",
          "type": "uint64"
        }
      ],
      "name": "requestReviewToken",
      "outputs": [],
      "stateMutability": "nonpayable",
      "type": "function"
    },
    {
      "inputs": [
        {
          "internalType": "address",
          "name": "account",
          "type": "address"
        },
        {
          "internalType": "uint64",
          "name": "productId",
          "type": "uint64"
        }
      ],
      "name": "rewardReviewToken",
      "outputs": [],
      "stateMutability": "nonpayable",
      "type": "function"
    },
    {
      "inputs": [
        {
          "internalType": "address",
          "name": "account",
          "type": "address"
        },
        {
          "internalType": "uint64[]",
          "name": "productIds",
          "type": "uint64[]"
        }
      ],
      "name": "rewardReviewTokens",
      "outputs": [],
      "stateMutability": "nonpayable",
      "type": "function"
    },
    {
      "inputs": [
        {
          "internalType": "uint64",
          "name": "productId",
          "type": "uint64"
        },
        {
          "internalType": "bytes",
          "name": "reviewHash",
          "type": "bytes"
        }
      ],
      "name": "makeReview",
      "outputs": [
        {
          "internalType": "bool",
          "name": "",
          "type": "bool"
        }
      ],
      "stateMutability": "nonpayable",
      "type": "function"
    },
    {
      "inputs": [
        {
          "internalType": "bytes",
          "name": "reviewHash",
          "type": "bytes"
        }
      ],
      "name": "upvoteReview",
      "outputs": [],
      "stateMutability": "nonpayable",
      "type": "function"
    },
    {
      "inputs": [
        {
          "internalType": "uint64",
          "name": "productId",
          "type": "uint64"
        }
      ],
      "name": "addProduct",
      "outputs": [],
      "stateMutability": "nonpayable",
      "type": "function"
    },
    {
      "inputs": [
        {
          "internalType": "uint64[]",
          "name": "productIds",
          "type": "uint64[]"
        }
      ],
      "name": "addProducts",
      "outputs": [],
      "stateMutability": "nonpayable",
      "type": "function"
    },
    {
      "inputs": [
        {
          "internalType": "bytes",
          "name": "itemHash",
          "type": "bytes"
        }
      ],
      "name": "buyProfileItem",
      "outputs": [],
      "stateMutability": "nonpayable",
      "type": "function"
    },
    {
      "inputs": [
        {
          "internalType": "bytes",
          "name": "itemHash",
          "type": "bytes"
        },
        {
          "internalType": "int64",
          "name": "price",
          "type": "int64"
        }
      ],
      "name": "addProfileItem",
      "outputs": [],
      "stateMutability": "nonpayable",
      "type": "function"
    },
    {
      "inputs": [
        {
          "internalType": "bytes",
          "name": "reviewHash",
          "type": "bytes"
        }
      ],
      "name": "reviewExists",
      "outputs": [
        {
          "internalType": "bool",
          "name": "",
          "type": "bool"
        }
      ],
      "stateMutability": "view",
      "type": "function",
      "constant": true
    },
    {
      "inputs": [
        {
          "internalType": "uint64",
          "name": "productId",
          "type": "uint64"
        }
      ],
      "name": "getProduct",
      "outputs": [
        {
          "components": [
            {
              "internalType": "bytes[]",
              "name": "reviewHashes",
              "type": "bytes[]"
            },
            {
              "internalType": "bool",
              "name": "_initialized",
              "type": "bool"
            }
          ],
          "internalType": "struct Derp.Product",
          "name": "",
          "type": "tuple"
        }
      ],
      "stateMutability": "view",
      "type": "function",
      "constant": true
    },
    {
      "inputs": [],
      "name": "getProducts",
      "outputs": [
        {
          "internalType": "uint64[]",
          "name": "",
          "type": "uint64[]"
        }
      ],
      "stateMutability": "view",
      "type": "function",
      "constant": true
    },
    {
      "inputs": [],
      "name": "getProductsToBeReviewed",
      "outputs": [
        {
          "internalType": "uint64[]",
          "name": "",
          "type": "uint64[]"
        }
      ],
      "stateMutability": "view",
      "type": "function",
      "constant": true
    },
    {
      "inputs": [
        {
          "internalType": "address",
          "name": "account",
          "type": "address"
        }
      ],
      "name": "getClaimedProductsFromAccount",
      "outputs": [
        {
          "internalType": "uint64[]",
          "name": "",
          "type": "uint64[]"
        }
      ],
      "stateMutability": "view",
      "type": "function",
      "constant": true
    },
    {
      "inputs": [],
      "name": "getReviewTokens",
      "outputs": [
        {
          "internalType": "int64",
          "name": "",
          "type": "int64"
        }
      ],
      "stateMutability": "view",
      "type": "function",
      "constant": true
    },
    {
      "inputs": [],
      "name": "getProfileTokens",
      "outputs": [
        {
          "internalType": "int64",
          "name": "",
          "type": "int64"
        }
      ],
      "stateMutability": "view",
      "type": "function",
      "constant": true
    },
    {
      "inputs": [
        {
          "internalType": "bytes",
          "name": "hash",
          "type": "bytes"
        }
      ],
      "name": "getReview",
      "outputs": [
        {
          "components": [
            {
              "internalType": "address",
              "name": "reviewer",
              "type": "address"
            },
            {
              "internalType": "int64",
              "name": "upvotes",
              "type": "int64"
            },
            {
              "internalType": "bool",
              "name": "_initialized",
              "type": "bool"
            }
          ],
          "internalType": "struct Derp.Review",
          "name": "",
          "type": "tuple"
        }
      ],
      "stateMutability": "view",
      "type": "function",
      "constant": true
    },
    {
      "inputs": [],
      "name": "getReviews",
      "outputs": [
        {
          "internalType": "bytes[]",
          "name": "",
          "type": "bytes[]"
        }
      ],
      "stateMutability": "view",
      "type": "function",
      "constant": true
    },
    {
      "inputs": [],
      "name": "getProfileItems",
      "outputs": [
        {
          "internalType": "bytes[]",
          "name": "",
          "type": "bytes[]"
        }
      ],
      "stateMutability": "view",
      "type": "function",
      "constant": true
    },
    {
      "inputs": [],
      "name": "getBuyableProfileItems",
      "outputs": [
        {
          "internalType": "bytes[]",
          "name": "",
          "type": "bytes[]"
        }
      ],
      "stateMutability": "view",
      "type": "function",
      "constant": true
    },
    {
      "inputs": [],
      "name": "getUserProfileItems",
      "outputs": [
        {
          "internalType": "bytes[]",
          "name": "",
          "type": "bytes[]"
        }
      ],
      "stateMutability": "view",
      "type": "function",
      "constant": true
    }
  ],
  "bytecode": "0x608060405234801561001057600080fd5b50336000806101000a81548173ffffffffffffffffffffffffffffffffffffffff021916908373ffffffffffffffffffffffffffffffffffffffff160217905550614149806100606000396000f3fe608060405234801561001057600080fd5b50600436106101a95760003560e01c806389d3f623116100f9578063c29b2f2011610097578063e904394c11610071578063e904394c14610474578063efea5e96146104a4578063f12eecf0146104c0578063fa95bbbf146104f0576101a9565b8063c29b2f2014610408578063c713ff3714610426578063ca8d8bda14610444576101a9565b8063ab95c8f3116100d3578063ab95c8f314610394578063ac144ee2146103b0578063b100488f146103cc578063b570da74146103ea576101a9565b806389d3f6231461033c57806396593c9e14610358578063a8566e4e14610376576101a9565b80635edda63b116101665780636c4abdb1116101405780636c4abdb1146102b45780636caaca10146102e45780636d1febb1146102ee5780637c89f5b31461031e576101a9565b80635edda63b1461025a57806367297c271461027857806368cf232d14610296576101a9565b80630bfa59c2146101ae5780631b1e1324146101cc578063318a4003146101ea578063396c622614610206578063429c4c211461022257806351ef46611461023e575b600080fd5b6101b661050e565b6040516101c39190612e35565b60405180910390f35b6101d4610513565b6040516101e19190612fa2565b60405180910390f35b61020460048036038101906101ff919061306c565b610629565b005b610220600480360381019061021b91906130cc565b610744565b005b61023c60048036038101906102379190613159565b610a64565b005b6102586004803603810190610253919061323a565b610b78565b005b610262610fa8565b60405161026f9190612e35565b60405180910390f35b610280610fad565b60405161028d9190612fa2565b60405180910390f35b61029e6110c3565b6040516102ab9190612e35565b60405180910390f35b6102ce60048036038101906102c991906130cc565b6110c8565b6040516102db91906132b5565b60405180910390f35b6102ec611103565b005b610308600480360381019061030391906132d0565b61113c565b60405161031591906132b5565b60405180910390f35b610326611717565b604051610333919061333f565b60405180910390f35b610356600480360381019061035191906130cc565b61176b565b005b61036061195d565b60405161036d919061333f565b60405180910390f35b61037e6119b1565b60405161038b9190612fa2565b60405180910390f35b6103ae60048036038101906103a9919061335a565b611a8a565b005b6103ca60048036038101906103c5919061339a565b611e6c565b005b6103d46120f9565b6040516103e19190612e35565b60405180910390f35b6103f26120fe565b6040516103ff91906134a5565b60405180910390f35b6104106123ac565b60405161041d91906134a5565b60405180910390f35b61042e612438565b60405161043b9190612fa2565b60405180910390f35b61045e600480360381019061045991906130cc565b61254e565b60405161046b9190613536565b60405180910390f35b61048e60048036038101906104899190613159565b612617565b60405161049b9190613614565b60405180910390f35b6104be60048036038101906104b99190613159565b6127c3565b005b6104da60048036038101906104d59190613636565b612a32565b6040516104e791906134a5565b60405180910390f35b6104f8612ce2565b6040516105059190612e35565b60405180910390f35b600a81565b6060600660003373ffffffffffffffffffffffffffffffffffffffff1673ffffffffffffffffffffffffffffffffffffffff168152602001908152602001600020805480602002602001604051908101604052809291908181526020016000905b8282101561062057838290600052602060002001805461059390613692565b80601f01602080910402602001604051908101604052809291908181526020018280546105bf90613692565b801561060c5780601f106105e15761010080835404028352916020019161060c565b820191906000526020600020905b8154815290600101906020018083116105ef57829003601f168201915b505050505081526020019060010190610574565b50505050905090565b60008054906101000a900473ffffffffffffffffffffffffffffffffffffffff1673ffffffffffffffffffffffffffffffffffffffff163373ffffffffffffffffffffffffffffffffffffffff16146106b7576040517f08c379a00000000000000000000000000000000000000000000000000000000081526004016106ae90613720565b60405180910390fd5b60088383909180600181540180825580915050600190039060005260206000200160009091929091929091929091925091826106f4929190613930565b508060098484604051610708929190613a3f565b908152602001604051809103902060006101000a81548167ffffffffffffffff021916908360070b67ffffffffffffffff160217905550505050565b600060058383604051610758929190613a3f565b9081526020016040518091039020905080600001601c9054906101000a900460ff166107b9576040517f08c379a00000000000000000000000000000000000000000000000000000000081526004016107b090613aa4565b60405180910390fd5b600260000b600160003373ffffffffffffffffffffffffffffffffffffffff1673ffffffffffffffffffffffffffffffffffffffff16815260200190815260200160002060009054906101000a900460070b60070b121561084f576040517f08c379a000000000000000000000000000000000000000000000000000000000815260040161084690613b10565b60405180910390fd5b3373ffffffffffffffffffffffffffffffffffffffff168160000160009054906101000a900473ffffffffffffffffffffffffffffffffffffffff1673ffffffffffffffffffffffffffffffffffffffff16036108e1576040517f08c379a00000000000000000000000000000000000000000000000000000000081526004016108d890613b7c565b60405180910390fd5b600260000b600160003373ffffffffffffffffffffffffffffffffffffffff1673ffffffffffffffffffffffffffffffffffffffff16815260200190815260200160002060008282829054906101000a900460070b6109409190613bcb565b92506101000a81548167ffffffffffffffff021916908360070b67ffffffffffffffff16021790555060018160000160148282829054906101000a900460070b61098a9190613c2b565b92506101000a81548167ffffffffffffffff021916908360070b67ffffffffffffffff160217905550600160000b600260008360000160009054906101000a900473ffffffffffffffffffffffffffffffffffffffff1673ffffffffffffffffffffffffffffffffffffffff1673ffffffffffffffffffffffffffffffffffffffff16815260200190815260200160002060008282829054906101000a900460070b610a369190613c2b565b92506101000a81548167ffffffffffffffff021916908360070b67ffffffffffffffff160217905550505050565b60006002811115610a7857610a77613c8b565b5b600760003373ffffffffffffffffffffffffffffffffffffffff1673ffffffffffffffffffffffffffffffffffffffff16815260200190815260200160002060008367ffffffffffffffff1667ffffffffffffffff16815260200190815260200160002060009054906101000a900460ff166002811115610afc57610afb613c8b565b5b14610b3c576040517f08c379a0000000000000000000000000000000000000000000000000000000008152600401610b3390613d06565b60405180910390fd5b7f1382a4dd1f1609a0cd69ab74da10dc4ddfc5c47b6bc64440e3841c86207556473382604051610b6d929190613d44565b60405180910390a150565b60008054906101000a900473ffffffffffffffffffffffffffffffffffffffff1673ffffffffffffffffffffffffffffffffffffffff163373ffffffffffffffffffffffffffffffffffffffff1614610c06576040517f08c379a0000000000000000000000000000000000000000000000000000000008152600401610bfd90613720565b60405180910390fd5b60005b82829050811015610fa2576000838383818110610c2957610c28613d6d565b5b9050602002016020810190610c3e9190613159565b9050600360008267ffffffffffffffff1667ffffffffffffffff16815260200190815260200160002060010160009054906101000a900460ff16610da65760006040518060400160405280600067ffffffffffffffff811115610ca457610ca361374b565b5b604051908082528060200260200182016040528015610cd757816020015b6060815260200190600190039081610cc25790505b50815260200160011515815250905060048290806001815401808255809150506001900390600052602060002090600491828204019190066008029091909190916101000a81548167ffffffffffffffff021916908367ffffffffffffffff16021790555080600360008467ffffffffffffffff1667ffffffffffffffff1681526020019081526020016000206000820151816000019080519060200190610d80929190612ce7565b5060208201518160010160006101000a81548160ff021916908315150217905550905050505b60006002811115610dba57610db9613c8b565b5b600760008773ffffffffffffffffffffffffffffffffffffffff1673ffffffffffffffffffffffffffffffffffffffff16815260200190815260200160002060008367ffffffffffffffff1667ffffffffffffffff16815260200190815260200160002060009054906101000a900460ff166002811115610e3e57610e3d613c8b565b5b03610f90576001600760008773ffffffffffffffffffffffffffffffffffffffff1673ffffffffffffffffffffffffffffffffffffffff16815260200190815260200160002060008367ffffffffffffffff1667ffffffffffffffff16815260200190815260200160002060006101000a81548160ff02191690836002811115610ecb57610eca613c8b565b5b0217905550600a60000b600160008773ffffffffffffffffffffffffffffffffffffffff1673ffffffffffffffffffffffffffffffffffffffff16815260200190815260200160002060008282829054906101000a900460070b610f2f9190613c2b565b92506101000a81548167ffffffffffffffff021916908360070b67ffffffffffffffff1602179055507f50f0ac35fb060ec2eb1b1051209ac69e7caa16f70e8fb9f469fa3befdd5cb8ca85604051610f879190613d9c565b60405180910390a15b5080610f9b90613db7565b9050610c09565b50505050565b600281565b6060600a60003373ffffffffffffffffffffffffffffffffffffffff1673ffffffffffffffffffffffffffffffffffffffff168152602001908152602001600020805480602002602001604051908101604052809291908181526020016000905b828210156110ba57838290600052602060002001805461102d90613692565b80601f016020809104026020016040519081016040528092919081815260200182805461105990613692565b80156110a65780601f1061107b576101008083540402835291602001916110a6565b820191906000526020600020905b81548152906001019060200180831161108957829003601f168201915b50505050508152602001906001019061100e565b50505050905090565b600281565b6000600583836040516110dc929190613a3f565b9081526020016040518091039020600001601c9054906101000a900460ff16905092915050565b7fafe0d4e783559eddc1189e4f3ec5fb8c740c1585d164c301b9cb502984dd03cf336040516111329190613d9c565b60405180910390a1565b6000600260000b600160003373ffffffffffffffffffffffffffffffffffffffff1673ffffffffffffffffffffffffffffffffffffffff16815260200190815260200160002060009054906101000a900460070b60070b12156111d4576040517f08c379a00000000000000000000000000000000000000000000000000000000081526004016111cb90613e4b565b60405180910390fd5b600583836040516111e6929190613a3f565b9081526020016040518091039020600001601c9054906101000a900460ff1615611245576040517f08c379a000000000000000000000000000000000000000000000000000000000815260040161123c90613eb7565b60405180910390fd5b6001600281111561125957611258613c8b565b5b600760003373ffffffffffffffffffffffffffffffffffffffff1673ffffffffffffffffffffffffffffffffffffffff16815260200190815260200160002060008667ffffffffffffffff1667ffffffffffffffff16815260200190815260200160002060009054906101000a900460ff1660028111156112dd576112dc613c8b565b5b1461131d576040517f08c379a000000000000000000000000000000000000000000000000000000000815260040161131490613f49565b60405180910390fd5b600360008567ffffffffffffffff1667ffffffffffffffff16815260200190815260200160002060010160009054906101000a900460ff16611394576040517f08c379a000000000000000000000000000000000000000000000000000000000815260040161138b90613fb5565b60405180910390fd5b600060405180606001604052803373ffffffffffffffffffffffffffffffffffffffff168152602001600160070b8152602001600115158152509050600660003373ffffffffffffffffffffffffffffffffffffffff1673ffffffffffffffffffffffffffffffffffffffff16815260200190815260200160002084849091806001815401808255809150506001900390600052602060002001600090919290919290919290919250918261144a929190613930565b50806005858560405161145e929190613a3f565b908152602001604051809103902060008201518160000160006101000a81548173ffffffffffffffffffffffffffffffffffffffff021916908373ffffffffffffffffffffffffffffffffffffffff16021790555060208201518160000160146101000a81548167ffffffffffffffff021916908360070b67ffffffffffffffff160217905550604082015181600001601c6101000a81548160ff021916908315150217905550905050600360008667ffffffffffffffff1667ffffffffffffffff16815260200190815260200160002060000184849091806001815401808255809150506001900390600052602060002001600090919290919290919290919250918261156d929190613930565b50600260000b600160003373ffffffffffffffffffffffffffffffffffffffff1673ffffffffffffffffffffffffffffffffffffffff16815260200190815260200160002060008282829054906101000a900460070b6115cd9190613bcb565b92506101000a81548167ffffffffffffffff021916908360070b67ffffffffffffffff160217905550600160000b600260003373ffffffffffffffffffffffffffffffffffffffff1673ffffffffffffffffffffffffffffffffffffffff16815260200190815260200160002060008282829054906101000a900460070b6116559190613c2b565b92506101000a81548167ffffffffffffffff021916908360070b67ffffffffffffffff1602179055506002600760003373ffffffffffffffffffffffffffffffffffffffff1673ffffffffffffffffffffffffffffffffffffffff16815260200190815260200160002060008767ffffffffffffffff1667ffffffffffffffff16815260200190815260200160002060006101000a81548160ff0219169083600281111561170657611705613c8b565b5b021790555060019150509392505050565b6000600260003373ffffffffffffffffffffffffffffffffffffffff1673ffffffffffffffffffffffffffffffffffffffff16815260200190815260200160002060009054906101000a900460070b905090565b6009828260405161177d929190613a3f565b908152602001604051809103902060009054906101000a900460070b60070b600260003373ffffffffffffffffffffffffffffffffffffffff1673ffffffffffffffffffffffffffffffffffffffff16815260200190815260200160002060009054906101000a900460070b60070b121561182d576040517f08c379a000000000000000000000000000000000000000000000000000000000815260040161182490613e4b565b60405180910390fd5b6009828260405161183f929190613a3f565b908152602001604051809103902060009054906101000a900460070b600260003373ffffffffffffffffffffffffffffffffffffffff1673ffffffffffffffffffffffffffffffffffffffff16815260200190815260200160002060008282829054906101000a900460070b6118b59190613bcb565b92506101000a81548167ffffffffffffffff021916908360070b67ffffffffffffffff160217905550600a60003373ffffffffffffffffffffffffffffffffffffffff1673ffffffffffffffffffffffffffffffffffffffff168152602001908152602001600020828290918060018154018082558091505060019003906000526020600020016000909192909192909192909192509182611958929190613930565b505050565b6000600160003373ffffffffffffffffffffffffffffffffffffffff1673ffffffffffffffffffffffffffffffffffffffff16815260200190815260200160002060009054906101000a900460070b905090565b60606008805480602002602001604051908101604052809291908181526020016000905b82821015611a815783829060005260206000200180546119f490613692565b80601f0160208091040260200160405190810160405280929190818152602001828054611a2090613692565b8015611a6d5780601f10611a4257610100808354040283529160200191611a6d565b820191906000526020600020905b815481529060010190602001808311611a5057829003601f168201915b5050505050815260200190600101906119d5565b50505050905090565b60008054906101000a900473ffffffffffffffffffffffffffffffffffffffff1673ffffffffffffffffffffffffffffffffffffffff163373ffffffffffffffffffffffffffffffffffffffff1614611b18576040517f08c379a0000000000000000000000000000000000000000000000000000000008152600401611b0f90613720565b60405180910390fd5b600360008267ffffffffffffffff1667ffffffffffffffff16815260200190815260200160002060010160009054906101000a900460ff16611c7e5760006040518060400160405280600067ffffffffffffffff811115611b7c57611b7b61374b565b5b604051908082528060200260200182016040528015611baf57816020015b6060815260200190600190039081611b9a5790505b50815260200160011515815250905060048290806001815401808255809150506001900390600052602060002090600491828204019190066008029091909190916101000a81548167ffffffffffffffff021916908367ffffffffffffffff16021790555080600360008467ffffffffffffffff1667ffffffffffffffff1681526020019081526020016000206000820151816000019080519060200190611c58929190612ce7565b5060208201518160010160006101000a81548160ff021916908315150217905550905050505b60006002811115611c9257611c91613c8b565b5b600760008473ffffffffffffffffffffffffffffffffffffffff1673ffffffffffffffffffffffffffffffffffffffff16815260200190815260200160002060008367ffffffffffffffff1667ffffffffffffffff16815260200190815260200160002060009054906101000a900460ff166002811115611d1657611d15613c8b565b5b03611e68576001600760008473ffffffffffffffffffffffffffffffffffffffff1673ffffffffffffffffffffffffffffffffffffffff16815260200190815260200160002060008367ffffffffffffffff1667ffffffffffffffff16815260200190815260200160002060006101000a81548160ff02191690836002811115611da357611da2613c8b565b5b0217905550600a60000b600160008473ffffffffffffffffffffffffffffffffffffffff1673ffffffffffffffffffffffffffffffffffffffff16815260200190815260200160002060008282829054906101000a900460070b611e079190613c2b565b92506101000a81548167ffffffffffffffff021916908360070b67ffffffffffffffff1602179055507f50f0ac35fb060ec2eb1b1051209ac69e7caa16f70e8fb9f469fa3befdd5cb8ca82604051611e5f9190613d9c565b60405180910390a15b5050565b60008054906101000a900473ffffffffffffffffffffffffffffffffffffffff1673ffffffffffffffffffffffffffffffffffffffff163373ffffffffffffffffffffffffffffffffffffffff1614611efa576040517f08c379a0000000000000000000000000000000000000000000000000000000008152600401611ef190613720565b60405180910390fd5b60005b828290508110156120f45760006040518060400160405280600067ffffffffffffffff811115611f3057611f2f61374b565b5b604051908082528060200260200182016040528015611f6357816020015b6060815260200190600190039081611f4e5790505b50815260200160011515815250905060036000858585818110611f8957611f88613d6d565b5b9050602002016020810190611f9e9190613159565b67ffffffffffffffff1667ffffffffffffffff16815260200190815260200160002060010160009054906101000a900460ff166120e2576004848484818110611fea57611fe9613d6d565b5b9050602002016020810190611fff9190613159565b90806001815401808255809150506001900390600052602060002090600491828204019190066008029091909190916101000a81548167ffffffffffffffff021916908367ffffffffffffffff160217905550806003600086868681811061206a57612069613d6d565b5b905060200201602081019061207f9190613159565b67ffffffffffffffff1667ffffffffffffffff16815260200190815260200160002060008201518160000190805190602001906120bd929190612ce7565b5060208201518160010160006101000a81548160ff0219169083151502179055509050505b50806120ed90613db7565b9050611efd565b505050565b600181565b60606000805b60048054905081101561220f5760006004828154811061212757612126613d6d565b5b90600052602060002090600491828204019190066008029054906101000a900467ffffffffffffffff1690506001600281111561216757612166613c8b565b5b600760003373ffffffffffffffffffffffffffffffffffffffff1673ffffffffffffffffffffffffffffffffffffffff16815260200190815260200160002060008367ffffffffffffffff1667ffffffffffffffff16815260200190815260200160002060009054906101000a900460ff1660028111156121eb576121ea613c8b565b5b036121fd57826121fa90613db7565b92505b508061220890613db7565b9050612104565b5060008167ffffffffffffffff81111561222c5761222b61374b565b5b60405190808252806020026020018201604052801561225a5781602001602082028036833780820191505090505b5090506000805b6004805490508110156123a25760006004828154811061228457612283613d6d565b5b90600052602060002090600491828204019190066008029054906101000a900467ffffffffffffffff169050600160028111156122c4576122c3613c8b565b5b600760003373ffffffffffffffffffffffffffffffffffffffff1673ffffffffffffffffffffffffffffffffffffffff16815260200190815260200160002060008367ffffffffffffffff1667ffffffffffffffff16815260200190815260200160002060009054906101000a900460ff16600281111561234857612347613c8b565b5b03612390578084848151811061236157612360613d6d565b5b602002602001019067ffffffffffffffff16908167ffffffffffffffff16815250508261238d90613db7565b92505b508061239b90613db7565b9050612261565b5081935050505090565b6060600480548060200260200160405190810160405280929190818152602001828054801561242e57602002820191906000526020600020906000905b82829054906101000a900467ffffffffffffffff1667ffffffffffffffff16815260200190600801906020826007010492830192600103820291508084116123e95790505b5050505050905090565b6060600a60003373ffffffffffffffffffffffffffffffffffffffff1673ffffffffffffffffffffffffffffffffffffffff168152602001908152602001600020805480602002602001604051908101604052809291908181526020016000905b828210156125455783829060005260206000200180546124b890613692565b80601f01602080910402602001604051908101604052809291908181526020018280546124e490613692565b80156125315780601f1061250657610100808354040283529160200191612531565b820191906000526020600020905b81548152906001019060200180831161251457829003601f168201915b505050505081526020019060010190612499565b50505050905090565b612556612d40565b60058383604051612568929190613a3f565b90815260200160405180910390206040518060600160405290816000820160009054906101000a900473ffffffffffffffffffffffffffffffffffffffff1673ffffffffffffffffffffffffffffffffffffffff1673ffffffffffffffffffffffffffffffffffffffff1681526020016000820160149054906101000a900460070b60070b60070b815260200160008201601c9054906101000a900460ff161515151581525050905092915050565b61261f612d7c565b600360008367ffffffffffffffff1667ffffffffffffffff16815260200190815260200160002060010160009054906101000a900460ff16612696576040517f08c379a000000000000000000000000000000000000000000000000000000000815260040161268d90613fb5565b60405180910390fd5b600360008367ffffffffffffffff1667ffffffffffffffff16815260200190815260200160002060405180604001604052908160008201805480602002602001604051908101604052809291908181526020016000905b8282101561279957838290600052602060002001805461270c90613692565b80601f016020809104026020016040519081016040528092919081815260200182805461273890613692565b80156127855780601f1061275a57610100808354040283529160200191612785565b820191906000526020600020905b81548152906001019060200180831161276857829003601f168201915b5050505050815260200190600101906126ed565b5050505081526020016001820160009054906101000a900460ff1615151515815250509050919050565b60008054906101000a900473ffffffffffffffffffffffffffffffffffffffff1673ffffffffffffffffffffffffffffffffffffffff163373ffffffffffffffffffffffffffffffffffffffff1614612851576040517f08c379a000000000000000000000000000000000000000000000000000000000815260040161284890613720565b60405180910390fd5b600360008267ffffffffffffffff1667ffffffffffffffff16815260200190815260200160002060010160009054906101000a900460ff16156128c9576040517f08c379a00000000000000000000000000000000000000000000000000000000081526004016128c090614021565b60405180910390fd5b60006040518060400160405280600067ffffffffffffffff8111156128f1576128f061374b565b5b60405190808252806020026020018201604052801561292457816020015b606081526020019060019003908161290f5790505b508152602001600115158152509050600360008367ffffffffffffffff1667ffffffffffffffff16815260200190815260200160002060010160009054906101000a900460ff16612a2e5760048290806001815401808255809150506001900390600052602060002090600491828204019190066008029091909190916101000a81548167ffffffffffffffff021916908367ffffffffffffffff16021790555080600360008467ffffffffffffffff1667ffffffffffffffff1681526020019081526020016000206000820151816000019080519060200190612a09929190612ce7565b5060208201518160010160006101000a81548160ff0219169083151502179055509050505b5050565b60606000805b600480549050811015612b4357600060048281548110612a5b57612a5a613d6d565b5b90600052602060002090600491828204019190066008029054906101000a900467ffffffffffffffff16905060016002811115612a9b57612a9a613c8b565b5b600760008773ffffffffffffffffffffffffffffffffffffffff1673ffffffffffffffffffffffffffffffffffffffff16815260200190815260200160002060008367ffffffffffffffff1667ffffffffffffffff16815260200190815260200160002060009054906101000a900460ff166002811115612b1f57612b1e613c8b565b5b03612b315782612b2e90613db7565b92505b5080612b3c90613db7565b9050612a38565b5060008167ffffffffffffffff811115612b6057612b5f61374b565b5b604051908082528060200260200182016040528015612b8e5781602001602082028036833780820191505090505b5090506000805b600480549050811015612cd657600060048281548110612bb857612bb7613d6d565b5b90600052602060002090600491828204019190066008029054906101000a900467ffffffffffffffff16905060016002811115612bf857612bf7613c8b565b5b600760008973ffffffffffffffffffffffffffffffffffffffff1673ffffffffffffffffffffffffffffffffffffffff16815260200190815260200160002060008367ffffffffffffffff1667ffffffffffffffff16815260200190815260200160002060009054906101000a900460ff166002811115612c7c57612c7b613c8b565b5b03612cc45780848481518110612c9557612c94613d6d565b5b602002602001019067ffffffffffffffff16908167ffffffffffffffff168152505082612cc190613db7565b92505b5080612ccf90613db7565b9050612b95565b50819350505050919050565b600181565b828054828255906000526020600020908101928215612d2f579160200282015b82811115612d2e578251829081612d1e9190614041565b5091602001919060010190612d07565b5b509050612d3c9190612d98565b5090565b6040518060600160405280600073ffffffffffffffffffffffffffffffffffffffff168152602001600060070b81526020016000151581525090565b6040518060400160405280606081526020016000151581525090565b5b80821115612db85760008181612daf9190612dbc565b50600101612d99565b5090565b508054612dc890613692565b6000825580601f10612dda5750612df9565b601f016020900490600052602060002090810190612df89190612dfc565b5b50565b5b80821115612e15576000816000905550600101612dfd565b5090565b60008160000b9050919050565b612e2f81612e19565b82525050565b6000602082019050612e4a6000830184612e26565b92915050565b600081519050919050565b600082825260208201905092915050565b6000819050602082019050919050565b600081519050919050565b600082825260208201905092915050565b60005b83811015612eb6578082015181840152602081019050612e9b565b60008484015250505050565b6000601f19601f8301169050919050565b6000612ede82612e7c565b612ee88185612e87565b9350612ef8818560208601612e98565b612f0181612ec2565b840191505092915050565b6000612f188383612ed3565b905092915050565b6000602082019050919050565b6000612f3882612e50565b612f428185612e5b565b935083602082028501612f5485612e6c565b8060005b85811015612f905784840389528151612f718582612f0c565b9450612f7c83612f20565b925060208a01995050600181019050612f58565b50829750879550505050505092915050565b60006020820190508181036000830152612fbc8184612f2d565b905092915050565b600080fd5b600080fd5b600080fd5b600080fd5b600080fd5b60008083601f840112612ff357612ff2612fce565b5b8235905067ffffffffffffffff8111156130105761300f612fd3565b5b60208301915083600182028301111561302c5761302b612fd8565b5b9250929050565b60008160070b9050919050565b61304981613033565b811461305457600080fd5b50565b60008135905061306681613040565b92915050565b60008060006040848603121561308557613084612fc4565b5b600084013567ffffffffffffffff8111156130a3576130a2612fc9565b5b6130af86828701612fdd565b935093505060206130c286828701613057565b9150509250925092565b600080602083850312156130e3576130e2612fc4565b5b600083013567ffffffffffffffff81111561310157613100612fc9565b5b61310d85828601612fdd565b92509250509250929050565b600067ffffffffffffffff82169050919050565b61313681613119565b811461314157600080fd5b50565b6000813590506131538161312d565b92915050565b60006020828403121561316f5761316e612fc4565b5b600061317d84828501613144565b91505092915050565b600073ffffffffffffffffffffffffffffffffffffffff82169050919050565b60006131b182613186565b9050919050565b6131c1816131a6565b81146131cc57600080fd5b50565b6000813590506131de816131b8565b92915050565b60008083601f8401126131fa576131f9612fce565b5b8235905067ffffffffffffffff81111561321757613216612fd3565b5b60208301915083602082028301111561323357613232612fd8565b5b9250929050565b60008060006040848603121561325357613252612fc4565b5b6000613261868287016131cf565b935050602084013567ffffffffffffffff81111561328257613281612fc9565b5b61328e868287016131e4565b92509250509250925092565b60008115159050919050565b6132af8161329a565b82525050565b60006020820190506132ca60008301846132a6565b92915050565b6000806000604084860312156132e9576132e8612fc4565b5b60006132f786828701613144565b935050602084013567ffffffffffffffff81111561331857613317612fc9565b5b61332486828701612fdd565b92509250509250925092565b61333981613033565b82525050565b60006020820190506133546000830184613330565b92915050565b6000806040838503121561337157613370612fc4565b5b600061337f858286016131cf565b925050602061339085828601613144565b9150509250929050565b600080602083850312156133b1576133b0612fc4565b5b600083013567ffffffffffffffff8111156133cf576133ce612fc9565b5b6133db858286016131e4565b92509250509250929050565b600081519050919050565b600082825260208201905092915050565b6000819050602082019050919050565b61341c81613119565b82525050565b600061342e8383613413565b60208301905092915050565b6000602082019050919050565b6000613452826133e7565b61345c81856133f2565b935061346783613403565b8060005b8381101561349857815161347f8882613422565b975061348a8361343a565b92505060018101905061346b565b5085935050505092915050565b600060208201905081810360008301526134bf8184613447565b905092915050565b6134d0816131a6565b82525050565b6134df81613033565b82525050565b6134ee8161329a565b82525050565b60608201600082015161350a60008501826134c7565b50602082015161351d60208501826134d6565b50604082015161353060408501826134e5565b50505050565b600060608201905061354b60008301846134f4565b92915050565b600082825260208201905092915050565b600061356d82612e50565b6135778185613551565b93508360208202850161358985612e6c565b8060005b858110156135c557848403895281516135a68582612f0c565b94506135b183612f20565b925060208a0199505060018101905061358d565b50829750879550505050505092915050565b600060408301600083015184820360008601526135f48282613562565b915050602083015161360960208601826134e5565b508091505092915050565b6000602082019050818103600083015261362e81846135d7565b905092915050565b60006020828403121561364c5761364b612fc4565b5b600061365a848285016131cf565b91505092915050565b7f4e487b7100000000000000000000000000000000000000000000000000000000600052602260045260246000fd5b600060028204905060018216806136aa57607f821691505b6020821081036136bd576136bc613663565b5b50919050565b600082825260208201905092915050565b7f596f7520617265206e6f7420746865206f776e65722100000000000000000000600082015250565b600061370a6016836136c3565b9150613715826136d4565b602082019050919050565b60006020820190508181036000830152613739816136fd565b9050919050565b600082905092915050565b7f4e487b7100000000000000000000000000000000000000000000000000000000600052604160045260246000fd5b60008190508160005260206000209050919050565b60006020601f8301049050919050565b600082821b905092915050565b6000600883026137dc7fffffffffffffffffffffffffffffffffffffffffffffffffffffffffffffffff8261379f565b6137e6868361379f565b95508019841693508086168417925050509392505050565b6000819050919050565b6000819050919050565b600061382d613828613823846137fe565b613808565b6137fe565b9050919050565b6000819050919050565b61384783613812565b61385b61385382613834565b8484546137ac565b825550505050565b600090565b613870613863565b61387b81848461383e565b505050565b5b8181101561389f57613894600082613868565b600181019050613881565b5050565b601f8211156138e4576138b58161377a565b6138be8461378f565b810160208510156138cd578190505b6138e16138d98561378f565b830182613880565b50505b505050565b600082821c905092915050565b6000613907600019846008026138e9565b1980831691505092915050565b600061392083836138f6565b9150826002028217905092915050565b61393a8383613740565b67ffffffffffffffff8111156139535761395261374b565b5b61395d8254613692565b6139688282856138a3565b6000601f8311600181146139975760008415613985578287013590505b61398f8582613914565b8655506139f7565b601f1984166139a58661377a565b60005b828110156139cd578489013582556001820191506020850194506020810190506139a8565b868310156139ea57848901356139e6601f8916826138f6565b8355505b6001600288020188555050505b50505050505050565b600081905092915050565b82818337600083830152505050565b6000613a268385613a00565b9350613a33838584613a0b565b82840190509392505050565b6000613a4c828486613a1a565b91508190509392505050565b7f52657669657720646f65736e2774206578697374000000000000000000000000600082015250565b6000613a8e6014836136c3565b9150613a9982613a58565b602082019050919050565b60006020820190508181036000830152613abd81613a81565b9050919050565b7f4e6f7420656e6f7567682072657669657720746f6b656e730000000000000000600082015250565b6000613afa6018836136c3565b9150613b0582613ac4565b602082019050919050565b60006020820190508181036000830152613b2981613aed565b9050919050565b7f43616e2774207570766f74652069742773206f776e2072657669657700000000600082015250565b6000613b66601c836136c3565b9150613b7182613b30565b602082019050919050565b60006020820190508181036000830152613b9581613b59565b9050919050565b7f4e487b7100000000000000000000000000000000000000000000000000000000600052601160045260246000fd5b6000613bd682613033565b9150613be183613033565b92508282039050677fffffffffffffff81137fffffffffffffffffffffffffffffffffffffffffffffffff800000000000000082121715613c2557613c24613b9c565b5b92915050565b6000613c3682613033565b9150613c4183613033565b925082820190507fffffffffffffffffffffffffffffffffffffffffffffffff80000000000000008112677fffffffffffffff82131715613c8557613c84613b9c565b5b92915050565b7f4e487b7100000000000000000000000000000000000000000000000000000000600052602160045260246000fd5b7f50726f6475637420616c726561647920636c61696d6564000000000000000000600082015250565b6000613cf06017836136c3565b9150613cfb82613cba565b602082019050919050565b60006020820190508181036000830152613d1f81613ce3565b9050919050565b613d2f816131a6565b82525050565b613d3e81613119565b82525050565b6000604082019050613d596000830185613d26565b613d666020830184613d35565b9392505050565b7f4e487b7100000000000000000000000000000000000000000000000000000000600052603260045260246000fd5b6000602082019050613db16000830184613d26565b92915050565b6000613dc2826137fe565b91507fffffffffffffffffffffffffffffffffffffffffffffffffffffffffffffffff8203613df457613df3613b9c565b5b600182019050919050565b7f4e6f7420656e6f75676820746f6b656e73000000000000000000000000000000600082015250565b6000613e356011836136c3565b9150613e4082613dff565b602082019050919050565b60006020820190508181036000830152613e6481613e28565b9050919050565b7f52657669657720616c7265616479206578697374730000000000000000000000600082015250565b6000613ea16015836136c3565b9150613eac82613e6b565b602082019050919050565b60006020820190508181036000830152613ed081613e94565b9050919050565b7f50726f64756374206e6f7420636c61696d6564206f7220616c7265616479207260008201527f6576696577656400000000000000000000000000000000000000000000000000602082015250565b6000613f336027836136c3565b9150613f3e82613ed7565b604082019050919050565b60006020820190508181036000830152613f6281613f26565b9050919050565b7f50726f6475637420646f65736e27742065786973740000000000000000000000600082015250565b6000613f9f6015836136c3565b9150613faa82613f69565b602082019050919050565b60006020820190508181036000830152613fce81613f92565b9050919050565b7f50726f6475637420616c72656164792065786973747300000000000000000000600082015250565b600061400b6016836136c3565b915061401682613fd5565b602082019050919050565b6000602082019050818103600083015261403a81613ffe565b9050919050565b61404a82612e7c565b67ffffffffffffffff8111156140635761406261374b565b5b61406d8254613692565b6140788282856138a3565b600060209050601f8311600181146140ab5760008415614099578287015190505b6140a38582613914565b86555061410b565b601f1984166140b98661377a565b60005b828110156140e1578489015182556001820191506020850194506020810190506140bc565b868310156140fe57848901516140fa601f8916826138f6565b8355505b6001600288020188555050505b50505050505056fea2646970667358221220b02cebf7cde99b6ba6ed0f9a4f529646f28469ee4a2ca5568f1333383889427164736f6c63430008110033",
  "immutableReferences": {},
  "source": "// SPDX-License-Identifier: GPL-v3\n\npragma solidity >=0.7.0 <0.9;\n\ncontract Derp {\n    // \"Unclaimed\" is the default state for a product. When an user buys it and\n    // they request its review tokens then the product becomes Claimed.\n    // After making a review the product becomes Reviewed.\n    enum ProductState {\n        UNCLAIMED,\n        CLAIMED,\n        REVIEWED\n    }\n\n    // The product for which an user wants to make a review.\n    // This is indexed as a combination of the store ID and the product ID\n    // local to that store.\n    //\n    // Example:\n    //    store ID = 1,\n    //    local product ID = 1,\n    //    product ID = 0x100000001\n    struct Product {\n        bytes[] reviewHashes;\n        bool _initialized;\n    }\n\n    // A review made by a reviewer.\n    // The text of the review is stored on IPFS.\n    struct Review {\n        address reviewer;\n        int64 upvotes;\n        bool _initialized;\n    }\n\n    // The deployer of the contract.\n    // Used to check the authenticity of the reviews.\n    address private owner;\n\n    // The NFTs that allow the user to make reviews on the site and upvote other\n    // reviews.\n    mapping(address => int64) private reviewTokens;\n\n    // Mapping for the profile NFTs used on the website.\n    mapping(address => int64) private profileTokens;\n\n    // Mapping from the uint64 product ID to the stored products.\n    mapping(uint64 => Product) private products;\n\n    // Array used to retrieve all the products stored on-chain.\n    uint64[] private registeredProducts;\n\n    // Mapping from the IPFS' Content Identifier of the review to the actual\n    // review.\n    mapping(bytes => Review) private reviews;\n\n    // Mapping used for retrieving the IPFS' CIDs of the reviews made by an\n    // address.\n    mapping(address => bytes[]) private reviewsFromAddress;\n\n    // Mapping of the products actually claimed by an user.\n    // Used to store on-chain the validity of the reviews.\n    mapping(address => mapping(uint64 => ProductState)) private productsClaimed;\n\n    //Array used to retrieve all the profile items stored on-chain\n    //that can be bought with user tokens\n    //This could be expanded in the future with a struct\n    bytes[] private profileItems;\n\n    //Mapping with the price of profile items\n    mapping(bytes => int64) private profileItemPrices;\n\n    //Mapping with a list of item profile purchased by a user\n    mapping(address => bytes[]) private userProfileItems;\n\n    // Events emitted when an user wants to know if some review tokens can be\n    // obtained.\n    //\n    // ReviewTokensGranted is emitted when the response is affirmative.\n    event AllReviewTokensRequested(address account);\n    event ReviewTokenRequested(address account, uint64 product);\n    event ReviewTokensGranted(address account);\n\n    // Constants used by the contract\n\n    int8 public constant REVIEW_COST = 2;\n    int8 public constant REVIEW_REWARD = 1;\n    int8 public constant UPVOTE_COST = 2;\n    int8 public constant UPVOTE_REWARD = 1;\n    int8 public constant PER_PURCHASE_TOKENS = 10;\n\n    modifier onlyOwner() {\n        require(msg.sender == owner, \"You are not the owner!\");\n        _;\n    }\n\n    constructor() {\n        owner = msg.sender;\n    }\n\n    function requestAllReviewTokens() external {\n        emit AllReviewTokensRequested(msg.sender);\n    }\n\n    function requestReviewToken(uint64 productId) external {\n        // Check if the product was already claimed.\n        require(\n            productsClaimed[msg.sender][productId] == ProductState.UNCLAIMED,\n            \"Product already claimed\"\n        );\n\n        emit ReviewTokenRequested(msg.sender, productId);\n    }\n\n    function rewardReviewToken(address account, uint64 productId)\n        external\n        onlyOwner\n    {\n        if (!products[productId]._initialized) {\n            Product memory p = Product({\n                _initialized: true,\n                reviewHashes: new bytes[](0)\n            });\n\n            registeredProducts.push(productId);\n            products[productId] = p;\n        }\n\n        if (productsClaimed[account][productId] == ProductState.UNCLAIMED) {\n            productsClaimed[account][productId] = ProductState.CLAIMED;\n            reviewTokens[account] += PER_PURCHASE_TOKENS;\n\n            emit ReviewTokensGranted(account);\n        }\n    }\n\n    function rewardReviewTokens(address account, uint64[] calldata productIds)\n        external\n        onlyOwner\n    {\n        for (uint256 i = 0; i < productIds.length; ++i) {\n            uint64 pId = productIds[i];\n            if (!products[pId]._initialized) {\n                Product memory p = Product({\n                    _initialized: true,\n                    reviewHashes: new bytes[](0)\n                });\n\n                registeredProducts.push(pId);\n                products[pId] = p;\n            }\n\n            if (productsClaimed[account][pId] == ProductState.UNCLAIMED) {\n                productsClaimed[account][pId] = ProductState.CLAIMED;\n                reviewTokens[account] += PER_PURCHASE_TOKENS;\n\n                emit ReviewTokensGranted(account);\n            }\n        }\n    }\n\n    // Reviewer is msg.sender\n    function makeReview(uint64 productId, bytes calldata reviewHash)\n        external\n        returns (bool)\n    {\n        require(reviewTokens[msg.sender] >= REVIEW_COST, \"Not enough tokens\");\n        require(!reviews[reviewHash]._initialized, \"Review already exists\");\n\n        // Stops the user from making reviews of products they have not claimed.\n        require(\n            productsClaimed[msg.sender][productId] == ProductState.CLAIMED,\n            \"Product not claimed or already reviewed\"\n        );\n\n        // Avoids creating a review for a product that doesn't exist.\n        require(products[productId]._initialized, \"Product doesn't exist\");\n\n        Review memory r = Review({\n            reviewer: msg.sender,\n            upvotes: 1,\n            _initialized: true\n        });\n\n        reviewsFromAddress[msg.sender].push(reviewHash);\n\n        reviews[reviewHash] = r;\n        products[productId].reviewHashes.push(reviewHash);\n\n        reviewTokens[msg.sender] -= REVIEW_COST;\n        profileTokens[msg.sender] += REVIEW_REWARD;\n\n        productsClaimed[msg.sender][productId] = ProductState.REVIEWED;\n\n        return true;\n    }\n\n    function upvoteReview(bytes calldata reviewHash) external {\n        Review storage review = reviews[reviewHash];\n        require(review._initialized, \"Review doesn't exist\");\n        require(\n            reviewTokens[msg.sender] >= UPVOTE_COST,\n            \"Not enough review tokens\"\n        );\n        require(review.reviewer != msg.sender, \"Can't upvote it's own review\");\n\n        reviewTokens[msg.sender] -= UPVOTE_COST;\n\n        review.upvotes += 1;\n\n        profileTokens[review.reviewer] += UPVOTE_REWARD;\n    }\n\n    function addProduct(uint64 productId) external onlyOwner {\n        require(!products[productId]._initialized, \"Product already exists\");\n\n        Product memory p = Product({\n            _initialized: true,\n            reviewHashes: new bytes[](0)\n        });\n\n        if (!products[productId]._initialized) {\n            registeredProducts.push(productId);\n            products[productId] = p;\n        }\n    }\n\n    function addProducts(uint64[] calldata productIds) external onlyOwner {\n        for (uint256 i = 0; i < productIds.length; ++i) {\n            Product memory p = Product({\n                _initialized: true,\n                reviewHashes: new bytes[](0)\n            });\n\n            if (!products[productIds[i]]._initialized) {\n                registeredProducts.push(productIds[i]);\n                products[productIds[i]] = p;\n            }\n        }\n    }\n\n    function buyProfileItem(bytes calldata itemHash) external {\n        require(\n            profileTokens[msg.sender] >= profileItemPrices[itemHash],\n            \"Not enough tokens\"\n        );\n\n        profileTokens[msg.sender] -= profileItemPrices[itemHash];\n        userProfileItems[msg.sender].push(itemHash);\n    }\n\n    // This function allows to register new NFTS for the profile\n    function addProfileItem(bytes calldata itemHash, int64 price)\n        external\n        onlyOwner\n    {\n        //itemHash is the hash of the css from ipfs\n        profileItems.push(itemHash);\n        //We also update the price in the mapping\n        profileItemPrices[itemHash] = price;\n    }\n\n    // Utility functions below\n    // You should only call these functions on your local node without\n    // spending gas.\n\n    function reviewExists(bytes calldata reviewHash)\n        public\n        view\n        returns (bool)\n    {\n        return reviews[reviewHash]._initialized;\n    }\n\n    function getProduct(uint64 productId) public view returns (Product memory) {\n        require(products[productId]._initialized, \"Product doesn't exist\");\n\n        return products[productId];\n    }\n\n    function getProducts() public view returns (uint64[] memory) {\n        return registeredProducts;\n    }\n\n    function getProductsToBeReviewed() public view returns (uint64[] memory) {\n        uint256 maxProducts = 0;\n        for (uint256 i = 0; i < registeredProducts.length; ++i) {\n            uint64 pId = registeredProducts[i];\n            if (productsClaimed[msg.sender][pId] == ProductState.CLAIMED) {\n                ++maxProducts;\n            }\n        }\n\n        uint64[] memory ret = new uint64[](maxProducts);\n        uint256 retIdx = 0;\n        for (uint256 i = 0; i < registeredProducts.length; ++i) {\n            uint64 pId = registeredProducts[i];\n            if (productsClaimed[msg.sender][pId] == ProductState.CLAIMED) {\n                ret[retIdx] = pId;\n                ++retIdx;\n            }\n        }\n\n        return ret;\n    }\n\n    function getClaimedProductsFromAccount(address account)\n        public\n        view\n        returns (uint64[] memory)\n    {\n        uint256 maxProducts = 0;\n        for (uint256 i = 0; i < registeredProducts.length; ++i) {\n            uint64 pId = registeredProducts[i];\n            if (productsClaimed[account][pId] == ProductState.CLAIMED) {\n                ++maxProducts;\n            }\n        }\n\n        uint64[] memory ret = new uint64[](maxProducts);\n        uint256 retIdx = 0;\n        for (uint256 i = 0; i < registeredProducts.length; ++i) {\n            uint64 pId = registeredProducts[i];\n            if (productsClaimed[account][pId] == ProductState.CLAIMED) {\n                ret[retIdx] = pId;\n                ++retIdx;\n            }\n        }\n\n        return ret;\n    }\n\n    function getReviewTokens() public view returns (int64) {\n        return reviewTokens[msg.sender];\n    }\n\n    function getProfileTokens() public view returns (int64) {\n        return profileTokens[msg.sender];\n    }\n\n    function getReview(bytes calldata hash)\n        public\n        view\n        returns (Review memory)\n    {\n        return reviews[hash];\n    }\n\n    function getReviews() public view returns (bytes[] memory) {\n        return reviewsFromAddress[msg.sender];\n    }\n\n    function getProfileItems() public view returns (bytes[] memory) {\n        return userProfileItems[msg.sender];\n    }\n\n    function getBuyableProfileItems() public view returns (bytes[] memory) {\n        return profileItems;\n    }\n\n    function getUserProfileItems() public view returns (bytes[] memory) {\n        return userProfileItems[msg.sender];\n    }\n}\n",
  "sourcePath": "/app/contracts/Derp.sol",
  "compiler": {
    "name": "solc",
    "version": "0.8.17+commit.8df45f5f.Emscripten.clang"
  },
  "schemaVersion": "3.4.11",
  "updatedAt": "2023-02-08T15:09:08.745Z",
  "networkType": "ethereum",
  "devdoc": {
    "kind": "dev",
    "methods": {},
    "version": 1
  },
  "userdoc": {
    "kind": "user",
    "methods": {},
    "version": 1
  }
}