{
  "contractName": "Derp",
  "abi": [
    {
      "inputs": [],
      "stateMutability": "nonpayable",
      "type": "constructor"
    },
    {
      "anonymous": false,
      "inputs": [
        {
          "indexed": false,
          "internalType": "address",
          "name": "account",
          "type": "address"
        }
      ],
      "name": "AllReviewTokensRequested",
      "type": "event"
    },
    {
      "anonymous": false,
      "inputs": [],
      "name": "ProductRefreshRequested",
      "type": "event"
    },
    {
      "anonymous": false,
      "inputs": [
        {
          "indexed": false,
          "internalType": "address",
          "name": "account",
          "type": "address"
        },
        {
          "indexed": false,
          "internalType": "uint64",
          "name": "product",
          "type": "uint64"
        }
      ],
      "name": "ReviewTokenRequested",
      "type": "event"
    },
    {
      "anonymous": false,
      "inputs": [
        {
          "indexed": false,
          "internalType": "address",
          "name": "account",
          "type": "address"
        }
      ],
      "name": "ReviewTokensGranted",
      "type": "event"
    },
    {
      "inputs": [],
      "name": "PER_PURCHASE_TOKENS",
      "outputs": [
        {
          "internalType": "int8",
          "name": "",
          "type": "int8"
        }
      ],
      "stateMutability": "view",
      "type": "function",
      "constant": true
    },
    {
      "inputs": [],
      "name": "REVIEW_COST",
      "outputs": [
        {
          "internalType": "int8",
          "name": "",
          "type": "int8"
        }
      ],
      "stateMutability": "view",
      "type": "function",
      "constant": true
    },
    {
      "inputs": [],
      "name": "REVIEW_REWARD",
      "outputs": [
        {
          "internalType": "int8",
          "name": "",
          "type": "int8"
        }
      ],
      "stateMutability": "view",
      "type": "function",
      "constant": true
    },
    {
      "inputs": [],
      "name": "UPVOTE_COST",
      "outputs": [
        {
          "internalType": "int8",
          "name": "",
          "type": "int8"
        }
      ],
      "stateMutability": "view",
      "type": "function",
      "constant": true
    },
    {
      "inputs": [],
      "name": "UPVOTE_REWARD",
      "outputs": [
        {
          "internalType": "int8",
          "name": "",
          "type": "int8"
        }
      ],
      "stateMutability": "view",
      "type": "function",
      "constant": true
    },
    {
      "inputs": [],
      "name": "requestAllReviewTokens",
      "outputs": [],
      "stateMutability": "nonpayable",
      "type": "function"
    },
    {
      "inputs": [
        {
          "internalType": "uint64",
          "name": "productId",
          "type": "uint64"
        }
      ],
      "name": "requestReviewToken",
      "outputs": [],
      "stateMutability": "nonpayable",
      "type": "function"
    },
    {
      "inputs": [
        {
          "internalType": "address",
          "name": "account",
          "type": "address"
        },
        {
          "internalType": "uint64",
          "name": "productId",
          "type": "uint64"
        }
      ],
      "name": "rewardReviewToken",
      "outputs": [],
      "stateMutability": "nonpayable",
      "type": "function"
    },
    {
      "inputs": [
        {
          "internalType": "address",
          "name": "account",
          "type": "address"
        },
        {
          "internalType": "uint64[]",
          "name": "productIds",
          "type": "uint64[]"
        }
      ],
      "name": "rewardReviewTokens",
      "outputs": [],
      "stateMutability": "nonpayable",
      "type": "function"
    },
    {
      "inputs": [
        {
          "internalType": "uint64",
          "name": "productId",
          "type": "uint64"
        },
        {
          "internalType": "bytes",
          "name": "reviewHash",
          "type": "bytes"
        }
      ],
      "name": "makeReview",
      "outputs": [
        {
          "internalType": "bool",
          "name": "",
          "type": "bool"
        }
      ],
      "stateMutability": "nonpayable",
      "type": "function"
    },
    {
      "inputs": [
        {
          "internalType": "bytes",
          "name": "reviewHash",
          "type": "bytes"
        }
      ],
      "name": "upvoteReview",
      "outputs": [],
      "stateMutability": "nonpayable",
      "type": "function"
    },
    {
      "inputs": [
        {
          "internalType": "uint64",
          "name": "productId",
          "type": "uint64"
        }
      ],
      "name": "addProduct",
      "outputs": [],
      "stateMutability": "nonpayable",
      "type": "function"
    },
    {
      "inputs": [
        {
          "internalType": "uint64[]",
          "name": "productIds",
          "type": "uint64[]"
        }
      ],
      "name": "addProducts",
      "outputs": [],
      "stateMutability": "nonpayable",
      "type": "function"
    },
    {
      "inputs": [
        {
          "internalType": "bytes",
          "name": "itemHash",
          "type": "bytes"
        }
      ],
      "name": "buyProfileItem",
      "outputs": [],
      "stateMutability": "nonpayable",
      "type": "function"
    },
    {
      "inputs": [
        {
          "internalType": "bytes",
          "name": "reviewHash",
          "type": "bytes"
        }
      ],
      "name": "reviewExists",
      "outputs": [
        {
          "internalType": "bool",
          "name": "",
          "type": "bool"
        }
      ],
      "stateMutability": "view",
      "type": "function",
      "constant": true
    },
    {
      "inputs": [
        {
          "internalType": "uint64",
          "name": "productId",
          "type": "uint64"
        }
      ],
      "name": "getProduct",
      "outputs": [
        {
          "components": [
            {
              "internalType": "bytes[]",
              "name": "reviewHashes",
              "type": "bytes[]"
            },
            {
              "internalType": "bool",
              "name": "_initialized",
              "type": "bool"
            }
          ],
          "internalType": "struct Derp.Product",
          "name": "",
          "type": "tuple"
        }
      ],
      "stateMutability": "view",
      "type": "function",
      "constant": true
    },
    {
      "inputs": [],
      "name": "getProducts",
      "outputs": [
        {
          "internalType": "uint64[]",
          "name": "",
          "type": "uint64[]"
        }
      ],
      "stateMutability": "view",
      "type": "function",
      "constant": true
    },
    {
      "inputs": [],
      "name": "getReviewTokens",
      "outputs": [
        {
          "internalType": "int64",
          "name": "",
          "type": "int64"
        }
      ],
      "stateMutability": "view",
      "type": "function",
      "constant": true
    },
    {
      "inputs": [],
      "name": "getProfileTokens",
      "outputs": [
        {
          "internalType": "int64",
          "name": "",
          "type": "int64"
        }
      ],
      "stateMutability": "view",
      "type": "function",
      "constant": true
    },
    {
      "inputs": [],
      "name": "getReviews",
      "outputs": [
        {
          "internalType": "bytes[]",
          "name": "",
          "type": "bytes[]"
        }
      ],
      "stateMutability": "view",
      "type": "function",
      "constant": true
    },
    {
      "inputs": [],
      "name": "getProfileItems",
      "outputs": [
        {
          "internalType": "bytes[]",
          "name": "",
          "type": "bytes[]"
        }
      ],
      "stateMutability": "view",
      "type": "function",
      "constant": true
    },
    {
      "inputs": [],
      "name": "getBuyableProfileItems",
      "outputs": [
        {
          "internalType": "bytes[]",
          "name": "",
          "type": "bytes[]"
        }
      ],
      "stateMutability": "view",
      "type": "function",
      "constant": true
    }
  ],
  "bytecode": "0x608060405234801561001057600080fd5b50336000806101000a81548173ffffffffffffffffffffffffffffffffffffffff021916908373ffffffffffffffffffffffffffffffffffffffff160217905550612f92806100606000396000f3fe608060405234801561001057600080fd5b50600436106101425760003560e01c80637c89f5b3116100b8578063ac144ee21161007c578063ac144ee21461032d578063b100488f14610349578063c29b2f2014610367578063e904394c14610385578063efea5e96146103b5578063fa95bbbf146103d157610142565b80637c89f5b31461029b57806389d3f623146102b957806396593c9e146102d5578063a8566e4e146102f3578063ab95c8f31461031157610142565b80635edda63b1161010a5780635edda63b146101d757806367297c27146101f557806368cf232d146102135780636c4abdb1146102315780636caaca10146102615780636d1febb11461026b57610142565b80630bfa59c2146101475780631b1e132414610165578063396c622614610183578063429c4c211461019f57806351ef4661146101bb575b600080fd5b61014f6103ef565b60405161015c9190611f62565b60405180910390f35b61016d6103f4565b60405161017a91906120cf565b60405180910390f35b61019d60048036038101906101989190612160565b61050a565b005b6101b960048036038101906101b491906121ed565b61072c565b005b6101d560048036038101906101d091906122ce565b610840565b005b6101df610af5565b6040516101ec9190611f62565b60405180910390f35b6101fd610afa565b60405161020a91906120cf565b60405180910390f35b61021b610c10565b6040516102289190611f62565b60405180910390f35b61024b60048036038101906102469190612160565b610c15565b6040516102589190612349565b60405180910390f35b610269610c50565b005b61028560048036038101906102809190612364565b610c89565b6040516102929190612349565b60405180910390f35b6102a3611264565b6040516102b091906123e0565b60405180910390f35b6102d360048036038101906102ce9190612160565b6112b8565b005b6102dd6114a9565b6040516102ea91906123e0565b60405180910390f35b6102fb6114fd565b60405161030891906120cf565b60405180910390f35b61032b600480360381019061032691906123fb565b6115d6565b005b6103476004803603810190610342919061243b565b61177e565b005b6103516119d5565b60405161035e9190611f62565b60405180910390f35b61036f6119da565b60405161037c9190612546565b60405180910390f35b61039f600480360381019061039a91906121ed565b611a66565b6040516103ac919061263a565b60405180910390f35b6103cf60048036038101906103ca91906121ed565b611c12565b005b6103d9611e4b565b6040516103e69190611f62565b60405180910390f35b600a81565b6060600660003373ffffffffffffffffffffffffffffffffffffffff1673ffffffffffffffffffffffffffffffffffffffff168152602001908152602001600020805480602002602001604051908101604052809291908181526020016000905b828210156105015783829060005260206000200180546104749061268b565b80601f01602080910402602001604051908101604052809291908181526020018280546104a09061268b565b80156104ed5780601f106104c2576101008083540402835291602001916104ed565b820191906000526020600020905b8154815290600101906020018083116104d057829003601f168201915b505050505081526020019060010190610455565b50505050905090565b60006005838360405161051e9291906126fb565b9081526020016040518091039020905080600001601c9054906101000a900460ff1661054957600080fd5b600260000b600160003373ffffffffffffffffffffffffffffffffffffffff1673ffffffffffffffffffffffffffffffffffffffff16815260200190815260200160002060009054906101000a900460070b60070b12156105a957600080fd5b600260000b600160003373ffffffffffffffffffffffffffffffffffffffff1673ffffffffffffffffffffffffffffffffffffffff16815260200190815260200160002060008282829054906101000a900460070b6106089190612743565b92506101000a81548167ffffffffffffffff021916908360070b67ffffffffffffffff16021790555060018160000160148282829054906101000a900460070b61065291906127a3565b92506101000a81548167ffffffffffffffff021916908360070b67ffffffffffffffff160217905550600160000b600260008360000160009054906101000a900473ffffffffffffffffffffffffffffffffffffffff1673ffffffffffffffffffffffffffffffffffffffff1673ffffffffffffffffffffffffffffffffffffffff16815260200190815260200160002060008282829054906101000a900460070b6106fe91906127a3565b92506101000a81548167ffffffffffffffff021916908360070b67ffffffffffffffff160217905550505050565b600060028111156107405761073f612803565b5b600760003373ffffffffffffffffffffffffffffffffffffffff1673ffffffffffffffffffffffffffffffffffffffff16815260200190815260200160002060008367ffffffffffffffff1667ffffffffffffffff16815260200190815260200160002060009054906101000a900460ff1660028111156107c4576107c3612803565b5b14610804576040517f08c379a00000000000000000000000000000000000000000000000000000000081526004016107fb9061288f565b60405180910390fd5b7f1382a4dd1f1609a0cd69ab74da10dc4ddfc5c47b6bc64440e3841c862075564733826040516108359291906128cd565b60405180910390a150565b60008054906101000a900473ffffffffffffffffffffffffffffffffffffffff1673ffffffffffffffffffffffffffffffffffffffff163373ffffffffffffffffffffffffffffffffffffffff161461089857600080fd5b60005b82829050811015610ab857600060028111156108ba576108b9612803565b5b600760008673ffffffffffffffffffffffffffffffffffffffff1673ffffffffffffffffffffffffffffffffffffffff168152602001908152602001600020600085858581811061090e5761090d6128f6565b5b905060200201602081019061092391906121ed565b67ffffffffffffffff1667ffffffffffffffff16815260200190815260200160002060009054906101000a900460ff16600281111561096557610964612803565b5b03610aa7576001600760008673ffffffffffffffffffffffffffffffffffffffff1673ffffffffffffffffffffffffffffffffffffffff16815260200190815260200160002060008585858181106109c0576109bf6128f6565b5b90506020020160208101906109d591906121ed565b67ffffffffffffffff1667ffffffffffffffff16815260200190815260200160002060006101000a81548160ff02191690836002811115610a1957610a18612803565b5b0217905550600a60000b600160008673ffffffffffffffffffffffffffffffffffffffff1673ffffffffffffffffffffffffffffffffffffffff16815260200190815260200160002060008282829054906101000a900460070b610a7d91906127a3565b92506101000a81548167ffffffffffffffff021916908360070b67ffffffffffffffff1602179055505b80610ab19061292f565b905061089b565b507f50f0ac35fb060ec2eb1b1051209ac69e7caa16f70e8fb9f469fa3befdd5cb8ca83604051610ae89190612977565b60405180910390a1505050565b600281565b6060600a60003373ffffffffffffffffffffffffffffffffffffffff1673ffffffffffffffffffffffffffffffffffffffff168152602001908152602001600020805480602002602001604051908101604052809291908181526020016000905b82821015610c07578382906000526020600020018054610b7a9061268b565b80601f0160208091040260200160405190810160405280929190818152602001828054610ba69061268b565b8015610bf35780601f10610bc857610100808354040283529160200191610bf3565b820191906000526020600020905b815481529060010190602001808311610bd657829003601f168201915b505050505081526020019060010190610b5b565b50505050905090565b600281565b600060058383604051610c299291906126fb565b9081526020016040518091039020600001601c9054906101000a900460ff16905092915050565b7fafe0d4e783559eddc1189e4f3ec5fb8c740c1585d164c301b9cb502984dd03cf33604051610c7f9190612977565b60405180910390a1565b6000600260000b600160003373ffffffffffffffffffffffffffffffffffffffff1673ffffffffffffffffffffffffffffffffffffffff16815260200190815260200160002060009054906101000a900460070b60070b1215610d21576040517f08c379a0000000000000000000000000000000000000000000000000000000008152600401610d18906129de565b60405180910390fd5b60058383604051610d339291906126fb565b9081526020016040518091039020600001601c9054906101000a900460ff1615610d92576040517f08c379a0000000000000000000000000000000000000000000000000000000008152600401610d8990612a4a565b60405180910390fd5b60016002811115610da657610da5612803565b5b600760003373ffffffffffffffffffffffffffffffffffffffff1673ffffffffffffffffffffffffffffffffffffffff16815260200190815260200160002060008667ffffffffffffffff1667ffffffffffffffff16815260200190815260200160002060009054906101000a900460ff166002811115610e2a57610e29612803565b5b14610e6a576040517f08c379a0000000000000000000000000000000000000000000000000000000008152600401610e6190612adc565b60405180910390fd5b600360008567ffffffffffffffff1667ffffffffffffffff16815260200190815260200160002060010160009054906101000a900460ff16610ee1576040517f08c379a0000000000000000000000000000000000000000000000000000000008152600401610ed890612b48565b60405180910390fd5b600060405180606001604052803373ffffffffffffffffffffffffffffffffffffffff168152602001600160070b8152602001600115158152509050600660003373ffffffffffffffffffffffffffffffffffffffff1673ffffffffffffffffffffffffffffffffffffffff168152602001908152602001600020848490918060018154018082558091505060019003906000526020600020016000909192909192909192909192509182610f97929190612d4e565b508060058585604051610fab9291906126fb565b908152602001604051809103902060008201518160000160006101000a81548173ffffffffffffffffffffffffffffffffffffffff021916908373ffffffffffffffffffffffffffffffffffffffff16021790555060208201518160000160146101000a81548167ffffffffffffffff021916908360070b67ffffffffffffffff160217905550604082015181600001601c6101000a81548160ff021916908315150217905550905050600360008667ffffffffffffffff1667ffffffffffffffff1681526020019081526020016000206000018484909180600181540180825580915050600190039060005260206000200160009091929091929091929091925091826110ba929190612d4e565b50600260000b600160003373ffffffffffffffffffffffffffffffffffffffff1673ffffffffffffffffffffffffffffffffffffffff16815260200190815260200160002060008282829054906101000a900460070b61111a9190612743565b92506101000a81548167ffffffffffffffff021916908360070b67ffffffffffffffff160217905550600160000b600260003373ffffffffffffffffffffffffffffffffffffffff1673ffffffffffffffffffffffffffffffffffffffff16815260200190815260200160002060008282829054906101000a900460070b6111a291906127a3565b92506101000a81548167ffffffffffffffff021916908360070b67ffffffffffffffff1602179055506002600760003373ffffffffffffffffffffffffffffffffffffffff1673ffffffffffffffffffffffffffffffffffffffff16815260200190815260200160002060008767ffffffffffffffff1667ffffffffffffffff16815260200190815260200160002060006101000a81548160ff0219169083600281111561125357611252612803565b5b021790555060019150509392505050565b6000600260003373ffffffffffffffffffffffffffffffffffffffff1673ffffffffffffffffffffffffffffffffffffffff16815260200190815260200160002060009054906101000a900460070b905090565b600260003373ffffffffffffffffffffffffffffffffffffffff1673ffffffffffffffffffffffffffffffffffffffff16815260200190815260200160002060009054906101000a900460070b60070b6009838360405161131a9291906126fb565b908152602001604051809103902060009054906101000a900460070b60070b13611379576040517f08c379a0000000000000000000000000000000000000000000000000000000008152600401611370906129de565b60405180910390fd5b6009828260405161138b9291906126fb565b908152602001604051809103902060009054906101000a900460070b600260003373ffffffffffffffffffffffffffffffffffffffff1673ffffffffffffffffffffffffffffffffffffffff16815260200190815260200160002060008282829054906101000a900460070b6114019190612743565b92506101000a81548167ffffffffffffffff021916908360070b67ffffffffffffffff160217905550600a60003373ffffffffffffffffffffffffffffffffffffffff1673ffffffffffffffffffffffffffffffffffffffff1681526020019081526020016000208282909180600181540180825580915050600190039060005260206000200160009091929091929091929091925091826114a4929190612d4e565b505050565b6000600160003373ffffffffffffffffffffffffffffffffffffffff1673ffffffffffffffffffffffffffffffffffffffff16815260200190815260200160002060009054906101000a900460070b905090565b60606008805480602002602001604051908101604052809291908181526020016000905b828210156115cd5783829060005260206000200180546115409061268b565b80601f016020809104026020016040519081016040528092919081815260200182805461156c9061268b565b80156115b95780601f1061158e576101008083540402835291602001916115b9565b820191906000526020600020905b81548152906001019060200180831161159c57829003601f168201915b505050505081526020019060010190611521565b50505050905090565b60008054906101000a900473ffffffffffffffffffffffffffffffffffffffff1673ffffffffffffffffffffffffffffffffffffffff163373ffffffffffffffffffffffffffffffffffffffff161461162e57600080fd5b6001600760008473ffffffffffffffffffffffffffffffffffffffff1673ffffffffffffffffffffffffffffffffffffffff16815260200190815260200160002060008367ffffffffffffffff1667ffffffffffffffff16815260200190815260200160002060006101000a81548160ff021916908360028111156116b6576116b5612803565b5b0217905550600a60000b600160008473ffffffffffffffffffffffffffffffffffffffff1673ffffffffffffffffffffffffffffffffffffffff16815260200190815260200160002060008282829054906101000a900460070b61171a91906127a3565b92506101000a81548167ffffffffffffffff021916908360070b67ffffffffffffffff1602179055507f50f0ac35fb060ec2eb1b1051209ac69e7caa16f70e8fb9f469fa3befdd5cb8ca826040516117729190612977565b60405180910390a15050565b60008054906101000a900473ffffffffffffffffffffffffffffffffffffffff1673ffffffffffffffffffffffffffffffffffffffff163373ffffffffffffffffffffffffffffffffffffffff16146117d657600080fd5b60005b828290508110156119d05760006040518060400160405280600067ffffffffffffffff81111561180c5761180b612b73565b5b60405190808252806020026020018201604052801561183f57816020015b606081526020019060019003908161182a5790505b50815260200160011515815250905060036000858585818110611865576118646128f6565b5b905060200201602081019061187a91906121ed565b67ffffffffffffffff1667ffffffffffffffff16815260200190815260200160002060010160009054906101000a900460ff166119be5760048484848181106118c6576118c56128f6565b5b90506020020160208101906118db91906121ed565b90806001815401808255809150506001900390600052602060002090600491828204019190066008029091909190916101000a81548167ffffffffffffffff021916908367ffffffffffffffff1602179055508060036000868686818110611946576119456128f6565b5b905060200201602081019061195b91906121ed565b67ffffffffffffffff1667ffffffffffffffff1681526020019081526020016000206000820151816000019080519060200190611999929190611e50565b5060208201518160010160006101000a81548160ff0219169083151502179055509050505b50806119c99061292f565b90506117d9565b505050565b600181565b60606004805480602002602001604051908101604052809291908181526020018280548015611a5c57602002820191906000526020600020906000905b82829054906101000a900467ffffffffffffffff1667ffffffffffffffff1681526020019060080190602082600701049283019260010382029150808411611a175790505b5050505050905090565b611a6e611ea9565b600360008367ffffffffffffffff1667ffffffffffffffff16815260200190815260200160002060010160009054906101000a900460ff16611ae5576040517f08c379a0000000000000000000000000000000000000000000000000000000008152600401611adc90612b48565b60405180910390fd5b600360008367ffffffffffffffff1667ffffffffffffffff16815260200190815260200160002060405180604001604052908160008201805480602002602001604051908101604052809291908181526020016000905b82821015611be8578382906000526020600020018054611b5b9061268b565b80601f0160208091040260200160405190810160405280929190818152602001828054611b879061268b565b8015611bd45780601f10611ba957610100808354040283529160200191611bd4565b820191906000526020600020905b815481529060010190602001808311611bb757829003601f168201915b505050505081526020019060010190611b3c565b5050505081526020016001820160009054906101000a900460ff1615151515815250509050919050565b60008054906101000a900473ffffffffffffffffffffffffffffffffffffffff1673ffffffffffffffffffffffffffffffffffffffff163373ffffffffffffffffffffffffffffffffffffffff1614611c6a57600080fd5b600360008267ffffffffffffffff1667ffffffffffffffff16815260200190815260200160002060010160009054906101000a900460ff1615611ce2576040517f08c379a0000000000000000000000000000000000000000000000000000000008152600401611cd990612e6a565b60405180910390fd5b60006040518060400160405280600067ffffffffffffffff811115611d0a57611d09612b73565b5b604051908082528060200260200182016040528015611d3d57816020015b6060815260200190600190039081611d285790505b508152602001600115158152509050600360008367ffffffffffffffff1667ffffffffffffffff16815260200190815260200160002060010160009054906101000a900460ff16611e475760048290806001815401808255809150506001900390600052602060002090600491828204019190066008029091909190916101000a81548167ffffffffffffffff021916908367ffffffffffffffff16021790555080600360008467ffffffffffffffff1667ffffffffffffffff1681526020019081526020016000206000820151816000019080519060200190611e22929190611e50565b5060208201518160010160006101000a81548160ff0219169083151502179055509050505b5050565b600181565b828054828255906000526020600020908101928215611e98579160200282015b82811115611e97578251829081611e879190612e8a565b5091602001919060010190611e70565b5b509050611ea59190611ec5565b5090565b6040518060400160405280606081526020016000151581525090565b5b80821115611ee55760008181611edc9190611ee9565b50600101611ec6565b5090565b508054611ef59061268b565b6000825580601f10611f075750611f26565b601f016020900490600052602060002090810190611f259190611f29565b5b50565b5b80821115611f42576000816000905550600101611f2a565b5090565b60008160000b9050919050565b611f5c81611f46565b82525050565b6000602082019050611f776000830184611f53565b92915050565b600081519050919050565b600082825260208201905092915050565b6000819050602082019050919050565b600081519050919050565b600082825260208201905092915050565b60005b83811015611fe3578082015181840152602081019050611fc8565b60008484015250505050565b6000601f19601f8301169050919050565b600061200b82611fa9565b6120158185611fb4565b9350612025818560208601611fc5565b61202e81611fef565b840191505092915050565b60006120458383612000565b905092915050565b6000602082019050919050565b600061206582611f7d565b61206f8185611f88565b93508360208202850161208185611f99565b8060005b858110156120bd578484038952815161209e8582612039565b94506120a98361204d565b925060208a01995050600181019050612085565b50829750879550505050505092915050565b600060208201905081810360008301526120e9818461205a565b905092915050565b600080fd5b600080fd5b600080fd5b600080fd5b600080fd5b60008083601f8401126121205761211f6120fb565b5b8235905067ffffffffffffffff81111561213d5761213c612100565b5b60208301915083600182028301111561215957612158612105565b5b9250929050565b60008060208385031215612177576121766120f1565b5b600083013567ffffffffffffffff811115612195576121946120f6565b5b6121a18582860161210a565b92509250509250929050565b600067ffffffffffffffff82169050919050565b6121ca816121ad565b81146121d557600080fd5b50565b6000813590506121e7816121c1565b92915050565b600060208284031215612203576122026120f1565b5b6000612211848285016121d8565b91505092915050565b600073ffffffffffffffffffffffffffffffffffffffff82169050919050565b60006122458261221a565b9050919050565b6122558161223a565b811461226057600080fd5b50565b6000813590506122728161224c565b92915050565b60008083601f84011261228e5761228d6120fb565b5b8235905067ffffffffffffffff8111156122ab576122aa612100565b5b6020830191508360208202830111156122c7576122c6612105565b5b9250929050565b6000806000604084860312156122e7576122e66120f1565b5b60006122f586828701612263565b935050602084013567ffffffffffffffff811115612316576123156120f6565b5b61232286828701612278565b92509250509250925092565b60008115159050919050565b6123438161232e565b82525050565b600060208201905061235e600083018461233a565b92915050565b60008060006040848603121561237d5761237c6120f1565b5b600061238b868287016121d8565b935050602084013567ffffffffffffffff8111156123ac576123ab6120f6565b5b6123b88682870161210a565b92509250509250925092565b60008160070b9050919050565b6123da816123c4565b82525050565b60006020820190506123f560008301846123d1565b92915050565b60008060408385031215612412576124116120f1565b5b600061242085828601612263565b9250506020612431858286016121d8565b9150509250929050565b60008060208385031215612452576124516120f1565b5b600083013567ffffffffffffffff8111156124705761246f6120f6565b5b61247c85828601612278565b92509250509250929050565b600081519050919050565b600082825260208201905092915050565b6000819050602082019050919050565b6124bd816121ad565b82525050565b60006124cf83836124b4565b60208301905092915050565b6000602082019050919050565b60006124f382612488565b6124fd8185612493565b9350612508836124a4565b8060005b8381101561253957815161252088826124c3565b975061252b836124db565b92505060018101905061250c565b5085935050505092915050565b6000602082019050818103600083015261256081846124e8565b905092915050565b600082825260208201905092915050565b600061258482611f7d565b61258e8185612568565b9350836020820285016125a085611f99565b8060005b858110156125dc57848403895281516125bd8582612039565b94506125c88361204d565b925060208a019950506001810190506125a4565b50829750879550505050505092915050565b6125f78161232e565b82525050565b6000604083016000830151848203600086015261261a8282612579565b915050602083015161262f60208601826125ee565b508091505092915050565b6000602082019050818103600083015261265481846125fd565b905092915050565b7f4e487b7100000000000000000000000000000000000000000000000000000000600052602260045260246000fd5b600060028204905060018216806126a357607f821691505b6020821081036126b6576126b561265c565b5b50919050565b600081905092915050565b82818337600083830152505050565b60006126e283856126bc565b93506126ef8385846126c7565b82840190509392505050565b60006127088284866126d6565b91508190509392505050565b7f4e487b7100000000000000000000000000000000000000000000000000000000600052601160045260246000fd5b600061274e826123c4565b9150612759836123c4565b92508282039050677fffffffffffffff81137fffffffffffffffffffffffffffffffffffffffffffffffff80000000000000008212171561279d5761279c612714565b5b92915050565b60006127ae826123c4565b91506127b9836123c4565b925082820190507fffffffffffffffffffffffffffffffffffffffffffffffff80000000000000008112677fffffffffffffff821317156127fd576127fc612714565b5b92915050565b7f4e487b7100000000000000000000000000000000000000000000000000000000600052602160045260246000fd5b600082825260208201905092915050565b7f50726f6475637420616c726561647920636c61696d6564000000000000000000600082015250565b6000612879601783612832565b915061288482612843565b602082019050919050565b600060208201905081810360008301526128a88161286c565b9050919050565b6128b88161223a565b82525050565b6128c7816121ad565b82525050565b60006040820190506128e260008301856128af565b6128ef60208301846128be565b9392505050565b7f4e487b7100000000000000000000000000000000000000000000000000000000600052603260045260246000fd5b6000819050919050565b600061293a82612925565b91507fffffffffffffffffffffffffffffffffffffffffffffffffffffffffffffffff820361296c5761296b612714565b5b600182019050919050565b600060208201905061298c60008301846128af565b92915050565b7f4e6f7420656e6f75676820746f6b656e73000000000000000000000000000000600082015250565b60006129c8601183612832565b91506129d382612992565b602082019050919050565b600060208201905081810360008301526129f7816129bb565b9050919050565b7f52657669657720616c7265616479206578697374730000000000000000000000600082015250565b6000612a34601583612832565b9150612a3f826129fe565b602082019050919050565b60006020820190508181036000830152612a6381612a27565b9050919050565b7f50726f64756374206e6f7420636c61696d6564206f7220616c7265616479207260008201527f6576696577656400000000000000000000000000000000000000000000000000602082015250565b6000612ac6602783612832565b9150612ad182612a6a565b604082019050919050565b60006020820190508181036000830152612af581612ab9565b9050919050565b7f50726f6475637420646f65736e27742065786973740000000000000000000000600082015250565b6000612b32601583612832565b9150612b3d82612afc565b602082019050919050565b60006020820190508181036000830152612b6181612b25565b9050919050565b600082905092915050565b7f4e487b7100000000000000000000000000000000000000000000000000000000600052604160045260246000fd5b60008190508160005260206000209050919050565b60006020601f8301049050919050565b600082821b905092915050565b600060088302612c047fffffffffffffffffffffffffffffffffffffffffffffffffffffffffffffffff82612bc7565b612c0e8683612bc7565b95508019841693508086168417925050509392505050565b6000819050919050565b6000612c4b612c46612c4184612925565b612c26565b612925565b9050919050565b6000819050919050565b612c6583612c30565b612c79612c7182612c52565b848454612bd4565b825550505050565b600090565b612c8e612c81565b612c99818484612c5c565b505050565b5b81811015612cbd57612cb2600082612c86565b600181019050612c9f565b5050565b601f821115612d0257612cd381612ba2565b612cdc84612bb7565b81016020851015612ceb578190505b612cff612cf785612bb7565b830182612c9e565b50505b505050565b600082821c905092915050565b6000612d2560001984600802612d07565b1980831691505092915050565b6000612d3e8383612d14565b9150826002028217905092915050565b612d588383612b68565b67ffffffffffffffff811115612d7157612d70612b73565b5b612d7b825461268b565b612d86828285612cc1565b6000601f831160018114612db55760008415612da3578287013590505b612dad8582612d32565b865550612e15565b601f198416612dc386612ba2565b60005b82811015612deb57848901358255600182019150602085019450602081019050612dc6565b86831015612e085784890135612e04601f891682612d14565b8355505b6001600288020188555050505b50505050505050565b7f50726f6475637420616c72656164792065786973747300000000000000000000600082015250565b6000612e54601683612832565b9150612e5f82612e1e565b602082019050919050565b60006020820190508181036000830152612e8381612e47565b9050919050565b612e9382611fa9565b67ffffffffffffffff811115612eac57612eab612b73565b5b612eb6825461268b565b612ec1828285612cc1565b600060209050601f831160018114612ef45760008415612ee2578287015190505b612eec8582612d32565b865550612f54565b601f198416612f0286612ba2565b60005b82811015612f2a57848901518255600182019150602085019450602081019050612f05565b86831015612f475784890151612f43601f891682612d14565b8355505b6001600288020188555050505b50505050505056fea2646970667358221220dd5ddc1863ebaaba044fdb1245c1a31cdfa00c853554d1460d4be0704dd7aff964736f6c63430008110033",
  "immutableReferences": {},
  "source": "// SPDX-License-Identifier: GPL-v3\n\npragma solidity >=0.7.0 <0.9;\n\ncontract Derp {\n    enum ProductState {\n        UNCLAIMED,\n        CLAIMED,\n        REVIEWED\n    }\n\n    // The product for which an user wants to make a review.\n    // This is indexed as a combination of the store ID and the product ID\n    // local to that store.\n    //\n    // Example:\n    //    store ID = 1,\n    //    local product ID = 1,\n    //    product ID = 0x100000001\n    struct Product {\n        bytes[] reviewHashes;\n        bool _initialized;\n    }\n\n    // A review made by a reviewer.\n    // The text of the review is stored on IPFS.\n    struct Review {\n        address reviewer;\n        int64 upvotes;\n        bool _initialized;\n    }\n\n    // The deployer of the contract.\n    // Used to check the authenticity of the reviews.\n    address private owner;\n\n    // Mapping for the NFTs used on the website.\n    mapping(address => int64) private reviewTokens;\n    mapping(address => int64) private profileTokens;\n\n    // Mapping from the uint64 product ID to the stored products.\n    mapping(uint64 => Product) private products;\n\n    // Array used to retrieve all the products stored on-chain.\n    uint64[] private registeredProducts;\n\n    // Mapping from the IPFS' Content Identifier of the review to the actual\n    // review.\n    mapping(bytes => Review) private reviews;\n\n    // Mapping used for retrieving the IPFS' CIDs of the reviews made by an\n    // address.\n    mapping(address => bytes[]) private reviewsFromAddress;\n\n    // Mapping of the products actually claimed by an user.\n    // Used to store on-chain the validity of the reviews.\n    mapping(address => mapping(uint64 => ProductState)) private productsClaimed;\n\n    //Array used to retrieve all the profile items stored on-chain\n    //that can be bought with user tokens\n    //This could be expanded in the future with a struct\n    bytes[] private profileItems; \n\n    //Mapping with the price of profile items\n    mapping(bytes => int64) private profileItemPrices;\n\n    //Mapping with a list of item profile purchased by a user\n    mapping(address => bytes[]) private userProfileItems;\n\n    // Events emitted when an user wants to know if some review tokens can be\n    // obtained.\n    //\n    // ReviewTokensGranted is emitted when the response is affirmative.\n    event AllReviewTokensRequested(address account);\n    event ReviewTokenRequested(address account, uint64 product);\n    event ReviewTokensGranted(address account);\n\n    // Event emitted when an user wants to refresh the products for which they\n    // can create a review.\n    event ProductRefreshRequested();\n\n    // Constants used by the contract\n\n    int8 public constant REVIEW_COST = 2;\n    int8 public constant REVIEW_REWARD = 1;\n    int8 public constant UPVOTE_COST = 2;\n    int8 public constant UPVOTE_REWARD = 1;\n    int8 public constant PER_PURCHASE_TOKENS = 10;\n\n    modifier onlyOwner() {\n        require(msg.sender == owner);\n        _;\n    }\n\n    constructor() {\n        owner = msg.sender;\n    }\n\n    function requestAllReviewTokens() external {\n        emit AllReviewTokensRequested(msg.sender);\n    }\n\n    function requestReviewToken(uint64 productId) external {\n        // Check if the product was already claimed.\n        require(\n            productsClaimed[msg.sender][productId] == ProductState.UNCLAIMED,\n            \"Product already claimed\"\n        );\n\n        emit ReviewTokenRequested(msg.sender, productId);\n    }\n\n    function rewardReviewToken(address account, uint64 productId)\n        external\n        onlyOwner\n    {\n        productsClaimed[account][productId] = ProductState.CLAIMED;\n        reviewTokens[account] += PER_PURCHASE_TOKENS;\n\n        emit ReviewTokensGranted(account);\n    }\n\n    function rewardReviewTokens(address account, uint64[] calldata productIds)\n        external\n        onlyOwner\n    {\n        for (uint256 i = 0; i < productIds.length; ++i) {\n            if (\n                productsClaimed[account][productIds[i]] ==\n                ProductState.UNCLAIMED\n            ) {\n                productsClaimed[account][productIds[i]] = ProductState.CLAIMED;\n                reviewTokens[account] += PER_PURCHASE_TOKENS;\n            }\n        }\n\n        emit ReviewTokensGranted(account);\n    }\n\n    // Reviewer is msg.sender\n    function makeReview(uint64 productId, bytes calldata reviewHash)\n        external\n        returns (bool)\n    {\n        require(reviewTokens[msg.sender] >= REVIEW_COST, \"Not enough tokens\");\n        require(!reviews[reviewHash]._initialized, \"Review already exists\");\n\n        // Stops the user from making reviews of products they have not claimed.\n        require(\n            productsClaimed[msg.sender][productId] == ProductState.CLAIMED,\n            \"Product not claimed or already reviewed\"\n        );\n\n        // Avoids creating a review for a product that doesn't exist.\n        require(products[productId]._initialized, \"Product doesn't exist\");\n\n        Review memory r = Review({\n            reviewer: msg.sender,\n            upvotes: 1,\n            _initialized: true\n        });\n\n        reviewsFromAddress[msg.sender].push(reviewHash);\n\n        reviews[reviewHash] = r;\n        products[productId].reviewHashes.push(reviewHash);\n\n        reviewTokens[msg.sender] -= REVIEW_COST;\n        profileTokens[msg.sender] += REVIEW_REWARD;\n\n        productsClaimed[msg.sender][productId] = ProductState.REVIEWED;\n\n        return true;\n    }\n\n    function upvoteReview(bytes calldata reviewHash) external {\n        Review storage review = reviews[reviewHash];\n        require(review._initialized);\n        require(reviewTokens[msg.sender] >= UPVOTE_COST);\n\n        reviewTokens[msg.sender] -= UPVOTE_COST;\n\n        review.upvotes += 1;\n\n        profileTokens[review.reviewer] += UPVOTE_REWARD;\n    }\n\n    function addProduct(uint64 productId) external onlyOwner {\n        require(!products[productId]._initialized, \"Product already exists\");\n\n        Product memory p = Product({\n            _initialized: true,\n            reviewHashes: new bytes[](0)\n        });\n\n        if (!products[productId]._initialized) {\n            registeredProducts.push(productId);\n            products[productId] = p;\n        }\n    }\n\n    function addProducts(uint64[] calldata productIds) external onlyOwner {\n        for (uint256 i = 0; i < productIds.length; ++i) {\n            Product memory p = Product({\n                _initialized: true,\n                reviewHashes: new bytes[](0)\n            });\n\n            if (!products[productIds[i]]._initialized) {\n                registeredProducts.push(productIds[i]);\n                products[productIds[i]] = p;\n            }\n        }\n    }\n\n    function buyProfileItem(bytes calldata itemHash) external {\n        require(\n            profileItemPrices[itemHash] > profileTokens[msg.sender],\n            \"Not enough tokens\"\n        );\n\n        profileTokens[msg.sender] -= profileItemPrices[itemHash];\n        userProfileItems[msg.sender].push(itemHash); \n    }\n\n    // Utility functions below\n    // You should only call these functions on your local node without\n    // spending gas.\n\n    function reviewExists(bytes calldata reviewHash)\n        public\n        view\n        returns (bool)\n    {\n        return reviews[reviewHash]._initialized;\n    }\n\n    function getProduct(uint64 productId) public view returns (Product memory) {\n        require(products[productId]._initialized, \"Product doesn't exist\");\n\n        return products[productId];\n    }\n\n    function getProducts() public view returns (uint64[] memory) {\n        return registeredProducts;\n    }\n\n    function getReviewTokens() public view returns (int64) {\n        return reviewTokens[msg.sender];\n    }\n\n    function getProfileTokens() public view returns (int64) {\n        return profileTokens[msg.sender];\n    }\n\n    function getReviews() public view returns (bytes[] memory) {\n        return reviewsFromAddress[msg.sender];\n    }\n\n    function getProfileItems() public view returns (bytes[] memory){\n        return userProfileItems[msg.sender];\n    }\n\n    function getBuyableProfileItems() public view returns (bytes[] memory){\n        return profileItems;\n    }\n}\n",
  "sourcePath": "/app/contracts/Derp.sol",
  "compiler": {
    "name": "solc",
    "version": "0.8.17+commit.8df45f5f.Emscripten.clang"
  },
  "schemaVersion": "3.4.11",
  "updatedAt": "2023-01-23T21:50:26.426Z",
  "networkType": "ethereum",
  "devdoc": {
    "kind": "dev",
    "methods": {},
    "version": 1
  },
  "userdoc": {
    "kind": "user",
    "methods": {},
    "version": 1
  }
}