{
  "contractName": "Derp",
  "abi": [
    {
      "inputs": [],
      "stateMutability": "nonpayable",
      "type": "constructor"
    },
    {
      "anonymous": false,
      "inputs": [
        {
          "indexed": false,
          "internalType": "address",
          "name": "account",
          "type": "address"
        }
      ],
      "name": "AllReviewTokensRequested",
      "type": "event"
    },
    {
      "anonymous": false,
      "inputs": [],
      "name": "ProductRefreshRequested",
      "type": "event"
    },
    {
      "anonymous": false,
      "inputs": [
        {
          "indexed": false,
          "internalType": "address",
          "name": "account",
          "type": "address"
        },
        {
          "indexed": false,
          "internalType": "uint64",
          "name": "product",
          "type": "uint64"
        }
      ],
      "name": "ReviewTokenRequested",
      "type": "event"
    },
    {
      "anonymous": false,
      "inputs": [
        {
          "indexed": false,
          "internalType": "address",
          "name": "account",
          "type": "address"
        }
      ],
      "name": "ReviewTokensGranted",
      "type": "event"
    },
    {
      "inputs": [],
      "name": "PER_PURCHASE_TOKENS",
      "outputs": [
        {
          "internalType": "int8",
          "name": "",
          "type": "int8"
        }
      ],
      "stateMutability": "view",
      "type": "function",
      "constant": true
    },
    {
      "inputs": [],
      "name": "REVIEW_COST",
      "outputs": [
        {
          "internalType": "int8",
          "name": "",
          "type": "int8"
        }
      ],
      "stateMutability": "view",
      "type": "function",
      "constant": true
    },
    {
      "inputs": [],
      "name": "REVIEW_REWARD",
      "outputs": [
        {
          "internalType": "int8",
          "name": "",
          "type": "int8"
        }
      ],
      "stateMutability": "view",
      "type": "function",
      "constant": true
    },
    {
      "inputs": [],
      "name": "UPVOTE_COST",
      "outputs": [
        {
          "internalType": "int8",
          "name": "",
          "type": "int8"
        }
      ],
      "stateMutability": "view",
      "type": "function",
      "constant": true
    },
    {
      "inputs": [],
      "name": "UPVOTE_REWARD",
      "outputs": [
        {
          "internalType": "int8",
          "name": "",
          "type": "int8"
        }
      ],
      "stateMutability": "view",
      "type": "function",
      "constant": true
    },
    {
      "inputs": [],
      "name": "requestAllReviewTokens",
      "outputs": [],
      "stateMutability": "nonpayable",
      "type": "function"
    },
    {
      "inputs": [
        {
          "internalType": "uint64",
          "name": "productId",
          "type": "uint64"
        }
      ],
      "name": "requestReviewToken",
      "outputs": [],
      "stateMutability": "nonpayable",
      "type": "function"
    },
    {
      "inputs": [
        {
          "internalType": "address",
          "name": "account",
          "type": "address"
        },
        {
          "internalType": "uint64",
          "name": "productId",
          "type": "uint64"
        }
      ],
      "name": "rewardReviewToken",
      "outputs": [],
      "stateMutability": "nonpayable",
      "type": "function"
    },
    {
      "inputs": [
        {
          "internalType": "address",
          "name": "account",
          "type": "address"
        },
        {
          "internalType": "uint64[]",
          "name": "productIds",
          "type": "uint64[]"
        }
      ],
      "name": "rewardReviewTokens",
      "outputs": [],
      "stateMutability": "nonpayable",
      "type": "function"
    },
    {
      "inputs": [
        {
          "internalType": "uint64",
          "name": "productId",
          "type": "uint64"
        },
        {
          "internalType": "bytes",
          "name": "reviewHash",
          "type": "bytes"
        }
      ],
      "name": "makeReview",
      "outputs": [
        {
          "internalType": "bool",
          "name": "",
          "type": "bool"
        }
      ],
      "stateMutability": "nonpayable",
      "type": "function"
    },
    {
      "inputs": [
        {
          "internalType": "bytes",
          "name": "reviewHash",
          "type": "bytes"
        }
      ],
      "name": "upvoteReview",
      "outputs": [],
      "stateMutability": "nonpayable",
      "type": "function"
    },
    {
      "inputs": [
        {
          "internalType": "uint64",
          "name": "productId",
          "type": "uint64"
        }
      ],
      "name": "addProduct",
      "outputs": [],
      "stateMutability": "nonpayable",
      "type": "function"
    },
    {
      "inputs": [
        {
          "internalType": "uint64[]",
          "name": "productIds",
          "type": "uint64[]"
        }
      ],
      "name": "addProducts",
      "outputs": [],
      "stateMutability": "nonpayable",
      "type": "function"
    },
    {
      "inputs": [
        {
          "internalType": "bytes",
          "name": "itemHash",
          "type": "bytes"
        }
      ],
      "name": "buyProfileItem",
      "outputs": [],
      "stateMutability": "nonpayable",
      "type": "function"
    },
    {
      "inputs": [
        {
          "internalType": "bytes",
          "name": "itemHash",
          "type": "bytes"
        },
        {
          "internalType": "int64",
          "name": "price",
          "type": "int64"
        }
      ],
      "name": "addProfileItem",
      "outputs": [],
      "stateMutability": "nonpayable",
      "type": "function"
    },
    {
      "inputs": [
        {
          "internalType": "bytes",
          "name": "reviewHash",
          "type": "bytes"
        }
      ],
      "name": "reviewExists",
      "outputs": [
        {
          "internalType": "bool",
          "name": "",
          "type": "bool"
        }
      ],
      "stateMutability": "view",
      "type": "function",
      "constant": true
    },
    {
      "inputs": [
        {
          "internalType": "uint64",
          "name": "productId",
          "type": "uint64"
        }
      ],
      "name": "getProduct",
      "outputs": [
        {
          "components": [
            {
              "internalType": "bytes[]",
              "name": "reviewHashes",
              "type": "bytes[]"
            },
            {
              "internalType": "bool",
              "name": "_initialized",
              "type": "bool"
            }
          ],
          "internalType": "struct Derp.Product",
          "name": "",
          "type": "tuple"
        }
      ],
      "stateMutability": "view",
      "type": "function",
      "constant": true
    },
    {
      "inputs": [],
      "name": "getProducts",
      "outputs": [
        {
          "internalType": "uint64[]",
          "name": "",
          "type": "uint64[]"
        }
      ],
      "stateMutability": "view",
      "type": "function",
      "constant": true
    },
    {
      "inputs": [],
      "name": "getReviewTokens",
      "outputs": [
        {
          "internalType": "int64",
          "name": "",
          "type": "int64"
        }
      ],
      "stateMutability": "view",
      "type": "function",
      "constant": true
    },
    {
      "inputs": [],
      "name": "getProfileTokens",
      "outputs": [
        {
          "internalType": "int64",
          "name": "",
          "type": "int64"
        }
      ],
      "stateMutability": "view",
      "type": "function",
      "constant": true
    },
    {
      "inputs": [],
      "name": "getReviews",
      "outputs": [
        {
          "internalType": "bytes[]",
          "name": "",
          "type": "bytes[]"
        }
      ],
      "stateMutability": "view",
      "type": "function",
      "constant": true
    },
    {
      "inputs": [],
      "name": "getProfileItems",
      "outputs": [
        {
          "internalType": "bytes[]",
          "name": "",
          "type": "bytes[]"
        }
      ],
      "stateMutability": "view",
      "type": "function",
      "constant": true
    },
    {
      "inputs": [],
      "name": "getBuyableProfileItems",
      "outputs": [
        {
          "internalType": "bytes[]",
          "name": "",
          "type": "bytes[]"
        }
      ],
      "stateMutability": "view",
      "type": "function",
      "constant": true
    }
  ],
  "bytecode": "0x608060405234801561001057600080fd5b50336000806101000a81548173ffffffffffffffffffffffffffffffffffffffff021916908373ffffffffffffffffffffffffffffffffffffffff1602179055506130d2806100606000396000f3fe608060405234801561001057600080fd5b506004361061014d5760003560e01c80636d1febb1116100c3578063ac144ee21161007c578063ac144ee214610354578063b100488f14610370578063c29b2f201461038e578063e904394c146103ac578063efea5e96146103dc578063fa95bbbf146103f85761014d565b80636d1febb1146102925780637c89f5b3146102c257806389d3f623146102e057806396593c9e146102fc578063a8566e4e1461031a578063ab95c8f3146103385761014d565b806351ef46611161011557806351ef4661146101e25780635edda63b146101fe57806367297c271461021c57806368cf232d1461023a5780636c4abdb1146102585780636caaca10146102885761014d565b80630bfa59c2146101525780631b1e132414610170578063318a40031461018e578063396c6226146101aa578063429c4c21146101c6575b600080fd5b61015a610416565b6040516101679190612016565b60405180910390f35b61017861041b565b6040516101859190612183565b60405180910390f35b6101a860048036038101906101a3919061224d565b610531565b005b6101c460048036038101906101bf91906122ad565b6105be565b005b6101e060048036038101906101db919061233a565b6107e0565b005b6101fc60048036038101906101f7919061241b565b6108f4565b005b610206610ba9565b6040516102139190612016565b60405180910390f35b610224610bae565b6040516102319190612183565b60405180910390f35b610242610cc4565b60405161024f9190612016565b60405180910390f35b610272600480360381019061026d91906122ad565b610cc9565b60405161027f9190612496565b60405180910390f35b610290610d04565b005b6102ac60048036038101906102a791906124b1565b610d3d565b6040516102b99190612496565b60405180910390f35b6102ca611318565b6040516102d79190612520565b60405180910390f35b6102fa60048036038101906102f591906122ad565b61136c565b005b61030461155d565b6040516103119190612520565b60405180910390f35b6103226115b1565b60405161032f9190612183565b60405180910390f35b610352600480360381019061034d919061253b565b61168a565b005b61036e6004803603810190610369919061257b565b611832565b005b610378611a89565b6040516103859190612016565b60405180910390f35b610396611a8e565b6040516103a39190612686565b60405180910390f35b6103c660048036038101906103c1919061233a565b611b1a565b6040516103d3919061277a565b60405180910390f35b6103f660048036038101906103f1919061233a565b611cc6565b005b610400611eff565b60405161040d9190612016565b60405180910390f35b600a81565b6060600660003373ffffffffffffffffffffffffffffffffffffffff1673ffffffffffffffffffffffffffffffffffffffff168152602001908152602001600020805480602002602001604051908101604052809291908181526020016000905b8282101561052857838290600052602060002001805461049b906127cb565b80601f01602080910402602001604051908101604052809291908181526020018280546104c7906127cb565b80156105145780601f106104e957610100808354040283529160200191610514565b820191906000526020600020905b8154815290600101906020018083116104f757829003601f168201915b50505050508152602001906001019061047c565b50505050905090565b600883839091806001815401808255809150506001900390600052602060002001600090919290919290919290919250918261056e9291906129ec565b508060098484604051610582929190612afb565b908152602001604051809103902060006101000a81548167ffffffffffffffff021916908360070b67ffffffffffffffff160217905550505050565b6000600583836040516105d2929190612afb565b9081526020016040518091039020905080600001601c9054906101000a900460ff166105fd57600080fd5b600260000b600160003373ffffffffffffffffffffffffffffffffffffffff1673ffffffffffffffffffffffffffffffffffffffff16815260200190815260200160002060009054906101000a900460070b60070b121561065d57600080fd5b600260000b600160003373ffffffffffffffffffffffffffffffffffffffff1673ffffffffffffffffffffffffffffffffffffffff16815260200190815260200160002060008282829054906101000a900460070b6106bc9190612b43565b92506101000a81548167ffffffffffffffff021916908360070b67ffffffffffffffff16021790555060018160000160148282829054906101000a900460070b6107069190612ba3565b92506101000a81548167ffffffffffffffff021916908360070b67ffffffffffffffff160217905550600160000b600260008360000160009054906101000a900473ffffffffffffffffffffffffffffffffffffffff1673ffffffffffffffffffffffffffffffffffffffff1673ffffffffffffffffffffffffffffffffffffffff16815260200190815260200160002060008282829054906101000a900460070b6107b29190612ba3565b92506101000a81548167ffffffffffffffff021916908360070b67ffffffffffffffff160217905550505050565b600060028111156107f4576107f3612c03565b5b600760003373ffffffffffffffffffffffffffffffffffffffff1673ffffffffffffffffffffffffffffffffffffffff16815260200190815260200160002060008367ffffffffffffffff1667ffffffffffffffff16815260200190815260200160002060009054906101000a900460ff16600281111561087857610877612c03565b5b146108b8576040517f08c379a00000000000000000000000000000000000000000000000000000000081526004016108af90612c8f565b60405180910390fd5b7f1382a4dd1f1609a0cd69ab74da10dc4ddfc5c47b6bc64440e3841c862075564733826040516108e9929190612ccd565b60405180910390a150565b60008054906101000a900473ffffffffffffffffffffffffffffffffffffffff1673ffffffffffffffffffffffffffffffffffffffff163373ffffffffffffffffffffffffffffffffffffffff161461094c57600080fd5b60005b82829050811015610b6c576000600281111561096e5761096d612c03565b5b600760008673ffffffffffffffffffffffffffffffffffffffff1673ffffffffffffffffffffffffffffffffffffffff16815260200190815260200160002060008585858181106109c2576109c1612cf6565b5b90506020020160208101906109d7919061233a565b67ffffffffffffffff1667ffffffffffffffff16815260200190815260200160002060009054906101000a900460ff166002811115610a1957610a18612c03565b5b03610b5b576001600760008673ffffffffffffffffffffffffffffffffffffffff1673ffffffffffffffffffffffffffffffffffffffff1681526020019081526020016000206000858585818110610a7457610a73612cf6565b5b9050602002016020810190610a89919061233a565b67ffffffffffffffff1667ffffffffffffffff16815260200190815260200160002060006101000a81548160ff02191690836002811115610acd57610acc612c03565b5b0217905550600a60000b600160008673ffffffffffffffffffffffffffffffffffffffff1673ffffffffffffffffffffffffffffffffffffffff16815260200190815260200160002060008282829054906101000a900460070b610b319190612ba3565b92506101000a81548167ffffffffffffffff021916908360070b67ffffffffffffffff1602179055505b80610b6590612d25565b905061094f565b507f50f0ac35fb060ec2eb1b1051209ac69e7caa16f70e8fb9f469fa3befdd5cb8ca83604051610b9c9190612d6d565b60405180910390a1505050565b600281565b6060600a60003373ffffffffffffffffffffffffffffffffffffffff1673ffffffffffffffffffffffffffffffffffffffff168152602001908152602001600020805480602002602001604051908101604052809291908181526020016000905b82821015610cbb578382906000526020600020018054610c2e906127cb565b80601f0160208091040260200160405190810160405280929190818152602001828054610c5a906127cb565b8015610ca75780601f10610c7c57610100808354040283529160200191610ca7565b820191906000526020600020905b815481529060010190602001808311610c8a57829003601f168201915b505050505081526020019060010190610c0f565b50505050905090565b600281565b600060058383604051610cdd929190612afb565b9081526020016040518091039020600001601c9054906101000a900460ff16905092915050565b7fafe0d4e783559eddc1189e4f3ec5fb8c740c1585d164c301b9cb502984dd03cf33604051610d339190612d6d565b60405180910390a1565b6000600260000b600160003373ffffffffffffffffffffffffffffffffffffffff1673ffffffffffffffffffffffffffffffffffffffff16815260200190815260200160002060009054906101000a900460070b60070b1215610dd5576040517f08c379a0000000000000000000000000000000000000000000000000000000008152600401610dcc90612dd4565b60405180910390fd5b60058383604051610de7929190612afb565b9081526020016040518091039020600001601c9054906101000a900460ff1615610e46576040517f08c379a0000000000000000000000000000000000000000000000000000000008152600401610e3d90612e40565b60405180910390fd5b60016002811115610e5a57610e59612c03565b5b600760003373ffffffffffffffffffffffffffffffffffffffff1673ffffffffffffffffffffffffffffffffffffffff16815260200190815260200160002060008667ffffffffffffffff1667ffffffffffffffff16815260200190815260200160002060009054906101000a900460ff166002811115610ede57610edd612c03565b5b14610f1e576040517f08c379a0000000000000000000000000000000000000000000000000000000008152600401610f1590612ed2565b60405180910390fd5b600360008567ffffffffffffffff1667ffffffffffffffff16815260200190815260200160002060010160009054906101000a900460ff16610f95576040517f08c379a0000000000000000000000000000000000000000000000000000000008152600401610f8c90612f3e565b60405180910390fd5b600060405180606001604052803373ffffffffffffffffffffffffffffffffffffffff168152602001600160070b8152602001600115158152509050600660003373ffffffffffffffffffffffffffffffffffffffff1673ffffffffffffffffffffffffffffffffffffffff16815260200190815260200160002084849091806001815401808255809150506001900390600052602060002001600090919290919290919290919250918261104b9291906129ec565b50806005858560405161105f929190612afb565b908152602001604051809103902060008201518160000160006101000a81548173ffffffffffffffffffffffffffffffffffffffff021916908373ffffffffffffffffffffffffffffffffffffffff16021790555060208201518160000160146101000a81548167ffffffffffffffff021916908360070b67ffffffffffffffff160217905550604082015181600001601c6101000a81548160ff021916908315150217905550905050600360008667ffffffffffffffff1667ffffffffffffffff16815260200190815260200160002060000184849091806001815401808255809150506001900390600052602060002001600090919290919290919290919250918261116e9291906129ec565b50600260000b600160003373ffffffffffffffffffffffffffffffffffffffff1673ffffffffffffffffffffffffffffffffffffffff16815260200190815260200160002060008282829054906101000a900460070b6111ce9190612b43565b92506101000a81548167ffffffffffffffff021916908360070b67ffffffffffffffff160217905550600160000b600260003373ffffffffffffffffffffffffffffffffffffffff1673ffffffffffffffffffffffffffffffffffffffff16815260200190815260200160002060008282829054906101000a900460070b6112569190612ba3565b92506101000a81548167ffffffffffffffff021916908360070b67ffffffffffffffff1602179055506002600760003373ffffffffffffffffffffffffffffffffffffffff1673ffffffffffffffffffffffffffffffffffffffff16815260200190815260200160002060008767ffffffffffffffff1667ffffffffffffffff16815260200190815260200160002060006101000a81548160ff0219169083600281111561130757611306612c03565b5b021790555060019150509392505050565b6000600260003373ffffffffffffffffffffffffffffffffffffffff1673ffffffffffffffffffffffffffffffffffffffff16815260200190815260200160002060009054906101000a900460070b905090565b600260003373ffffffffffffffffffffffffffffffffffffffff1673ffffffffffffffffffffffffffffffffffffffff16815260200190815260200160002060009054906101000a900460070b60070b600983836040516113ce929190612afb565b908152602001604051809103902060009054906101000a900460070b60070b1361142d576040517f08c379a000000000000000000000000000000000000000000000000000000000815260040161142490612dd4565b60405180910390fd5b6009828260405161143f929190612afb565b908152602001604051809103902060009054906101000a900460070b600260003373ffffffffffffffffffffffffffffffffffffffff1673ffffffffffffffffffffffffffffffffffffffff16815260200190815260200160002060008282829054906101000a900460070b6114b59190612b43565b92506101000a81548167ffffffffffffffff021916908360070b67ffffffffffffffff160217905550600a60003373ffffffffffffffffffffffffffffffffffffffff1673ffffffffffffffffffffffffffffffffffffffff1681526020019081526020016000208282909180600181540180825580915050600190039060005260206000200160009091929091929091929091925091826115589291906129ec565b505050565b6000600160003373ffffffffffffffffffffffffffffffffffffffff1673ffffffffffffffffffffffffffffffffffffffff16815260200190815260200160002060009054906101000a900460070b905090565b60606008805480602002602001604051908101604052809291908181526020016000905b828210156116815783829060005260206000200180546115f4906127cb565b80601f0160208091040260200160405190810160405280929190818152602001828054611620906127cb565b801561166d5780601f106116425761010080835404028352916020019161166d565b820191906000526020600020905b81548152906001019060200180831161165057829003601f168201915b5050505050815260200190600101906115d5565b50505050905090565b60008054906101000a900473ffffffffffffffffffffffffffffffffffffffff1673ffffffffffffffffffffffffffffffffffffffff163373ffffffffffffffffffffffffffffffffffffffff16146116e257600080fd5b6001600760008473ffffffffffffffffffffffffffffffffffffffff1673ffffffffffffffffffffffffffffffffffffffff16815260200190815260200160002060008367ffffffffffffffff1667ffffffffffffffff16815260200190815260200160002060006101000a81548160ff0219169083600281111561176a57611769612c03565b5b0217905550600a60000b600160008473ffffffffffffffffffffffffffffffffffffffff1673ffffffffffffffffffffffffffffffffffffffff16815260200190815260200160002060008282829054906101000a900460070b6117ce9190612ba3565b92506101000a81548167ffffffffffffffff021916908360070b67ffffffffffffffff1602179055507f50f0ac35fb060ec2eb1b1051209ac69e7caa16f70e8fb9f469fa3befdd5cb8ca826040516118269190612d6d565b60405180910390a15050565b60008054906101000a900473ffffffffffffffffffffffffffffffffffffffff1673ffffffffffffffffffffffffffffffffffffffff163373ffffffffffffffffffffffffffffffffffffffff161461188a57600080fd5b60005b82829050811015611a845760006040518060400160405280600067ffffffffffffffff8111156118c0576118bf612807565b5b6040519080825280602002602001820160405280156118f357816020015b60608152602001906001900390816118de5790505b5081526020016001151581525090506003600085858581811061191957611918612cf6565b5b905060200201602081019061192e919061233a565b67ffffffffffffffff1667ffffffffffffffff16815260200190815260200160002060010160009054906101000a900460ff16611a7257600484848481811061197a57611979612cf6565b5b905060200201602081019061198f919061233a565b90806001815401808255809150506001900390600052602060002090600491828204019190066008029091909190916101000a81548167ffffffffffffffff021916908367ffffffffffffffff16021790555080600360008686868181106119fa576119f9612cf6565b5b9050602002016020810190611a0f919061233a565b67ffffffffffffffff1667ffffffffffffffff1681526020019081526020016000206000820151816000019080519060200190611a4d929190611f04565b5060208201518160010160006101000a81548160ff0219169083151502179055509050505b5080611a7d90612d25565b905061188d565b505050565b600181565b60606004805480602002602001604051908101604052809291908181526020018280548015611b1057602002820191906000526020600020906000905b82829054906101000a900467ffffffffffffffff1667ffffffffffffffff1681526020019060080190602082600701049283019260010382029150808411611acb5790505b5050505050905090565b611b22611f5d565b600360008367ffffffffffffffff1667ffffffffffffffff16815260200190815260200160002060010160009054906101000a900460ff16611b99576040517f08c379a0000000000000000000000000000000000000000000000000000000008152600401611b9090612f3e565b60405180910390fd5b600360008367ffffffffffffffff1667ffffffffffffffff16815260200190815260200160002060405180604001604052908160008201805480602002602001604051908101604052809291908181526020016000905b82821015611c9c578382906000526020600020018054611c0f906127cb565b80601f0160208091040260200160405190810160405280929190818152602001828054611c3b906127cb565b8015611c885780601f10611c5d57610100808354040283529160200191611c88565b820191906000526020600020905b815481529060010190602001808311611c6b57829003601f168201915b505050505081526020019060010190611bf0565b5050505081526020016001820160009054906101000a900460ff1615151515815250509050919050565b60008054906101000a900473ffffffffffffffffffffffffffffffffffffffff1673ffffffffffffffffffffffffffffffffffffffff163373ffffffffffffffffffffffffffffffffffffffff1614611d1e57600080fd5b600360008267ffffffffffffffff1667ffffffffffffffff16815260200190815260200160002060010160009054906101000a900460ff1615611d96576040517f08c379a0000000000000000000000000000000000000000000000000000000008152600401611d8d90612faa565b60405180910390fd5b60006040518060400160405280600067ffffffffffffffff811115611dbe57611dbd612807565b5b604051908082528060200260200182016040528015611df157816020015b6060815260200190600190039081611ddc5790505b508152602001600115158152509050600360008367ffffffffffffffff1667ffffffffffffffff16815260200190815260200160002060010160009054906101000a900460ff16611efb5760048290806001815401808255809150506001900390600052602060002090600491828204019190066008029091909190916101000a81548167ffffffffffffffff021916908367ffffffffffffffff16021790555080600360008467ffffffffffffffff1667ffffffffffffffff1681526020019081526020016000206000820151816000019080519060200190611ed6929190611f04565b5060208201518160010160006101000a81548160ff0219169083151502179055509050505b5050565b600181565b828054828255906000526020600020908101928215611f4c579160200282015b82811115611f4b578251829081611f3b9190612fca565b5091602001919060010190611f24565b5b509050611f599190611f79565b5090565b6040518060400160405280606081526020016000151581525090565b5b80821115611f995760008181611f909190611f9d565b50600101611f7a565b5090565b508054611fa9906127cb565b6000825580601f10611fbb5750611fda565b601f016020900490600052602060002090810190611fd99190611fdd565b5b50565b5b80821115611ff6576000816000905550600101611fde565b5090565b60008160000b9050919050565b61201081611ffa565b82525050565b600060208201905061202b6000830184612007565b92915050565b600081519050919050565b600082825260208201905092915050565b6000819050602082019050919050565b600081519050919050565b600082825260208201905092915050565b60005b8381101561209757808201518184015260208101905061207c565b60008484015250505050565b6000601f19601f8301169050919050565b60006120bf8261205d565b6120c98185612068565b93506120d9818560208601612079565b6120e2816120a3565b840191505092915050565b60006120f983836120b4565b905092915050565b6000602082019050919050565b600061211982612031565b612123818561203c565b9350836020820285016121358561204d565b8060005b85811015612171578484038952815161215285826120ed565b945061215d83612101565b925060208a01995050600181019050612139565b50829750879550505050505092915050565b6000602082019050818103600083015261219d818461210e565b905092915050565b600080fd5b600080fd5b600080fd5b600080fd5b600080fd5b60008083601f8401126121d4576121d36121af565b5b8235905067ffffffffffffffff8111156121f1576121f06121b4565b5b60208301915083600182028301111561220d5761220c6121b9565b5b9250929050565b60008160070b9050919050565b61222a81612214565b811461223557600080fd5b50565b60008135905061224781612221565b92915050565b600080600060408486031215612266576122656121a5565b5b600084013567ffffffffffffffff811115612284576122836121aa565b5b612290868287016121be565b935093505060206122a386828701612238565b9150509250925092565b600080602083850312156122c4576122c36121a5565b5b600083013567ffffffffffffffff8111156122e2576122e16121aa565b5b6122ee858286016121be565b92509250509250929050565b600067ffffffffffffffff82169050919050565b612317816122fa565b811461232257600080fd5b50565b6000813590506123348161230e565b92915050565b6000602082840312156123505761234f6121a5565b5b600061235e84828501612325565b91505092915050565b600073ffffffffffffffffffffffffffffffffffffffff82169050919050565b600061239282612367565b9050919050565b6123a281612387565b81146123ad57600080fd5b50565b6000813590506123bf81612399565b92915050565b60008083601f8401126123db576123da6121af565b5b8235905067ffffffffffffffff8111156123f8576123f76121b4565b5b602083019150836020820283011115612414576124136121b9565b5b9250929050565b600080600060408486031215612434576124336121a5565b5b6000612442868287016123b0565b935050602084013567ffffffffffffffff811115612463576124626121aa565b5b61246f868287016123c5565b92509250509250925092565b60008115159050919050565b6124908161247b565b82525050565b60006020820190506124ab6000830184612487565b92915050565b6000806000604084860312156124ca576124c96121a5565b5b60006124d886828701612325565b935050602084013567ffffffffffffffff8111156124f9576124f86121aa565b5b612505868287016121be565b92509250509250925092565b61251a81612214565b82525050565b60006020820190506125356000830184612511565b92915050565b60008060408385031215612552576125516121a5565b5b6000612560858286016123b0565b925050602061257185828601612325565b9150509250929050565b60008060208385031215612592576125916121a5565b5b600083013567ffffffffffffffff8111156125b0576125af6121aa565b5b6125bc858286016123c5565b92509250509250929050565b600081519050919050565b600082825260208201905092915050565b6000819050602082019050919050565b6125fd816122fa565b82525050565b600061260f83836125f4565b60208301905092915050565b6000602082019050919050565b6000612633826125c8565b61263d81856125d3565b9350612648836125e4565b8060005b838110156126795781516126608882612603565b975061266b8361261b565b92505060018101905061264c565b5085935050505092915050565b600060208201905081810360008301526126a08184612628565b905092915050565b600082825260208201905092915050565b60006126c482612031565b6126ce81856126a8565b9350836020820285016126e08561204d565b8060005b8581101561271c57848403895281516126fd85826120ed565b945061270883612101565b925060208a019950506001810190506126e4565b50829750879550505050505092915050565b6127378161247b565b82525050565b6000604083016000830151848203600086015261275a82826126b9565b915050602083015161276f602086018261272e565b508091505092915050565b60006020820190508181036000830152612794818461273d565b905092915050565b7f4e487b7100000000000000000000000000000000000000000000000000000000600052602260045260246000fd5b600060028204905060018216806127e357607f821691505b6020821081036127f6576127f561279c565b5b50919050565b600082905092915050565b7f4e487b7100000000000000000000000000000000000000000000000000000000600052604160045260246000fd5b60008190508160005260206000209050919050565b60006020601f8301049050919050565b600082821b905092915050565b6000600883026128987fffffffffffffffffffffffffffffffffffffffffffffffffffffffffffffffff8261285b565b6128a2868361285b565b95508019841693508086168417925050509392505050565b6000819050919050565b6000819050919050565b60006128e96128e46128df846128ba565b6128c4565b6128ba565b9050919050565b6000819050919050565b612903836128ce565b61291761290f826128f0565b848454612868565b825550505050565b600090565b61292c61291f565b6129378184846128fa565b505050565b5b8181101561295b57612950600082612924565b60018101905061293d565b5050565b601f8211156129a05761297181612836565b61297a8461284b565b81016020851015612989578190505b61299d6129958561284b565b83018261293c565b50505b505050565b600082821c905092915050565b60006129c3600019846008026129a5565b1980831691505092915050565b60006129dc83836129b2565b9150826002028217905092915050565b6129f683836127fc565b67ffffffffffffffff811115612a0f57612a0e612807565b5b612a1982546127cb565b612a2482828561295f565b6000601f831160018114612a535760008415612a41578287013590505b612a4b85826129d0565b865550612ab3565b601f198416612a6186612836565b60005b82811015612a8957848901358255600182019150602085019450602081019050612a64565b86831015612aa65784890135612aa2601f8916826129b2565b8355505b6001600288020188555050505b50505050505050565b600081905092915050565b82818337600083830152505050565b6000612ae28385612abc565b9350612aef838584612ac7565b82840190509392505050565b6000612b08828486612ad6565b91508190509392505050565b7f4e487b7100000000000000000000000000000000000000000000000000000000600052601160045260246000fd5b6000612b4e82612214565b9150612b5983612214565b92508282039050677fffffffffffffff81137fffffffffffffffffffffffffffffffffffffffffffffffff800000000000000082121715612b9d57612b9c612b14565b5b92915050565b6000612bae82612214565b9150612bb983612214565b925082820190507fffffffffffffffffffffffffffffffffffffffffffffffff80000000000000008112677fffffffffffffff82131715612bfd57612bfc612b14565b5b92915050565b7f4e487b7100000000000000000000000000000000000000000000000000000000600052602160045260246000fd5b600082825260208201905092915050565b7f50726f6475637420616c726561647920636c61696d6564000000000000000000600082015250565b6000612c79601783612c32565b9150612c8482612c43565b602082019050919050565b60006020820190508181036000830152612ca881612c6c565b9050919050565b612cb881612387565b82525050565b612cc7816122fa565b82525050565b6000604082019050612ce26000830185612caf565b612cef6020830184612cbe565b9392505050565b7f4e487b7100000000000000000000000000000000000000000000000000000000600052603260045260246000fd5b6000612d30826128ba565b91507fffffffffffffffffffffffffffffffffffffffffffffffffffffffffffffffff8203612d6257612d61612b14565b5b600182019050919050565b6000602082019050612d826000830184612caf565b92915050565b7f4e6f7420656e6f75676820746f6b656e73000000000000000000000000000000600082015250565b6000612dbe601183612c32565b9150612dc982612d88565b602082019050919050565b60006020820190508181036000830152612ded81612db1565b9050919050565b7f52657669657720616c7265616479206578697374730000000000000000000000600082015250565b6000612e2a601583612c32565b9150612e3582612df4565b602082019050919050565b60006020820190508181036000830152612e5981612e1d565b9050919050565b7f50726f64756374206e6f7420636c61696d6564206f7220616c7265616479207260008201527f6576696577656400000000000000000000000000000000000000000000000000602082015250565b6000612ebc602783612c32565b9150612ec782612e60565b604082019050919050565b60006020820190508181036000830152612eeb81612eaf565b9050919050565b7f50726f6475637420646f65736e27742065786973740000000000000000000000600082015250565b6000612f28601583612c32565b9150612f3382612ef2565b602082019050919050565b60006020820190508181036000830152612f5781612f1b565b9050919050565b7f50726f6475637420616c72656164792065786973747300000000000000000000600082015250565b6000612f94601683612c32565b9150612f9f82612f5e565b602082019050919050565b60006020820190508181036000830152612fc381612f87565b9050919050565b612fd38261205d565b67ffffffffffffffff811115612fec57612feb612807565b5b612ff682546127cb565b61300182828561295f565b600060209050601f8311600181146130345760008415613022578287015190505b61302c85826129d0565b865550613094565b601f19841661304286612836565b60005b8281101561306a57848901518255600182019150602085019450602081019050613045565b868310156130875784890151613083601f8916826129b2565b8355505b6001600288020188555050505b50505050505056fea26469706673582212206de98d65d5afbfe6c1adbde588362ce550a7aa1ce7a53d199614b7708294c0a364736f6c63430008110033",
  "immutableReferences": {},
  "source": "// SPDX-License-Identifier: GPL-v3\n\npragma solidity >=0.7.0 <0.9;\n\ncontract Derp {\n    enum ProductState {\n        UNCLAIMED,\n        CLAIMED,\n        REVIEWED\n    }\n\n    // The product for which an user wants to make a review.\n    // This is indexed as a combination of the store ID and the product ID\n    // local to that store.\n    //\n    // Example:\n    //    store ID = 1,\n    //    local product ID = 1,\n    //    product ID = 0x100000001\n    struct Product {\n        bytes[] reviewHashes;\n        bool _initialized;\n    }\n\n    // A review made by a reviewer.\n    // The text of the review is stored on IPFS.\n    struct Review {\n        address reviewer;\n        int64 upvotes;\n        bool _initialized;\n    }\n\n    // The deployer of the contract.\n    // Used to check the authenticity of the reviews.\n    address private owner;\n\n    // Mapping for the NFTs used on the website.\n    mapping(address => int64) private reviewTokens;\n    mapping(address => int64) private profileTokens;\n\n    // Mapping from the uint64 product ID to the stored products.\n    mapping(uint64 => Product) private products;\n\n    // Array used to retrieve all the products stored on-chain.\n    uint64[] private registeredProducts;\n\n    // Mapping from the IPFS' Content Identifier of the review to the actual\n    // review.\n    mapping(bytes => Review) private reviews;\n\n    // Mapping used for retrieving the IPFS' CIDs of the reviews made by an\n    // address.\n    mapping(address => bytes[]) private reviewsFromAddress;\n\n    // Mapping of the products actually claimed by an user.\n    // Used to store on-chain the validity of the reviews.\n    mapping(address => mapping(uint64 => ProductState)) private productsClaimed;\n\n    //Array used to retrieve all the profile items stored on-chain\n    //that can be bought with user tokens\n    //This could be expanded in the future with a struct\n    bytes[] private profileItems; \n\n    //Mapping with the price of profile items\n    mapping(bytes => int64) private profileItemPrices;\n\n    //Mapping with a list of item profile purchased by a user\n    mapping(address => bytes[]) private userProfileItems;\n\n    // Events emitted when an user wants to know if some review tokens can be\n    // obtained.\n    //\n    // ReviewTokensGranted is emitted when the response is affirmative.\n    event AllReviewTokensRequested(address account);\n    event ReviewTokenRequested(address account, uint64 product);\n    event ReviewTokensGranted(address account);\n\n    // Event emitted when an user wants to refresh the products for which they\n    // can create a review.\n    event ProductRefreshRequested();\n\n    // Constants used by the contract\n\n    int8 public constant REVIEW_COST = 2;\n    int8 public constant REVIEW_REWARD = 1;\n    int8 public constant UPVOTE_COST = 2;\n    int8 public constant UPVOTE_REWARD = 1;\n    int8 public constant PER_PURCHASE_TOKENS = 10;\n\n    modifier onlyOwner() {\n        require(msg.sender == owner);\n        _;\n    }\n\n    constructor() {\n        owner = msg.sender;\n    }\n\n    function requestAllReviewTokens() external {\n        emit AllReviewTokensRequested(msg.sender);\n    }\n\n    function requestReviewToken(uint64 productId) external {\n        // Check if the product was already claimed.\n        require(\n            productsClaimed[msg.sender][productId] == ProductState.UNCLAIMED,\n            \"Product already claimed\"\n        );\n\n        emit ReviewTokenRequested(msg.sender, productId);\n    }\n\n    function rewardReviewToken(address account, uint64 productId)\n        external\n        onlyOwner\n    {\n        productsClaimed[account][productId] = ProductState.CLAIMED;\n        reviewTokens[account] += PER_PURCHASE_TOKENS;\n\n        emit ReviewTokensGranted(account);\n    }\n\n    function rewardReviewTokens(address account, uint64[] calldata productIds)\n        external\n        onlyOwner\n    {\n        for (uint256 i = 0; i < productIds.length; ++i) {\n            if (\n                productsClaimed[account][productIds[i]] ==\n                ProductState.UNCLAIMED\n            ) {\n                productsClaimed[account][productIds[i]] = ProductState.CLAIMED;\n                reviewTokens[account] += PER_PURCHASE_TOKENS;\n            }\n        }\n\n        emit ReviewTokensGranted(account);\n    }\n\n    // Reviewer is msg.sender\n    function makeReview(uint64 productId, bytes calldata reviewHash)\n        external\n        returns (bool)\n    {\n        require(reviewTokens[msg.sender] >= REVIEW_COST, \"Not enough tokens\");\n        require(!reviews[reviewHash]._initialized, \"Review already exists\");\n\n        // Stops the user from making reviews of products they have not claimed.\n        require(\n            productsClaimed[msg.sender][productId] == ProductState.CLAIMED,\n            \"Product not claimed or already reviewed\"\n        );\n\n        // Avoids creating a review for a product that doesn't exist.\n        require(products[productId]._initialized, \"Product doesn't exist\");\n\n        Review memory r = Review({\n            reviewer: msg.sender,\n            upvotes: 1,\n            _initialized: true\n        });\n\n        reviewsFromAddress[msg.sender].push(reviewHash);\n\n        reviews[reviewHash] = r;\n        products[productId].reviewHashes.push(reviewHash);\n\n        reviewTokens[msg.sender] -= REVIEW_COST;\n        profileTokens[msg.sender] += REVIEW_REWARD;\n\n        productsClaimed[msg.sender][productId] = ProductState.REVIEWED;\n\n        return true;\n    }\n\n    function upvoteReview(bytes calldata reviewHash) external {\n        Review storage review = reviews[reviewHash];\n        require(review._initialized);\n        require(reviewTokens[msg.sender] >= UPVOTE_COST);\n\n        reviewTokens[msg.sender] -= UPVOTE_COST;\n\n        review.upvotes += 1;\n\n        profileTokens[review.reviewer] += UPVOTE_REWARD;\n    }\n\n    function addProduct(uint64 productId) external onlyOwner {\n        require(!products[productId]._initialized, \"Product already exists\");\n\n        Product memory p = Product({\n            _initialized: true,\n            reviewHashes: new bytes[](0)\n        });\n\n        if (!products[productId]._initialized) {\n            registeredProducts.push(productId);\n            products[productId] = p;\n        }\n    }\n\n    function addProducts(uint64[] calldata productIds) external onlyOwner {\n        for (uint256 i = 0; i < productIds.length; ++i) {\n            Product memory p = Product({\n                _initialized: true,\n                reviewHashes: new bytes[](0)\n            });\n\n            if (!products[productIds[i]]._initialized) {\n                registeredProducts.push(productIds[i]);\n                products[productIds[i]] = p;\n            }\n        }\n    }\n\n    function buyProfileItem(bytes calldata itemHash) external {\n        require(\n            profileItemPrices[itemHash] > profileTokens[msg.sender],\n            \"Not enough tokens\"\n        );\n\n        profileTokens[msg.sender] -= profileItemPrices[itemHash];\n        userProfileItems[msg.sender].push(itemHash); \n    }\n\n    //This function allows to register new NFTS for the profile\n    //TODO: It can be called only by the server \n    function addProfileItem(bytes calldata itemHash, int64 price)\n        external\n    {\n        //itemHash is the hash of the css from ipfs\n        profileItems.push(itemHash);\n        //We also update the price in the mapping\n        profileItemPrices[itemHash] = price;\n    }\n\n    // Utility functions below\n    // You should only call these functions on your local node without\n    // spending gas.\n\n    function reviewExists(bytes calldata reviewHash)\n        public\n        view\n        returns (bool)\n    {\n        return reviews[reviewHash]._initialized;\n    }\n\n    function getProduct(uint64 productId) public view returns (Product memory) {\n        require(products[productId]._initialized, \"Product doesn't exist\");\n\n        return products[productId];\n    }\n\n    function getProducts() public view returns (uint64[] memory) {\n        return registeredProducts;\n    }\n\n    function getReviewTokens() public view returns (int64) {\n        return reviewTokens[msg.sender];\n    }\n\n    function getProfileTokens() public view returns (int64) {\n        return profileTokens[msg.sender];\n    }\n\n    function getReviews() public view returns (bytes[] memory) {\n        return reviewsFromAddress[msg.sender];\n    }\n\n    function getProfileItems() public view returns (bytes[] memory){\n        return userProfileItems[msg.sender];\n    }\n\n    function getBuyableProfileItems() public view returns (bytes[] memory){\n        return profileItems;\n    }\n}\n",
  "sourcePath": "/app/contracts/Derp.sol",
  "compiler": {
    "name": "solc",
    "version": "0.8.17+commit.8df45f5f.Emscripten.clang"
  },
  "schemaVersion": "3.4.11",
  "updatedAt": "2023-01-24T22:15:23.785Z",
  "networkType": "ethereum",
  "devdoc": {
    "kind": "dev",
    "methods": {},
    "version": 1
  },
  "userdoc": {
    "kind": "user",
    "methods": {},
    "version": 1
  }
}