{
  "contractName": "Derp",
  "abi": [
    {
      "inputs": [],
      "stateMutability": "nonpayable",
      "type": "constructor"
    },
    {
      "anonymous": false,
      "inputs": [
        {
          "indexed": false,
          "internalType": "address",
          "name": "account",
          "type": "address"
        }
      ],
      "name": "AllReviewTokensRequested",
      "type": "event"
    },
    {
      "anonymous": false,
      "inputs": [],
      "name": "ProductRefreshRequested",
      "type": "event"
    },
    {
      "anonymous": false,
      "inputs": [
        {
          "indexed": false,
          "internalType": "address",
          "name": "account",
          "type": "address"
        },
        {
          "indexed": false,
          "internalType": "uint64",
          "name": "product",
          "type": "uint64"
        }
      ],
      "name": "ReviewTokenRequested",
      "type": "event"
    },
    {
      "anonymous": false,
      "inputs": [
        {
          "indexed": false,
          "internalType": "address",
          "name": "account",
          "type": "address"
        }
      ],
      "name": "ReviewTokensGranted",
      "type": "event"
    },
    {
      "inputs": [],
      "name": "PER_PURCHASE_TOKENS",
      "outputs": [
        {
          "internalType": "int8",
          "name": "",
          "type": "int8"
        }
      ],
      "stateMutability": "view",
      "type": "function",
      "constant": true
    },
    {
      "inputs": [],
      "name": "REVIEW_COST",
      "outputs": [
        {
          "internalType": "int8",
          "name": "",
          "type": "int8"
        }
      ],
      "stateMutability": "view",
      "type": "function",
      "constant": true
    },
    {
      "inputs": [],
      "name": "REVIEW_REWARD",
      "outputs": [
        {
          "internalType": "int8",
          "name": "",
          "type": "int8"
        }
      ],
      "stateMutability": "view",
      "type": "function",
      "constant": true
    },
    {
      "inputs": [],
      "name": "UPVOTE_COST",
      "outputs": [
        {
          "internalType": "int8",
          "name": "",
          "type": "int8"
        }
      ],
      "stateMutability": "view",
      "type": "function",
      "constant": true
    },
    {
      "inputs": [],
      "name": "UPVOTE_REWARD",
      "outputs": [
        {
          "internalType": "int8",
          "name": "",
          "type": "int8"
        }
      ],
      "stateMutability": "view",
      "type": "function",
      "constant": true
    },
    {
      "inputs": [],
      "name": "requestAllReviewTokens",
      "outputs": [],
      "stateMutability": "nonpayable",
      "type": "function"
    },
    {
      "inputs": [
        {
          "internalType": "uint64",
          "name": "productId",
          "type": "uint64"
        }
      ],
      "name": "requestReviewToken",
      "outputs": [],
      "stateMutability": "nonpayable",
      "type": "function"
    },
    {
      "inputs": [
        {
          "internalType": "address",
          "name": "account",
          "type": "address"
        },
        {
          "internalType": "uint64",
          "name": "productId",
          "type": "uint64"
        }
      ],
      "name": "rewardReviewToken",
      "outputs": [],
      "stateMutability": "nonpayable",
      "type": "function"
    },
    {
      "inputs": [
        {
          "internalType": "address",
          "name": "account",
          "type": "address"
        },
        {
          "internalType": "uint64[]",
          "name": "productIds",
          "type": "uint64[]"
        },
        {
          "internalType": "uint256",
          "name": "length",
          "type": "uint256"
        }
      ],
      "name": "rewardReviewTokens",
      "outputs": [],
      "stateMutability": "nonpayable",
      "type": "function"
    },
    {
      "inputs": [
        {
          "internalType": "uint64",
          "name": "productId",
          "type": "uint64"
        },
        {
          "internalType": "bytes",
          "name": "reviewHash",
          "type": "bytes"
        }
      ],
      "name": "makeReview",
      "outputs": [
        {
          "internalType": "bool",
          "name": "",
          "type": "bool"
        }
      ],
      "stateMutability": "nonpayable",
      "type": "function"
    },
    {
      "inputs": [
        {
          "internalType": "bytes",
          "name": "reviewHash",
          "type": "bytes"
        }
      ],
      "name": "upvoteReview",
      "outputs": [],
      "stateMutability": "nonpayable",
      "type": "function"
    },
    {
      "inputs": [
        {
          "internalType": "uint64",
          "name": "productId",
          "type": "uint64"
        }
      ],
      "name": "addProduct",
      "outputs": [],
      "stateMutability": "nonpayable",
      "type": "function"
    },
    {
      "inputs": [
        {
          "internalType": "uint64[]",
          "name": "productIds",
          "type": "uint64[]"
        }
      ],
      "name": "addProducts",
      "outputs": [],
      "stateMutability": "nonpayable",
      "type": "function"
    },
    {
      "inputs": [
        {
          "internalType": "bytes",
          "name": "itemHash",
          "type": "bytes"
        }
      ],
      "name": "buyProfileItem",
      "outputs": [],
      "stateMutability": "nonpayable",
      "type": "function"
    },
    {
      "inputs": [
        {
          "internalType": "bytes",
          "name": "itemHash",
          "type": "bytes"
        },
        {
          "internalType": "int64",
          "name": "price",
          "type": "int64"
        }
      ],
      "name": "addProfileItem",
      "outputs": [],
      "stateMutability": "nonpayable",
      "type": "function"
    },
    {
      "inputs": [
        {
          "internalType": "bytes",
          "name": "reviewHash",
          "type": "bytes"
        }
      ],
      "name": "reviewExists",
      "outputs": [
        {
          "internalType": "bool",
          "name": "",
          "type": "bool"
        }
      ],
      "stateMutability": "view",
      "type": "function",
      "constant": true
    },
    {
      "inputs": [
        {
          "internalType": "uint64",
          "name": "productId",
          "type": "uint64"
        }
      ],
      "name": "getProduct",
      "outputs": [
        {
          "components": [
            {
              "internalType": "bytes[]",
              "name": "reviewHashes",
              "type": "bytes[]"
            },
            {
              "internalType": "bool",
              "name": "_initialized",
              "type": "bool"
            }
          ],
          "internalType": "struct Derp.Product",
          "name": "",
          "type": "tuple"
        }
      ],
      "stateMutability": "view",
      "type": "function",
      "constant": true
    },
    {
      "inputs": [],
      "name": "getProducts",
      "outputs": [
        {
          "internalType": "uint64[]",
          "name": "",
          "type": "uint64[]"
        }
      ],
      "stateMutability": "view",
      "type": "function",
      "constant": true
    },
    {
      "inputs": [],
      "name": "getProductsToBeReviewed",
      "outputs": [
        {
          "internalType": "uint64[]",
          "name": "",
          "type": "uint64[]"
        }
      ],
      "stateMutability": "view",
      "type": "function",
      "constant": true
    },
    {
      "inputs": [
        {
          "internalType": "address",
          "name": "account",
          "type": "address"
        }
      ],
      "name": "getClaimedProductsFromAccount",
      "outputs": [
        {
          "internalType": "uint64[]",
          "name": "",
          "type": "uint64[]"
        }
      ],
      "stateMutability": "view",
      "type": "function",
      "constant": true
    },
    {
      "inputs": [],
      "name": "getReviewTokens",
      "outputs": [
        {
          "internalType": "int64",
          "name": "",
          "type": "int64"
        }
      ],
      "stateMutability": "view",
      "type": "function",
      "constant": true
    },
    {
      "inputs": [],
      "name": "getProfileTokens",
      "outputs": [
        {
          "internalType": "int64",
          "name": "",
          "type": "int64"
        }
      ],
      "stateMutability": "view",
      "type": "function",
      "constant": true
    },
    {
      "inputs": [],
      "name": "getReviews",
      "outputs": [
        {
          "internalType": "bytes[]",
          "name": "",
          "type": "bytes[]"
        }
      ],
      "stateMutability": "view",
      "type": "function",
      "constant": true
    },
    {
      "inputs": [],
      "name": "getProfileItems",
      "outputs": [
        {
          "internalType": "bytes[]",
          "name": "",
          "type": "bytes[]"
        }
      ],
      "stateMutability": "view",
      "type": "function",
      "constant": true
    },
    {
      "inputs": [],
      "name": "getBuyableProfileItems",
      "outputs": [
        {
          "internalType": "bytes[]",
          "name": "",
          "type": "bytes[]"
        }
      ],
      "stateMutability": "view",
      "type": "function",
      "constant": true
    },
    {
      "inputs": [],
      "name": "getUserProfileItems",
      "outputs": [
        {
          "internalType": "bytes[]",
          "name": "",
          "type": "bytes[]"
        }
      ],
      "stateMutability": "view",
      "type": "function",
      "constant": true
    }
  ],
  "bytecode": "0x608060405234801561001057600080fd5b50336000806101000a81548173ffffffffffffffffffffffffffffffffffffffff021916908373ffffffffffffffffffffffffffffffffffffffff160217905550613ceb806100606000396000f3fe608060405234801561001057600080fd5b506004361061018e5760003560e01c806389d3f623116100de578063b570da7411610097578063e904394c11610071578063e904394c14610429578063efea5e9614610459578063f12eecf014610475578063fa95bbbf146104a55761018e565b8063b570da74146103cf578063c29b2f20146103ed578063c713ff371461040b5761018e565b806389d3f6231461032157806396593c9e1461033d578063a8566e4e1461035b578063ab95c8f314610379578063ac144ee214610395578063b100488f146103b15761018e565b806367297c271161014b5780636caaca10116101255780636caaca10146102ad5780636d1febb1146102b75780637c89f5b3146102e75780637fd7fe80146103055761018e565b806367297c271461024157806368cf232d1461025f5780636c4abdb11461027d5761018e565b80630bfa59c2146101935780631b1e1324146101b1578063318a4003146101cf578063396c6226146101eb578063429c4c21146102075780635edda63b14610223575b600080fd5b61019b6104c3565b6040516101a89190612b56565b60405180910390f35b6101b96104c8565b6040516101c69190612cc3565b60405180910390f35b6101e960048036038101906101e49190612d8d565b6105de565b005b61020560048036038101906102009190612ded565b61066b565b005b610221600480360381019061021c9190612e7a565b61088d565b005b61022b6109a1565b6040516102389190612b56565b60405180910390f35b6102496109a6565b6040516102569190612cc3565b60405180910390f35b610267610abc565b6040516102749190612b56565b60405180910390f35b61029760048036038101906102929190612ded565b610ac1565b6040516102a49190612ec2565b60405180910390f35b6102b5610afc565b005b6102d160048036038101906102cc9190612edd565b610b35565b6040516102de9190612ec2565b60405180910390f35b6102ef611110565b6040516102fc9190612f4c565b60405180910390f35b61031f600480360381019061031a9190613051565b611164565b005b61033b60048036038101906103369190612ded565b611592565b005b610345611783565b6040516103529190612f4c565b60405180910390f35b6103636117d7565b6040516103709190612cc3565b60405180910390f35b610393600480360381019061038e91906130c5565b6118b0565b005b6103af60048036038101906103aa9190613105565b611c92565b005b6103b9611f1f565b6040516103c69190612b56565b60405180910390f35b6103d7611f24565b6040516103e49190613210565b60405180910390f35b6103f56121d2565b6040516104029190613210565b60405180910390f35b61041361225e565b6040516104209190612cc3565b60405180910390f35b610443600480360381019061043e9190612e7a565b612374565b6040516104509190613304565b60405180910390f35b610473600480360381019061046e9190612e7a565b612520565b005b61048f600480360381019061048a9190613326565b61278f565b60405161049c9190613210565b60405180910390f35b6104ad612a3f565b6040516104ba9190612b56565b60405180910390f35b600a81565b6060600660003373ffffffffffffffffffffffffffffffffffffffff1673ffffffffffffffffffffffffffffffffffffffff168152602001908152602001600020805480602002602001604051908101604052809291908181526020016000905b828210156105d557838290600052602060002001805461054890613382565b80601f016020809104026020016040519081016040528092919081815260200182805461057490613382565b80156105c15780601f10610596576101008083540402835291602001916105c1565b820191906000526020600020905b8154815290600101906020018083116105a457829003601f168201915b505050505081526020019060010190610529565b50505050905090565b600883839091806001815401808255809150506001900390600052602060002001600090919290919290919290919250918261061b929190613599565b50806009848460405161062f9291906136a8565b908152602001604051809103902060006101000a81548167ffffffffffffffff021916908360070b67ffffffffffffffff160217905550505050565b60006005838360405161067f9291906136a8565b9081526020016040518091039020905080600001601c9054906101000a900460ff166106aa57600080fd5b600260000b600160003373ffffffffffffffffffffffffffffffffffffffff1673ffffffffffffffffffffffffffffffffffffffff16815260200190815260200160002060009054906101000a900460070b60070b121561070a57600080fd5b600260000b600160003373ffffffffffffffffffffffffffffffffffffffff1673ffffffffffffffffffffffffffffffffffffffff16815260200190815260200160002060008282829054906101000a900460070b61076991906136f0565b92506101000a81548167ffffffffffffffff021916908360070b67ffffffffffffffff16021790555060018160000160148282829054906101000a900460070b6107b39190613750565b92506101000a81548167ffffffffffffffff021916908360070b67ffffffffffffffff160217905550600160000b600260008360000160009054906101000a900473ffffffffffffffffffffffffffffffffffffffff1673ffffffffffffffffffffffffffffffffffffffff1673ffffffffffffffffffffffffffffffffffffffff16815260200190815260200160002060008282829054906101000a900460070b61085f9190613750565b92506101000a81548167ffffffffffffffff021916908360070b67ffffffffffffffff160217905550505050565b600060028111156108a1576108a06137b0565b5b600760003373ffffffffffffffffffffffffffffffffffffffff1673ffffffffffffffffffffffffffffffffffffffff16815260200190815260200160002060008367ffffffffffffffff1667ffffffffffffffff16815260200190815260200160002060009054906101000a900460ff166002811115610925576109246137b0565b5b14610965576040517f08c379a000000000000000000000000000000000000000000000000000000000815260040161095c9061383c565b60405180910390fd5b7f1382a4dd1f1609a0cd69ab74da10dc4ddfc5c47b6bc64440e3841c8620755647338260405161099692919061387a565b60405180910390a150565b600281565b6060600a60003373ffffffffffffffffffffffffffffffffffffffff1673ffffffffffffffffffffffffffffffffffffffff168152602001908152602001600020805480602002602001604051908101604052809291908181526020016000905b82821015610ab3578382906000526020600020018054610a2690613382565b80601f0160208091040260200160405190810160405280929190818152602001828054610a5290613382565b8015610a9f5780601f10610a7457610100808354040283529160200191610a9f565b820191906000526020600020905b815481529060010190602001808311610a8257829003601f168201915b505050505081526020019060010190610a07565b50505050905090565b600281565b600060058383604051610ad59291906136a8565b9081526020016040518091039020600001601c9054906101000a900460ff16905092915050565b7fafe0d4e783559eddc1189e4f3ec5fb8c740c1585d164c301b9cb502984dd03cf33604051610b2b91906138a3565b60405180910390a1565b6000600260000b600160003373ffffffffffffffffffffffffffffffffffffffff1673ffffffffffffffffffffffffffffffffffffffff16815260200190815260200160002060009054906101000a900460070b60070b1215610bcd576040517f08c379a0000000000000000000000000000000000000000000000000000000008152600401610bc49061390a565b60405180910390fd5b60058383604051610bdf9291906136a8565b9081526020016040518091039020600001601c9054906101000a900460ff1615610c3e576040517f08c379a0000000000000000000000000000000000000000000000000000000008152600401610c3590613976565b60405180910390fd5b60016002811115610c5257610c516137b0565b5b600760003373ffffffffffffffffffffffffffffffffffffffff1673ffffffffffffffffffffffffffffffffffffffff16815260200190815260200160002060008667ffffffffffffffff1667ffffffffffffffff16815260200190815260200160002060009054906101000a900460ff166002811115610cd657610cd56137b0565b5b14610d16576040517f08c379a0000000000000000000000000000000000000000000000000000000008152600401610d0d90613a08565b60405180910390fd5b600360008567ffffffffffffffff1667ffffffffffffffff16815260200190815260200160002060010160009054906101000a900460ff16610d8d576040517f08c379a0000000000000000000000000000000000000000000000000000000008152600401610d8490613a74565b60405180910390fd5b600060405180606001604052803373ffffffffffffffffffffffffffffffffffffffff168152602001600160070b8152602001600115158152509050600660003373ffffffffffffffffffffffffffffffffffffffff1673ffffffffffffffffffffffffffffffffffffffff168152602001908152602001600020848490918060018154018082558091505060019003906000526020600020016000909192909192909192909192509182610e43929190613599565b508060058585604051610e579291906136a8565b908152602001604051809103902060008201518160000160006101000a81548173ffffffffffffffffffffffffffffffffffffffff021916908373ffffffffffffffffffffffffffffffffffffffff16021790555060208201518160000160146101000a81548167ffffffffffffffff021916908360070b67ffffffffffffffff160217905550604082015181600001601c6101000a81548160ff021916908315150217905550905050600360008667ffffffffffffffff1667ffffffffffffffff168152602001908152602001600020600001848490918060018154018082558091505060019003906000526020600020016000909192909192909192909192509182610f66929190613599565b50600260000b600160003373ffffffffffffffffffffffffffffffffffffffff1673ffffffffffffffffffffffffffffffffffffffff16815260200190815260200160002060008282829054906101000a900460070b610fc691906136f0565b92506101000a81548167ffffffffffffffff021916908360070b67ffffffffffffffff160217905550600160000b600260003373ffffffffffffffffffffffffffffffffffffffff1673ffffffffffffffffffffffffffffffffffffffff16815260200190815260200160002060008282829054906101000a900460070b61104e9190613750565b92506101000a81548167ffffffffffffffff021916908360070b67ffffffffffffffff1602179055506002600760003373ffffffffffffffffffffffffffffffffffffffff1673ffffffffffffffffffffffffffffffffffffffff16815260200190815260200160002060008767ffffffffffffffff1667ffffffffffffffff16815260200190815260200160002060006101000a81548160ff021916908360028111156110ff576110fe6137b0565b5b021790555060019150509392505050565b6000600260003373ffffffffffffffffffffffffffffffffffffffff1673ffffffffffffffffffffffffffffffffffffffff16815260200190815260200160002060009054906101000a900460070b905090565b60008054906101000a900473ffffffffffffffffffffffffffffffffffffffff1673ffffffffffffffffffffffffffffffffffffffff163373ffffffffffffffffffffffffffffffffffffffff16146111f2576040517f08c379a00000000000000000000000000000000000000000000000000000000081526004016111e990613ae0565b60405180910390fd5b60005b8181101561158b57600084848381811061121257611211613b00565b5b90506020020160208101906112279190612e7a565b9050600360008267ffffffffffffffff1667ffffffffffffffff16815260200190815260200160002060010160009054906101000a900460ff1661138f5760006040518060400160405280600067ffffffffffffffff81111561128d5761128c6133be565b5b6040519080825280602002602001820160405280156112c057816020015b60608152602001906001900390816112ab5790505b50815260200160011515815250905060048290806001815401808255809150506001900390600052602060002090600491828204019190066008029091909190916101000a81548167ffffffffffffffff021916908367ffffffffffffffff16021790555080600360008467ffffffffffffffff1667ffffffffffffffff1681526020019081526020016000206000820151816000019080519060200190611369929190612a44565b5060208201518160010160006101000a81548160ff021916908315150217905550905050505b600060028111156113a3576113a26137b0565b5b600760008873ffffffffffffffffffffffffffffffffffffffff1673ffffffffffffffffffffffffffffffffffffffff16815260200190815260200160002060008367ffffffffffffffff1667ffffffffffffffff16815260200190815260200160002060009054906101000a900460ff166002811115611427576114266137b0565b5b03611579576001600760008873ffffffffffffffffffffffffffffffffffffffff1673ffffffffffffffffffffffffffffffffffffffff16815260200190815260200160002060008367ffffffffffffffff1667ffffffffffffffff16815260200190815260200160002060006101000a81548160ff021916908360028111156114b4576114b36137b0565b5b0217905550600a60000b600160008873ffffffffffffffffffffffffffffffffffffffff1673ffffffffffffffffffffffffffffffffffffffff16815260200190815260200160002060008282829054906101000a900460070b6115189190613750565b92506101000a81548167ffffffffffffffff021916908360070b67ffffffffffffffff1602179055507f50f0ac35fb060ec2eb1b1051209ac69e7caa16f70e8fb9f469fa3befdd5cb8ca8660405161157091906138a3565b60405180910390a15b508061158490613b2f565b90506111f5565b5050505050565b600982826040516115a49291906136a8565b908152602001604051809103902060009054906101000a900460070b60070b600260003373ffffffffffffffffffffffffffffffffffffffff1673ffffffffffffffffffffffffffffffffffffffff16815260200190815260200160002060009054906101000a900460070b60070b13611653576040517f08c379a000000000000000000000000000000000000000000000000000000000815260040161164a9061390a565b60405180910390fd5b600982826040516116659291906136a8565b908152602001604051809103902060009054906101000a900460070b600260003373ffffffffffffffffffffffffffffffffffffffff1673ffffffffffffffffffffffffffffffffffffffff16815260200190815260200160002060008282829054906101000a900460070b6116db91906136f0565b92506101000a81548167ffffffffffffffff021916908360070b67ffffffffffffffff160217905550600a60003373ffffffffffffffffffffffffffffffffffffffff1673ffffffffffffffffffffffffffffffffffffffff16815260200190815260200160002082829091806001815401808255809150506001900390600052602060002001600090919290919290919290919250918261177e929190613599565b505050565b6000600160003373ffffffffffffffffffffffffffffffffffffffff1673ffffffffffffffffffffffffffffffffffffffff16815260200190815260200160002060009054906101000a900460070b905090565b60606008805480602002602001604051908101604052809291908181526020016000905b828210156118a757838290600052602060002001805461181a90613382565b80601f016020809104026020016040519081016040528092919081815260200182805461184690613382565b80156118935780601f1061186857610100808354040283529160200191611893565b820191906000526020600020905b81548152906001019060200180831161187657829003601f168201915b5050505050815260200190600101906117fb565b50505050905090565b60008054906101000a900473ffffffffffffffffffffffffffffffffffffffff1673ffffffffffffffffffffffffffffffffffffffff163373ffffffffffffffffffffffffffffffffffffffff161461193e576040517f08c379a000000000000000000000000000000000000000000000000000000000815260040161193590613ae0565b60405180910390fd5b600360008267ffffffffffffffff1667ffffffffffffffff16815260200190815260200160002060010160009054906101000a900460ff16611aa45760006040518060400160405280600067ffffffffffffffff8111156119a2576119a16133be565b5b6040519080825280602002602001820160405280156119d557816020015b60608152602001906001900390816119c05790505b50815260200160011515815250905060048290806001815401808255809150506001900390600052602060002090600491828204019190066008029091909190916101000a81548167ffffffffffffffff021916908367ffffffffffffffff16021790555080600360008467ffffffffffffffff1667ffffffffffffffff1681526020019081526020016000206000820151816000019080519060200190611a7e929190612a44565b5060208201518160010160006101000a81548160ff021916908315150217905550905050505b60006002811115611ab857611ab76137b0565b5b600760008473ffffffffffffffffffffffffffffffffffffffff1673ffffffffffffffffffffffffffffffffffffffff16815260200190815260200160002060008367ffffffffffffffff1667ffffffffffffffff16815260200190815260200160002060009054906101000a900460ff166002811115611b3c57611b3b6137b0565b5b03611c8e576001600760008473ffffffffffffffffffffffffffffffffffffffff1673ffffffffffffffffffffffffffffffffffffffff16815260200190815260200160002060008367ffffffffffffffff1667ffffffffffffffff16815260200190815260200160002060006101000a81548160ff02191690836002811115611bc957611bc86137b0565b5b0217905550600a60000b600160008473ffffffffffffffffffffffffffffffffffffffff1673ffffffffffffffffffffffffffffffffffffffff16815260200190815260200160002060008282829054906101000a900460070b611c2d9190613750565b92506101000a81548167ffffffffffffffff021916908360070b67ffffffffffffffff1602179055507f50f0ac35fb060ec2eb1b1051209ac69e7caa16f70e8fb9f469fa3befdd5cb8ca82604051611c8591906138a3565b60405180910390a15b5050565b60008054906101000a900473ffffffffffffffffffffffffffffffffffffffff1673ffffffffffffffffffffffffffffffffffffffff163373ffffffffffffffffffffffffffffffffffffffff1614611d20576040517f08c379a0000000000000000000000000000000000000000000000000000000008152600401611d1790613ae0565b60405180910390fd5b60005b82829050811015611f1a5760006040518060400160405280600067ffffffffffffffff811115611d5657611d556133be565b5b604051908082528060200260200182016040528015611d8957816020015b6060815260200190600190039081611d745790505b50815260200160011515815250905060036000858585818110611daf57611dae613b00565b5b9050602002016020810190611dc49190612e7a565b67ffffffffffffffff1667ffffffffffffffff16815260200190815260200160002060010160009054906101000a900460ff16611f08576004848484818110611e1057611e0f613b00565b5b9050602002016020810190611e259190612e7a565b90806001815401808255809150506001900390600052602060002090600491828204019190066008029091909190916101000a81548167ffffffffffffffff021916908367ffffffffffffffff1602179055508060036000868686818110611e9057611e8f613b00565b5b9050602002016020810190611ea59190612e7a565b67ffffffffffffffff1667ffffffffffffffff1681526020019081526020016000206000820151816000019080519060200190611ee3929190612a44565b5060208201518160010160006101000a81548160ff0219169083151502179055509050505b5080611f1390613b2f565b9050611d23565b505050565b600181565b60606000805b60048054905081101561203557600060048281548110611f4d57611f4c613b00565b5b90600052602060002090600491828204019190066008029054906101000a900467ffffffffffffffff16905060016002811115611f8d57611f8c6137b0565b5b600760003373ffffffffffffffffffffffffffffffffffffffff1673ffffffffffffffffffffffffffffffffffffffff16815260200190815260200160002060008367ffffffffffffffff1667ffffffffffffffff16815260200190815260200160002060009054906101000a900460ff166002811115612011576120106137b0565b5b03612023578261202090613b2f565b92505b508061202e90613b2f565b9050611f2a565b5060008167ffffffffffffffff811115612052576120516133be565b5b6040519080825280602002602001820160405280156120805781602001602082028036833780820191505090505b5090506000805b6004805490508110156121c8576000600482815481106120aa576120a9613b00565b5b90600052602060002090600491828204019190066008029054906101000a900467ffffffffffffffff169050600160028111156120ea576120e96137b0565b5b600760003373ffffffffffffffffffffffffffffffffffffffff1673ffffffffffffffffffffffffffffffffffffffff16815260200190815260200160002060008367ffffffffffffffff1667ffffffffffffffff16815260200190815260200160002060009054906101000a900460ff16600281111561216e5761216d6137b0565b5b036121b6578084848151811061218757612186613b00565b5b602002602001019067ffffffffffffffff16908167ffffffffffffffff1681525050826121b390613b2f565b92505b50806121c190613b2f565b9050612087565b5081935050505090565b6060600480548060200260200160405190810160405280929190818152602001828054801561225457602002820191906000526020600020906000905b82829054906101000a900467ffffffffffffffff1667ffffffffffffffff168152602001906008019060208260070104928301926001038202915080841161220f5790505b5050505050905090565b6060600a60003373ffffffffffffffffffffffffffffffffffffffff1673ffffffffffffffffffffffffffffffffffffffff168152602001908152602001600020805480602002602001604051908101604052809291908181526020016000905b8282101561236b5783829060005260206000200180546122de90613382565b80601f016020809104026020016040519081016040528092919081815260200182805461230a90613382565b80156123575780601f1061232c57610100808354040283529160200191612357565b820191906000526020600020905b81548152906001019060200180831161233a57829003601f168201915b5050505050815260200190600101906122bf565b50505050905090565b61237c612a9d565b600360008367ffffffffffffffff1667ffffffffffffffff16815260200190815260200160002060010160009054906101000a900460ff166123f3576040517f08c379a00000000000000000000000000000000000000000000000000000000081526004016123ea90613a74565b60405180910390fd5b600360008367ffffffffffffffff1667ffffffffffffffff16815260200190815260200160002060405180604001604052908160008201805480602002602001604051908101604052809291908181526020016000905b828210156124f657838290600052602060002001805461246990613382565b80601f016020809104026020016040519081016040528092919081815260200182805461249590613382565b80156124e25780601f106124b7576101008083540402835291602001916124e2565b820191906000526020600020905b8154815290600101906020018083116124c557829003601f168201915b50505050508152602001906001019061244a565b5050505081526020016001820160009054906101000a900460ff1615151515815250509050919050565b60008054906101000a900473ffffffffffffffffffffffffffffffffffffffff1673ffffffffffffffffffffffffffffffffffffffff163373ffffffffffffffffffffffffffffffffffffffff16146125ae576040517f08c379a00000000000000000000000000000000000000000000000000000000081526004016125a590613ae0565b60405180910390fd5b600360008267ffffffffffffffff1667ffffffffffffffff16815260200190815260200160002060010160009054906101000a900460ff1615612626576040517f08c379a000000000000000000000000000000000000000000000000000000000815260040161261d90613bc3565b60405180910390fd5b60006040518060400160405280600067ffffffffffffffff81111561264e5761264d6133be565b5b60405190808252806020026020018201604052801561268157816020015b606081526020019060019003908161266c5790505b508152602001600115158152509050600360008367ffffffffffffffff1667ffffffffffffffff16815260200190815260200160002060010160009054906101000a900460ff1661278b5760048290806001815401808255809150506001900390600052602060002090600491828204019190066008029091909190916101000a81548167ffffffffffffffff021916908367ffffffffffffffff16021790555080600360008467ffffffffffffffff1667ffffffffffffffff1681526020019081526020016000206000820151816000019080519060200190612766929190612a44565b5060208201518160010160006101000a81548160ff0219169083151502179055509050505b5050565b60606000805b6004805490508110156128a0576000600482815481106127b8576127b7613b00565b5b90600052602060002090600491828204019190066008029054906101000a900467ffffffffffffffff169050600160028111156127f8576127f76137b0565b5b600760008773ffffffffffffffffffffffffffffffffffffffff1673ffffffffffffffffffffffffffffffffffffffff16815260200190815260200160002060008367ffffffffffffffff1667ffffffffffffffff16815260200190815260200160002060009054906101000a900460ff16600281111561287c5761287b6137b0565b5b0361288e578261288b90613b2f565b92505b508061289990613b2f565b9050612795565b5060008167ffffffffffffffff8111156128bd576128bc6133be565b5b6040519080825280602002602001820160405280156128eb5781602001602082028036833780820191505090505b5090506000805b600480549050811015612a335760006004828154811061291557612914613b00565b5b90600052602060002090600491828204019190066008029054906101000a900467ffffffffffffffff16905060016002811115612955576129546137b0565b5b600760008973ffffffffffffffffffffffffffffffffffffffff1673ffffffffffffffffffffffffffffffffffffffff16815260200190815260200160002060008367ffffffffffffffff1667ffffffffffffffff16815260200190815260200160002060009054906101000a900460ff1660028111156129d9576129d86137b0565b5b03612a2157808484815181106129f2576129f1613b00565b5b602002602001019067ffffffffffffffff16908167ffffffffffffffff168152505082612a1e90613b2f565b92505b5080612a2c90613b2f565b90506128f2565b50819350505050919050565b600181565b828054828255906000526020600020908101928215612a8c579160200282015b82811115612a8b578251829081612a7b9190613be3565b5091602001919060010190612a64565b5b509050612a999190612ab9565b5090565b6040518060400160405280606081526020016000151581525090565b5b80821115612ad95760008181612ad09190612add565b50600101612aba565b5090565b508054612ae990613382565b6000825580601f10612afb5750612b1a565b601f016020900490600052602060002090810190612b199190612b1d565b5b50565b5b80821115612b36576000816000905550600101612b1e565b5090565b60008160000b9050919050565b612b5081612b3a565b82525050565b6000602082019050612b6b6000830184612b47565b92915050565b600081519050919050565b600082825260208201905092915050565b6000819050602082019050919050565b600081519050919050565b600082825260208201905092915050565b60005b83811015612bd7578082015181840152602081019050612bbc565b60008484015250505050565b6000601f19601f8301169050919050565b6000612bff82612b9d565b612c098185612ba8565b9350612c19818560208601612bb9565b612c2281612be3565b840191505092915050565b6000612c398383612bf4565b905092915050565b6000602082019050919050565b6000612c5982612b71565b612c638185612b7c565b935083602082028501612c7585612b8d565b8060005b85811015612cb15784840389528151612c928582612c2d565b9450612c9d83612c41565b925060208a01995050600181019050612c79565b50829750879550505050505092915050565b60006020820190508181036000830152612cdd8184612c4e565b905092915050565b600080fd5b600080fd5b600080fd5b600080fd5b600080fd5b60008083601f840112612d1457612d13612cef565b5b8235905067ffffffffffffffff811115612d3157612d30612cf4565b5b602083019150836001820283011115612d4d57612d4c612cf9565b5b9250929050565b60008160070b9050919050565b612d6a81612d54565b8114612d7557600080fd5b50565b600081359050612d8781612d61565b92915050565b600080600060408486031215612da657612da5612ce5565b5b600084013567ffffffffffffffff811115612dc457612dc3612cea565b5b612dd086828701612cfe565b93509350506020612de386828701612d78565b9150509250925092565b60008060208385031215612e0457612e03612ce5565b5b600083013567ffffffffffffffff811115612e2257612e21612cea565b5b612e2e85828601612cfe565b92509250509250929050565b600067ffffffffffffffff82169050919050565b612e5781612e3a565b8114612e6257600080fd5b50565b600081359050612e7481612e4e565b92915050565b600060208284031215612e9057612e8f612ce5565b5b6000612e9e84828501612e65565b91505092915050565b60008115159050919050565b612ebc81612ea7565b82525050565b6000602082019050612ed76000830184612eb3565b92915050565b600080600060408486031215612ef657612ef5612ce5565b5b6000612f0486828701612e65565b935050602084013567ffffffffffffffff811115612f2557612f24612cea565b5b612f3186828701612cfe565b92509250509250925092565b612f4681612d54565b82525050565b6000602082019050612f616000830184612f3d565b92915050565b600073ffffffffffffffffffffffffffffffffffffffff82169050919050565b6000612f9282612f67565b9050919050565b612fa281612f87565b8114612fad57600080fd5b50565b600081359050612fbf81612f99565b92915050565b60008083601f840112612fdb57612fda612cef565b5b8235905067ffffffffffffffff811115612ff857612ff7612cf4565b5b60208301915083602082028301111561301457613013612cf9565b5b9250929050565b6000819050919050565b61302e8161301b565b811461303957600080fd5b50565b60008135905061304b81613025565b92915050565b6000806000806060858703121561306b5761306a612ce5565b5b600061307987828801612fb0565b945050602085013567ffffffffffffffff81111561309a57613099612cea565b5b6130a687828801612fc5565b935093505060406130b98782880161303c565b91505092959194509250565b600080604083850312156130dc576130db612ce5565b5b60006130ea85828601612fb0565b92505060206130fb85828601612e65565b9150509250929050565b6000806020838503121561311c5761311b612ce5565b5b600083013567ffffffffffffffff81111561313a57613139612cea565b5b61314685828601612fc5565b92509250509250929050565b600081519050919050565b600082825260208201905092915050565b6000819050602082019050919050565b61318781612e3a565b82525050565b6000613199838361317e565b60208301905092915050565b6000602082019050919050565b60006131bd82613152565b6131c7818561315d565b93506131d28361316e565b8060005b838110156132035781516131ea888261318d565b97506131f5836131a5565b9250506001810190506131d6565b5085935050505092915050565b6000602082019050818103600083015261322a81846131b2565b905092915050565b600082825260208201905092915050565b600061324e82612b71565b6132588185613232565b93508360208202850161326a85612b8d565b8060005b858110156132a657848403895281516132878582612c2d565b945061329283612c41565b925060208a0199505060018101905061326e565b50829750879550505050505092915050565b6132c181612ea7565b82525050565b600060408301600083015184820360008601526132e48282613243565b91505060208301516132f960208601826132b8565b508091505092915050565b6000602082019050818103600083015261331e81846132c7565b905092915050565b60006020828403121561333c5761333b612ce5565b5b600061334a84828501612fb0565b91505092915050565b7f4e487b7100000000000000000000000000000000000000000000000000000000600052602260045260246000fd5b6000600282049050600182168061339a57607f821691505b6020821081036133ad576133ac613353565b5b50919050565b600082905092915050565b7f4e487b7100000000000000000000000000000000000000000000000000000000600052604160045260246000fd5b60008190508160005260206000209050919050565b60006020601f8301049050919050565b600082821b905092915050565b60006008830261344f7fffffffffffffffffffffffffffffffffffffffffffffffffffffffffffffffff82613412565b6134598683613412565b95508019841693508086168417925050509392505050565b6000819050919050565b600061349661349161348c8461301b565b613471565b61301b565b9050919050565b6000819050919050565b6134b08361347b565b6134c46134bc8261349d565b84845461341f565b825550505050565b600090565b6134d96134cc565b6134e48184846134a7565b505050565b5b81811015613508576134fd6000826134d1565b6001810190506134ea565b5050565b601f82111561354d5761351e816133ed565b61352784613402565b81016020851015613536578190505b61354a61354285613402565b8301826134e9565b50505b505050565b600082821c905092915050565b600061357060001984600802613552565b1980831691505092915050565b6000613589838361355f565b9150826002028217905092915050565b6135a383836133b3565b67ffffffffffffffff8111156135bc576135bb6133be565b5b6135c68254613382565b6135d182828561350c565b6000601f83116001811461360057600084156135ee578287013590505b6135f8858261357d565b865550613660565b601f19841661360e866133ed565b60005b8281101561363657848901358255600182019150602085019450602081019050613611565b86831015613653578489013561364f601f89168261355f565b8355505b6001600288020188555050505b50505050505050565b600081905092915050565b82818337600083830152505050565b600061368f8385613669565b935061369c838584613674565b82840190509392505050565b60006136b5828486613683565b91508190509392505050565b7f4e487b7100000000000000000000000000000000000000000000000000000000600052601160045260246000fd5b60006136fb82612d54565b915061370683612d54565b92508282039050677fffffffffffffff81137fffffffffffffffffffffffffffffffffffffffffffffffff80000000000000008212171561374a576137496136c1565b5b92915050565b600061375b82612d54565b915061376683612d54565b925082820190507fffffffffffffffffffffffffffffffffffffffffffffffff80000000000000008112677fffffffffffffff821317156137aa576137a96136c1565b5b92915050565b7f4e487b7100000000000000000000000000000000000000000000000000000000600052602160045260246000fd5b600082825260208201905092915050565b7f50726f6475637420616c726561647920636c61696d6564000000000000000000600082015250565b60006138266017836137df565b9150613831826137f0565b602082019050919050565b6000602082019050818103600083015261385581613819565b9050919050565b61386581612f87565b82525050565b61387481612e3a565b82525050565b600060408201905061388f600083018561385c565b61389c602083018461386b565b9392505050565b60006020820190506138b8600083018461385c565b92915050565b7f4e6f7420656e6f75676820746f6b656e73000000000000000000000000000000600082015250565b60006138f46011836137df565b91506138ff826138be565b602082019050919050565b60006020820190508181036000830152613923816138e7565b9050919050565b7f52657669657720616c7265616479206578697374730000000000000000000000600082015250565b60006139606015836137df565b915061396b8261392a565b602082019050919050565b6000602082019050818103600083015261398f81613953565b9050919050565b7f50726f64756374206e6f7420636c61696d6564206f7220616c7265616479207260008201527f6576696577656400000000000000000000000000000000000000000000000000602082015250565b60006139f26027836137df565b91506139fd82613996565b604082019050919050565b60006020820190508181036000830152613a21816139e5565b9050919050565b7f50726f6475637420646f65736e27742065786973740000000000000000000000600082015250565b6000613a5e6015836137df565b9150613a6982613a28565b602082019050919050565b60006020820190508181036000830152613a8d81613a51565b9050919050565b7f596f7520617265206e6f7420746865206f776e65722100000000000000000000600082015250565b6000613aca6016836137df565b9150613ad582613a94565b602082019050919050565b60006020820190508181036000830152613af981613abd565b9050919050565b7f4e487b7100000000000000000000000000000000000000000000000000000000600052603260045260246000fd5b6000613b3a8261301b565b91507fffffffffffffffffffffffffffffffffffffffffffffffffffffffffffffffff8203613b6c57613b6b6136c1565b5b600182019050919050565b7f50726f6475637420616c72656164792065786973747300000000000000000000600082015250565b6000613bad6016836137df565b9150613bb882613b77565b602082019050919050565b60006020820190508181036000830152613bdc81613ba0565b9050919050565b613bec82612b9d565b67ffffffffffffffff811115613c0557613c046133be565b5b613c0f8254613382565b613c1a82828561350c565b600060209050601f831160018114613c4d5760008415613c3b578287015190505b613c45858261357d565b865550613cad565b601f198416613c5b866133ed565b60005b82811015613c8357848901518255600182019150602085019450602081019050613c5e565b86831015613ca05784890151613c9c601f89168261355f565b8355505b6001600288020188555050505b50505050505056fea264697066735822122047c7c2518fc8bc39f90b6bf68fab5e7fc7c0f2573bc953ac027a121fd0f5b6eb64736f6c63430008110033",
  "immutableReferences": {},
  "source": "// SPDX-License-Identifier: GPL-v3\n\npragma solidity >=0.7.0 <0.9;\n\ncontract Derp {\n    enum ProductState {\n        UNCLAIMED,\n        CLAIMED,\n        REVIEWED\n    }\n\n    // The product for which an user wants to make a review.\n    // This is indexed as a combination of the store ID and the product ID\n    // local to that store.\n    //\n    // Example:\n    //    store ID = 1,\n    //    local product ID = 1,\n    //    product ID = 0x100000001\n    struct Product {\n        bytes[] reviewHashes;\n        bool _initialized;\n    }\n\n    // A review made by a reviewer.\n    // The text of the review is stored on IPFS.\n    struct Review {\n        address reviewer;\n        int64 upvotes;\n        bool _initialized;\n    }\n\n    // The deployer of the contract.\n    // Used to check the authenticity of the reviews.\n    address private owner;\n\n    // Mapping for the NFTs used on the website.\n    mapping(address => int64) private reviewTokens;\n    mapping(address => int64) private profileTokens;\n\n    // Mapping from the uint64 product ID to the stored products.\n    mapping(uint64 => Product) private products;\n\n    // Array used to retrieve all the products stored on-chain.\n    uint64[] private registeredProducts;\n\n    // Mapping from the IPFS' Content Identifier of the review to the actual\n    // review.\n    mapping(bytes => Review) private reviews;\n\n    // Mapping used for retrieving the IPFS' CIDs of the reviews made by an\n    // address.\n    mapping(address => bytes[]) private reviewsFromAddress;\n\n    // Mapping of the products actually claimed by an user.\n    // Used to store on-chain the validity of the reviews.\n    mapping(address => mapping(uint64 => ProductState)) private productsClaimed;\n\n    //Array used to retrieve all the profile items stored on-chain\n    //that can be bought with user tokens\n    //This could be expanded in the future with a struct\n    bytes[] private profileItems;\n\n    //Mapping with the price of profile items\n    mapping(bytes => int64) private profileItemPrices;\n\n    //Mapping with a list of item profile purchased by a user\n    mapping(address => bytes[]) private userProfileItems;\n\n    // Events emitted when an user wants to know if some review tokens can be\n    // obtained.\n    //\n    // ReviewTokensGranted is emitted when the response is affirmative.\n    event AllReviewTokensRequested(address account);\n    event ReviewTokenRequested(address account, uint64 product);\n    event ReviewTokensGranted(address account);\n\n    // Event emitted when an user wants to refresh the products for which they\n    // can create a review.\n    event ProductRefreshRequested();\n\n    // Constants used by the contract\n\n    int8 public constant REVIEW_COST = 2;\n    int8 public constant REVIEW_REWARD = 1;\n    int8 public constant UPVOTE_COST = 2;\n    int8 public constant UPVOTE_REWARD = 1;\n    int8 public constant PER_PURCHASE_TOKENS = 10;\n\n    modifier onlyOwner() {\n        require(msg.sender == owner, \"You are not the owner!\");\n        _;\n    }\n\n    constructor() {\n        owner = msg.sender;\n    }\n\n    function requestAllReviewTokens() external {\n        emit AllReviewTokensRequested(msg.sender);\n    }\n\n    function requestReviewToken(uint64 productId) external {\n        // Check if the product was already claimed.\n        require(\n            productsClaimed[msg.sender][productId] == ProductState.UNCLAIMED,\n            \"Product already claimed\"\n        );\n\n        emit ReviewTokenRequested(msg.sender, productId);\n    }\n\n    function rewardReviewToken(address account, uint64 productId)\n        external\n        onlyOwner\n    {\n        if (!products[productId]._initialized) {\n            Product memory p = Product({\n                _initialized: true,\n                reviewHashes: new bytes[](0)\n            });\n\n            registeredProducts.push(productId);\n            products[productId] = p;\n        }\n\n        if (productsClaimed[account][productId] == ProductState.UNCLAIMED) {\n            productsClaimed[account][productId] = ProductState.CLAIMED;\n            reviewTokens[account] += PER_PURCHASE_TOKENS;\n\n            emit ReviewTokensGranted(account);\n        }\n    }\n\n    function rewardReviewTokens(\n        address account,\n        uint64[] calldata productIds,\n        uint256 length\n    ) external onlyOwner {\n        for (uint256 i = 0; i < length; ++i) {\n            uint64 pId = productIds[i];\n            if (!products[pId]._initialized) {\n                Product memory p = Product({\n                    _initialized: true,\n                    reviewHashes: new bytes[](0)\n                });\n\n                registeredProducts.push(pId);\n                products[pId] = p;\n            }\n\n            if (productsClaimed[account][pId] == ProductState.UNCLAIMED) {\n                productsClaimed[account][pId] = ProductState.CLAIMED;\n                reviewTokens[account] += PER_PURCHASE_TOKENS;\n\n                emit ReviewTokensGranted(account);\n            }\n        }\n    }\n\n    // Reviewer is msg.sender\n    function makeReview(uint64 productId, bytes calldata reviewHash)\n        external\n        returns (bool)\n    {\n        require(reviewTokens[msg.sender] >= REVIEW_COST, \"Not enough tokens\");\n        require(!reviews[reviewHash]._initialized, \"Review already exists\");\n\n        // Stops the user from making reviews of products they have not claimed.\n        require(\n            productsClaimed[msg.sender][productId] == ProductState.CLAIMED,\n            \"Product not claimed or already reviewed\"\n        );\n\n        // Avoids creating a review for a product that doesn't exist.\n        require(products[productId]._initialized, \"Product doesn't exist\");\n\n        Review memory r = Review({\n            reviewer: msg.sender,\n            upvotes: 1,\n            _initialized: true\n        });\n\n        reviewsFromAddress[msg.sender].push(reviewHash);\n\n        reviews[reviewHash] = r;\n        products[productId].reviewHashes.push(reviewHash);\n\n        reviewTokens[msg.sender] -= REVIEW_COST;\n        profileTokens[msg.sender] += REVIEW_REWARD;\n\n        productsClaimed[msg.sender][productId] = ProductState.REVIEWED;\n\n        return true;\n    }\n\n    function upvoteReview(bytes calldata reviewHash) external {\n        Review storage review = reviews[reviewHash];\n        require(review._initialized);\n        require(reviewTokens[msg.sender] >= UPVOTE_COST);\n\n        reviewTokens[msg.sender] -= UPVOTE_COST;\n\n        review.upvotes += 1;\n\n        profileTokens[review.reviewer] += UPVOTE_REWARD;\n    }\n\n    function addProduct(uint64 productId) external onlyOwner {\n        require(!products[productId]._initialized, \"Product already exists\");\n\n        Product memory p = Product({\n            _initialized: true,\n            reviewHashes: new bytes[](0)\n        });\n\n        if (!products[productId]._initialized) {\n            registeredProducts.push(productId);\n            products[productId] = p;\n        }\n    }\n\n    function addProducts(uint64[] calldata productIds) external onlyOwner {\n        for (uint256 i = 0; i < productIds.length; ++i) {\n            Product memory p = Product({\n                _initialized: true,\n                reviewHashes: new bytes[](0)\n            });\n\n            if (!products[productIds[i]]._initialized) {\n                registeredProducts.push(productIds[i]);\n                products[productIds[i]] = p;\n            }\n        }\n    }\n\n    function buyProfileItem(bytes calldata itemHash) external {\n        require(\n            profileTokens[msg.sender] > profileItemPrices[itemHash],\n            \"Not enough tokens\"\n        );\n\n        profileTokens[msg.sender] -= profileItemPrices[itemHash];\n        userProfileItems[msg.sender].push(itemHash);\n    }\n\n    //This function allows to register new NFTS for the profile\n    //TODO: It can be called only by the server\n    function addProfileItem(bytes calldata itemHash, int64 price) external {\n        //itemHash is the hash of the css from ipfs\n        profileItems.push(itemHash);\n        //We also update the price in the mapping\n        profileItemPrices[itemHash] = price;\n    }\n\n    // Utility functions below\n    // You should only call these functions on your local node without\n    // spending gas.\n\n    function reviewExists(bytes calldata reviewHash)\n        public\n        view\n        returns (bool)\n    {\n        return reviews[reviewHash]._initialized;\n    }\n\n    function getProduct(uint64 productId) public view returns (Product memory) {\n        require(products[productId]._initialized, \"Product doesn't exist\");\n\n        return products[productId];\n    }\n\n    function getProducts() public view returns (uint64[] memory) {\n        return registeredProducts;\n    }\n\n    function getProductsToBeReviewed() public view returns (uint64[] memory) {\n        uint256 maxProducts = 0;\n        for (uint256 i = 0; i < registeredProducts.length; ++i) {\n            uint64 pId = registeredProducts[i];\n            if (productsClaimed[msg.sender][pId] == ProductState.CLAIMED) {\n                ++maxProducts;\n            }\n        }\n\n        uint64[] memory ret = new uint64[](maxProducts);\n        uint256 retIdx = 0;\n        for (uint256 i = 0; i < registeredProducts.length; ++i) {\n            uint64 pId = registeredProducts[i];\n            if (productsClaimed[msg.sender][pId] == ProductState.CLAIMED) {\n                ret[retIdx] = pId;\n                ++retIdx;\n            }\n        }\n\n        return ret;\n    }\n\n    function getClaimedProductsFromAccount(address account)\n        public\n        view\n        returns (uint64[] memory)\n    {\n        uint256 maxProducts = 0;\n        for (uint256 i = 0; i < registeredProducts.length; ++i) {\n            uint64 pId = registeredProducts[i];\n            if (productsClaimed[account][pId] == ProductState.CLAIMED) {\n                ++maxProducts;\n            }\n        }\n\n        uint64[] memory ret = new uint64[](maxProducts);\n        uint256 retIdx = 0;\n        for (uint256 i = 0; i < registeredProducts.length; ++i) {\n            uint64 pId = registeredProducts[i];\n            if (productsClaimed[account][pId] == ProductState.CLAIMED) {\n                ret[retIdx] = pId;\n                ++retIdx;\n            }\n        }\n\n        return ret;\n    }\n\n    function getReviewTokens() public view returns (int64) {\n        return reviewTokens[msg.sender];\n    }\n\n    function getProfileTokens() public view returns (int64) {\n        return profileTokens[msg.sender];\n    }\n\n    function getReviews() public view returns (bytes[] memory) {\n        return reviewsFromAddress[msg.sender];\n    }\n\n    function getProfileItems() public view returns (bytes[] memory) {\n        return userProfileItems[msg.sender];\n    }\n\n    function getBuyableProfileItems() public view returns (bytes[] memory) {\n        return profileItems;\n    }\n\n    function getUserProfileItems() public view returns (bytes[] memory) {\n        return userProfileItems[msg.sender];\n    }\n}\n",
  "sourcePath": "/app/contracts/Derp.sol",
  "compiler": {
    "name": "solc",
    "version": "0.8.17+commit.8df45f5f.Emscripten.clang"
  },
  "schemaVersion": "3.4.11",
  "updatedAt": "2023-01-31T17:24:52.724Z",
  "networkType": "ethereum",
  "devdoc": {
    "kind": "dev",
    "methods": {},
    "version": 1
  },
  "userdoc": {
    "kind": "user",
    "methods": {},
    "version": 1
  }
}