{
  "contractName": "Derp",
  "abi": [
    {
      "inputs": [],
      "stateMutability": "nonpayable",
      "type": "constructor"
    },
    {
      "anonymous": false,
      "inputs": [
        {
          "indexed": false,
          "internalType": "address",
          "name": "account",
          "type": "address"
        }
      ],
      "name": "AllReviewTokensRequested",
      "type": "event"
    },
    {
      "anonymous": false,
      "inputs": [],
      "name": "ProductRefreshRequested",
      "type": "event"
    },
    {
      "anonymous": false,
      "inputs": [
        {
          "indexed": false,
          "internalType": "address",
          "name": "account",
          "type": "address"
        },
        {
          "indexed": false,
          "internalType": "uint64",
          "name": "product",
          "type": "uint64"
        }
      ],
      "name": "ReviewTokenRequested",
      "type": "event"
    },
    {
      "anonymous": false,
      "inputs": [
        {
          "indexed": false,
          "internalType": "address",
          "name": "account",
          "type": "address"
        }
      ],
      "name": "ReviewTokensGranted",
      "type": "event"
    },
    {
      "inputs": [],
      "name": "PER_PURCHASE_TOKENS",
      "outputs": [
        {
          "internalType": "int8",
          "name": "",
          "type": "int8"
        }
      ],
      "stateMutability": "view",
      "type": "function",
      "constant": true
    },
    {
      "inputs": [],
      "name": "REVIEW_COST",
      "outputs": [
        {
          "internalType": "int8",
          "name": "",
          "type": "int8"
        }
      ],
      "stateMutability": "view",
      "type": "function",
      "constant": true
    },
    {
      "inputs": [],
      "name": "REVIEW_REWARD",
      "outputs": [
        {
          "internalType": "int8",
          "name": "",
          "type": "int8"
        }
      ],
      "stateMutability": "view",
      "type": "function",
      "constant": true
    },
    {
      "inputs": [],
      "name": "UPVOTE_COST",
      "outputs": [
        {
          "internalType": "int8",
          "name": "",
          "type": "int8"
        }
      ],
      "stateMutability": "view",
      "type": "function",
      "constant": true
    },
    {
      "inputs": [],
      "name": "UPVOTE_REWARD",
      "outputs": [
        {
          "internalType": "int8",
          "name": "",
          "type": "int8"
        }
      ],
      "stateMutability": "view",
      "type": "function",
      "constant": true
    },
    {
      "inputs": [],
      "name": "requestAllReviewTokens",
      "outputs": [],
      "stateMutability": "nonpayable",
      "type": "function"
    },
    {
      "inputs": [
        {
          "internalType": "uint64",
          "name": "productId",
          "type": "uint64"
        }
      ],
      "name": "requestReviewToken",
      "outputs": [],
      "stateMutability": "nonpayable",
      "type": "function"
    },
    {
      "inputs": [
        {
          "internalType": "address",
          "name": "account",
          "type": "address"
        },
        {
          "internalType": "uint64",
          "name": "productId",
          "type": "uint64"
        }
      ],
      "name": "rewardReviewToken",
      "outputs": [],
      "stateMutability": "nonpayable",
      "type": "function"
    },
    {
      "inputs": [
        {
          "internalType": "address",
          "name": "account",
          "type": "address"
        },
        {
          "internalType": "uint64[]",
          "name": "productIds",
          "type": "uint64[]"
        }
      ],
      "name": "rewardReviewTokens",
      "outputs": [],
      "stateMutability": "nonpayable",
      "type": "function"
    },
    {
      "inputs": [
        {
          "internalType": "uint64",
          "name": "productId",
          "type": "uint64"
        },
        {
          "internalType": "bytes",
          "name": "reviewHash",
          "type": "bytes"
        }
      ],
      "name": "makeReview",
      "outputs": [
        {
          "internalType": "bool",
          "name": "",
          "type": "bool"
        }
      ],
      "stateMutability": "nonpayable",
      "type": "function"
    },
    {
      "inputs": [
        {
          "internalType": "bytes",
          "name": "reviewHash",
          "type": "bytes"
        }
      ],
      "name": "upvoteReview",
      "outputs": [],
      "stateMutability": "nonpayable",
      "type": "function"
    },
    {
      "inputs": [
        {
          "internalType": "uint64",
          "name": "productId",
          "type": "uint64"
        }
      ],
      "name": "addProduct",
      "outputs": [],
      "stateMutability": "nonpayable",
      "type": "function"
    },
    {
      "inputs": [
        {
          "internalType": "uint64[]",
          "name": "productIds",
          "type": "uint64[]"
        }
      ],
      "name": "addProducts",
      "outputs": [],
      "stateMutability": "nonpayable",
      "type": "function"
    },
    {
      "inputs": [
        {
          "internalType": "bytes",
          "name": "reviewHash",
          "type": "bytes"
        }
      ],
      "name": "reviewExists",
      "outputs": [
        {
          "internalType": "bool",
          "name": "",
          "type": "bool"
        }
      ],
      "stateMutability": "view",
      "type": "function",
      "constant": true
    },
    {
      "inputs": [
        {
          "internalType": "uint64",
          "name": "productId",
          "type": "uint64"
        }
      ],
      "name": "getProduct",
      "outputs": [
        {
          "components": [
            {
              "internalType": "bytes[]",
              "name": "reviewHashes",
              "type": "bytes[]"
            },
            {
              "internalType": "bool",
              "name": "_initialized",
              "type": "bool"
            }
          ],
          "internalType": "struct Derp.Product",
          "name": "",
          "type": "tuple"
        }
      ],
      "stateMutability": "view",
      "type": "function",
      "constant": true
    },
    {
      "inputs": [],
      "name": "getProducts",
      "outputs": [
        {
          "internalType": "uint64[]",
          "name": "",
          "type": "uint64[]"
        }
      ],
      "stateMutability": "view",
      "type": "function",
      "constant": true
    },
    {
      "inputs": [],
      "name": "getReviewTokens",
      "outputs": [
        {
          "internalType": "int64",
          "name": "",
          "type": "int64"
        }
      ],
      "stateMutability": "view",
      "type": "function",
      "constant": true
    },
    {
      "inputs": [],
      "name": "getProfileTokens",
      "outputs": [
        {
          "internalType": "int64",
          "name": "",
          "type": "int64"
        }
      ],
      "stateMutability": "view",
      "type": "function",
      "constant": true
    },
    {
      "inputs": [],
      "name": "getReviews",
      "outputs": [
        {
          "internalType": "bytes[]",
          "name": "",
          "type": "bytes[]"
        }
      ],
      "stateMutability": "view",
      "type": "function",
      "constant": true
    }
  ],
  "bytecode": "0x608060405234801561001057600080fd5b50336000806101000a81548173ffffffffffffffffffffffffffffffffffffffff021916908373ffffffffffffffffffffffffffffffffffffffff160217905550612b39806100606000396000f3fe608060405234801561001057600080fd5b50600436106101215760003560e01c80636d1febb1116100ad578063b100488f11610071578063b100488f146102d0578063c29b2f20146102ee578063e904394c1461030c578063efea5e961461033c578063fa95bbbf1461035857610121565b80636d1febb11461022c5780637c89f5b31461025c57806396593c9e1461027a578063ab95c8f314610298578063ac144ee2146102b457610121565b806351ef4661116100f457806351ef46611461019a5780635edda63b146101b657806368cf232d146101d45780636c4abdb1146101f25780636caaca101461022257610121565b80630bfa59c2146101265780631b1e132414610144578063396c622614610162578063429c4c211461017e575b600080fd5b61012e610376565b60405161013b9190611b09565b60405180910390f35b61014c61037b565b6040516101599190611c76565b60405180910390f35b61017c60048036038101906101779190611d07565b610491565b005b61019860048036038101906101939190611d94565b6106b3565b005b6101b460048036038101906101af9190611e75565b6107c7565b005b6101be610a7c565b6040516101cb9190611b09565b60405180910390f35b6101dc610a81565b6040516101e99190611b09565b60405180910390f35b61020c60048036038101906102079190611d07565b610a86565b6040516102199190611ef0565b60405180910390f35b61022a610ac1565b005b61024660048036038101906102419190611f0b565b610afa565b6040516102539190611ef0565b60405180910390f35b6102646110d5565b6040516102719190611f87565b60405180910390f35b610282611129565b60405161028f9190611f87565b60405180910390f35b6102b260048036038101906102ad9190611fa2565b61117d565b005b6102ce60048036038101906102c99190611fe2565b611325565b005b6102d861157c565b6040516102e59190611b09565b60405180910390f35b6102f6611581565b60405161030391906120ed565b60405180910390f35b61032660048036038101906103219190611d94565b61160d565b60405161033391906121e1565b60405180910390f35b61035660048036038101906103519190611d94565b6117b9565b005b6103606119f2565b60405161036d9190611b09565b60405180910390f35b600a81565b6060600660003373ffffffffffffffffffffffffffffffffffffffff1673ffffffffffffffffffffffffffffffffffffffff168152602001908152602001600020805480602002602001604051908101604052809291908181526020016000905b828210156104885783829060005260206000200180546103fb90612232565b80601f016020809104026020016040519081016040528092919081815260200182805461042790612232565b80156104745780601f1061044957610100808354040283529160200191610474565b820191906000526020600020905b81548152906001019060200180831161045757829003601f168201915b5050505050815260200190600101906103dc565b50505050905090565b6000600583836040516104a59291906122a2565b9081526020016040518091039020905080600001601c9054906101000a900460ff166104d057600080fd5b600260000b600160003373ffffffffffffffffffffffffffffffffffffffff1673ffffffffffffffffffffffffffffffffffffffff16815260200190815260200160002060009054906101000a900460070b60070b121561053057600080fd5b600260000b600160003373ffffffffffffffffffffffffffffffffffffffff1673ffffffffffffffffffffffffffffffffffffffff16815260200190815260200160002060008282829054906101000a900460070b61058f91906122ea565b92506101000a81548167ffffffffffffffff021916908360070b67ffffffffffffffff16021790555060018160000160148282829054906101000a900460070b6105d9919061234a565b92506101000a81548167ffffffffffffffff021916908360070b67ffffffffffffffff160217905550600160000b600260008360000160009054906101000a900473ffffffffffffffffffffffffffffffffffffffff1673ffffffffffffffffffffffffffffffffffffffff1673ffffffffffffffffffffffffffffffffffffffff16815260200190815260200160002060008282829054906101000a900460070b610685919061234a565b92506101000a81548167ffffffffffffffff021916908360070b67ffffffffffffffff160217905550505050565b600060028111156106c7576106c66123aa565b5b600760003373ffffffffffffffffffffffffffffffffffffffff1673ffffffffffffffffffffffffffffffffffffffff16815260200190815260200160002060008367ffffffffffffffff1667ffffffffffffffff16815260200190815260200160002060009054906101000a900460ff16600281111561074b5761074a6123aa565b5b1461078b576040517f08c379a000000000000000000000000000000000000000000000000000000000815260040161078290612436565b60405180910390fd5b7f1382a4dd1f1609a0cd69ab74da10dc4ddfc5c47b6bc64440e3841c862075564733826040516107bc929190612474565b60405180910390a150565b60008054906101000a900473ffffffffffffffffffffffffffffffffffffffff1673ffffffffffffffffffffffffffffffffffffffff163373ffffffffffffffffffffffffffffffffffffffff161461081f57600080fd5b60005b82829050811015610a3f5760006002811115610841576108406123aa565b5b600760008673ffffffffffffffffffffffffffffffffffffffff1673ffffffffffffffffffffffffffffffffffffffff16815260200190815260200160002060008585858181106108955761089461249d565b5b90506020020160208101906108aa9190611d94565b67ffffffffffffffff1667ffffffffffffffff16815260200190815260200160002060009054906101000a900460ff1660028111156108ec576108eb6123aa565b5b03610a2e576001600760008673ffffffffffffffffffffffffffffffffffffffff1673ffffffffffffffffffffffffffffffffffffffff16815260200190815260200160002060008585858181106109475761094661249d565b5b905060200201602081019061095c9190611d94565b67ffffffffffffffff1667ffffffffffffffff16815260200190815260200160002060006101000a81548160ff021916908360028111156109a05761099f6123aa565b5b0217905550600a60000b600160008673ffffffffffffffffffffffffffffffffffffffff1673ffffffffffffffffffffffffffffffffffffffff16815260200190815260200160002060008282829054906101000a900460070b610a04919061234a565b92506101000a81548167ffffffffffffffff021916908360070b67ffffffffffffffff1602179055505b80610a38906124d6565b9050610822565b507f50f0ac35fb060ec2eb1b1051209ac69e7caa16f70e8fb9f469fa3befdd5cb8ca83604051610a6f919061251e565b60405180910390a1505050565b600281565b600281565b600060058383604051610a9a9291906122a2565b9081526020016040518091039020600001601c9054906101000a900460ff16905092915050565b7fafe0d4e783559eddc1189e4f3ec5fb8c740c1585d164c301b9cb502984dd03cf33604051610af0919061251e565b60405180910390a1565b6000600260000b600160003373ffffffffffffffffffffffffffffffffffffffff1673ffffffffffffffffffffffffffffffffffffffff16815260200190815260200160002060009054906101000a900460070b60070b1215610b92576040517f08c379a0000000000000000000000000000000000000000000000000000000008152600401610b8990612585565b60405180910390fd5b60058383604051610ba49291906122a2565b9081526020016040518091039020600001601c9054906101000a900460ff1615610c03576040517f08c379a0000000000000000000000000000000000000000000000000000000008152600401610bfa906125f1565b60405180910390fd5b60016002811115610c1757610c166123aa565b5b600760003373ffffffffffffffffffffffffffffffffffffffff1673ffffffffffffffffffffffffffffffffffffffff16815260200190815260200160002060008667ffffffffffffffff1667ffffffffffffffff16815260200190815260200160002060009054906101000a900460ff166002811115610c9b57610c9a6123aa565b5b14610cdb576040517f08c379a0000000000000000000000000000000000000000000000000000000008152600401610cd290612683565b60405180910390fd5b600360008567ffffffffffffffff1667ffffffffffffffff16815260200190815260200160002060010160009054906101000a900460ff16610d52576040517f08c379a0000000000000000000000000000000000000000000000000000000008152600401610d49906126ef565b60405180910390fd5b600060405180606001604052803373ffffffffffffffffffffffffffffffffffffffff168152602001600160070b8152602001600115158152509050600660003373ffffffffffffffffffffffffffffffffffffffff1673ffffffffffffffffffffffffffffffffffffffff168152602001908152602001600020848490918060018154018082558091505060019003906000526020600020016000909192909192909192909192509182610e089291906128f5565b508060058585604051610e1c9291906122a2565b908152602001604051809103902060008201518160000160006101000a81548173ffffffffffffffffffffffffffffffffffffffff021916908373ffffffffffffffffffffffffffffffffffffffff16021790555060208201518160000160146101000a81548167ffffffffffffffff021916908360070b67ffffffffffffffff160217905550604082015181600001601c6101000a81548160ff021916908315150217905550905050600360008667ffffffffffffffff1667ffffffffffffffff168152602001908152602001600020600001848490918060018154018082558091505060019003906000526020600020016000909192909192909192909192509182610f2b9291906128f5565b50600260000b600160003373ffffffffffffffffffffffffffffffffffffffff1673ffffffffffffffffffffffffffffffffffffffff16815260200190815260200160002060008282829054906101000a900460070b610f8b91906122ea565b92506101000a81548167ffffffffffffffff021916908360070b67ffffffffffffffff160217905550600160000b600260003373ffffffffffffffffffffffffffffffffffffffff1673ffffffffffffffffffffffffffffffffffffffff16815260200190815260200160002060008282829054906101000a900460070b611013919061234a565b92506101000a81548167ffffffffffffffff021916908360070b67ffffffffffffffff1602179055506002600760003373ffffffffffffffffffffffffffffffffffffffff1673ffffffffffffffffffffffffffffffffffffffff16815260200190815260200160002060008767ffffffffffffffff1667ffffffffffffffff16815260200190815260200160002060006101000a81548160ff021916908360028111156110c4576110c36123aa565b5b021790555060019150509392505050565b6000600260003373ffffffffffffffffffffffffffffffffffffffff1673ffffffffffffffffffffffffffffffffffffffff16815260200190815260200160002060009054906101000a900460070b905090565b6000600160003373ffffffffffffffffffffffffffffffffffffffff1673ffffffffffffffffffffffffffffffffffffffff16815260200190815260200160002060009054906101000a900460070b905090565b60008054906101000a900473ffffffffffffffffffffffffffffffffffffffff1673ffffffffffffffffffffffffffffffffffffffff163373ffffffffffffffffffffffffffffffffffffffff16146111d557600080fd5b6001600760008473ffffffffffffffffffffffffffffffffffffffff1673ffffffffffffffffffffffffffffffffffffffff16815260200190815260200160002060008367ffffffffffffffff1667ffffffffffffffff16815260200190815260200160002060006101000a81548160ff0219169083600281111561125d5761125c6123aa565b5b0217905550600a60000b600160008473ffffffffffffffffffffffffffffffffffffffff1673ffffffffffffffffffffffffffffffffffffffff16815260200190815260200160002060008282829054906101000a900460070b6112c1919061234a565b92506101000a81548167ffffffffffffffff021916908360070b67ffffffffffffffff1602179055507f50f0ac35fb060ec2eb1b1051209ac69e7caa16f70e8fb9f469fa3befdd5cb8ca82604051611319919061251e565b60405180910390a15050565b60008054906101000a900473ffffffffffffffffffffffffffffffffffffffff1673ffffffffffffffffffffffffffffffffffffffff163373ffffffffffffffffffffffffffffffffffffffff161461137d57600080fd5b60005b828290508110156115775760006040518060400160405280600067ffffffffffffffff8111156113b3576113b261271a565b5b6040519080825280602002602001820160405280156113e657816020015b60608152602001906001900390816113d15790505b5081526020016001151581525090506003600085858581811061140c5761140b61249d565b5b90506020020160208101906114219190611d94565b67ffffffffffffffff1667ffffffffffffffff16815260200190815260200160002060010160009054906101000a900460ff1661156557600484848481811061146d5761146c61249d565b5b90506020020160208101906114829190611d94565b90806001815401808255809150506001900390600052602060002090600491828204019190066008029091909190916101000a81548167ffffffffffffffff021916908367ffffffffffffffff16021790555080600360008686868181106114ed576114ec61249d565b5b90506020020160208101906115029190611d94565b67ffffffffffffffff1667ffffffffffffffff16815260200190815260200160002060008201518160000190805190602001906115409291906119f7565b5060208201518160010160006101000a81548160ff0219169083151502179055509050505b5080611570906124d6565b9050611380565b505050565b600181565b6060600480548060200260200160405190810160405280929190818152602001828054801561160357602002820191906000526020600020906000905b82829054906101000a900467ffffffffffffffff1667ffffffffffffffff16815260200190600801906020826007010492830192600103820291508084116115be5790505b5050505050905090565b611615611a50565b600360008367ffffffffffffffff1667ffffffffffffffff16815260200190815260200160002060010160009054906101000a900460ff1661168c576040517f08c379a0000000000000000000000000000000000000000000000000000000008152600401611683906126ef565b60405180910390fd5b600360008367ffffffffffffffff1667ffffffffffffffff16815260200190815260200160002060405180604001604052908160008201805480602002602001604051908101604052809291908181526020016000905b8282101561178f57838290600052602060002001805461170290612232565b80601f016020809104026020016040519081016040528092919081815260200182805461172e90612232565b801561177b5780601f106117505761010080835404028352916020019161177b565b820191906000526020600020905b81548152906001019060200180831161175e57829003601f168201915b5050505050815260200190600101906116e3565b5050505081526020016001820160009054906101000a900460ff1615151515815250509050919050565b60008054906101000a900473ffffffffffffffffffffffffffffffffffffffff1673ffffffffffffffffffffffffffffffffffffffff163373ffffffffffffffffffffffffffffffffffffffff161461181157600080fd5b600360008267ffffffffffffffff1667ffffffffffffffff16815260200190815260200160002060010160009054906101000a900460ff1615611889576040517f08c379a000000000000000000000000000000000000000000000000000000000815260040161188090612a11565b60405180910390fd5b60006040518060400160405280600067ffffffffffffffff8111156118b1576118b061271a565b5b6040519080825280602002602001820160405280156118e457816020015b60608152602001906001900390816118cf5790505b508152602001600115158152509050600360008367ffffffffffffffff1667ffffffffffffffff16815260200190815260200160002060010160009054906101000a900460ff166119ee5760048290806001815401808255809150506001900390600052602060002090600491828204019190066008029091909190916101000a81548167ffffffffffffffff021916908367ffffffffffffffff16021790555080600360008467ffffffffffffffff1667ffffffffffffffff16815260200190815260200160002060008201518160000190805190602001906119c99291906119f7565b5060208201518160010160006101000a81548160ff0219169083151502179055509050505b5050565b600181565b828054828255906000526020600020908101928215611a3f579160200282015b82811115611a3e578251829081611a2e9190612a31565b5091602001919060010190611a17565b5b509050611a4c9190611a6c565b5090565b6040518060400160405280606081526020016000151581525090565b5b80821115611a8c5760008181611a839190611a90565b50600101611a6d565b5090565b508054611a9c90612232565b6000825580601f10611aae5750611acd565b601f016020900490600052602060002090810190611acc9190611ad0565b5b50565b5b80821115611ae9576000816000905550600101611ad1565b5090565b60008160000b9050919050565b611b0381611aed565b82525050565b6000602082019050611b1e6000830184611afa565b92915050565b600081519050919050565b600082825260208201905092915050565b6000819050602082019050919050565b600081519050919050565b600082825260208201905092915050565b60005b83811015611b8a578082015181840152602081019050611b6f565b60008484015250505050565b6000601f19601f8301169050919050565b6000611bb282611b50565b611bbc8185611b5b565b9350611bcc818560208601611b6c565b611bd581611b96565b840191505092915050565b6000611bec8383611ba7565b905092915050565b6000602082019050919050565b6000611c0c82611b24565b611c168185611b2f565b935083602082028501611c2885611b40565b8060005b85811015611c645784840389528151611c458582611be0565b9450611c5083611bf4565b925060208a01995050600181019050611c2c565b50829750879550505050505092915050565b60006020820190508181036000830152611c908184611c01565b905092915050565b600080fd5b600080fd5b600080fd5b600080fd5b600080fd5b60008083601f840112611cc757611cc6611ca2565b5b8235905067ffffffffffffffff811115611ce457611ce3611ca7565b5b602083019150836001820283011115611d0057611cff611cac565b5b9250929050565b60008060208385031215611d1e57611d1d611c98565b5b600083013567ffffffffffffffff811115611d3c57611d3b611c9d565b5b611d4885828601611cb1565b92509250509250929050565b600067ffffffffffffffff82169050919050565b611d7181611d54565b8114611d7c57600080fd5b50565b600081359050611d8e81611d68565b92915050565b600060208284031215611daa57611da9611c98565b5b6000611db884828501611d7f565b91505092915050565b600073ffffffffffffffffffffffffffffffffffffffff82169050919050565b6000611dec82611dc1565b9050919050565b611dfc81611de1565b8114611e0757600080fd5b50565b600081359050611e1981611df3565b92915050565b60008083601f840112611e3557611e34611ca2565b5b8235905067ffffffffffffffff811115611e5257611e51611ca7565b5b602083019150836020820283011115611e6e57611e6d611cac565b5b9250929050565b600080600060408486031215611e8e57611e8d611c98565b5b6000611e9c86828701611e0a565b935050602084013567ffffffffffffffff811115611ebd57611ebc611c9d565b5b611ec986828701611e1f565b92509250509250925092565b60008115159050919050565b611eea81611ed5565b82525050565b6000602082019050611f056000830184611ee1565b92915050565b600080600060408486031215611f2457611f23611c98565b5b6000611f3286828701611d7f565b935050602084013567ffffffffffffffff811115611f5357611f52611c9d565b5b611f5f86828701611cb1565b92509250509250925092565b60008160070b9050919050565b611f8181611f6b565b82525050565b6000602082019050611f9c6000830184611f78565b92915050565b60008060408385031215611fb957611fb8611c98565b5b6000611fc785828601611e0a565b9250506020611fd885828601611d7f565b9150509250929050565b60008060208385031215611ff957611ff8611c98565b5b600083013567ffffffffffffffff81111561201757612016611c9d565b5b61202385828601611e1f565b92509250509250929050565b600081519050919050565b600082825260208201905092915050565b6000819050602082019050919050565b61206481611d54565b82525050565b6000612076838361205b565b60208301905092915050565b6000602082019050919050565b600061209a8261202f565b6120a4818561203a565b93506120af8361204b565b8060005b838110156120e05781516120c7888261206a565b97506120d283612082565b9250506001810190506120b3565b5085935050505092915050565b60006020820190508181036000830152612107818461208f565b905092915050565b600082825260208201905092915050565b600061212b82611b24565b612135818561210f565b93508360208202850161214785611b40565b8060005b8581101561218357848403895281516121648582611be0565b945061216f83611bf4565b925060208a0199505060018101905061214b565b50829750879550505050505092915050565b61219e81611ed5565b82525050565b600060408301600083015184820360008601526121c18282612120565b91505060208301516121d66020860182612195565b508091505092915050565b600060208201905081810360008301526121fb81846121a4565b905092915050565b7f4e487b7100000000000000000000000000000000000000000000000000000000600052602260045260246000fd5b6000600282049050600182168061224a57607f821691505b60208210810361225d5761225c612203565b5b50919050565b600081905092915050565b82818337600083830152505050565b60006122898385612263565b935061229683858461226e565b82840190509392505050565b60006122af82848661227d565b91508190509392505050565b7f4e487b7100000000000000000000000000000000000000000000000000000000600052601160045260246000fd5b60006122f582611f6b565b915061230083611f6b565b92508282039050677fffffffffffffff81137fffffffffffffffffffffffffffffffffffffffffffffffff800000000000000082121715612344576123436122bb565b5b92915050565b600061235582611f6b565b915061236083611f6b565b925082820190507fffffffffffffffffffffffffffffffffffffffffffffffff80000000000000008112677fffffffffffffff821317156123a4576123a36122bb565b5b92915050565b7f4e487b7100000000000000000000000000000000000000000000000000000000600052602160045260246000fd5b600082825260208201905092915050565b7f50726f6475637420616c726561647920636c61696d6564000000000000000000600082015250565b60006124206017836123d9565b915061242b826123ea565b602082019050919050565b6000602082019050818103600083015261244f81612413565b9050919050565b61245f81611de1565b82525050565b61246e81611d54565b82525050565b60006040820190506124896000830185612456565b6124966020830184612465565b9392505050565b7f4e487b7100000000000000000000000000000000000000000000000000000000600052603260045260246000fd5b6000819050919050565b60006124e1826124cc565b91507fffffffffffffffffffffffffffffffffffffffffffffffffffffffffffffffff8203612513576125126122bb565b5b600182019050919050565b60006020820190506125336000830184612456565b92915050565b7f4e6f7420656e6f75676820746f6b656e73000000000000000000000000000000600082015250565b600061256f6011836123d9565b915061257a82612539565b602082019050919050565b6000602082019050818103600083015261259e81612562565b9050919050565b7f52657669657720616c7265616479206578697374730000000000000000000000600082015250565b60006125db6015836123d9565b91506125e6826125a5565b602082019050919050565b6000602082019050818103600083015261260a816125ce565b9050919050565b7f50726f64756374206e6f7420636c61696d6564206f7220616c7265616479207260008201527f6576696577656400000000000000000000000000000000000000000000000000602082015250565b600061266d6027836123d9565b915061267882612611565b604082019050919050565b6000602082019050818103600083015261269c81612660565b9050919050565b7f50726f6475637420646f65736e27742065786973740000000000000000000000600082015250565b60006126d96015836123d9565b91506126e4826126a3565b602082019050919050565b60006020820190508181036000830152612708816126cc565b9050919050565b600082905092915050565b7f4e487b7100000000000000000000000000000000000000000000000000000000600052604160045260246000fd5b60008190508160005260206000209050919050565b60006020601f8301049050919050565b600082821b905092915050565b6000600883026127ab7fffffffffffffffffffffffffffffffffffffffffffffffffffffffffffffffff8261276e565b6127b5868361276e565b95508019841693508086168417925050509392505050565b6000819050919050565b60006127f26127ed6127e8846124cc565b6127cd565b6124cc565b9050919050565b6000819050919050565b61280c836127d7565b612820612818826127f9565b84845461277b565b825550505050565b600090565b612835612828565b612840818484612803565b505050565b5b818110156128645761285960008261282d565b600181019050612846565b5050565b601f8211156128a95761287a81612749565b6128838461275e565b81016020851015612892578190505b6128a661289e8561275e565b830182612845565b50505b505050565b600082821c905092915050565b60006128cc600019846008026128ae565b1980831691505092915050565b60006128e583836128bb565b9150826002028217905092915050565b6128ff838361270f565b67ffffffffffffffff8111156129185761291761271a565b5b6129228254612232565b61292d828285612868565b6000601f83116001811461295c576000841561294a578287013590505b61295485826128d9565b8655506129bc565b601f19841661296a86612749565b60005b828110156129925784890135825560018201915060208501945060208101905061296d565b868310156129af57848901356129ab601f8916826128bb565b8355505b6001600288020188555050505b50505050505050565b7f50726f6475637420616c72656164792065786973747300000000000000000000600082015250565b60006129fb6016836123d9565b9150612a06826129c5565b602082019050919050565b60006020820190508181036000830152612a2a816129ee565b9050919050565b612a3a82611b50565b67ffffffffffffffff811115612a5357612a5261271a565b5b612a5d8254612232565b612a68828285612868565b600060209050601f831160018114612a9b5760008415612a89578287015190505b612a9385826128d9565b865550612afb565b601f198416612aa986612749565b60005b82811015612ad157848901518255600182019150602085019450602081019050612aac565b86831015612aee5784890151612aea601f8916826128bb565b8355505b6001600288020188555050505b50505050505056fea2646970667358221220b66afced28639d0536e6cc07581dc3ce156645141a069db37ce48317a5cd27bc64736f6c63430008110033",
  "immutableReferences": {},
  "source": "// SPDX-License-Identifier: GPL-v3\n\npragma solidity >=0.7.0 <0.9;\n\ncontract Derp {\n    enum ProductState {\n        UNCLAIMED,\n        CLAIMED,\n        REVIEWED\n    }\n\n    // The product for which an user wants to make a review.\n    // This is indexed as a combination of the store ID and the product ID\n    // local to that store.\n    //\n    // Example:\n    //    store ID = 1,\n    //    local product ID = 1,\n    //    product ID = 0x100000001\n    struct Product {\n        bytes[] reviewHashes;\n        bool _initialized;\n    }\n\n    // A review made by a reviewer.\n    // The text of the review is stored on IPFS.\n    struct Review {\n        address reviewer;\n        int64 upvotes;\n        bool _initialized;\n    }\n\n    // The deployer of the contract.\n    // Used to check the authenticity of the reviews.\n    address private owner;\n\n    // Mapping for the NFTs used on the website.\n    mapping(address => int64) private reviewTokens;\n    mapping(address => int64) private profileTokens;\n\n    // Mapping from the uint64 product ID to the stored products.\n    mapping(uint64 => Product) private products;\n\n    // Array used to retrieve all the products stored on-chain.\n    uint64[] private registeredProducts;\n\n    // Mapping from the IPFS' Content Identifier of the review to the actual\n    // review.\n    mapping(bytes => Review) private reviews;\n\n    // Mapping used for retrieving the IPFS' CIDs of the reviews made by an\n    // address.\n    mapping(address => bytes[]) private reviewsFromAddress;\n\n    // Mapping of the products actually claimed by an user.\n    // Used to store on-chain the validity of the reviews.\n    mapping(address => mapping(uint64 => ProductState)) private productsClaimed;\n\n    // Events emitted when an user wants to know if some review tokens can be\n    // obtained.\n    //\n    // ReviewTokensGranted is emitted when the response is affirmative.\n    event AllReviewTokensRequested(address account);\n    event ReviewTokenRequested(address account, uint64 product);\n    event ReviewTokensGranted(address account);\n\n    // Event emitted when an user wants to refresh the products for which they\n    // can create a review.\n    event ProductRefreshRequested();\n\n    // Constants used by the contract\n\n    int8 public constant REVIEW_COST = 2;\n    int8 public constant REVIEW_REWARD = 1;\n    int8 public constant UPVOTE_COST = 2;\n    int8 public constant UPVOTE_REWARD = 1;\n    int8 public constant PER_PURCHASE_TOKENS = 10;\n\n    modifier onlyOwner() {\n        require(msg.sender == owner);\n        _;\n    }\n\n    constructor() {\n        owner = msg.sender;\n    }\n\n    function requestAllReviewTokens() external {\n        emit AllReviewTokensRequested(msg.sender);\n    }\n\n    function requestReviewToken(uint64 productId) external {\n        // Check if the product was already claimed.\n        require(\n            productsClaimed[msg.sender][productId] == ProductState.UNCLAIMED,\n            \"Product already claimed\"\n        );\n\n        emit ReviewTokenRequested(msg.sender, productId);\n    }\n\n    function rewardReviewToken(address account, uint64 productId)\n        external\n        onlyOwner\n    {\n        productsClaimed[account][productId] = ProductState.CLAIMED;\n        reviewTokens[account] += PER_PURCHASE_TOKENS;\n\n        emit ReviewTokensGranted(account);\n    }\n\n    function rewardReviewTokens(address account, uint64[] calldata productIds)\n        external\n        onlyOwner\n    {\n        for (uint256 i = 0; i < productIds.length; ++i) {\n            if (\n                productsClaimed[account][productIds[i]] ==\n                ProductState.UNCLAIMED\n            ) {\n                productsClaimed[account][productIds[i]] = ProductState.CLAIMED;\n                reviewTokens[account] += PER_PURCHASE_TOKENS;\n            }\n        }\n\n        emit ReviewTokensGranted(account);\n    }\n\n    // Reviewer is msg.sender\n    function makeReview(uint64 productId, bytes calldata reviewHash)\n        external\n        returns (bool)\n    {\n        require(reviewTokens[msg.sender] >= REVIEW_COST, \"Not enough tokens\");\n        require(!reviews[reviewHash]._initialized, \"Review already exists\");\n\n        // Stops the user from making reviews of products they have not claimed.\n        require(\n            productsClaimed[msg.sender][productId] == ProductState.CLAIMED,\n            \"Product not claimed or already reviewed\"\n        );\n\n        // Avoids creating a review for a product that doesn't exist.\n        require(products[productId]._initialized, \"Product doesn't exist\");\n\n        Review memory r = Review({\n            reviewer: msg.sender,\n            upvotes: 1,\n            _initialized: true\n        });\n\n        reviewsFromAddress[msg.sender].push(reviewHash);\n\n        reviews[reviewHash] = r;\n        products[productId].reviewHashes.push(reviewHash);\n\n        reviewTokens[msg.sender] -= REVIEW_COST;\n        profileTokens[msg.sender] += REVIEW_REWARD;\n\n        productsClaimed[msg.sender][productId] = ProductState.REVIEWED;\n\n        return true;\n    }\n\n    function upvoteReview(bytes calldata reviewHash) external {\n        Review storage review = reviews[reviewHash];\n        require(review._initialized);\n        require(reviewTokens[msg.sender] >= UPVOTE_COST);\n\n        reviewTokens[msg.sender] -= UPVOTE_COST;\n\n        review.upvotes += 1;\n\n        profileTokens[review.reviewer] += UPVOTE_REWARD;\n    }\n\n    function addProduct(uint64 productId) external onlyOwner {\n        require(!products[productId]._initialized, \"Product already exists\");\n\n        Product memory p = Product({\n            _initialized: true,\n            reviewHashes: new bytes[](0)\n        });\n\n        if (!products[productId]._initialized) {\n            registeredProducts.push(productId);\n            products[productId] = p;\n        }\n    }\n\n    function addProducts(uint64[] calldata productIds) external onlyOwner {\n        for (uint256 i = 0; i < productIds.length; ++i) {\n            Product memory p = Product({\n                _initialized: true,\n                reviewHashes: new bytes[](0)\n            });\n\n            if (!products[productIds[i]]._initialized) {\n                registeredProducts.push(productIds[i]);\n                products[productIds[i]] = p;\n            }\n        }\n    }\n\n    // Utility functions below\n    // You should only call these functions on your local node without\n    // spending gas.\n\n    function reviewExists(bytes calldata reviewHash)\n        public\n        view\n        returns (bool)\n    {\n        return reviews[reviewHash]._initialized;\n    }\n\n    function getProduct(uint64 productId) public view returns (Product memory) {\n        require(products[productId]._initialized, \"Product doesn't exist\");\n\n        return products[productId];\n    }\n\n    function getProducts() public view returns (uint64[] memory) {\n        return registeredProducts;\n    }\n\n    function getReviewTokens() public view returns (int64) {\n        return reviewTokens[msg.sender];\n    }\n\n    function getProfileTokens() public view returns (int64) {\n        return profileTokens[msg.sender];\n    }\n\n    function getReviews() public view returns (bytes[] memory) {\n        return reviewsFromAddress[msg.sender];\n    }\n}\n",
  "sourcePath": "/app/contracts/Derp.sol",
  "compiler": {
    "name": "solc",
    "version": "0.8.17+commit.8df45f5f.Emscripten.clang"
  },
  "schemaVersion": "3.4.11",
  "updatedAt": "2023-01-23T14:48:24.289Z",
  "networkType": "ethereum",
  "devdoc": {
    "kind": "dev",
    "methods": {},
    "version": 1
  },
  "userdoc": {
    "kind": "user",
    "methods": {},
    "version": 1
  }
}