{
  "contractName": "Derp",
  "abi": [
    {
      "inputs": [],
      "stateMutability": "nonpayable",
      "type": "constructor"
    },
    {
      "anonymous": false,
      "inputs": [],
      "name": "ProductRefreshRequested",
      "type": "event"
    },
    {
      "anonymous": false,
      "inputs": [
        {
          "indexed": false,
          "internalType": "address",
          "name": "account",
          "type": "address"
        }
      ],
      "name": "ReviewTokenRequested",
      "type": "event"
    },
    {
      "anonymous": false,
      "inputs": [
        {
          "indexed": false,
          "internalType": "address",
          "name": "account",
          "type": "address"
        },
        {
          "indexed": false,
          "internalType": "uint64",
          "name": "product",
          "type": "uint64"
        }
      ],
      "name": "ReviewTokenRequested",
      "type": "event"
    },
    {
      "anonymous": false,
      "inputs": [
        {
          "indexed": false,
          "internalType": "address",
          "name": "account",
          "type": "address"
        }
      ],
      "name": "ReviewTokensGranted",
      "type": "event"
    },
    {
      "inputs": [],
      "name": "PER_PURCHASE_TOKENS",
      "outputs": [
        {
          "internalType": "int8",
          "name": "",
          "type": "int8"
        }
      ],
      "stateMutability": "view",
      "type": "function",
      "constant": true
    },
    {
      "inputs": [],
      "name": "REVIEW_COST",
      "outputs": [
        {
          "internalType": "int8",
          "name": "",
          "type": "int8"
        }
      ],
      "stateMutability": "view",
      "type": "function",
      "constant": true
    },
    {
      "inputs": [],
      "name": "REVIEW_REWARD",
      "outputs": [
        {
          "internalType": "int8",
          "name": "",
          "type": "int8"
        }
      ],
      "stateMutability": "view",
      "type": "function",
      "constant": true
    },
    {
      "inputs": [],
      "name": "UPVOTE_COST",
      "outputs": [
        {
          "internalType": "int8",
          "name": "",
          "type": "int8"
        }
      ],
      "stateMutability": "view",
      "type": "function",
      "constant": true
    },
    {
      "inputs": [],
      "name": "UPVOTE_REWARD",
      "outputs": [
        {
          "internalType": "int8",
          "name": "",
          "type": "int8"
        }
      ],
      "stateMutability": "view",
      "type": "function",
      "constant": true
    },
    {
      "inputs": [
        {
          "internalType": "address",
          "name": "account",
          "type": "address"
        },
        {
          "internalType": "uint64",
          "name": "productId",
          "type": "uint64"
        }
      ],
      "name": "requestReviewToken",
      "outputs": [],
      "stateMutability": "nonpayable",
      "type": "function"
    },
    {
      "inputs": [
        {
          "internalType": "address",
          "name": "account",
          "type": "address"
        },
        {
          "internalType": "uint64",
          "name": "productId",
          "type": "uint64"
        }
      ],
      "name": "rewardReviewToken",
      "outputs": [],
      "stateMutability": "nonpayable",
      "type": "function"
    },
    {
      "inputs": [
        {
          "internalType": "uint64",
          "name": "productId",
          "type": "uint64"
        },
        {
          "internalType": "bytes",
          "name": "reviewHash",
          "type": "bytes"
        }
      ],
      "name": "makeReview",
      "outputs": [
        {
          "internalType": "bool",
          "name": "",
          "type": "bool"
        }
      ],
      "stateMutability": "nonpayable",
      "type": "function"
    },
    {
      "inputs": [
        {
          "internalType": "bytes",
          "name": "reviewHash",
          "type": "bytes"
        }
      ],
      "name": "upvoteReview",
      "outputs": [],
      "stateMutability": "nonpayable",
      "type": "function"
    },
    {
      "inputs": [
        {
          "internalType": "uint64[]",
          "name": "productIds",
          "type": "uint64[]"
        }
      ],
      "name": "addProducts",
      "outputs": [],
      "stateMutability": "nonpayable",
      "type": "function"
    },
    {
      "inputs": [
        {
          "internalType": "bytes",
          "name": "reviewHash",
          "type": "bytes"
        }
      ],
      "name": "reviewExists",
      "outputs": [
        {
          "internalType": "bool",
          "name": "",
          "type": "bool"
        }
      ],
      "stateMutability": "view",
      "type": "function",
      "constant": true
    },
    {
      "inputs": [
        {
          "internalType": "uint64",
          "name": "productId",
          "type": "uint64"
        }
      ],
      "name": "getProduct",
      "outputs": [
        {
          "components": [
            {
              "internalType": "bytes[]",
              "name": "reviewHashes",
              "type": "bytes[]"
            },
            {
              "internalType": "bool",
              "name": "_initialized",
              "type": "bool"
            }
          ],
          "internalType": "struct Derp.Product",
          "name": "",
          "type": "tuple"
        }
      ],
      "stateMutability": "view",
      "type": "function",
      "constant": true
    },
    {
      "inputs": [],
      "name": "getReviewTokens",
      "outputs": [
        {
          "internalType": "int64",
          "name": "",
          "type": "int64"
        }
      ],
      "stateMutability": "view",
      "type": "function",
      "constant": true
    },
    {
      "inputs": [],
      "name": "getProfileTokens",
      "outputs": [
        {
          "internalType": "int64",
          "name": "",
          "type": "int64"
        }
      ],
      "stateMutability": "view",
      "type": "function",
      "constant": true
    },
    {
      "inputs": [],
      "name": "getReviews",
      "outputs": [
        {
          "internalType": "bytes[]",
          "name": "",
          "type": "bytes[]"
        }
      ],
      "stateMutability": "view",
      "type": "function",
      "constant": true
    }
  ],
  "bytecode": "0x608060405234801561001057600080fd5b50336000806101000a81548173ffffffffffffffffffffffffffffffffffffffff021916908373ffffffffffffffffffffffffffffffffffffffff1602179055506122d2806100606000396000f3fe608060405234801561001057600080fd5b50600436106100f55760003560e01c80637c89f5b311610097578063b100488f11610066578063b100488f14610262578063bec8232014610280578063e904394c1461029c578063fa95bbbf146102cc576100f5565b80637c89f5b3146101ee57806396593c9e1461020c578063ab95c8f31461022a578063ac144ee214610246576100f5565b80635edda63b116100d35780635edda63b1461015257806368cf232d146101705780636c4abdb11461018e5780636d1febb1146101be576100f5565b80630bfa59c2146100fa5780631b1e132414610118578063396c622614610136575b600080fd5b6101026102ea565b60405161010f919061144e565b60405180910390f35b6101206102ef565b60405161012d91906115bb565b60405180910390f35b610150600480360381019061014b919061164c565b610405565b005b61015a610627565b604051610167919061144e565b60405180910390f35b61017861062c565b604051610185919061144e565b60405180910390f35b6101a860048036038101906101a3919061164c565b610631565b6040516101b591906116b4565b60405180910390f35b6101d860048036038101906101d3919061170f565b61066c565b6040516101e591906116b4565b60405180910390f35b6101f6610c47565b604051610203919061178b565b60405180910390f35b610214610c9b565b604051610221919061178b565b60405180910390f35b610244600480360381019061023f9190611804565b610cef565b005b610260600480360381019061025b919061189a565b610e97565b005b61026a611071565b604051610277919061144e565b60405180910390f35b61029a60048036038101906102959190611804565b611076565b005b6102b660048036038101906102b191906118e7565b61118b565b6040516102c391906119e6565b60405180910390f35b6102d4611337565b6040516102e1919061144e565b60405180910390f35b600a81565b6060600560003373ffffffffffffffffffffffffffffffffffffffff1673ffffffffffffffffffffffffffffffffffffffff168152602001908152602001600020805480602002602001604051908101604052809291908181526020016000905b828210156103fc57838290600052602060002001805461036f90611a37565b80601f016020809104026020016040519081016040528092919081815260200182805461039b90611a37565b80156103e85780601f106103bd576101008083540402835291602001916103e8565b820191906000526020600020905b8154815290600101906020018083116103cb57829003601f168201915b505050505081526020019060010190610350565b50505050905090565b600060048383604051610419929190611aa7565b9081526020016040518091039020905080600001601c9054906101000a900460ff1661044457600080fd5b600260000b600160003373ffffffffffffffffffffffffffffffffffffffff1673ffffffffffffffffffffffffffffffffffffffff16815260200190815260200160002060009054906101000a900460070b60070b12156104a457600080fd5b600260000b600160003373ffffffffffffffffffffffffffffffffffffffff1673ffffffffffffffffffffffffffffffffffffffff16815260200190815260200160002060008282829054906101000a900460070b6105039190611aef565b92506101000a81548167ffffffffffffffff021916908360070b67ffffffffffffffff16021790555060018160000160148282829054906101000a900460070b61054d9190611b4f565b92506101000a81548167ffffffffffffffff021916908360070b67ffffffffffffffff160217905550600160000b600260008360000160009054906101000a900473ffffffffffffffffffffffffffffffffffffffff1673ffffffffffffffffffffffffffffffffffffffff1673ffffffffffffffffffffffffffffffffffffffff16815260200190815260200160002060008282829054906101000a900460070b6105f99190611b4f565b92506101000a81548167ffffffffffffffff021916908360070b67ffffffffffffffff160217905550505050565b600281565b600281565b600060048383604051610645929190611aa7565b9081526020016040518091039020600001601c9054906101000a900460ff16905092915050565b6000600260000b600160003373ffffffffffffffffffffffffffffffffffffffff1673ffffffffffffffffffffffffffffffffffffffff16815260200190815260200160002060009054906101000a900460070b60070b1215610704576040517f08c379a00000000000000000000000000000000000000000000000000000000081526004016106fb90611c0c565b60405180910390fd5b60048383604051610716929190611aa7565b9081526020016040518091039020600001601c9054906101000a900460ff1615610775576040517f08c379a000000000000000000000000000000000000000000000000000000000815260040161076c90611c78565b60405180910390fd5b6001600281111561078957610788611c98565b5b600660003373ffffffffffffffffffffffffffffffffffffffff1673ffffffffffffffffffffffffffffffffffffffff16815260200190815260200160002060008667ffffffffffffffff1667ffffffffffffffff16815260200190815260200160002060009054906101000a900460ff16600281111561080d5761080c611c98565b5b1461084d576040517f08c379a000000000000000000000000000000000000000000000000000000000815260040161084490611d39565b60405180910390fd5b600360008567ffffffffffffffff1667ffffffffffffffff16815260200190815260200160002060010160009054906101000a900460ff166108c4576040517f08c379a00000000000000000000000000000000000000000000000000000000081526004016108bb90611da5565b60405180910390fd5b600060405180606001604052803373ffffffffffffffffffffffffffffffffffffffff168152602001600160070b8152602001600115158152509050600560003373ffffffffffffffffffffffffffffffffffffffff1673ffffffffffffffffffffffffffffffffffffffff16815260200190815260200160002084849091806001815401808255809150506001900390600052602060002001600090919290919290919290919250918261097a929190611fb5565b50806004858560405161098e929190611aa7565b908152602001604051809103902060008201518160000160006101000a81548173ffffffffffffffffffffffffffffffffffffffff021916908373ffffffffffffffffffffffffffffffffffffffff16021790555060208201518160000160146101000a81548167ffffffffffffffff021916908360070b67ffffffffffffffff160217905550604082015181600001601c6101000a81548160ff021916908315150217905550905050600360008667ffffffffffffffff1667ffffffffffffffff168152602001908152602001600020600001848490918060018154018082558091505060019003906000526020600020016000909192909192909192909192509182610a9d929190611fb5565b50600260000b600160003373ffffffffffffffffffffffffffffffffffffffff1673ffffffffffffffffffffffffffffffffffffffff16815260200190815260200160002060008282829054906101000a900460070b610afd9190611aef565b92506101000a81548167ffffffffffffffff021916908360070b67ffffffffffffffff160217905550600160000b600260003373ffffffffffffffffffffffffffffffffffffffff1673ffffffffffffffffffffffffffffffffffffffff16815260200190815260200160002060008282829054906101000a900460070b610b859190611b4f565b92506101000a81548167ffffffffffffffff021916908360070b67ffffffffffffffff1602179055506002600660003373ffffffffffffffffffffffffffffffffffffffff1673ffffffffffffffffffffffffffffffffffffffff16815260200190815260200160002060008767ffffffffffffffff1667ffffffffffffffff16815260200190815260200160002060006101000a81548160ff02191690836002811115610c3657610c35611c98565b5b021790555060019150509392505050565b6000600260003373ffffffffffffffffffffffffffffffffffffffff1673ffffffffffffffffffffffffffffffffffffffff16815260200190815260200160002060009054906101000a900460070b905090565b6000600160003373ffffffffffffffffffffffffffffffffffffffff1673ffffffffffffffffffffffffffffffffffffffff16815260200190815260200160002060009054906101000a900460070b905090565b60008054906101000a900473ffffffffffffffffffffffffffffffffffffffff1673ffffffffffffffffffffffffffffffffffffffff163373ffffffffffffffffffffffffffffffffffffffff1614610d4757600080fd5b6001600660008473ffffffffffffffffffffffffffffffffffffffff1673ffffffffffffffffffffffffffffffffffffffff16815260200190815260200160002060008367ffffffffffffffff1667ffffffffffffffff16815260200190815260200160002060006101000a81548160ff02191690836002811115610dcf57610dce611c98565b5b0217905550600a60000b600160008473ffffffffffffffffffffffffffffffffffffffff1673ffffffffffffffffffffffffffffffffffffffff16815260200190815260200160002060008282829054906101000a900460070b610e339190611b4f565b92506101000a81548167ffffffffffffffff021916908360070b67ffffffffffffffff1602179055507f50f0ac35fb060ec2eb1b1051209ac69e7caa16f70e8fb9f469fa3befdd5cb8ca82604051610e8b9190612094565b60405180910390a15050565b60008054906101000a900473ffffffffffffffffffffffffffffffffffffffff1673ffffffffffffffffffffffffffffffffffffffff163373ffffffffffffffffffffffffffffffffffffffff1614610eef57600080fd5b60005b8282905081101561106c5760006040518060400160405280600067ffffffffffffffff811115610f2557610f24611dd0565b5b604051908082528060200260200182016040528015610f5857816020015b6060815260200190600190039081610f435790505b50815260200160011515815250905060036000858585818110610f7e57610f7d6120af565b5b9050602002016020810190610f9391906118e7565b67ffffffffffffffff1667ffffffffffffffff16815260200190815260200160002060010160009054906101000a900460ff1661105a578060036000868686818110610fe257610fe16120af565b5b9050602002016020810190610ff791906118e7565b67ffffffffffffffff1667ffffffffffffffff168152602001908152602001600020600082015181600001908051906020019061103592919061133c565b5060208201518160010160006101000a81548160ff0219169083151502179055509050505b5080611065906120de565b9050610ef2565b505050565b600181565b6000600281111561108a57611089611c98565b5b600660008473ffffffffffffffffffffffffffffffffffffffff1673ffffffffffffffffffffffffffffffffffffffff16815260200190815260200160002060008367ffffffffffffffff1667ffffffffffffffff16815260200190815260200160002060009054906101000a900460ff16600281111561110e5761110d611c98565b5b1461114e576040517f08c379a000000000000000000000000000000000000000000000000000000000815260040161114590612172565b60405180910390fd5b7f1382a4dd1f1609a0cd69ab74da10dc4ddfc5c47b6bc64440e3841c8620755647338260405161117f9291906121a1565b60405180910390a15050565b611193611395565b600360008367ffffffffffffffff1667ffffffffffffffff16815260200190815260200160002060010160009054906101000a900460ff1661120a576040517f08c379a000000000000000000000000000000000000000000000000000000000815260040161120190611da5565b60405180910390fd5b600360008367ffffffffffffffff1667ffffffffffffffff16815260200190815260200160002060405180604001604052908160008201805480602002602001604051908101604052809291908181526020016000905b8282101561130d57838290600052602060002001805461128090611a37565b80601f01602080910402602001604051908101604052809291908181526020018280546112ac90611a37565b80156112f95780601f106112ce576101008083540402835291602001916112f9565b820191906000526020600020905b8154815290600101906020018083116112dc57829003601f168201915b505050505081526020019060010190611261565b5050505081526020016001820160009054906101000a900460ff1615151515815250509050919050565b600181565b828054828255906000526020600020908101928215611384579160200282015b8281111561138357825182908161137391906121ca565b509160200191906001019061135c565b5b50905061139191906113b1565b5090565b6040518060400160405280606081526020016000151581525090565b5b808211156113d157600081816113c891906113d5565b506001016113b2565b5090565b5080546113e190611a37565b6000825580601f106113f35750611412565b601f0160209004906000526020600020908101906114119190611415565b5b50565b5b8082111561142e576000816000905550600101611416565b5090565b60008160000b9050919050565b61144881611432565b82525050565b6000602082019050611463600083018461143f565b92915050565b600081519050919050565b600082825260208201905092915050565b6000819050602082019050919050565b600081519050919050565b600082825260208201905092915050565b60005b838110156114cf5780820151818401526020810190506114b4565b60008484015250505050565b6000601f19601f8301169050919050565b60006114f782611495565b61150181856114a0565b93506115118185602086016114b1565b61151a816114db565b840191505092915050565b600061153183836114ec565b905092915050565b6000602082019050919050565b600061155182611469565b61155b8185611474565b93508360208202850161156d85611485565b8060005b858110156115a9578484038952815161158a8582611525565b945061159583611539565b925060208a01995050600181019050611571565b50829750879550505050505092915050565b600060208201905081810360008301526115d58184611546565b905092915050565b600080fd5b600080fd5b600080fd5b600080fd5b600080fd5b60008083601f84011261160c5761160b6115e7565b5b8235905067ffffffffffffffff811115611629576116286115ec565b5b602083019150836001820283011115611645576116446115f1565b5b9250929050565b60008060208385031215611663576116626115dd565b5b600083013567ffffffffffffffff811115611681576116806115e2565b5b61168d858286016115f6565b92509250509250929050565b60008115159050919050565b6116ae81611699565b82525050565b60006020820190506116c960008301846116a5565b92915050565b600067ffffffffffffffff82169050919050565b6116ec816116cf565b81146116f757600080fd5b50565b600081359050611709816116e3565b92915050565b600080600060408486031215611728576117276115dd565b5b6000611736868287016116fa565b935050602084013567ffffffffffffffff811115611757576117566115e2565b5b611763868287016115f6565b92509250509250925092565b60008160070b9050919050565b6117858161176f565b82525050565b60006020820190506117a0600083018461177c565b92915050565b600073ffffffffffffffffffffffffffffffffffffffff82169050919050565b60006117d1826117a6565b9050919050565b6117e1816117c6565b81146117ec57600080fd5b50565b6000813590506117fe816117d8565b92915050565b6000806040838503121561181b5761181a6115dd565b5b6000611829858286016117ef565b925050602061183a858286016116fa565b9150509250929050565b60008083601f84011261185a576118596115e7565b5b8235905067ffffffffffffffff811115611877576118766115ec565b5b602083019150836020820283011115611893576118926115f1565b5b9250929050565b600080602083850312156118b1576118b06115dd565b5b600083013567ffffffffffffffff8111156118cf576118ce6115e2565b5b6118db85828601611844565b92509250509250929050565b6000602082840312156118fd576118fc6115dd565b5b600061190b848285016116fa565b91505092915050565b600082825260208201905092915050565b600061193082611469565b61193a8185611914565b93508360208202850161194c85611485565b8060005b8581101561198857848403895281516119698582611525565b945061197483611539565b925060208a01995050600181019050611950565b50829750879550505050505092915050565b6119a381611699565b82525050565b600060408301600083015184820360008601526119c68282611925565b91505060208301516119db602086018261199a565b508091505092915050565b60006020820190508181036000830152611a0081846119a9565b905092915050565b7f4e487b7100000000000000000000000000000000000000000000000000000000600052602260045260246000fd5b60006002820490506001821680611a4f57607f821691505b602082108103611a6257611a61611a08565b5b50919050565b600081905092915050565b82818337600083830152505050565b6000611a8e8385611a68565b9350611a9b838584611a73565b82840190509392505050565b6000611ab4828486611a82565b91508190509392505050565b7f4e487b7100000000000000000000000000000000000000000000000000000000600052601160045260246000fd5b6000611afa8261176f565b9150611b058361176f565b92508282039050677fffffffffffffff81137fffffffffffffffffffffffffffffffffffffffffffffffff800000000000000082121715611b4957611b48611ac0565b5b92915050565b6000611b5a8261176f565b9150611b658361176f565b925082820190507fffffffffffffffffffffffffffffffffffffffffffffffff80000000000000008112677fffffffffffffff82131715611ba957611ba8611ac0565b5b92915050565b600082825260208201905092915050565b7f4e6f7420656e6f75676820746f6b656e73000000000000000000000000000000600082015250565b6000611bf6601183611baf565b9150611c0182611bc0565b602082019050919050565b60006020820190508181036000830152611c2581611be9565b9050919050565b7f52657669657720616c7265616479206578697374730000000000000000000000600082015250565b6000611c62601583611baf565b9150611c6d82611c2c565b602082019050919050565b60006020820190508181036000830152611c9181611c55565b9050919050565b7f4e487b7100000000000000000000000000000000000000000000000000000000600052602160045260246000fd5b7f50726f64756374206e6f7420636c61696d6564206f7220616c7265616479207260008201527f6576696577656400000000000000000000000000000000000000000000000000602082015250565b6000611d23602783611baf565b9150611d2e82611cc7565b604082019050919050565b60006020820190508181036000830152611d5281611d16565b9050919050565b7f50726f6475637420646f65736e27742065786973740000000000000000000000600082015250565b6000611d8f601583611baf565b9150611d9a82611d59565b602082019050919050565b60006020820190508181036000830152611dbe81611d82565b9050919050565b600082905092915050565b7f4e487b7100000000000000000000000000000000000000000000000000000000600052604160045260246000fd5b60008190508160005260206000209050919050565b60006020601f8301049050919050565b600082821b905092915050565b600060088302611e617fffffffffffffffffffffffffffffffffffffffffffffffffffffffffffffffff82611e24565b611e6b8683611e24565b95508019841693508086168417925050509392505050565b6000819050919050565b6000819050919050565b6000611eb2611ead611ea884611e83565b611e8d565b611e83565b9050919050565b6000819050919050565b611ecc83611e97565b611ee0611ed882611eb9565b848454611e31565b825550505050565b600090565b611ef5611ee8565b611f00818484611ec3565b505050565b5b81811015611f2457611f19600082611eed565b600181019050611f06565b5050565b601f821115611f6957611f3a81611dff565b611f4384611e14565b81016020851015611f52578190505b611f66611f5e85611e14565b830182611f05565b50505b505050565b600082821c905092915050565b6000611f8c60001984600802611f6e565b1980831691505092915050565b6000611fa58383611f7b565b9150826002028217905092915050565b611fbf8383611dc5565b67ffffffffffffffff811115611fd857611fd7611dd0565b5b611fe28254611a37565b611fed828285611f28565b6000601f83116001811461201c576000841561200a578287013590505b6120148582611f99565b86555061207c565b601f19841661202a86611dff565b60005b828110156120525784890135825560018201915060208501945060208101905061202d565b8683101561206f578489013561206b601f891682611f7b565b8355505b6001600288020188555050505b50505050505050565b61208e816117c6565b82525050565b60006020820190506120a96000830184612085565b92915050565b7f4e487b7100000000000000000000000000000000000000000000000000000000600052603260045260246000fd5b60006120e982611e83565b91507fffffffffffffffffffffffffffffffffffffffffffffffffffffffffffffffff820361211b5761211a611ac0565b5b600182019050919050565b7f50726f6475637420616c726561647920636c61696d6564000000000000000000600082015250565b600061215c601783611baf565b915061216782612126565b602082019050919050565b6000602082019050818103600083015261218b8161214f565b9050919050565b61219b816116cf565b82525050565b60006040820190506121b66000830185612085565b6121c36020830184612192565b9392505050565b6121d382611495565b67ffffffffffffffff8111156121ec576121eb611dd0565b5b6121f68254611a37565b612201828285611f28565b600060209050601f8311600181146122345760008415612222578287015190505b61222c8582611f99565b865550612294565b601f19841661224286611dff565b60005b8281101561226a57848901518255600182019150602085019450602081019050612245565b868310156122875784890151612283601f891682611f7b565b8355505b6001600288020188555050505b50505050505056fea26469706673582212208b7fb9c7ce80cf49a1260897dfcbe153282adbdc52a7f10b0d24c7fe5ce516ce64736f6c63430008110033",
  "immutableReferences": {},
  "source": "// SPDX-License-Identifier: GPL-v3\n\npragma solidity >=0.7.0 <0.9;\n\ncontract Derp {\n    enum ProductState {\n        UNCLAIMED,\n        CLAIMED,\n        REVIEWED\n    }\n\n    // The product for which an user wants to make a review.\n    // This is indexed as a combination of the store ID and the product ID\n    // local to that store.\n    //\n    // Example:\n    //    store ID = 1,\n    //    local product ID = 1,\n    //    product ID = 0x100000001\n    struct Product {\n        bytes[] reviewHashes;\n        bool _initialized;\n    }\n\n    // A review made by a reviewer.\n    // The text of the review is stored on IPFS.\n    struct Review {\n        address reviewer;\n        int64 upvotes;\n        bool _initialized;\n    }\n\n    // The deployer of the contract.\n    // Used to check the authenticity of the reviews.\n    address private owner;\n\n    // Mapping for the NFTs used on the website.\n    mapping(address => int64) private reviewTokens;\n    mapping(address => int64) private profileTokens;\n\n    // Mapping from the uint64 product ID to the stored products.\n    mapping(uint64 => Product) private products;\n\n    // Mapping from the IPFS' Content Identifier of the review to the actual\n    // review.\n    mapping(bytes => Review) private reviews;\n\n    // Mapping used for retrieving the IPFS' CIDs of the reviews made by an\n    // address.\n    mapping(address => bytes[]) private reviewsFromAddress;\n\n    // Mapping of the products actually claimed by an user.\n    // Used to store on-chain the validity of the reviews.\n    mapping(address => mapping(uint64 => ProductState)) private productsClaimed;\n\n    // Events emitted when an user wants to know if some review tokens can be\n    // obtained.\n    //\n    // ReviewTokensGranted is emitted when the response is affirmative.\n    event ReviewTokenRequested(address account);\n    event ReviewTokenRequested(address account, uint64 product);\n    event ReviewTokensGranted(address account);\n\n    // Event emitted when an user wants to refresh the products for which they\n    // can create a review.\n    event ProductRefreshRequested();\n\n    // Constants used by the contract\n\n    int8 public constant REVIEW_COST = 2;\n    int8 public constant REVIEW_REWARD = 1;\n    int8 public constant UPVOTE_COST = 2;\n    int8 public constant UPVOTE_REWARD = 1;\n    int8 public constant PER_PURCHASE_TOKENS = 10;\n\n    modifier onlyOwner() {\n        require(msg.sender == owner);\n        _;\n    }\n\n    constructor() {\n        owner = msg.sender;\n    }\n\n    /*\n    function obtainAllReviewTokens(address account) public {\n        require(!productsClaimed[account][productId]);\n\n        // store_id\n\n        // Oracle?\n        bool boughtItem = true;\n        require(boughtItem);\n\n        // [local_product_id]\n\n        productsClaimed[account][productId] = true;\n        reviewTokens[account] += PER_PURCHASE_TOKENS;\n    }\n    */\n\n    function requestReviewToken(address account, uint64 productId) external {\n        // Check if the product was already claimed.\n        require(\n            productsClaimed[account][productId] == ProductState.UNCLAIMED,\n            \"Product already claimed\"\n        );\n\n        emit ReviewTokenRequested(msg.sender, productId);\n    }\n\n    function rewardReviewToken(address account, uint64 productId)\n        external\n        onlyOwner\n    {\n        productsClaimed[account][productId] = ProductState.CLAIMED;\n        reviewTokens[account] += PER_PURCHASE_TOKENS;\n\n        emit ReviewTokensGranted(account);\n    }\n\n    // Reviewer is msg.sender\n    function makeReview(uint64 productId, bytes calldata reviewHash)\n        external\n        returns (bool)\n    {\n        require(reviewTokens[msg.sender] >= REVIEW_COST, \"Not enough tokens\");\n        require(!reviews[reviewHash]._initialized, \"Review already exists\");\n\n        // Stops the user from making reviews of products they have not claimed.\n        require(\n            productsClaimed[msg.sender][productId] == ProductState.CLAIMED,\n            \"Product not claimed or already reviewed\"\n        );\n\n        // Avoids creating a review for a product that doesn't exist.\n        require(products[productId]._initialized, \"Product doesn't exist\");\n\n        Review memory r = Review({\n            reviewer: msg.sender,\n            upvotes: 1,\n            _initialized: true\n        });\n\n        reviewsFromAddress[msg.sender].push(reviewHash);\n\n        reviews[reviewHash] = r;\n        products[productId].reviewHashes.push(reviewHash);\n\n        reviewTokens[msg.sender] -= REVIEW_COST;\n        profileTokens[msg.sender] += REVIEW_REWARD;\n\n        productsClaimed[msg.sender][productId] = ProductState.REVIEWED;\n\n        return true;\n    }\n\n    function upvoteReview(bytes calldata reviewHash) external {\n        Review storage review = reviews[reviewHash];\n        require(review._initialized);\n        require(reviewTokens[msg.sender] >= UPVOTE_COST);\n\n        reviewTokens[msg.sender] -= UPVOTE_COST;\n\n        review.upvotes += 1;\n\n        profileTokens[review.reviewer] += UPVOTE_REWARD;\n    }\n\n    function addProducts(uint64[] calldata productIds) external onlyOwner {\n        for (uint256 i = 0; i < productIds.length; ++i) {\n            Product memory p = Product({\n                _initialized: true,\n                reviewHashes: new bytes[](0)\n            });\n\n            if (!products[productIds[i]]._initialized) {\n                products[productIds[i]] = p;\n            }\n        }\n    }\n\n    // Utility functions below\n    // You should only call these functions on your local node without\n    // spending gas.\n\n    function reviewExists(bytes calldata reviewHash)\n        public\n        view\n        returns (bool)\n    {\n        return reviews[reviewHash]._initialized;\n    }\n\n    function getProduct(uint64 productId) public view returns (Product memory) {\n        require(products[productId]._initialized, \"Product doesn't exist\");\n\n        return products[productId];\n    }\n\n    function getReviewTokens() public view returns (int64) {\n        return reviewTokens[msg.sender];\n    }\n\n    function getProfileTokens() public view returns (int64) {\n        return profileTokens[msg.sender];\n    }\n\n    function getReviews() public view returns (bytes[] memory) {\n        return reviewsFromAddress[msg.sender];\n    }\n}\n",
  "sourcePath": "/app/contracts/Derp.sol",
  "compiler": {
    "name": "solc",
    "version": "0.8.17+commit.8df45f5f.Emscripten.clang"
  },
  "schemaVersion": "3.4.11",
  "updatedAt": "2023-01-20T16:50:44.436Z",
  "networkType": "ethereum",
  "devdoc": {
    "kind": "dev",
    "methods": {},
    "version": 1
  },
  "userdoc": {
    "kind": "user",
    "methods": {},
    "version": 1
  }
}