{
  "contractName": "Derp",
  "abi": [
    {
      "inputs": [],
      "stateMutability": "nonpayable",
      "type": "constructor"
    },
    {
      "anonymous": false,
      "inputs": [
        {
          "indexed": false,
          "internalType": "address",
          "name": "account",
          "type": "address"
        }
      ],
      "name": "AllReviewTokensRequested",
      "type": "event"
    },
    {
      "anonymous": false,
      "inputs": [],
      "name": "ProductRefreshRequested",
      "type": "event"
    },
    {
      "anonymous": false,
      "inputs": [
        {
          "indexed": false,
          "internalType": "address",
          "name": "account",
          "type": "address"
        },
        {
          "indexed": false,
          "internalType": "uint64",
          "name": "product",
          "type": "uint64"
        }
      ],
      "name": "ReviewTokenRequested",
      "type": "event"
    },
    {
      "anonymous": false,
      "inputs": [
        {
          "indexed": false,
          "internalType": "address",
          "name": "account",
          "type": "address"
        }
      ],
      "name": "ReviewTokensGranted",
      "type": "event"
    },
    {
      "inputs": [],
      "name": "PER_PURCHASE_TOKENS",
      "outputs": [
        {
          "internalType": "int8",
          "name": "",
          "type": "int8"
        }
      ],
      "stateMutability": "view",
      "type": "function",
      "constant": true
    },
    {
      "inputs": [],
      "name": "REVIEW_COST",
      "outputs": [
        {
          "internalType": "int8",
          "name": "",
          "type": "int8"
        }
      ],
      "stateMutability": "view",
      "type": "function",
      "constant": true
    },
    {
      "inputs": [],
      "name": "REVIEW_REWARD",
      "outputs": [
        {
          "internalType": "int8",
          "name": "",
          "type": "int8"
        }
      ],
      "stateMutability": "view",
      "type": "function",
      "constant": true
    },
    {
      "inputs": [],
      "name": "UPVOTE_COST",
      "outputs": [
        {
          "internalType": "int8",
          "name": "",
          "type": "int8"
        }
      ],
      "stateMutability": "view",
      "type": "function",
      "constant": true
    },
    {
      "inputs": [],
      "name": "UPVOTE_REWARD",
      "outputs": [
        {
          "internalType": "int8",
          "name": "",
          "type": "int8"
        }
      ],
      "stateMutability": "view",
      "type": "function",
      "constant": true
    },
    {
      "inputs": [],
      "name": "requestAllReviewTokens",
      "outputs": [],
      "stateMutability": "nonpayable",
      "type": "function"
    },
    {
      "inputs": [
        {
          "internalType": "uint64",
          "name": "productId",
          "type": "uint64"
        }
      ],
      "name": "requestReviewToken",
      "outputs": [],
      "stateMutability": "nonpayable",
      "type": "function"
    },
    {
      "inputs": [
        {
          "internalType": "address",
          "name": "account",
          "type": "address"
        },
        {
          "internalType": "uint64",
          "name": "productId",
          "type": "uint64"
        }
      ],
      "name": "rewardReviewToken",
      "outputs": [],
      "stateMutability": "nonpayable",
      "type": "function"
    },
    {
      "inputs": [
        {
          "internalType": "address",
          "name": "account",
          "type": "address"
        },
        {
          "internalType": "uint64[]",
          "name": "productIds",
          "type": "uint64[]"
        }
      ],
      "name": "rewardReviewTokens",
      "outputs": [],
      "stateMutability": "nonpayable",
      "type": "function"
    },
    {
      "inputs": [
        {
          "internalType": "uint64",
          "name": "productId",
          "type": "uint64"
        },
        {
          "internalType": "bytes",
          "name": "reviewHash",
          "type": "bytes"
        }
      ],
      "name": "makeReview",
      "outputs": [
        {
          "internalType": "bool",
          "name": "",
          "type": "bool"
        }
      ],
      "stateMutability": "nonpayable",
      "type": "function"
    },
    {
      "inputs": [
        {
          "internalType": "bytes",
          "name": "reviewHash",
          "type": "bytes"
        }
      ],
      "name": "upvoteReview",
      "outputs": [],
      "stateMutability": "nonpayable",
      "type": "function"
    },
    {
      "inputs": [
        {
          "internalType": "uint64",
          "name": "productId",
          "type": "uint64"
        }
      ],
      "name": "addProduct",
      "outputs": [],
      "stateMutability": "nonpayable",
      "type": "function"
    },
    {
      "inputs": [
        {
          "internalType": "uint64[]",
          "name": "productIds",
          "type": "uint64[]"
        }
      ],
      "name": "addProducts",
      "outputs": [],
      "stateMutability": "nonpayable",
      "type": "function"
    },
    {
      "inputs": [
        {
          "internalType": "bytes",
          "name": "itemHash",
          "type": "bytes"
        }
      ],
      "name": "buyProfileItem",
      "outputs": [],
      "stateMutability": "nonpayable",
      "type": "function"
    },
    {
      "inputs": [
        {
          "internalType": "bytes",
          "name": "itemHash",
          "type": "bytes"
        },
        {
          "internalType": "int64",
          "name": "price",
          "type": "int64"
        }
      ],
      "name": "addProfileItem",
      "outputs": [],
      "stateMutability": "nonpayable",
      "type": "function"
    },
    {
      "inputs": [
        {
          "internalType": "bytes",
          "name": "reviewHash",
          "type": "bytes"
        }
      ],
      "name": "reviewExists",
      "outputs": [
        {
          "internalType": "bool",
          "name": "",
          "type": "bool"
        }
      ],
      "stateMutability": "view",
      "type": "function",
      "constant": true
    },
    {
      "inputs": [
        {
          "internalType": "uint64",
          "name": "productId",
          "type": "uint64"
        }
      ],
      "name": "getProduct",
      "outputs": [
        {
          "components": [
            {
              "internalType": "bytes[]",
              "name": "reviewHashes",
              "type": "bytes[]"
            },
            {
              "internalType": "bool",
              "name": "_initialized",
              "type": "bool"
            }
          ],
          "internalType": "struct Derp.Product",
          "name": "",
          "type": "tuple"
        }
      ],
      "stateMutability": "view",
      "type": "function",
      "constant": true
    },
    {
      "inputs": [],
      "name": "getProducts",
      "outputs": [
        {
          "internalType": "uint64[]",
          "name": "",
          "type": "uint64[]"
        }
      ],
      "stateMutability": "view",
      "type": "function",
      "constant": true
    },
    {
      "inputs": [],
      "name": "getReviewTokens",
      "outputs": [
        {
          "internalType": "int64",
          "name": "",
          "type": "int64"
        }
      ],
      "stateMutability": "view",
      "type": "function",
      "constant": true
    },
    {
      "inputs": [],
      "name": "getProfileTokens",
      "outputs": [
        {
          "internalType": "int64",
          "name": "",
          "type": "int64"
        }
      ],
      "stateMutability": "view",
      "type": "function",
      "constant": true
    },
    {
      "inputs": [],
      "name": "getReviews",
      "outputs": [
        {
          "internalType": "bytes[]",
          "name": "",
          "type": "bytes[]"
        }
      ],
      "stateMutability": "view",
      "type": "function",
      "constant": true
    },
    {
      "inputs": [],
      "name": "getProfileItems",
      "outputs": [
        {
          "internalType": "bytes[]",
          "name": "",
          "type": "bytes[]"
        }
      ],
      "stateMutability": "view",
      "type": "function",
      "constant": true
    },
    {
      "inputs": [],
      "name": "getBuyableProfileItems",
      "outputs": [
        {
          "internalType": "bytes[]",
          "name": "",
          "type": "bytes[]"
        }
      ],
      "stateMutability": "view",
      "type": "function",
      "constant": true
    },
    {
      "inputs": [],
      "name": "getUserProfileItems",
      "outputs": [
        {
          "internalType": "bytes[]",
          "name": "",
          "type": "bytes[]"
        }
      ],
      "stateMutability": "view",
      "type": "function",
      "constant": true
    }
  ],
  "bytecode": "0x608060405234801561001057600080fd5b50336000806101000a81548173ffffffffffffffffffffffffffffffffffffffff021916908373ffffffffffffffffffffffffffffffffffffffff1602179055506132af806100606000396000f3fe608060405234801561001057600080fd5b50600436106101585760003560e01c80637c89f5b3116100c3578063b100488f1161007c578063b100488f1461037b578063c29b2f2014610399578063c713ff37146103b7578063e904394c146103d5578063efea5e9614610405578063fa95bbbf1461042157610158565b80637c89f5b3146102cd57806389d3f623146102eb57806396593c9e14610307578063a8566e4e14610325578063ab95c8f314610343578063ac144ee21461035f57610158565b80635edda63b116101155780635edda63b1461020957806367297c271461022757806368cf232d146102455780636c4abdb1146102635780636caaca10146102935780636d1febb11461029d57610158565b80630bfa59c21461015d5780631b1e13241461017b578063318a400314610199578063396c6226146101b5578063429c4c21146101d157806351ef4661146101ed575b600080fd5b61016561043f565b60405161017291906121f3565b60405180910390f35b610183610444565b6040516101909190612360565b60405180910390f35b6101b360048036038101906101ae919061242a565b61055a565b005b6101cf60048036038101906101ca919061248a565b6105e7565b005b6101eb60048036038101906101e69190612517565b610809565b005b610207600480360381019061020291906125f8565b61091d565b005b610211610bd2565b60405161021e91906121f3565b60405180910390f35b61022f610bd7565b60405161023c9190612360565b60405180910390f35b61024d610ced565b60405161025a91906121f3565b60405180910390f35b61027d6004803603810190610278919061248a565b610cf2565b60405161028a9190612673565b60405180910390f35b61029b610d2d565b005b6102b760048036038101906102b2919061268e565b610d66565b6040516102c49190612673565b60405180910390f35b6102d5611341565b6040516102e291906126fd565b60405180910390f35b6103056004803603810190610300919061248a565b611395565b005b61030f611586565b60405161031c91906126fd565b60405180910390f35b61032d6115da565b60405161033a9190612360565b60405180910390f35b61035d60048036038101906103589190612718565b6116b3565b005b61037960048036038101906103749190612758565b6118f9565b005b610383611b50565b60405161039091906121f3565b60405180910390f35b6103a1611b55565b6040516103ae9190612863565b60405180910390f35b6103bf611be1565b6040516103cc9190612360565b60405180910390f35b6103ef60048036038101906103ea9190612517565b611cf7565b6040516103fc9190612957565b60405180910390f35b61041f600480360381019061041a9190612517565b611ea3565b005b6104296120dc565b60405161043691906121f3565b60405180910390f35b600a81565b6060600660003373ffffffffffffffffffffffffffffffffffffffff1673ffffffffffffffffffffffffffffffffffffffff168152602001908152602001600020805480602002602001604051908101604052809291908181526020016000905b828210156105515783829060005260206000200180546104c4906129a8565b80601f01602080910402602001604051908101604052809291908181526020018280546104f0906129a8565b801561053d5780601f106105125761010080835404028352916020019161053d565b820191906000526020600020905b81548152906001019060200180831161052057829003601f168201915b5050505050815260200190600101906104a5565b50505050905090565b6008838390918060018154018082558091505060019003906000526020600020016000909192909192909192909192509182610597929190612bc9565b5080600984846040516105ab929190612cd8565b908152602001604051809103902060006101000a81548167ffffffffffffffff021916908360070b67ffffffffffffffff160217905550505050565b6000600583836040516105fb929190612cd8565b9081526020016040518091039020905080600001601c9054906101000a900460ff1661062657600080fd5b600260000b600160003373ffffffffffffffffffffffffffffffffffffffff1673ffffffffffffffffffffffffffffffffffffffff16815260200190815260200160002060009054906101000a900460070b60070b121561068657600080fd5b600260000b600160003373ffffffffffffffffffffffffffffffffffffffff1673ffffffffffffffffffffffffffffffffffffffff16815260200190815260200160002060008282829054906101000a900460070b6106e59190612d20565b92506101000a81548167ffffffffffffffff021916908360070b67ffffffffffffffff16021790555060018160000160148282829054906101000a900460070b61072f9190612d80565b92506101000a81548167ffffffffffffffff021916908360070b67ffffffffffffffff160217905550600160000b600260008360000160009054906101000a900473ffffffffffffffffffffffffffffffffffffffff1673ffffffffffffffffffffffffffffffffffffffff1673ffffffffffffffffffffffffffffffffffffffff16815260200190815260200160002060008282829054906101000a900460070b6107db9190612d80565b92506101000a81548167ffffffffffffffff021916908360070b67ffffffffffffffff160217905550505050565b6000600281111561081d5761081c612de0565b5b600760003373ffffffffffffffffffffffffffffffffffffffff1673ffffffffffffffffffffffffffffffffffffffff16815260200190815260200160002060008367ffffffffffffffff1667ffffffffffffffff16815260200190815260200160002060009054906101000a900460ff1660028111156108a1576108a0612de0565b5b146108e1576040517f08c379a00000000000000000000000000000000000000000000000000000000081526004016108d890612e6c565b60405180910390fd5b7f1382a4dd1f1609a0cd69ab74da10dc4ddfc5c47b6bc64440e3841c86207556473382604051610912929190612eaa565b60405180910390a150565b60008054906101000a900473ffffffffffffffffffffffffffffffffffffffff1673ffffffffffffffffffffffffffffffffffffffff163373ffffffffffffffffffffffffffffffffffffffff161461097557600080fd5b60005b82829050811015610bcc576000600281111561099757610996612de0565b5b600760008673ffffffffffffffffffffffffffffffffffffffff1673ffffffffffffffffffffffffffffffffffffffff16815260200190815260200160002060008585858181106109eb576109ea612ed3565b5b9050602002016020810190610a009190612517565b67ffffffffffffffff1667ffffffffffffffff16815260200190815260200160002060009054906101000a900460ff166002811115610a4257610a41612de0565b5b03610bbb576001600760008673ffffffffffffffffffffffffffffffffffffffff1673ffffffffffffffffffffffffffffffffffffffff1681526020019081526020016000206000858585818110610a9d57610a9c612ed3565b5b9050602002016020810190610ab29190612517565b67ffffffffffffffff1667ffffffffffffffff16815260200190815260200160002060006101000a81548160ff02191690836002811115610af657610af5612de0565b5b0217905550600a60000b600160008673ffffffffffffffffffffffffffffffffffffffff1673ffffffffffffffffffffffffffffffffffffffff16815260200190815260200160002060008282829054906101000a900460070b610b5a9190612d80565b92506101000a81548167ffffffffffffffff021916908360070b67ffffffffffffffff1602179055507f50f0ac35fb060ec2eb1b1051209ac69e7caa16f70e8fb9f469fa3befdd5cb8ca84604051610bb29190612f02565b60405180910390a15b80610bc590612f1d565b9050610978565b50505050565b600281565b6060600a60003373ffffffffffffffffffffffffffffffffffffffff1673ffffffffffffffffffffffffffffffffffffffff168152602001908152602001600020805480602002602001604051908101604052809291908181526020016000905b82821015610ce4578382906000526020600020018054610c57906129a8565b80601f0160208091040260200160405190810160405280929190818152602001828054610c83906129a8565b8015610cd05780601f10610ca557610100808354040283529160200191610cd0565b820191906000526020600020905b815481529060010190602001808311610cb357829003601f168201915b505050505081526020019060010190610c38565b50505050905090565b600281565b600060058383604051610d06929190612cd8565b9081526020016040518091039020600001601c9054906101000a900460ff16905092915050565b7fafe0d4e783559eddc1189e4f3ec5fb8c740c1585d164c301b9cb502984dd03cf33604051610d5c9190612f02565b60405180910390a1565b6000600260000b600160003373ffffffffffffffffffffffffffffffffffffffff1673ffffffffffffffffffffffffffffffffffffffff16815260200190815260200160002060009054906101000a900460070b60070b1215610dfe576040517f08c379a0000000000000000000000000000000000000000000000000000000008152600401610df590612fb1565b60405180910390fd5b60058383604051610e10929190612cd8565b9081526020016040518091039020600001601c9054906101000a900460ff1615610e6f576040517f08c379a0000000000000000000000000000000000000000000000000000000008152600401610e669061301d565b60405180910390fd5b60016002811115610e8357610e82612de0565b5b600760003373ffffffffffffffffffffffffffffffffffffffff1673ffffffffffffffffffffffffffffffffffffffff16815260200190815260200160002060008667ffffffffffffffff1667ffffffffffffffff16815260200190815260200160002060009054906101000a900460ff166002811115610f0757610f06612de0565b5b14610f47576040517f08c379a0000000000000000000000000000000000000000000000000000000008152600401610f3e906130af565b60405180910390fd5b600360008567ffffffffffffffff1667ffffffffffffffff16815260200190815260200160002060010160009054906101000a900460ff16610fbe576040517f08c379a0000000000000000000000000000000000000000000000000000000008152600401610fb59061311b565b60405180910390fd5b600060405180606001604052803373ffffffffffffffffffffffffffffffffffffffff168152602001600160070b8152602001600115158152509050600660003373ffffffffffffffffffffffffffffffffffffffff1673ffffffffffffffffffffffffffffffffffffffff168152602001908152602001600020848490918060018154018082558091505060019003906000526020600020016000909192909192909192909192509182611074929190612bc9565b508060058585604051611088929190612cd8565b908152602001604051809103902060008201518160000160006101000a81548173ffffffffffffffffffffffffffffffffffffffff021916908373ffffffffffffffffffffffffffffffffffffffff16021790555060208201518160000160146101000a81548167ffffffffffffffff021916908360070b67ffffffffffffffff160217905550604082015181600001601c6101000a81548160ff021916908315150217905550905050600360008667ffffffffffffffff1667ffffffffffffffff168152602001908152602001600020600001848490918060018154018082558091505060019003906000526020600020016000909192909192909192909192509182611197929190612bc9565b50600260000b600160003373ffffffffffffffffffffffffffffffffffffffff1673ffffffffffffffffffffffffffffffffffffffff16815260200190815260200160002060008282829054906101000a900460070b6111f79190612d20565b92506101000a81548167ffffffffffffffff021916908360070b67ffffffffffffffff160217905550600160000b600260003373ffffffffffffffffffffffffffffffffffffffff1673ffffffffffffffffffffffffffffffffffffffff16815260200190815260200160002060008282829054906101000a900460070b61127f9190612d80565b92506101000a81548167ffffffffffffffff021916908360070b67ffffffffffffffff1602179055506002600760003373ffffffffffffffffffffffffffffffffffffffff1673ffffffffffffffffffffffffffffffffffffffff16815260200190815260200160002060008767ffffffffffffffff1667ffffffffffffffff16815260200190815260200160002060006101000a81548160ff021916908360028111156113305761132f612de0565b5b021790555060019150509392505050565b6000600260003373ffffffffffffffffffffffffffffffffffffffff1673ffffffffffffffffffffffffffffffffffffffff16815260200190815260200160002060009054906101000a900460070b905090565b600982826040516113a7929190612cd8565b908152602001604051809103902060009054906101000a900460070b60070b600260003373ffffffffffffffffffffffffffffffffffffffff1673ffffffffffffffffffffffffffffffffffffffff16815260200190815260200160002060009054906101000a900460070b60070b13611456576040517f08c379a000000000000000000000000000000000000000000000000000000000815260040161144d90612fb1565b60405180910390fd5b60098282604051611468929190612cd8565b908152602001604051809103902060009054906101000a900460070b600260003373ffffffffffffffffffffffffffffffffffffffff1673ffffffffffffffffffffffffffffffffffffffff16815260200190815260200160002060008282829054906101000a900460070b6114de9190612d20565b92506101000a81548167ffffffffffffffff021916908360070b67ffffffffffffffff160217905550600a60003373ffffffffffffffffffffffffffffffffffffffff1673ffffffffffffffffffffffffffffffffffffffff168152602001908152602001600020828290918060018154018082558091505060019003906000526020600020016000909192909192909192909192509182611581929190612bc9565b505050565b6000600160003373ffffffffffffffffffffffffffffffffffffffff1673ffffffffffffffffffffffffffffffffffffffff16815260200190815260200160002060009054906101000a900460070b905090565b60606008805480602002602001604051908101604052809291908181526020016000905b828210156116aa57838290600052602060002001805461161d906129a8565b80601f0160208091040260200160405190810160405280929190818152602001828054611649906129a8565b80156116965780601f1061166b57610100808354040283529160200191611696565b820191906000526020600020905b81548152906001019060200180831161167957829003601f168201915b5050505050815260200190600101906115fe565b50505050905090565b60008054906101000a900473ffffffffffffffffffffffffffffffffffffffff1673ffffffffffffffffffffffffffffffffffffffff163373ffffffffffffffffffffffffffffffffffffffff161461170b57600080fd5b6000600281111561171f5761171e612de0565b5b600760008473ffffffffffffffffffffffffffffffffffffffff1673ffffffffffffffffffffffffffffffffffffffff16815260200190815260200160002060008367ffffffffffffffff1667ffffffffffffffff16815260200190815260200160002060009054906101000a900460ff1660028111156117a3576117a2612de0565b5b036118f5576001600760008473ffffffffffffffffffffffffffffffffffffffff1673ffffffffffffffffffffffffffffffffffffffff16815260200190815260200160002060008367ffffffffffffffff1667ffffffffffffffff16815260200190815260200160002060006101000a81548160ff021916908360028111156118305761182f612de0565b5b0217905550600a60000b600160008473ffffffffffffffffffffffffffffffffffffffff1673ffffffffffffffffffffffffffffffffffffffff16815260200190815260200160002060008282829054906101000a900460070b6118949190612d80565b92506101000a81548167ffffffffffffffff021916908360070b67ffffffffffffffff1602179055507f50f0ac35fb060ec2eb1b1051209ac69e7caa16f70e8fb9f469fa3befdd5cb8ca826040516118ec9190612f02565b60405180910390a15b5050565b60008054906101000a900473ffffffffffffffffffffffffffffffffffffffff1673ffffffffffffffffffffffffffffffffffffffff163373ffffffffffffffffffffffffffffffffffffffff161461195157600080fd5b60005b82829050811015611b4b5760006040518060400160405280600067ffffffffffffffff811115611987576119866129e4565b5b6040519080825280602002602001820160405280156119ba57816020015b60608152602001906001900390816119a55790505b508152602001600115158152509050600360008585858181106119e0576119df612ed3565b5b90506020020160208101906119f59190612517565b67ffffffffffffffff1667ffffffffffffffff16815260200190815260200160002060010160009054906101000a900460ff16611b39576004848484818110611a4157611a40612ed3565b5b9050602002016020810190611a569190612517565b90806001815401808255809150506001900390600052602060002090600491828204019190066008029091909190916101000a81548167ffffffffffffffff021916908367ffffffffffffffff1602179055508060036000868686818110611ac157611ac0612ed3565b5b9050602002016020810190611ad69190612517565b67ffffffffffffffff1667ffffffffffffffff1681526020019081526020016000206000820151816000019080519060200190611b149291906120e1565b5060208201518160010160006101000a81548160ff0219169083151502179055509050505b5080611b4490612f1d565b9050611954565b505050565b600181565b60606004805480602002602001604051908101604052809291908181526020018280548015611bd757602002820191906000526020600020906000905b82829054906101000a900467ffffffffffffffff1667ffffffffffffffff1681526020019060080190602082600701049283019260010382029150808411611b925790505b5050505050905090565b6060600a60003373ffffffffffffffffffffffffffffffffffffffff1673ffffffffffffffffffffffffffffffffffffffff168152602001908152602001600020805480602002602001604051908101604052809291908181526020016000905b82821015611cee578382906000526020600020018054611c61906129a8565b80601f0160208091040260200160405190810160405280929190818152602001828054611c8d906129a8565b8015611cda5780601f10611caf57610100808354040283529160200191611cda565b820191906000526020600020905b815481529060010190602001808311611cbd57829003601f168201915b505050505081526020019060010190611c42565b50505050905090565b611cff61213a565b600360008367ffffffffffffffff1667ffffffffffffffff16815260200190815260200160002060010160009054906101000a900460ff16611d76576040517f08c379a0000000000000000000000000000000000000000000000000000000008152600401611d6d9061311b565b60405180910390fd5b600360008367ffffffffffffffff1667ffffffffffffffff16815260200190815260200160002060405180604001604052908160008201805480602002602001604051908101604052809291908181526020016000905b82821015611e79578382906000526020600020018054611dec906129a8565b80601f0160208091040260200160405190810160405280929190818152602001828054611e18906129a8565b8015611e655780601f10611e3a57610100808354040283529160200191611e65565b820191906000526020600020905b815481529060010190602001808311611e4857829003601f168201915b505050505081526020019060010190611dcd565b5050505081526020016001820160009054906101000a900460ff1615151515815250509050919050565b60008054906101000a900473ffffffffffffffffffffffffffffffffffffffff1673ffffffffffffffffffffffffffffffffffffffff163373ffffffffffffffffffffffffffffffffffffffff1614611efb57600080fd5b600360008267ffffffffffffffff1667ffffffffffffffff16815260200190815260200160002060010160009054906101000a900460ff1615611f73576040517f08c379a0000000000000000000000000000000000000000000000000000000008152600401611f6a90613187565b60405180910390fd5b60006040518060400160405280600067ffffffffffffffff811115611f9b57611f9a6129e4565b5b604051908082528060200260200182016040528015611fce57816020015b6060815260200190600190039081611fb95790505b508152602001600115158152509050600360008367ffffffffffffffff1667ffffffffffffffff16815260200190815260200160002060010160009054906101000a900460ff166120d85760048290806001815401808255809150506001900390600052602060002090600491828204019190066008029091909190916101000a81548167ffffffffffffffff021916908367ffffffffffffffff16021790555080600360008467ffffffffffffffff1667ffffffffffffffff16815260200190815260200160002060008201518160000190805190602001906120b39291906120e1565b5060208201518160010160006101000a81548160ff0219169083151502179055509050505b5050565b600181565b828054828255906000526020600020908101928215612129579160200282015b8281111561212857825182908161211891906131a7565b5091602001919060010190612101565b5b5090506121369190612156565b5090565b6040518060400160405280606081526020016000151581525090565b5b80821115612176576000818161216d919061217a565b50600101612157565b5090565b508054612186906129a8565b6000825580601f1061219857506121b7565b601f0160209004906000526020600020908101906121b691906121ba565b5b50565b5b808211156121d35760008160009055506001016121bb565b5090565b60008160000b9050919050565b6121ed816121d7565b82525050565b600060208201905061220860008301846121e4565b92915050565b600081519050919050565b600082825260208201905092915050565b6000819050602082019050919050565b600081519050919050565b600082825260208201905092915050565b60005b83811015612274578082015181840152602081019050612259565b60008484015250505050565b6000601f19601f8301169050919050565b600061229c8261223a565b6122a68185612245565b93506122b6818560208601612256565b6122bf81612280565b840191505092915050565b60006122d68383612291565b905092915050565b6000602082019050919050565b60006122f68261220e565b6123008185612219565b9350836020820285016123128561222a565b8060005b8581101561234e578484038952815161232f85826122ca565b945061233a836122de565b925060208a01995050600181019050612316565b50829750879550505050505092915050565b6000602082019050818103600083015261237a81846122eb565b905092915050565b600080fd5b600080fd5b600080fd5b600080fd5b600080fd5b60008083601f8401126123b1576123b061238c565b5b8235905067ffffffffffffffff8111156123ce576123cd612391565b5b6020830191508360018202830111156123ea576123e9612396565b5b9250929050565b60008160070b9050919050565b612407816123f1565b811461241257600080fd5b50565b600081359050612424816123fe565b92915050565b60008060006040848603121561244357612442612382565b5b600084013567ffffffffffffffff81111561246157612460612387565b5b61246d8682870161239b565b9350935050602061248086828701612415565b9150509250925092565b600080602083850312156124a1576124a0612382565b5b600083013567ffffffffffffffff8111156124bf576124be612387565b5b6124cb8582860161239b565b92509250509250929050565b600067ffffffffffffffff82169050919050565b6124f4816124d7565b81146124ff57600080fd5b50565b600081359050612511816124eb565b92915050565b60006020828403121561252d5761252c612382565b5b600061253b84828501612502565b91505092915050565b600073ffffffffffffffffffffffffffffffffffffffff82169050919050565b600061256f82612544565b9050919050565b61257f81612564565b811461258a57600080fd5b50565b60008135905061259c81612576565b92915050565b60008083601f8401126125b8576125b761238c565b5b8235905067ffffffffffffffff8111156125d5576125d4612391565b5b6020830191508360208202830111156125f1576125f0612396565b5b9250929050565b60008060006040848603121561261157612610612382565b5b600061261f8682870161258d565b935050602084013567ffffffffffffffff8111156126405761263f612387565b5b61264c868287016125a2565b92509250509250925092565b60008115159050919050565b61266d81612658565b82525050565b60006020820190506126886000830184612664565b92915050565b6000806000604084860312156126a7576126a6612382565b5b60006126b586828701612502565b935050602084013567ffffffffffffffff8111156126d6576126d5612387565b5b6126e28682870161239b565b92509250509250925092565b6126f7816123f1565b82525050565b600060208201905061271260008301846126ee565b92915050565b6000806040838503121561272f5761272e612382565b5b600061273d8582860161258d565b925050602061274e85828601612502565b9150509250929050565b6000806020838503121561276f5761276e612382565b5b600083013567ffffffffffffffff81111561278d5761278c612387565b5b612799858286016125a2565b92509250509250929050565b600081519050919050565b600082825260208201905092915050565b6000819050602082019050919050565b6127da816124d7565b82525050565b60006127ec83836127d1565b60208301905092915050565b6000602082019050919050565b6000612810826127a5565b61281a81856127b0565b9350612825836127c1565b8060005b8381101561285657815161283d88826127e0565b9750612848836127f8565b925050600181019050612829565b5085935050505092915050565b6000602082019050818103600083015261287d8184612805565b905092915050565b600082825260208201905092915050565b60006128a18261220e565b6128ab8185612885565b9350836020820285016128bd8561222a565b8060005b858110156128f957848403895281516128da85826122ca565b94506128e5836122de565b925060208a019950506001810190506128c1565b50829750879550505050505092915050565b61291481612658565b82525050565b600060408301600083015184820360008601526129378282612896565b915050602083015161294c602086018261290b565b508091505092915050565b60006020820190508181036000830152612971818461291a565b905092915050565b7f4e487b7100000000000000000000000000000000000000000000000000000000600052602260045260246000fd5b600060028204905060018216806129c057607f821691505b6020821081036129d3576129d2612979565b5b50919050565b600082905092915050565b7f4e487b7100000000000000000000000000000000000000000000000000000000600052604160045260246000fd5b60008190508160005260206000209050919050565b60006020601f8301049050919050565b600082821b905092915050565b600060088302612a757fffffffffffffffffffffffffffffffffffffffffffffffffffffffffffffffff82612a38565b612a7f8683612a38565b95508019841693508086168417925050509392505050565b6000819050919050565b6000819050919050565b6000612ac6612ac1612abc84612a97565b612aa1565b612a97565b9050919050565b6000819050919050565b612ae083612aab565b612af4612aec82612acd565b848454612a45565b825550505050565b600090565b612b09612afc565b612b14818484612ad7565b505050565b5b81811015612b3857612b2d600082612b01565b600181019050612b1a565b5050565b601f821115612b7d57612b4e81612a13565b612b5784612a28565b81016020851015612b66578190505b612b7a612b7285612a28565b830182612b19565b50505b505050565b600082821c905092915050565b6000612ba060001984600802612b82565b1980831691505092915050565b6000612bb98383612b8f565b9150826002028217905092915050565b612bd383836129d9565b67ffffffffffffffff811115612bec57612beb6129e4565b5b612bf682546129a8565b612c01828285612b3c565b6000601f831160018114612c305760008415612c1e578287013590505b612c288582612bad565b865550612c90565b601f198416612c3e86612a13565b60005b82811015612c6657848901358255600182019150602085019450602081019050612c41565b86831015612c835784890135612c7f601f891682612b8f565b8355505b6001600288020188555050505b50505050505050565b600081905092915050565b82818337600083830152505050565b6000612cbf8385612c99565b9350612ccc838584612ca4565b82840190509392505050565b6000612ce5828486612cb3565b91508190509392505050565b7f4e487b7100000000000000000000000000000000000000000000000000000000600052601160045260246000fd5b6000612d2b826123f1565b9150612d36836123f1565b92508282039050677fffffffffffffff81137fffffffffffffffffffffffffffffffffffffffffffffffff800000000000000082121715612d7a57612d79612cf1565b5b92915050565b6000612d8b826123f1565b9150612d96836123f1565b925082820190507fffffffffffffffffffffffffffffffffffffffffffffffff80000000000000008112677fffffffffffffff82131715612dda57612dd9612cf1565b5b92915050565b7f4e487b7100000000000000000000000000000000000000000000000000000000600052602160045260246000fd5b600082825260208201905092915050565b7f50726f6475637420616c726561647920636c61696d6564000000000000000000600082015250565b6000612e56601783612e0f565b9150612e6182612e20565b602082019050919050565b60006020820190508181036000830152612e8581612e49565b9050919050565b612e9581612564565b82525050565b612ea4816124d7565b82525050565b6000604082019050612ebf6000830185612e8c565b612ecc6020830184612e9b565b9392505050565b7f4e487b7100000000000000000000000000000000000000000000000000000000600052603260045260246000fd5b6000602082019050612f176000830184612e8c565b92915050565b6000612f2882612a97565b91507fffffffffffffffffffffffffffffffffffffffffffffffffffffffffffffffff8203612f5a57612f59612cf1565b5b600182019050919050565b7f4e6f7420656e6f75676820746f6b656e73000000000000000000000000000000600082015250565b6000612f9b601183612e0f565b9150612fa682612f65565b602082019050919050565b60006020820190508181036000830152612fca81612f8e565b9050919050565b7f52657669657720616c7265616479206578697374730000000000000000000000600082015250565b6000613007601583612e0f565b915061301282612fd1565b602082019050919050565b6000602082019050818103600083015261303681612ffa565b9050919050565b7f50726f64756374206e6f7420636c61696d6564206f7220616c7265616479207260008201527f6576696577656400000000000000000000000000000000000000000000000000602082015250565b6000613099602783612e0f565b91506130a48261303d565b604082019050919050565b600060208201905081810360008301526130c88161308c565b9050919050565b7f50726f6475637420646f65736e27742065786973740000000000000000000000600082015250565b6000613105601583612e0f565b9150613110826130cf565b602082019050919050565b60006020820190508181036000830152613134816130f8565b9050919050565b7f50726f6475637420616c72656164792065786973747300000000000000000000600082015250565b6000613171601683612e0f565b915061317c8261313b565b602082019050919050565b600060208201905081810360008301526131a081613164565b9050919050565b6131b08261223a565b67ffffffffffffffff8111156131c9576131c86129e4565b5b6131d382546129a8565b6131de828285612b3c565b600060209050601f83116001811461321157600084156131ff578287015190505b6132098582612bad565b865550613271565b601f19841661321f86612a13565b60005b8281101561324757848901518255600182019150602085019450602081019050613222565b868310156132645784890151613260601f891682612b8f565b8355505b6001600288020188555050505b50505050505056fea2646970667358221220b08dc1ccf8dd3cf83783da4acda431bd723ed8ff5c2774a2fba7b028f85c7eb164736f6c63430008110033",
  "immutableReferences": {},
  "source": "// SPDX-License-Identifier: GPL-v3\n\npragma solidity >=0.7.0 <0.9;\n\ncontract Derp {\n    enum ProductState {\n        UNCLAIMED,\n        CLAIMED,\n        REVIEWED\n    }\n\n    // The product for which an user wants to make a review.\n    // This is indexed as a combination of the store ID and the product ID\n    // local to that store.\n    //\n    // Example:\n    //    store ID = 1,\n    //    local product ID = 1,\n    //    product ID = 0x100000001\n    struct Product {\n        bytes[] reviewHashes;\n        bool _initialized;\n    }\n\n    // A review made by a reviewer.\n    // The text of the review is stored on IPFS.\n    struct Review {\n        address reviewer;\n        int64 upvotes;\n        bool _initialized;\n    }\n\n    // The deployer of the contract.\n    // Used to check the authenticity of the reviews.\n    address private owner;\n\n    // Mapping for the NFTs used on the website.\n    mapping(address => int64) private reviewTokens;\n    mapping(address => int64) private profileTokens;\n\n    // Mapping from the uint64 product ID to the stored products.\n    mapping(uint64 => Product) private products;\n\n    // Array used to retrieve all the products stored on-chain.\n    uint64[] private registeredProducts;\n\n    // Mapping from the IPFS' Content Identifier of the review to the actual\n    // review.\n    mapping(bytes => Review) private reviews;\n\n    // Mapping used for retrieving the IPFS' CIDs of the reviews made by an\n    // address.\n    mapping(address => bytes[]) private reviewsFromAddress;\n\n    // Mapping of the products actually claimed by an user.\n    // Used to store on-chain the validity of the reviews.\n    mapping(address => mapping(uint64 => ProductState)) private productsClaimed;\n\n    //Array used to retrieve all the profile items stored on-chain\n    //that can be bought with user tokens\n    //This could be expanded in the future with a struct\n    bytes[] private profileItems;\n\n    //Mapping with the price of profile items\n    mapping(bytes => int64) private profileItemPrices;\n\n    //Mapping with a list of item profile purchased by a user\n    mapping(address => bytes[]) private userProfileItems;\n\n    // Events emitted when an user wants to know if some review tokens can be\n    // obtained.\n    //\n    // ReviewTokensGranted is emitted when the response is affirmative.\n    event AllReviewTokensRequested(address account);\n    event ReviewTokenRequested(address account, uint64 product);\n    event ReviewTokensGranted(address account);\n\n    // Event emitted when an user wants to refresh the products for which they\n    // can create a review.\n    event ProductRefreshRequested();\n\n    // Constants used by the contract\n\n    int8 public constant REVIEW_COST = 2;\n    int8 public constant REVIEW_REWARD = 1;\n    int8 public constant UPVOTE_COST = 2;\n    int8 public constant UPVOTE_REWARD = 1;\n    int8 public constant PER_PURCHASE_TOKENS = 10;\n\n    modifier onlyOwner() {\n        require(msg.sender == owner);\n        _;\n    }\n\n    constructor() {\n        owner = msg.sender;\n    }\n\n    function requestAllReviewTokens() external {\n        emit AllReviewTokensRequested(msg.sender);\n    }\n\n    function requestReviewToken(uint64 productId) external {\n        // Check if the product was already claimed.\n        require(\n            productsClaimed[msg.sender][productId] == ProductState.UNCLAIMED,\n            \"Product already claimed\"\n        );\n\n        emit ReviewTokenRequested(msg.sender, productId);\n    }\n\n    function rewardReviewToken(address account, uint64 productId)\n        external\n        onlyOwner\n    {\n        if (productsClaimed[account][productId] == ProductState.UNCLAIMED) {\n            productsClaimed[account][productId] = ProductState.CLAIMED;\n            reviewTokens[account] += PER_PURCHASE_TOKENS;\n\n            emit ReviewTokensGranted(account);\n        }\n    }\n\n    function rewardReviewTokens(address account, uint64[] calldata productIds)\n        external\n        onlyOwner\n    {\n        for (uint256 i = 0; i < productIds.length; ++i) {\n            if (\n                productsClaimed[account][productIds[i]] ==\n                ProductState.UNCLAIMED\n            ) {\n                productsClaimed[account][productIds[i]] = ProductState.CLAIMED;\n                reviewTokens[account] += PER_PURCHASE_TOKENS;\n\n                emit ReviewTokensGranted(account);\n            }\n        }\n    }\n\n    // Reviewer is msg.sender\n    function makeReview(uint64 productId, bytes calldata reviewHash)\n        external\n        returns (bool)\n    {\n        require(reviewTokens[msg.sender] >= REVIEW_COST, \"Not enough tokens\");\n        require(!reviews[reviewHash]._initialized, \"Review already exists\");\n\n        // Stops the user from making reviews of products they have not claimed.\n        require(\n            productsClaimed[msg.sender][productId] == ProductState.CLAIMED,\n            \"Product not claimed or already reviewed\"\n        );\n\n        // Avoids creating a review for a product that doesn't exist.\n        require(products[productId]._initialized, \"Product doesn't exist\");\n\n        Review memory r = Review({\n            reviewer: msg.sender,\n            upvotes: 1,\n            _initialized: true\n        });\n\n        reviewsFromAddress[msg.sender].push(reviewHash);\n\n        reviews[reviewHash] = r;\n        products[productId].reviewHashes.push(reviewHash);\n\n        reviewTokens[msg.sender] -= REVIEW_COST;\n        profileTokens[msg.sender] += REVIEW_REWARD;\n\n        productsClaimed[msg.sender][productId] = ProductState.REVIEWED;\n\n        return true;\n    }\n\n    function upvoteReview(bytes calldata reviewHash) external {\n        Review storage review = reviews[reviewHash];\n        require(review._initialized);\n        require(reviewTokens[msg.sender] >= UPVOTE_COST);\n\n        reviewTokens[msg.sender] -= UPVOTE_COST;\n\n        review.upvotes += 1;\n\n        profileTokens[review.reviewer] += UPVOTE_REWARD;\n    }\n\n    function addProduct(uint64 productId) external onlyOwner {\n        require(!products[productId]._initialized, \"Product already exists\");\n\n        Product memory p = Product({\n            _initialized: true,\n            reviewHashes: new bytes[](0)\n        });\n\n        if (!products[productId]._initialized) {\n            registeredProducts.push(productId);\n            products[productId] = p;\n        }\n    }\n\n    function addProducts(uint64[] calldata productIds) external onlyOwner {\n        for (uint256 i = 0; i < productIds.length; ++i) {\n            Product memory p = Product({\n                _initialized: true,\n                reviewHashes: new bytes[](0)\n            });\n\n            if (!products[productIds[i]]._initialized) {\n                registeredProducts.push(productIds[i]);\n                products[productIds[i]] = p;\n            }\n        }\n    }\n\n    function buyProfileItem(bytes calldata itemHash) external {\n        require(\n            profileTokens[msg.sender] > profileItemPrices[itemHash],\n            \"Not enough tokens\"\n        );\n\n        profileTokens[msg.sender] -= profileItemPrices[itemHash];\n        userProfileItems[msg.sender].push(itemHash);\n    }\n\n    //This function allows to register new NFTS for the profile\n    //TODO: It can be called only by the server \n    function addProfileItem(bytes calldata itemHash, int64 price)\n        external\n    {\n        //itemHash is the hash of the css from ipfs\n        profileItems.push(itemHash);\n        //We also update the price in the mapping\n        profileItemPrices[itemHash] = price;\n    }\n\n    // Utility functions below\n    // You should only call these functions on your local node without\n    // spending gas.\n\n    function reviewExists(bytes calldata reviewHash)\n        public\n        view\n        returns (bool)\n    {\n        return reviews[reviewHash]._initialized;\n    }\n\n    function getProduct(uint64 productId) public view returns (Product memory) {\n        require(products[productId]._initialized, \"Product doesn't exist\");\n\n        return products[productId];\n    }\n\n    function getProducts() public view returns (uint64[] memory) {\n        return registeredProducts;\n    }\n\n    function getReviewTokens() public view returns (int64) {\n        return reviewTokens[msg.sender];\n    }\n\n    function getProfileTokens() public view returns (int64) {\n        return profileTokens[msg.sender];\n    }\n\n    function getReviews() public view returns (bytes[] memory) {\n        return reviewsFromAddress[msg.sender];\n    }\n\n    function getProfileItems() public view returns (bytes[] memory) {\n        return userProfileItems[msg.sender];\n    }\n\n    function getBuyableProfileItems() public view returns (bytes[] memory) {\n        return profileItems;\n    }\n\n    function getUserProfileItems() public view returns (bytes[] memory){\n        return userProfileItems[msg.sender];\n    }\n}\n",
  "sourcePath": "/app/contracts/Derp.sol",
  "compiler": {
    "name": "solc",
    "version": "0.8.17+commit.8df45f5f.Emscripten.clang"
  },
  "schemaVersion": "3.4.11",
  "updatedAt": "2023-01-25T18:16:01.585Z",
  "networkType": "ethereum",
  "devdoc": {
    "kind": "dev",
    "methods": {},
    "version": 1
  },
  "userdoc": {
    "kind": "user",
    "methods": {},
    "version": 1
  }
}