{
  "contractName": "Derp",
  "abi": [
    {
      "inputs": [],
      "stateMutability": "nonpayable",
      "type": "constructor"
    },
    {
      "anonymous": false,
      "inputs": [],
      "name": "ProductRefreshRequested",
      "type": "event"
    },
    {
      "anonymous": false,
      "inputs": [
        {
          "indexed": false,
          "internalType": "address",
          "name": "account",
          "type": "address"
        }
      ],
      "name": "ReviewTokenRequested",
      "type": "event"
    },
    {
      "anonymous": false,
      "inputs": [
        {
          "indexed": false,
          "internalType": "address",
          "name": "account",
          "type": "address"
        },
        {
          "indexed": false,
          "internalType": "uint64",
          "name": "product",
          "type": "uint64"
        }
      ],
      "name": "ReviewTokenRequested",
      "type": "event"
    },
    {
      "anonymous": false,
      "inputs": [
        {
          "indexed": false,
          "internalType": "address",
          "name": "account",
          "type": "address"
        }
      ],
      "name": "ReviewTokensGranted",
      "type": "event"
    },
    {
      "inputs": [],
      "name": "PER_PURCHASE_TOKENS",
      "outputs": [
        {
          "internalType": "int8",
          "name": "",
          "type": "int8"
        }
      ],
      "stateMutability": "view",
      "type": "function",
      "constant": true
    },
    {
      "inputs": [],
      "name": "REVIEW_COST",
      "outputs": [
        {
          "internalType": "int8",
          "name": "",
          "type": "int8"
        }
      ],
      "stateMutability": "view",
      "type": "function",
      "constant": true
    },
    {
      "inputs": [],
      "name": "REVIEW_REWARD",
      "outputs": [
        {
          "internalType": "int8",
          "name": "",
          "type": "int8"
        }
      ],
      "stateMutability": "view",
      "type": "function",
      "constant": true
    },
    {
      "inputs": [],
      "name": "UPVOTE_COST",
      "outputs": [
        {
          "internalType": "int8",
          "name": "",
          "type": "int8"
        }
      ],
      "stateMutability": "view",
      "type": "function",
      "constant": true
    },
    {
      "inputs": [],
      "name": "UPVOTE_REWARD",
      "outputs": [
        {
          "internalType": "int8",
          "name": "",
          "type": "int8"
        }
      ],
      "stateMutability": "view",
      "type": "function",
      "constant": true
    },
    {
      "inputs": [
        {
          "internalType": "address",
          "name": "account",
          "type": "address"
        }
      ],
      "name": "requestAllReviewTokens",
      "outputs": [],
      "stateMutability": "nonpayable",
      "type": "function"
    },
    {
      "inputs": [
        {
          "internalType": "address",
          "name": "account",
          "type": "address"
        },
        {
          "internalType": "uint64",
          "name": "productId",
          "type": "uint64"
        }
      ],
      "name": "requestReviewToken",
      "outputs": [],
      "stateMutability": "nonpayable",
      "type": "function"
    },
    {
      "inputs": [
        {
          "internalType": "address",
          "name": "account",
          "type": "address"
        },
        {
          "internalType": "uint64",
          "name": "productId",
          "type": "uint64"
        }
      ],
      "name": "rewardReviewToken",
      "outputs": [],
      "stateMutability": "nonpayable",
      "type": "function"
    },
    {
      "inputs": [
        {
          "internalType": "address",
          "name": "account",
          "type": "address"
        },
        {
          "internalType": "uint64[]",
          "name": "productIds",
          "type": "uint64[]"
        }
      ],
      "name": "rewardReviewTokens",
      "outputs": [],
      "stateMutability": "nonpayable",
      "type": "function"
    },
    {
      "inputs": [
        {
          "internalType": "uint64",
          "name": "productId",
          "type": "uint64"
        },
        {
          "internalType": "bytes",
          "name": "reviewHash",
          "type": "bytes"
        }
      ],
      "name": "makeReview",
      "outputs": [
        {
          "internalType": "bool",
          "name": "",
          "type": "bool"
        }
      ],
      "stateMutability": "nonpayable",
      "type": "function"
    },
    {
      "inputs": [
        {
          "internalType": "bytes",
          "name": "reviewHash",
          "type": "bytes"
        }
      ],
      "name": "upvoteReview",
      "outputs": [],
      "stateMutability": "nonpayable",
      "type": "function"
    },
    {
      "inputs": [
        {
          "internalType": "uint64",
          "name": "productId",
          "type": "uint64"
        }
      ],
      "name": "addProduct",
      "outputs": [],
      "stateMutability": "nonpayable",
      "type": "function"
    },
    {
      "inputs": [
        {
          "internalType": "uint64[]",
          "name": "productIds",
          "type": "uint64[]"
        }
      ],
      "name": "addProducts",
      "outputs": [],
      "stateMutability": "nonpayable",
      "type": "function"
    },
    {
      "inputs": [
        {
          "internalType": "bytes",
          "name": "reviewHash",
          "type": "bytes"
        }
      ],
      "name": "reviewExists",
      "outputs": [
        {
          "internalType": "bool",
          "name": "",
          "type": "bool"
        }
      ],
      "stateMutability": "view",
      "type": "function",
      "constant": true
    },
    {
      "inputs": [
        {
          "internalType": "uint64",
          "name": "productId",
          "type": "uint64"
        }
      ],
      "name": "getProduct",
      "outputs": [
        {
          "components": [
            {
              "internalType": "bytes[]",
              "name": "reviewHashes",
              "type": "bytes[]"
            },
            {
              "internalType": "bool",
              "name": "_initialized",
              "type": "bool"
            }
          ],
          "internalType": "struct Derp.Product",
          "name": "",
          "type": "tuple"
        }
      ],
      "stateMutability": "view",
      "type": "function",
      "constant": true
    },
    {
      "inputs": [],
      "name": "getProducts",
      "outputs": [
        {
          "internalType": "uint64[]",
          "name": "",
          "type": "uint64[]"
        }
      ],
      "stateMutability": "view",
      "type": "function",
      "constant": true
    },
    {
      "inputs": [],
      "name": "getReviewTokens",
      "outputs": [
        {
          "internalType": "int64",
          "name": "",
          "type": "int64"
        }
      ],
      "stateMutability": "view",
      "type": "function",
      "constant": true
    },
    {
      "inputs": [],
      "name": "getProfileTokens",
      "outputs": [
        {
          "internalType": "int64",
          "name": "",
          "type": "int64"
        }
      ],
      "stateMutability": "view",
      "type": "function",
      "constant": true
    },
    {
      "inputs": [],
      "name": "getReviews",
      "outputs": [
        {
          "internalType": "bytes[]",
          "name": "",
          "type": "bytes[]"
        }
      ],
      "stateMutability": "view",
      "type": "function",
      "constant": true
    }
  ],
  "bytecode": "0x608060405234801561001057600080fd5b50336000806101000a81548173ffffffffffffffffffffffffffffffffffffffff021916908373ffffffffffffffffffffffffffffffffffffffff160217905550612b7a806100606000396000f3fe608060405234801561001057600080fd5b50600436106101215760003560e01c806396593c9e116100ad578063c29b2f2011610071578063c29b2f20146102e4578063cc2ab42214610302578063e904394c1461031e578063efea5e961461034e578063fa95bbbf1461036a57610121565b806396593c9e14610254578063ab95c8f314610272578063ac144ee21461028e578063b100488f146102aa578063bec82320146102c857610121565b80635edda63b116100f45780635edda63b1461019a57806368cf232d146101b85780636c4abdb1146101d65780636d1febb1146102065780637c89f5b31461023657610121565b80630bfa59c2146101265780631b1e132414610144578063396c62261461016257806351ef46611461017e575b600080fd5b61012e610388565b60405161013b9190611b1d565b60405180910390f35b61014c61038d565b6040516101599190611c8a565b60405180910390f35b61017c60048036038101906101779190611d1b565b6104a3565b005b61019860048036038101906101939190611e1c565b6106c5565b005b6101a261097a565b6040516101af9190611b1d565b60405180910390f35b6101c061097f565b6040516101cd9190611b1d565b60405180910390f35b6101f060048036038101906101eb9190611d1b565b610984565b6040516101fd9190611e97565b60405180910390f35b610220600480360381019061021b9190611ef2565b6109bf565b60405161022d9190611e97565b60405180910390f35b61023e610f9a565b60405161024b9190611f6e565b60405180910390f35b61025c610fee565b6040516102699190611f6e565b60405180910390f35b61028c60048036038101906102879190611f89565b611042565b005b6102a860048036038101906102a39190611fc9565b6111ea565b005b6102b2611441565b6040516102bf9190611b1d565b60405180910390f35b6102e260048036038101906102dd9190611f89565b611446565b005b6102ec61155b565b6040516102f991906120d4565b60405180910390f35b61031c600480360381019061031791906120f6565b6115e7565b005b61033860048036038101906103339190612123565b611621565b6040516103459190612222565b60405180910390f35b61036860048036038101906103639190612123565b6117cd565b005b610372611a06565b60405161037f9190611b1d565b60405180910390f35b600a81565b6060600660003373ffffffffffffffffffffffffffffffffffffffff1673ffffffffffffffffffffffffffffffffffffffff168152602001908152602001600020805480602002602001604051908101604052809291908181526020016000905b8282101561049a57838290600052602060002001805461040d90612273565b80601f016020809104026020016040519081016040528092919081815260200182805461043990612273565b80156104865780601f1061045b57610100808354040283529160200191610486565b820191906000526020600020905b81548152906001019060200180831161046957829003601f168201915b5050505050815260200190600101906103ee565b50505050905090565b6000600583836040516104b79291906122e3565b9081526020016040518091039020905080600001601c9054906101000a900460ff166104e257600080fd5b600260000b600160003373ffffffffffffffffffffffffffffffffffffffff1673ffffffffffffffffffffffffffffffffffffffff16815260200190815260200160002060009054906101000a900460070b60070b121561054257600080fd5b600260000b600160003373ffffffffffffffffffffffffffffffffffffffff1673ffffffffffffffffffffffffffffffffffffffff16815260200190815260200160002060008282829054906101000a900460070b6105a1919061232b565b92506101000a81548167ffffffffffffffff021916908360070b67ffffffffffffffff16021790555060018160000160148282829054906101000a900460070b6105eb919061238b565b92506101000a81548167ffffffffffffffff021916908360070b67ffffffffffffffff160217905550600160000b600260008360000160009054906101000a900473ffffffffffffffffffffffffffffffffffffffff1673ffffffffffffffffffffffffffffffffffffffff1673ffffffffffffffffffffffffffffffffffffffff16815260200190815260200160002060008282829054906101000a900460070b610697919061238b565b92506101000a81548167ffffffffffffffff021916908360070b67ffffffffffffffff160217905550505050565b60008054906101000a900473ffffffffffffffffffffffffffffffffffffffff1673ffffffffffffffffffffffffffffffffffffffff163373ffffffffffffffffffffffffffffffffffffffff161461071d57600080fd5b60005b8282905081101561093d576000600281111561073f5761073e6123eb565b5b600760008673ffffffffffffffffffffffffffffffffffffffff1673ffffffffffffffffffffffffffffffffffffffff16815260200190815260200160002060008585858181106107935761079261241a565b5b90506020020160208101906107a89190612123565b67ffffffffffffffff1667ffffffffffffffff16815260200190815260200160002060009054906101000a900460ff1660028111156107ea576107e96123eb565b5b0361092c576001600760008673ffffffffffffffffffffffffffffffffffffffff1673ffffffffffffffffffffffffffffffffffffffff16815260200190815260200160002060008585858181106108455761084461241a565b5b905060200201602081019061085a9190612123565b67ffffffffffffffff1667ffffffffffffffff16815260200190815260200160002060006101000a81548160ff0219169083600281111561089e5761089d6123eb565b5b0217905550600a60000b600160008673ffffffffffffffffffffffffffffffffffffffff1673ffffffffffffffffffffffffffffffffffffffff16815260200190815260200160002060008282829054906101000a900460070b610902919061238b565b92506101000a81548167ffffffffffffffff021916908360070b67ffffffffffffffff1602179055505b8061093690612453565b9050610720565b507f50f0ac35fb060ec2eb1b1051209ac69e7caa16f70e8fb9f469fa3befdd5cb8ca8360405161096d91906124aa565b60405180910390a1505050565b600281565b600281565b6000600583836040516109989291906122e3565b9081526020016040518091039020600001601c9054906101000a900460ff16905092915050565b6000600260000b600160003373ffffffffffffffffffffffffffffffffffffffff1673ffffffffffffffffffffffffffffffffffffffff16815260200190815260200160002060009054906101000a900460070b60070b1215610a57576040517f08c379a0000000000000000000000000000000000000000000000000000000008152600401610a4e90612522565b60405180910390fd5b60058383604051610a699291906122e3565b9081526020016040518091039020600001601c9054906101000a900460ff1615610ac8576040517f08c379a0000000000000000000000000000000000000000000000000000000008152600401610abf9061258e565b60405180910390fd5b60016002811115610adc57610adb6123eb565b5b600760003373ffffffffffffffffffffffffffffffffffffffff1673ffffffffffffffffffffffffffffffffffffffff16815260200190815260200160002060008667ffffffffffffffff1667ffffffffffffffff16815260200190815260200160002060009054906101000a900460ff166002811115610b6057610b5f6123eb565b5b14610ba0576040517f08c379a0000000000000000000000000000000000000000000000000000000008152600401610b9790612620565b60405180910390fd5b600360008567ffffffffffffffff1667ffffffffffffffff16815260200190815260200160002060010160009054906101000a900460ff16610c17576040517f08c379a0000000000000000000000000000000000000000000000000000000008152600401610c0e9061268c565b60405180910390fd5b600060405180606001604052803373ffffffffffffffffffffffffffffffffffffffff168152602001600160070b8152602001600115158152509050600660003373ffffffffffffffffffffffffffffffffffffffff1673ffffffffffffffffffffffffffffffffffffffff168152602001908152602001600020848490918060018154018082558091505060019003906000526020600020016000909192909192909192909192509182610ccd929190612892565b508060058585604051610ce19291906122e3565b908152602001604051809103902060008201518160000160006101000a81548173ffffffffffffffffffffffffffffffffffffffff021916908373ffffffffffffffffffffffffffffffffffffffff16021790555060208201518160000160146101000a81548167ffffffffffffffff021916908360070b67ffffffffffffffff160217905550604082015181600001601c6101000a81548160ff021916908315150217905550905050600360008667ffffffffffffffff1667ffffffffffffffff168152602001908152602001600020600001848490918060018154018082558091505060019003906000526020600020016000909192909192909192909192509182610df0929190612892565b50600260000b600160003373ffffffffffffffffffffffffffffffffffffffff1673ffffffffffffffffffffffffffffffffffffffff16815260200190815260200160002060008282829054906101000a900460070b610e50919061232b565b92506101000a81548167ffffffffffffffff021916908360070b67ffffffffffffffff160217905550600160000b600260003373ffffffffffffffffffffffffffffffffffffffff1673ffffffffffffffffffffffffffffffffffffffff16815260200190815260200160002060008282829054906101000a900460070b610ed8919061238b565b92506101000a81548167ffffffffffffffff021916908360070b67ffffffffffffffff1602179055506002600760003373ffffffffffffffffffffffffffffffffffffffff1673ffffffffffffffffffffffffffffffffffffffff16815260200190815260200160002060008767ffffffffffffffff1667ffffffffffffffff16815260200190815260200160002060006101000a81548160ff02191690836002811115610f8957610f886123eb565b5b021790555060019150509392505050565b6000600260003373ffffffffffffffffffffffffffffffffffffffff1673ffffffffffffffffffffffffffffffffffffffff16815260200190815260200160002060009054906101000a900460070b905090565b6000600160003373ffffffffffffffffffffffffffffffffffffffff1673ffffffffffffffffffffffffffffffffffffffff16815260200190815260200160002060009054906101000a900460070b905090565b60008054906101000a900473ffffffffffffffffffffffffffffffffffffffff1673ffffffffffffffffffffffffffffffffffffffff163373ffffffffffffffffffffffffffffffffffffffff161461109a57600080fd5b6001600760008473ffffffffffffffffffffffffffffffffffffffff1673ffffffffffffffffffffffffffffffffffffffff16815260200190815260200160002060008367ffffffffffffffff1667ffffffffffffffff16815260200190815260200160002060006101000a81548160ff02191690836002811115611122576111216123eb565b5b0217905550600a60000b600160008473ffffffffffffffffffffffffffffffffffffffff1673ffffffffffffffffffffffffffffffffffffffff16815260200190815260200160002060008282829054906101000a900460070b611186919061238b565b92506101000a81548167ffffffffffffffff021916908360070b67ffffffffffffffff1602179055507f50f0ac35fb060ec2eb1b1051209ac69e7caa16f70e8fb9f469fa3befdd5cb8ca826040516111de91906124aa565b60405180910390a15050565b60008054906101000a900473ffffffffffffffffffffffffffffffffffffffff1673ffffffffffffffffffffffffffffffffffffffff163373ffffffffffffffffffffffffffffffffffffffff161461124257600080fd5b60005b8282905081101561143c5760006040518060400160405280600067ffffffffffffffff811115611278576112776126b7565b5b6040519080825280602002602001820160405280156112ab57816020015b60608152602001906001900390816112965790505b508152602001600115158152509050600360008585858181106112d1576112d061241a565b5b90506020020160208101906112e69190612123565b67ffffffffffffffff1667ffffffffffffffff16815260200190815260200160002060010160009054906101000a900460ff1661142a5760048484848181106113325761133161241a565b5b90506020020160208101906113479190612123565b90806001815401808255809150506001900390600052602060002090600491828204019190066008029091909190916101000a81548167ffffffffffffffff021916908367ffffffffffffffff16021790555080600360008686868181106113b2576113b161241a565b5b90506020020160208101906113c79190612123565b67ffffffffffffffff1667ffffffffffffffff1681526020019081526020016000206000820151816000019080519060200190611405929190611a0b565b5060208201518160010160006101000a81548160ff0219169083151502179055509050505b508061143590612453565b9050611245565b505050565b600181565b6000600281111561145a576114596123eb565b5b600760008473ffffffffffffffffffffffffffffffffffffffff1673ffffffffffffffffffffffffffffffffffffffff16815260200190815260200160002060008367ffffffffffffffff1667ffffffffffffffff16815260200190815260200160002060009054906101000a900460ff1660028111156114de576114dd6123eb565b5b1461151e576040517f08c379a0000000000000000000000000000000000000000000000000000000008152600401611515906129ae565b60405180910390fd5b7f1382a4dd1f1609a0cd69ab74da10dc4ddfc5c47b6bc64440e3841c8620755647828260405161154f9291906129dd565b60405180910390a15050565b606060048054806020026020016040519081016040528092919081815260200182805480156115dd57602002820191906000526020600020906000905b82829054906101000a900467ffffffffffffffff1667ffffffffffffffff16815260200190600801906020826007010492830192600103820291508084116115985790505b5050505050905090565b7f691ed8bb2531c0e10c3d5e20f75da532a56f471f50250d7d7eb44376bf6dab888160405161161691906124aa565b60405180910390a150565b611629611a64565b600360008367ffffffffffffffff1667ffffffffffffffff16815260200190815260200160002060010160009054906101000a900460ff166116a0576040517f08c379a00000000000000000000000000000000000000000000000000000000081526004016116979061268c565b60405180910390fd5b600360008367ffffffffffffffff1667ffffffffffffffff16815260200190815260200160002060405180604001604052908160008201805480602002602001604051908101604052809291908181526020016000905b828210156117a357838290600052602060002001805461171690612273565b80601f016020809104026020016040519081016040528092919081815260200182805461174290612273565b801561178f5780601f106117645761010080835404028352916020019161178f565b820191906000526020600020905b81548152906001019060200180831161177257829003601f168201915b5050505050815260200190600101906116f7565b5050505081526020016001820160009054906101000a900460ff1615151515815250509050919050565b60008054906101000a900473ffffffffffffffffffffffffffffffffffffffff1673ffffffffffffffffffffffffffffffffffffffff163373ffffffffffffffffffffffffffffffffffffffff161461182557600080fd5b600360008267ffffffffffffffff1667ffffffffffffffff16815260200190815260200160002060010160009054906101000a900460ff161561189d576040517f08c379a000000000000000000000000000000000000000000000000000000000815260040161189490612a52565b60405180910390fd5b60006040518060400160405280600067ffffffffffffffff8111156118c5576118c46126b7565b5b6040519080825280602002602001820160405280156118f857816020015b60608152602001906001900390816118e35790505b508152602001600115158152509050600360008367ffffffffffffffff1667ffffffffffffffff16815260200190815260200160002060010160009054906101000a900460ff16611a025760048290806001815401808255809150506001900390600052602060002090600491828204019190066008029091909190916101000a81548167ffffffffffffffff021916908367ffffffffffffffff16021790555080600360008467ffffffffffffffff1667ffffffffffffffff16815260200190815260200160002060008201518160000190805190602001906119dd929190611a0b565b5060208201518160010160006101000a81548160ff0219169083151502179055509050505b5050565b600181565b828054828255906000526020600020908101928215611a53579160200282015b82811115611a52578251829081611a429190612a72565b5091602001919060010190611a2b565b5b509050611a609190611a80565b5090565b6040518060400160405280606081526020016000151581525090565b5b80821115611aa05760008181611a979190611aa4565b50600101611a81565b5090565b508054611ab090612273565b6000825580601f10611ac25750611ae1565b601f016020900490600052602060002090810190611ae09190611ae4565b5b50565b5b80821115611afd576000816000905550600101611ae5565b5090565b60008160000b9050919050565b611b1781611b01565b82525050565b6000602082019050611b326000830184611b0e565b92915050565b600081519050919050565b600082825260208201905092915050565b6000819050602082019050919050565b600081519050919050565b600082825260208201905092915050565b60005b83811015611b9e578082015181840152602081019050611b83565b60008484015250505050565b6000601f19601f8301169050919050565b6000611bc682611b64565b611bd08185611b6f565b9350611be0818560208601611b80565b611be981611baa565b840191505092915050565b6000611c008383611bbb565b905092915050565b6000602082019050919050565b6000611c2082611b38565b611c2a8185611b43565b935083602082028501611c3c85611b54565b8060005b85811015611c785784840389528151611c598582611bf4565b9450611c6483611c08565b925060208a01995050600181019050611c40565b50829750879550505050505092915050565b60006020820190508181036000830152611ca48184611c15565b905092915050565b600080fd5b600080fd5b600080fd5b600080fd5b600080fd5b60008083601f840112611cdb57611cda611cb6565b5b8235905067ffffffffffffffff811115611cf857611cf7611cbb565b5b602083019150836001820283011115611d1457611d13611cc0565b5b9250929050565b60008060208385031215611d3257611d31611cac565b5b600083013567ffffffffffffffff811115611d5057611d4f611cb1565b5b611d5c85828601611cc5565b92509250509250929050565b600073ffffffffffffffffffffffffffffffffffffffff82169050919050565b6000611d9382611d68565b9050919050565b611da381611d88565b8114611dae57600080fd5b50565b600081359050611dc081611d9a565b92915050565b60008083601f840112611ddc57611ddb611cb6565b5b8235905067ffffffffffffffff811115611df957611df8611cbb565b5b602083019150836020820283011115611e1557611e14611cc0565b5b9250929050565b600080600060408486031215611e3557611e34611cac565b5b6000611e4386828701611db1565b935050602084013567ffffffffffffffff811115611e6457611e63611cb1565b5b611e7086828701611dc6565b92509250509250925092565b60008115159050919050565b611e9181611e7c565b82525050565b6000602082019050611eac6000830184611e88565b92915050565b600067ffffffffffffffff82169050919050565b611ecf81611eb2565b8114611eda57600080fd5b50565b600081359050611eec81611ec6565b92915050565b600080600060408486031215611f0b57611f0a611cac565b5b6000611f1986828701611edd565b935050602084013567ffffffffffffffff811115611f3a57611f39611cb1565b5b611f4686828701611cc5565b92509250509250925092565b60008160070b9050919050565b611f6881611f52565b82525050565b6000602082019050611f836000830184611f5f565b92915050565b60008060408385031215611fa057611f9f611cac565b5b6000611fae85828601611db1565b9250506020611fbf85828601611edd565b9150509250929050565b60008060208385031215611fe057611fdf611cac565b5b600083013567ffffffffffffffff811115611ffe57611ffd611cb1565b5b61200a85828601611dc6565b92509250509250929050565b600081519050919050565b600082825260208201905092915050565b6000819050602082019050919050565b61204b81611eb2565b82525050565b600061205d8383612042565b60208301905092915050565b6000602082019050919050565b600061208182612016565b61208b8185612021565b935061209683612032565b8060005b838110156120c75781516120ae8882612051565b97506120b983612069565b92505060018101905061209a565b5085935050505092915050565b600060208201905081810360008301526120ee8184612076565b905092915050565b60006020828403121561210c5761210b611cac565b5b600061211a84828501611db1565b91505092915050565b60006020828403121561213957612138611cac565b5b600061214784828501611edd565b91505092915050565b600082825260208201905092915050565b600061216c82611b38565b6121768185612150565b93508360208202850161218885611b54565b8060005b858110156121c457848403895281516121a58582611bf4565b94506121b083611c08565b925060208a0199505060018101905061218c565b50829750879550505050505092915050565b6121df81611e7c565b82525050565b600060408301600083015184820360008601526122028282612161565b915050602083015161221760208601826121d6565b508091505092915050565b6000602082019050818103600083015261223c81846121e5565b905092915050565b7f4e487b7100000000000000000000000000000000000000000000000000000000600052602260045260246000fd5b6000600282049050600182168061228b57607f821691505b60208210810361229e5761229d612244565b5b50919050565b600081905092915050565b82818337600083830152505050565b60006122ca83856122a4565b93506122d78385846122af565b82840190509392505050565b60006122f08284866122be565b91508190509392505050565b7f4e487b7100000000000000000000000000000000000000000000000000000000600052601160045260246000fd5b600061233682611f52565b915061234183611f52565b92508282039050677fffffffffffffff81137fffffffffffffffffffffffffffffffffffffffffffffffff800000000000000082121715612385576123846122fc565b5b92915050565b600061239682611f52565b91506123a183611f52565b925082820190507fffffffffffffffffffffffffffffffffffffffffffffffff80000000000000008112677fffffffffffffff821317156123e5576123e46122fc565b5b92915050565b7f4e487b7100000000000000000000000000000000000000000000000000000000600052602160045260246000fd5b7f4e487b7100000000000000000000000000000000000000000000000000000000600052603260045260246000fd5b6000819050919050565b600061245e82612449565b91507fffffffffffffffffffffffffffffffffffffffffffffffffffffffffffffffff82036124905761248f6122fc565b5b600182019050919050565b6124a481611d88565b82525050565b60006020820190506124bf600083018461249b565b92915050565b600082825260208201905092915050565b7f4e6f7420656e6f75676820746f6b656e73000000000000000000000000000000600082015250565b600061250c6011836124c5565b9150612517826124d6565b602082019050919050565b6000602082019050818103600083015261253b816124ff565b9050919050565b7f52657669657720616c7265616479206578697374730000000000000000000000600082015250565b60006125786015836124c5565b915061258382612542565b602082019050919050565b600060208201905081810360008301526125a78161256b565b9050919050565b7f50726f64756374206e6f7420636c61696d6564206f7220616c7265616479207260008201527f6576696577656400000000000000000000000000000000000000000000000000602082015250565b600061260a6027836124c5565b9150612615826125ae565b604082019050919050565b60006020820190508181036000830152612639816125fd565b9050919050565b7f50726f6475637420646f65736e27742065786973740000000000000000000000600082015250565b60006126766015836124c5565b915061268182612640565b602082019050919050565b600060208201905081810360008301526126a581612669565b9050919050565b600082905092915050565b7f4e487b7100000000000000000000000000000000000000000000000000000000600052604160045260246000fd5b60008190508160005260206000209050919050565b60006020601f8301049050919050565b600082821b905092915050565b6000600883026127487fffffffffffffffffffffffffffffffffffffffffffffffffffffffffffffffff8261270b565b612752868361270b565b95508019841693508086168417925050509392505050565b6000819050919050565b600061278f61278a61278584612449565b61276a565b612449565b9050919050565b6000819050919050565b6127a983612774565b6127bd6127b582612796565b848454612718565b825550505050565b600090565b6127d26127c5565b6127dd8184846127a0565b505050565b5b81811015612801576127f66000826127ca565b6001810190506127e3565b5050565b601f82111561284657612817816126e6565b612820846126fb565b8101602085101561282f578190505b61284361283b856126fb565b8301826127e2565b50505b505050565b600082821c905092915050565b60006128696000198460080261284b565b1980831691505092915050565b60006128828383612858565b9150826002028217905092915050565b61289c83836126ac565b67ffffffffffffffff8111156128b5576128b46126b7565b5b6128bf8254612273565b6128ca828285612805565b6000601f8311600181146128f957600084156128e7578287013590505b6128f18582612876565b865550612959565b601f198416612907866126e6565b60005b8281101561292f5784890135825560018201915060208501945060208101905061290a565b8683101561294c5784890135612948601f891682612858565b8355505b6001600288020188555050505b50505050505050565b7f50726f6475637420616c726561647920636c61696d6564000000000000000000600082015250565b60006129986017836124c5565b91506129a382612962565b602082019050919050565b600060208201905081810360008301526129c78161298b565b9050919050565b6129d781611eb2565b82525050565b60006040820190506129f2600083018561249b565b6129ff60208301846129ce565b9392505050565b7f50726f6475637420616c72656164792065786973747300000000000000000000600082015250565b6000612a3c6016836124c5565b9150612a4782612a06565b602082019050919050565b60006020820190508181036000830152612a6b81612a2f565b9050919050565b612a7b82611b64565b67ffffffffffffffff811115612a9457612a936126b7565b5b612a9e8254612273565b612aa9828285612805565b600060209050601f831160018114612adc5760008415612aca578287015190505b612ad48582612876565b865550612b3c565b601f198416612aea866126e6565b60005b82811015612b1257848901518255600182019150602085019450602081019050612aed565b86831015612b2f5784890151612b2b601f891682612858565b8355505b6001600288020188555050505b50505050505056fea26469706673582212202a288ec3e405db0db27d444a956bcd8bf658dc544d7d9a19bf23eaf27afb45ac64736f6c63430008110033",
  "immutableReferences": {},
  "source": "// SPDX-License-Identifier: GPL-v3\n\npragma solidity >=0.7.0 <0.9;\n\ncontract Derp {\n    enum ProductState {\n        UNCLAIMED,\n        CLAIMED,\n        REVIEWED\n    }\n\n    // The product for which an user wants to make a review.\n    // This is indexed as a combination of the store ID and the product ID\n    // local to that store.\n    //\n    // Example:\n    //    store ID = 1,\n    //    local product ID = 1,\n    //    product ID = 0x100000001\n    struct Product {\n        bytes[] reviewHashes;\n        bool _initialized;\n    }\n\n    // A review made by a reviewer.\n    // The text of the review is stored on IPFS.\n    struct Review {\n        address reviewer;\n        int64 upvotes;\n        bool _initialized;\n    }\n\n    // The deployer of the contract.\n    // Used to check the authenticity of the reviews.\n    address private owner;\n\n    // Mapping for the NFTs used on the website.\n    mapping(address => int64) private reviewTokens;\n    mapping(address => int64) private profileTokens;\n\n    // Mapping from the uint64 product ID to the stored products.\n    mapping(uint64 => Product) private products;\n\n    // Array used to retrieve all the products stored on-chain.\n    uint64[] private registeredProducts;\n\n    // Mapping from the IPFS' Content Identifier of the review to the actual\n    // review.\n    mapping(bytes => Review) private reviews;\n\n    // Mapping used for retrieving the IPFS' CIDs of the reviews made by an\n    // address.\n    mapping(address => bytes[]) private reviewsFromAddress;\n\n    // Mapping of the products actually claimed by an user.\n    // Used to store on-chain the validity of the reviews.\n    mapping(address => mapping(uint64 => ProductState)) private productsClaimed;\n\n    // Events emitted when an user wants to know if some review tokens can be\n    // obtained.\n    //\n    // ReviewTokensGranted is emitted when the response is affirmative.\n    event ReviewTokenRequested(address account);\n    event ReviewTokenRequested(address account, uint64 product);\n    event ReviewTokensGranted(address account);\n\n    // Event emitted when an user wants to refresh the products for which they\n    // can create a review.\n    event ProductRefreshRequested();\n\n    // Constants used by the contract\n\n    int8 public constant REVIEW_COST = 2;\n    int8 public constant REVIEW_REWARD = 1;\n    int8 public constant UPVOTE_COST = 2;\n    int8 public constant UPVOTE_REWARD = 1;\n    int8 public constant PER_PURCHASE_TOKENS = 10;\n\n    modifier onlyOwner() {\n        require(msg.sender == owner);\n        _;\n    }\n\n    constructor() {\n        owner = msg.sender;\n    }\n\n    function requestAllReviewTokens(address account) external {\n        emit ReviewTokenRequested(account);\n    }\n\n    function requestReviewToken(address account, uint64 productId) external {\n        // Check if the product was already claimed.\n        require(\n            productsClaimed[account][productId] == ProductState.UNCLAIMED,\n            \"Product already claimed\"\n        );\n\n        emit ReviewTokenRequested(account, productId);\n    }\n\n    function rewardReviewToken(address account, uint64 productId)\n        external\n        onlyOwner\n    {\n        productsClaimed[account][productId] = ProductState.CLAIMED;\n        reviewTokens[account] += PER_PURCHASE_TOKENS;\n\n        emit ReviewTokensGranted(account);\n    }\n\n    function rewardReviewTokens(address account, uint64[] calldata productIds)\n        external\n        onlyOwner\n    {\n        for (uint256 i = 0; i < productIds.length; ++i) {\n            if (\n                productsClaimed[account][productIds[i]] ==\n                ProductState.UNCLAIMED\n            ) {\n                productsClaimed[account][productIds[i]] = ProductState.CLAIMED;\n                reviewTokens[account] += PER_PURCHASE_TOKENS;\n            }\n        }\n\n        emit ReviewTokensGranted(account);\n    }\n\n    // Reviewer is msg.sender\n    function makeReview(uint64 productId, bytes calldata reviewHash)\n        external\n        returns (bool)\n    {\n        require(reviewTokens[msg.sender] >= REVIEW_COST, \"Not enough tokens\");\n        require(!reviews[reviewHash]._initialized, \"Review already exists\");\n\n        // Stops the user from making reviews of products they have not claimed.\n        require(\n            productsClaimed[msg.sender][productId] == ProductState.CLAIMED,\n            \"Product not claimed or already reviewed\"\n        );\n\n        // Avoids creating a review for a product that doesn't exist.\n        require(products[productId]._initialized, \"Product doesn't exist\");\n\n        Review memory r = Review({\n            reviewer: msg.sender,\n            upvotes: 1,\n            _initialized: true\n        });\n\n        reviewsFromAddress[msg.sender].push(reviewHash);\n\n        reviews[reviewHash] = r;\n        products[productId].reviewHashes.push(reviewHash);\n\n        reviewTokens[msg.sender] -= REVIEW_COST;\n        profileTokens[msg.sender] += REVIEW_REWARD;\n\n        productsClaimed[msg.sender][productId] = ProductState.REVIEWED;\n\n        return true;\n    }\n\n    function upvoteReview(bytes calldata reviewHash) external {\n        Review storage review = reviews[reviewHash];\n        require(review._initialized);\n        require(reviewTokens[msg.sender] >= UPVOTE_COST);\n\n        reviewTokens[msg.sender] -= UPVOTE_COST;\n\n        review.upvotes += 1;\n\n        profileTokens[review.reviewer] += UPVOTE_REWARD;\n    }\n\n    function addProduct(uint64 productId) external onlyOwner {\n        require(!products[productId]._initialized, \"Product already exists\");\n\n        Product memory p = Product({\n            _initialized: true,\n            reviewHashes: new bytes[](0)\n        });\n\n        if (!products[productId]._initialized) {\n            registeredProducts.push(productId);\n            products[productId] = p;\n        }\n    }\n\n    function addProducts(uint64[] calldata productIds) external onlyOwner {\n        for (uint256 i = 0; i < productIds.length; ++i) {\n            Product memory p = Product({\n                _initialized: true,\n                reviewHashes: new bytes[](0)\n            });\n\n            if (!products[productIds[i]]._initialized) {\n                registeredProducts.push(productIds[i]);\n                products[productIds[i]] = p;\n            }\n        }\n    }\n\n    // Utility functions below\n    // You should only call these functions on your local node without\n    // spending gas.\n\n    function reviewExists(bytes calldata reviewHash)\n        public\n        view\n        returns (bool)\n    {\n        return reviews[reviewHash]._initialized;\n    }\n\n    function getProduct(uint64 productId) public view returns (Product memory) {\n        require(products[productId]._initialized, \"Product doesn't exist\");\n\n        return products[productId];\n    }\n\n    function getProducts() public view returns (uint64[] memory) {\n        return registeredProducts;\n    }\n\n    function getReviewTokens() public view returns (int64) {\n        return reviewTokens[msg.sender];\n    }\n\n    function getProfileTokens() public view returns (int64) {\n        return profileTokens[msg.sender];\n    }\n\n    function getReviews() public view returns (bytes[] memory) {\n        return reviewsFromAddress[msg.sender];\n    }\n}\n",
  "sourcePath": "/app/contracts/Derp.sol",
  "compiler": {
    "name": "solc",
    "version": "0.8.17+commit.8df45f5f.Emscripten.clang"
  },
  "schemaVersion": "3.4.11",
  "updatedAt": "2023-01-23T09:27:02.130Z",
  "networkType": "ethereum",
  "devdoc": {
    "kind": "dev",
    "methods": {},
    "version": 1
  },
  "userdoc": {
    "kind": "user",
    "methods": {},
    "version": 1
  }
}