{
  "contractName": "Derp",
  "abi": [
    {
      "inputs": [],
      "stateMutability": "nonpayable",
      "type": "constructor"
    },
    {
      "anonymous": false,
      "inputs": [
        {
          "indexed": false,
          "internalType": "address",
          "name": "account",
          "type": "address"
        }
      ],
      "name": "AllReviewTokensRequested",
      "type": "event"
    },
    {
      "anonymous": false,
      "inputs": [],
      "name": "ProductRefreshRequested",
      "type": "event"
    },
    {
      "anonymous": false,
      "inputs": [
        {
          "indexed": false,
          "internalType": "address",
          "name": "account",
          "type": "address"
        },
        {
          "indexed": false,
          "internalType": "uint64",
          "name": "product",
          "type": "uint64"
        }
      ],
      "name": "ReviewTokenRequested",
      "type": "event"
    },
    {
      "anonymous": false,
      "inputs": [
        {
          "indexed": false,
          "internalType": "address",
          "name": "account",
          "type": "address"
        }
      ],
      "name": "ReviewTokensGranted",
      "type": "event"
    },
    {
      "inputs": [],
      "name": "PER_PURCHASE_TOKENS",
      "outputs": [
        {
          "internalType": "int8",
          "name": "",
          "type": "int8"
        }
      ],
      "stateMutability": "view",
      "type": "function",
      "constant": true
    },
    {
      "inputs": [],
      "name": "REVIEW_COST",
      "outputs": [
        {
          "internalType": "int8",
          "name": "",
          "type": "int8"
        }
      ],
      "stateMutability": "view",
      "type": "function",
      "constant": true
    },
    {
      "inputs": [],
      "name": "REVIEW_REWARD",
      "outputs": [
        {
          "internalType": "int8",
          "name": "",
          "type": "int8"
        }
      ],
      "stateMutability": "view",
      "type": "function",
      "constant": true
    },
    {
      "inputs": [],
      "name": "UPVOTE_COST",
      "outputs": [
        {
          "internalType": "int8",
          "name": "",
          "type": "int8"
        }
      ],
      "stateMutability": "view",
      "type": "function",
      "constant": true
    },
    {
      "inputs": [],
      "name": "UPVOTE_REWARD",
      "outputs": [
        {
          "internalType": "int8",
          "name": "",
          "type": "int8"
        }
      ],
      "stateMutability": "view",
      "type": "function",
      "constant": true
    },
    {
      "inputs": [],
      "name": "requestAllReviewTokens",
      "outputs": [],
      "stateMutability": "nonpayable",
      "type": "function"
    },
    {
      "inputs": [
        {
          "internalType": "uint64",
          "name": "productId",
          "type": "uint64"
        }
      ],
      "name": "requestReviewToken",
      "outputs": [],
      "stateMutability": "nonpayable",
      "type": "function"
    },
    {
      "inputs": [
        {
          "internalType": "address",
          "name": "account",
          "type": "address"
        },
        {
          "internalType": "uint64",
          "name": "productId",
          "type": "uint64"
        }
      ],
      "name": "rewardReviewToken",
      "outputs": [],
      "stateMutability": "nonpayable",
      "type": "function"
    },
    {
      "inputs": [
        {
          "internalType": "address",
          "name": "account",
          "type": "address"
        },
        {
          "internalType": "uint64[]",
          "name": "productIds",
          "type": "uint64[]"
        }
      ],
      "name": "rewardReviewTokens",
      "outputs": [],
      "stateMutability": "nonpayable",
      "type": "function"
    },
    {
      "inputs": [
        {
          "internalType": "uint64",
          "name": "productId",
          "type": "uint64"
        },
        {
          "internalType": "bytes",
          "name": "reviewHash",
          "type": "bytes"
        }
      ],
      "name": "makeReview",
      "outputs": [
        {
          "internalType": "bool",
          "name": "",
          "type": "bool"
        }
      ],
      "stateMutability": "nonpayable",
      "type": "function"
    },
    {
      "inputs": [
        {
          "internalType": "bytes",
          "name": "reviewHash",
          "type": "bytes"
        }
      ],
      "name": "upvoteReview",
      "outputs": [],
      "stateMutability": "nonpayable",
      "type": "function"
    },
    {
      "inputs": [
        {
          "internalType": "uint64",
          "name": "productId",
          "type": "uint64"
        }
      ],
      "name": "addProduct",
      "outputs": [],
      "stateMutability": "nonpayable",
      "type": "function"
    },
    {
      "inputs": [
        {
          "internalType": "uint64[]",
          "name": "productIds",
          "type": "uint64[]"
        }
      ],
      "name": "addProducts",
      "outputs": [],
      "stateMutability": "nonpayable",
      "type": "function"
    },
    {
      "inputs": [
        {
          "internalType": "bytes",
          "name": "itemHash",
          "type": "bytes"
        }
      ],
      "name": "buyProfileItem",
      "outputs": [],
      "stateMutability": "nonpayable",
      "type": "function"
    },
    {
      "inputs": [
        {
          "internalType": "bytes",
          "name": "itemHash",
          "type": "bytes"
        },
        {
          "internalType": "int64",
          "name": "price",
          "type": "int64"
        }
      ],
      "name": "addProfileItem",
      "outputs": [],
      "stateMutability": "nonpayable",
      "type": "function"
    },
    {
      "inputs": [
        {
          "internalType": "bytes",
          "name": "reviewHash",
          "type": "bytes"
        }
      ],
      "name": "reviewExists",
      "outputs": [
        {
          "internalType": "bool",
          "name": "",
          "type": "bool"
        }
      ],
      "stateMutability": "view",
      "type": "function",
      "constant": true
    },
    {
      "inputs": [
        {
          "internalType": "uint64",
          "name": "productId",
          "type": "uint64"
        }
      ],
      "name": "getProduct",
      "outputs": [
        {
          "components": [
            {
              "internalType": "bytes[]",
              "name": "reviewHashes",
              "type": "bytes[]"
            },
            {
              "internalType": "bool",
              "name": "_initialized",
              "type": "bool"
            }
          ],
          "internalType": "struct Derp.Product",
          "name": "",
          "type": "tuple"
        }
      ],
      "stateMutability": "view",
      "type": "function",
      "constant": true
    },
    {
      "inputs": [],
      "name": "getProducts",
      "outputs": [
        {
          "internalType": "uint64[]",
          "name": "",
          "type": "uint64[]"
        }
      ],
      "stateMutability": "view",
      "type": "function",
      "constant": true
    },
    {
      "inputs": [],
      "name": "getProductsToBeReviewed",
      "outputs": [
        {
          "internalType": "uint64[]",
          "name": "",
          "type": "uint64[]"
        }
      ],
      "stateMutability": "view",
      "type": "function",
      "constant": true
    },
    {
      "inputs": [
        {
          "internalType": "address",
          "name": "account",
          "type": "address"
        }
      ],
      "name": "getClaimedProductsFromAccount",
      "outputs": [
        {
          "internalType": "uint64[]",
          "name": "",
          "type": "uint64[]"
        }
      ],
      "stateMutability": "view",
      "type": "function",
      "constant": true
    },
    {
      "inputs": [],
      "name": "getReviewTokens",
      "outputs": [
        {
          "internalType": "int64",
          "name": "",
          "type": "int64"
        }
      ],
      "stateMutability": "view",
      "type": "function",
      "constant": true
    },
    {
      "inputs": [],
      "name": "getProfileTokens",
      "outputs": [
        {
          "internalType": "int64",
          "name": "",
          "type": "int64"
        }
      ],
      "stateMutability": "view",
      "type": "function",
      "constant": true
    },
    {
      "inputs": [
        {
          "internalType": "bytes",
          "name": "hash",
          "type": "bytes"
        }
      ],
      "name": "getReview",
      "outputs": [
        {
          "components": [
            {
              "internalType": "address",
              "name": "reviewer",
              "type": "address"
            },
            {
              "internalType": "int64",
              "name": "upvotes",
              "type": "int64"
            },
            {
              "internalType": "bool",
              "name": "_initialized",
              "type": "bool"
            }
          ],
          "internalType": "struct Derp.Review",
          "name": "",
          "type": "tuple"
        }
      ],
      "stateMutability": "view",
      "type": "function",
      "constant": true
    },
    {
      "inputs": [],
      "name": "getReviews",
      "outputs": [
        {
          "internalType": "bytes[]",
          "name": "",
          "type": "bytes[]"
        }
      ],
      "stateMutability": "view",
      "type": "function",
      "constant": true
    },
    {
      "inputs": [],
      "name": "getProfileItems",
      "outputs": [
        {
          "internalType": "bytes[]",
          "name": "",
          "type": "bytes[]"
        }
      ],
      "stateMutability": "view",
      "type": "function",
      "constant": true
    },
    {
      "inputs": [],
      "name": "getBuyableProfileItems",
      "outputs": [
        {
          "internalType": "bytes[]",
          "name": "",
          "type": "bytes[]"
        }
      ],
      "stateMutability": "view",
      "type": "function",
      "constant": true
    },
    {
      "inputs": [],
      "name": "getUserProfileItems",
      "outputs": [
        {
          "internalType": "bytes[]",
          "name": "",
          "type": "bytes[]"
        }
      ],
      "stateMutability": "view",
      "type": "function",
      "constant": true
    }
  ],
  "bytecode": "0x608060405234801561001057600080fd5b50336000806101000a81548173ffffffffffffffffffffffffffffffffffffffff021916908373ffffffffffffffffffffffffffffffffffffffff160217905550613e78806100606000396000f3fe608060405234801561001057600080fd5b50600436106101a95760003560e01c806389d3f623116100f9578063c29b2f2011610097578063e904394c11610071578063e904394c14610474578063efea5e96146104a4578063f12eecf0146104c0578063fa95bbbf146104f0576101a9565b8063c29b2f2014610408578063c713ff3714610426578063ca8d8bda14610444576101a9565b8063ab95c8f3116100d3578063ab95c8f314610394578063ac144ee2146103b0578063b100488f146103cc578063b570da74146103ea576101a9565b806389d3f6231461033c57806396593c9e14610358578063a8566e4e14610376576101a9565b80635edda63b116101665780636c4abdb1116101405780636c4abdb1146102b45780636caaca10146102e45780636d1febb1146102ee5780637c89f5b31461031e576101a9565b80635edda63b1461025a57806367297c271461027857806368cf232d14610296576101a9565b80630bfa59c2146101ae5780631b1e1324146101cc578063318a4003146101ea578063396c622614610206578063429c4c211461022257806351ef46611461023e575b600080fd5b6101b661050e565b6040516101c39190612ca8565b60405180910390f35b6101d4610513565b6040516101e19190612e15565b60405180910390f35b61020460048036038101906101ff9190612edf565b610629565b005b610220600480360381019061021b9190612f3f565b6106b6565b005b61023c60048036038101906102379190612fcc565b6108d8565b005b610258600480360381019061025391906130ad565b6109ec565b005b610262610e1c565b60405161026f9190612ca8565b60405180910390f35b610280610e21565b60405161028d9190612e15565b60405180910390f35b61029e610f37565b6040516102ab9190612ca8565b60405180910390f35b6102ce60048036038101906102c99190612f3f565b610f3c565b6040516102db9190613128565b60405180910390f35b6102ec610f77565b005b61030860048036038101906103039190613143565b610fb0565b6040516103159190613128565b60405180910390f35b61032661158b565b60405161033391906131b2565b60405180910390f35b61035660048036038101906103519190612f3f565b6115df565b005b6103606117d0565b60405161036d91906131b2565b60405180910390f35b61037e611824565b60405161038b9190612e15565b60405180910390f35b6103ae60048036038101906103a991906131cd565b6118fd565b005b6103ca60048036038101906103c5919061320d565b611cdf565b005b6103d4611f6c565b6040516103e19190612ca8565b60405180910390f35b6103f2611f71565b6040516103ff9190613318565b60405180910390f35b61041061221f565b60405161041d9190613318565b60405180910390f35b61042e6122ab565b60405161043b9190612e15565b60405180910390f35b61045e60048036038101906104599190612f3f565b6123c1565b60405161046b91906133a9565b60405180910390f35b61048e60048036038101906104899190612fcc565b61248a565b60405161049b9190613487565b60405180910390f35b6104be60048036038101906104b99190612fcc565b612636565b005b6104da60048036038101906104d591906134a9565b6128a5565b6040516104e79190613318565b60405180910390f35b6104f8612b55565b6040516105059190612ca8565b60405180910390f35b600a81565b6060600660003373ffffffffffffffffffffffffffffffffffffffff1673ffffffffffffffffffffffffffffffffffffffff168152602001908152602001600020805480602002602001604051908101604052809291908181526020016000905b8282101561062057838290600052602060002001805461059390613505565b80601f01602080910402602001604051908101604052809291908181526020018280546105bf90613505565b801561060c5780601f106105e15761010080835404028352916020019161060c565b820191906000526020600020905b8154815290600101906020018083116105ef57829003601f168201915b505050505081526020019060010190610574565b50505050905090565b6008838390918060018154018082558091505060019003906000526020600020016000909192909192909192909192509182610666929190613726565b50806009848460405161067a929190613835565b908152602001604051809103902060006101000a81548167ffffffffffffffff021916908360070b67ffffffffffffffff160217905550505050565b6000600583836040516106ca929190613835565b9081526020016040518091039020905080600001601c9054906101000a900460ff166106f557600080fd5b600260000b600160003373ffffffffffffffffffffffffffffffffffffffff1673ffffffffffffffffffffffffffffffffffffffff16815260200190815260200160002060009054906101000a900460070b60070b121561075557600080fd5b600260000b600160003373ffffffffffffffffffffffffffffffffffffffff1673ffffffffffffffffffffffffffffffffffffffff16815260200190815260200160002060008282829054906101000a900460070b6107b4919061387d565b92506101000a81548167ffffffffffffffff021916908360070b67ffffffffffffffff16021790555060018160000160148282829054906101000a900460070b6107fe91906138dd565b92506101000a81548167ffffffffffffffff021916908360070b67ffffffffffffffff160217905550600160000b600260008360000160009054906101000a900473ffffffffffffffffffffffffffffffffffffffff1673ffffffffffffffffffffffffffffffffffffffff1673ffffffffffffffffffffffffffffffffffffffff16815260200190815260200160002060008282829054906101000a900460070b6108aa91906138dd565b92506101000a81548167ffffffffffffffff021916908360070b67ffffffffffffffff160217905550505050565b600060028111156108ec576108eb61393d565b5b600760003373ffffffffffffffffffffffffffffffffffffffff1673ffffffffffffffffffffffffffffffffffffffff16815260200190815260200160002060008367ffffffffffffffff1667ffffffffffffffff16815260200190815260200160002060009054906101000a900460ff1660028111156109705761096f61393d565b5b146109b0576040517f08c379a00000000000000000000000000000000000000000000000000000000081526004016109a7906139c9565b60405180910390fd5b7f1382a4dd1f1609a0cd69ab74da10dc4ddfc5c47b6bc64440e3841c862075564733826040516109e1929190613a07565b60405180910390a150565b60008054906101000a900473ffffffffffffffffffffffffffffffffffffffff1673ffffffffffffffffffffffffffffffffffffffff163373ffffffffffffffffffffffffffffffffffffffff1614610a7a576040517f08c379a0000000000000000000000000000000000000000000000000000000008152600401610a7190613a7c565b60405180910390fd5b60005b82829050811015610e16576000838383818110610a9d57610a9c613a9c565b5b9050602002016020810190610ab29190612fcc565b9050600360008267ffffffffffffffff1667ffffffffffffffff16815260200190815260200160002060010160009054906101000a900460ff16610c1a5760006040518060400160405280600067ffffffffffffffff811115610b1857610b17613541565b5b604051908082528060200260200182016040528015610b4b57816020015b6060815260200190600190039081610b365790505b50815260200160011515815250905060048290806001815401808255809150506001900390600052602060002090600491828204019190066008029091909190916101000a81548167ffffffffffffffff021916908367ffffffffffffffff16021790555080600360008467ffffffffffffffff1667ffffffffffffffff1681526020019081526020016000206000820151816000019080519060200190610bf4929190612b5a565b5060208201518160010160006101000a81548160ff021916908315150217905550905050505b60006002811115610c2e57610c2d61393d565b5b600760008773ffffffffffffffffffffffffffffffffffffffff1673ffffffffffffffffffffffffffffffffffffffff16815260200190815260200160002060008367ffffffffffffffff1667ffffffffffffffff16815260200190815260200160002060009054906101000a900460ff166002811115610cb257610cb161393d565b5b03610e04576001600760008773ffffffffffffffffffffffffffffffffffffffff1673ffffffffffffffffffffffffffffffffffffffff16815260200190815260200160002060008367ffffffffffffffff1667ffffffffffffffff16815260200190815260200160002060006101000a81548160ff02191690836002811115610d3f57610d3e61393d565b5b0217905550600a60000b600160008773ffffffffffffffffffffffffffffffffffffffff1673ffffffffffffffffffffffffffffffffffffffff16815260200190815260200160002060008282829054906101000a900460070b610da391906138dd565b92506101000a81548167ffffffffffffffff021916908360070b67ffffffffffffffff1602179055507f50f0ac35fb060ec2eb1b1051209ac69e7caa16f70e8fb9f469fa3befdd5cb8ca85604051610dfb9190613acb565b60405180910390a15b5080610e0f90613ae6565b9050610a7d565b50505050565b600281565b6060600a60003373ffffffffffffffffffffffffffffffffffffffff1673ffffffffffffffffffffffffffffffffffffffff168152602001908152602001600020805480602002602001604051908101604052809291908181526020016000905b82821015610f2e578382906000526020600020018054610ea190613505565b80601f0160208091040260200160405190810160405280929190818152602001828054610ecd90613505565b8015610f1a5780601f10610eef57610100808354040283529160200191610f1a565b820191906000526020600020905b815481529060010190602001808311610efd57829003601f168201915b505050505081526020019060010190610e82565b50505050905090565b600281565b600060058383604051610f50929190613835565b9081526020016040518091039020600001601c9054906101000a900460ff16905092915050565b7fafe0d4e783559eddc1189e4f3ec5fb8c740c1585d164c301b9cb502984dd03cf33604051610fa69190613acb565b60405180910390a1565b6000600260000b600160003373ffffffffffffffffffffffffffffffffffffffff1673ffffffffffffffffffffffffffffffffffffffff16815260200190815260200160002060009054906101000a900460070b60070b1215611048576040517f08c379a000000000000000000000000000000000000000000000000000000000815260040161103f90613b7a565b60405180910390fd5b6005838360405161105a929190613835565b9081526020016040518091039020600001601c9054906101000a900460ff16156110b9576040517f08c379a00000000000000000000000000000000000000000000000000000000081526004016110b090613be6565b60405180910390fd5b600160028111156110cd576110cc61393d565b5b600760003373ffffffffffffffffffffffffffffffffffffffff1673ffffffffffffffffffffffffffffffffffffffff16815260200190815260200160002060008667ffffffffffffffff1667ffffffffffffffff16815260200190815260200160002060009054906101000a900460ff1660028111156111515761115061393d565b5b14611191576040517f08c379a000000000000000000000000000000000000000000000000000000000815260040161118890613c78565b60405180910390fd5b600360008567ffffffffffffffff1667ffffffffffffffff16815260200190815260200160002060010160009054906101000a900460ff16611208576040517f08c379a00000000000000000000000000000000000000000000000000000000081526004016111ff90613ce4565b60405180910390fd5b600060405180606001604052803373ffffffffffffffffffffffffffffffffffffffff168152602001600160070b8152602001600115158152509050600660003373ffffffffffffffffffffffffffffffffffffffff1673ffffffffffffffffffffffffffffffffffffffff1681526020019081526020016000208484909180600181540180825580915050600190039060005260206000200160009091929091929091929091925091826112be929190613726565b5080600585856040516112d2929190613835565b908152602001604051809103902060008201518160000160006101000a81548173ffffffffffffffffffffffffffffffffffffffff021916908373ffffffffffffffffffffffffffffffffffffffff16021790555060208201518160000160146101000a81548167ffffffffffffffff021916908360070b67ffffffffffffffff160217905550604082015181600001601c6101000a81548160ff021916908315150217905550905050600360008667ffffffffffffffff1667ffffffffffffffff1681526020019081526020016000206000018484909180600181540180825580915050600190039060005260206000200160009091929091929091929091925091826113e1929190613726565b50600260000b600160003373ffffffffffffffffffffffffffffffffffffffff1673ffffffffffffffffffffffffffffffffffffffff16815260200190815260200160002060008282829054906101000a900460070b611441919061387d565b92506101000a81548167ffffffffffffffff021916908360070b67ffffffffffffffff160217905550600160000b600260003373ffffffffffffffffffffffffffffffffffffffff1673ffffffffffffffffffffffffffffffffffffffff16815260200190815260200160002060008282829054906101000a900460070b6114c991906138dd565b92506101000a81548167ffffffffffffffff021916908360070b67ffffffffffffffff1602179055506002600760003373ffffffffffffffffffffffffffffffffffffffff1673ffffffffffffffffffffffffffffffffffffffff16815260200190815260200160002060008767ffffffffffffffff1667ffffffffffffffff16815260200190815260200160002060006101000a81548160ff0219169083600281111561157a5761157961393d565b5b021790555060019150509392505050565b6000600260003373ffffffffffffffffffffffffffffffffffffffff1673ffffffffffffffffffffffffffffffffffffffff16815260200190815260200160002060009054906101000a900460070b905090565b600982826040516115f1929190613835565b908152602001604051809103902060009054906101000a900460070b60070b600260003373ffffffffffffffffffffffffffffffffffffffff1673ffffffffffffffffffffffffffffffffffffffff16815260200190815260200160002060009054906101000a900460070b60070b136116a0576040517f08c379a000000000000000000000000000000000000000000000000000000000815260040161169790613b7a565b60405180910390fd5b600982826040516116b2929190613835565b908152602001604051809103902060009054906101000a900460070b600260003373ffffffffffffffffffffffffffffffffffffffff1673ffffffffffffffffffffffffffffffffffffffff16815260200190815260200160002060008282829054906101000a900460070b611728919061387d565b92506101000a81548167ffffffffffffffff021916908360070b67ffffffffffffffff160217905550600a60003373ffffffffffffffffffffffffffffffffffffffff1673ffffffffffffffffffffffffffffffffffffffff1681526020019081526020016000208282909180600181540180825580915050600190039060005260206000200160009091929091929091929091925091826117cb929190613726565b505050565b6000600160003373ffffffffffffffffffffffffffffffffffffffff1673ffffffffffffffffffffffffffffffffffffffff16815260200190815260200160002060009054906101000a900460070b905090565b60606008805480602002602001604051908101604052809291908181526020016000905b828210156118f457838290600052602060002001805461186790613505565b80601f016020809104026020016040519081016040528092919081815260200182805461189390613505565b80156118e05780601f106118b5576101008083540402835291602001916118e0565b820191906000526020600020905b8154815290600101906020018083116118c357829003601f168201915b505050505081526020019060010190611848565b50505050905090565b60008054906101000a900473ffffffffffffffffffffffffffffffffffffffff1673ffffffffffffffffffffffffffffffffffffffff163373ffffffffffffffffffffffffffffffffffffffff161461198b576040517f08c379a000000000000000000000000000000000000000000000000000000000815260040161198290613a7c565b60405180910390fd5b600360008267ffffffffffffffff1667ffffffffffffffff16815260200190815260200160002060010160009054906101000a900460ff16611af15760006040518060400160405280600067ffffffffffffffff8111156119ef576119ee613541565b5b604051908082528060200260200182016040528015611a2257816020015b6060815260200190600190039081611a0d5790505b50815260200160011515815250905060048290806001815401808255809150506001900390600052602060002090600491828204019190066008029091909190916101000a81548167ffffffffffffffff021916908367ffffffffffffffff16021790555080600360008467ffffffffffffffff1667ffffffffffffffff1681526020019081526020016000206000820151816000019080519060200190611acb929190612b5a565b5060208201518160010160006101000a81548160ff021916908315150217905550905050505b60006002811115611b0557611b0461393d565b5b600760008473ffffffffffffffffffffffffffffffffffffffff1673ffffffffffffffffffffffffffffffffffffffff16815260200190815260200160002060008367ffffffffffffffff1667ffffffffffffffff16815260200190815260200160002060009054906101000a900460ff166002811115611b8957611b8861393d565b5b03611cdb576001600760008473ffffffffffffffffffffffffffffffffffffffff1673ffffffffffffffffffffffffffffffffffffffff16815260200190815260200160002060008367ffffffffffffffff1667ffffffffffffffff16815260200190815260200160002060006101000a81548160ff02191690836002811115611c1657611c1561393d565b5b0217905550600a60000b600160008473ffffffffffffffffffffffffffffffffffffffff1673ffffffffffffffffffffffffffffffffffffffff16815260200190815260200160002060008282829054906101000a900460070b611c7a91906138dd565b92506101000a81548167ffffffffffffffff021916908360070b67ffffffffffffffff1602179055507f50f0ac35fb060ec2eb1b1051209ac69e7caa16f70e8fb9f469fa3befdd5cb8ca82604051611cd29190613acb565b60405180910390a15b5050565b60008054906101000a900473ffffffffffffffffffffffffffffffffffffffff1673ffffffffffffffffffffffffffffffffffffffff163373ffffffffffffffffffffffffffffffffffffffff1614611d6d576040517f08c379a0000000000000000000000000000000000000000000000000000000008152600401611d6490613a7c565b60405180910390fd5b60005b82829050811015611f675760006040518060400160405280600067ffffffffffffffff811115611da357611da2613541565b5b604051908082528060200260200182016040528015611dd657816020015b6060815260200190600190039081611dc15790505b50815260200160011515815250905060036000858585818110611dfc57611dfb613a9c565b5b9050602002016020810190611e119190612fcc565b67ffffffffffffffff1667ffffffffffffffff16815260200190815260200160002060010160009054906101000a900460ff16611f55576004848484818110611e5d57611e5c613a9c565b5b9050602002016020810190611e729190612fcc565b90806001815401808255809150506001900390600052602060002090600491828204019190066008029091909190916101000a81548167ffffffffffffffff021916908367ffffffffffffffff1602179055508060036000868686818110611edd57611edc613a9c565b5b9050602002016020810190611ef29190612fcc565b67ffffffffffffffff1667ffffffffffffffff1681526020019081526020016000206000820151816000019080519060200190611f30929190612b5a565b5060208201518160010160006101000a81548160ff0219169083151502179055509050505b5080611f6090613ae6565b9050611d70565b505050565b600181565b60606000805b60048054905081101561208257600060048281548110611f9a57611f99613a9c565b5b90600052602060002090600491828204019190066008029054906101000a900467ffffffffffffffff16905060016002811115611fda57611fd961393d565b5b600760003373ffffffffffffffffffffffffffffffffffffffff1673ffffffffffffffffffffffffffffffffffffffff16815260200190815260200160002060008367ffffffffffffffff1667ffffffffffffffff16815260200190815260200160002060009054906101000a900460ff16600281111561205e5761205d61393d565b5b03612070578261206d90613ae6565b92505b508061207b90613ae6565b9050611f77565b5060008167ffffffffffffffff81111561209f5761209e613541565b5b6040519080825280602002602001820160405280156120cd5781602001602082028036833780820191505090505b5090506000805b600480549050811015612215576000600482815481106120f7576120f6613a9c565b5b90600052602060002090600491828204019190066008029054906101000a900467ffffffffffffffff169050600160028111156121375761213661393d565b5b600760003373ffffffffffffffffffffffffffffffffffffffff1673ffffffffffffffffffffffffffffffffffffffff16815260200190815260200160002060008367ffffffffffffffff1667ffffffffffffffff16815260200190815260200160002060009054906101000a900460ff1660028111156121bb576121ba61393d565b5b0361220357808484815181106121d4576121d3613a9c565b5b602002602001019067ffffffffffffffff16908167ffffffffffffffff16815250508261220090613ae6565b92505b508061220e90613ae6565b90506120d4565b5081935050505090565b606060048054806020026020016040519081016040528092919081815260200182805480156122a157602002820191906000526020600020906000905b82829054906101000a900467ffffffffffffffff1667ffffffffffffffff168152602001906008019060208260070104928301926001038202915080841161225c5790505b5050505050905090565b6060600a60003373ffffffffffffffffffffffffffffffffffffffff1673ffffffffffffffffffffffffffffffffffffffff168152602001908152602001600020805480602002602001604051908101604052809291908181526020016000905b828210156123b857838290600052602060002001805461232b90613505565b80601f016020809104026020016040519081016040528092919081815260200182805461235790613505565b80156123a45780601f10612379576101008083540402835291602001916123a4565b820191906000526020600020905b81548152906001019060200180831161238757829003601f168201915b50505050508152602001906001019061230c565b50505050905090565b6123c9612bb3565b600583836040516123db929190613835565b90815260200160405180910390206040518060600160405290816000820160009054906101000a900473ffffffffffffffffffffffffffffffffffffffff1673ffffffffffffffffffffffffffffffffffffffff1673ffffffffffffffffffffffffffffffffffffffff1681526020016000820160149054906101000a900460070b60070b60070b815260200160008201601c9054906101000a900460ff161515151581525050905092915050565b612492612bef565b600360008367ffffffffffffffff1667ffffffffffffffff16815260200190815260200160002060010160009054906101000a900460ff16612509576040517f08c379a000000000000000000000000000000000000000000000000000000000815260040161250090613ce4565b60405180910390fd5b600360008367ffffffffffffffff1667ffffffffffffffff16815260200190815260200160002060405180604001604052908160008201805480602002602001604051908101604052809291908181526020016000905b8282101561260c57838290600052602060002001805461257f90613505565b80601f01602080910402602001604051908101604052809291908181526020018280546125ab90613505565b80156125f85780601f106125cd576101008083540402835291602001916125f8565b820191906000526020600020905b8154815290600101906020018083116125db57829003601f168201915b505050505081526020019060010190612560565b5050505081526020016001820160009054906101000a900460ff1615151515815250509050919050565b60008054906101000a900473ffffffffffffffffffffffffffffffffffffffff1673ffffffffffffffffffffffffffffffffffffffff163373ffffffffffffffffffffffffffffffffffffffff16146126c4576040517f08c379a00000000000000000000000000000000000000000000000000000000081526004016126bb90613a7c565b60405180910390fd5b600360008267ffffffffffffffff1667ffffffffffffffff16815260200190815260200160002060010160009054906101000a900460ff161561273c576040517f08c379a000000000000000000000000000000000000000000000000000000000815260040161273390613d50565b60405180910390fd5b60006040518060400160405280600067ffffffffffffffff81111561276457612763613541565b5b60405190808252806020026020018201604052801561279757816020015b60608152602001906001900390816127825790505b508152602001600115158152509050600360008367ffffffffffffffff1667ffffffffffffffff16815260200190815260200160002060010160009054906101000a900460ff166128a15760048290806001815401808255809150506001900390600052602060002090600491828204019190066008029091909190916101000a81548167ffffffffffffffff021916908367ffffffffffffffff16021790555080600360008467ffffffffffffffff1667ffffffffffffffff168152602001908152602001600020600082015181600001908051906020019061287c929190612b5a565b5060208201518160010160006101000a81548160ff0219169083151502179055509050505b5050565b60606000805b6004805490508110156129b6576000600482815481106128ce576128cd613a9c565b5b90600052602060002090600491828204019190066008029054906101000a900467ffffffffffffffff1690506001600281111561290e5761290d61393d565b5b600760008773ffffffffffffffffffffffffffffffffffffffff1673ffffffffffffffffffffffffffffffffffffffff16815260200190815260200160002060008367ffffffffffffffff1667ffffffffffffffff16815260200190815260200160002060009054906101000a900460ff1660028111156129925761299161393d565b5b036129a457826129a190613ae6565b92505b50806129af90613ae6565b90506128ab565b5060008167ffffffffffffffff8111156129d3576129d2613541565b5b604051908082528060200260200182016040528015612a015781602001602082028036833780820191505090505b5090506000805b600480549050811015612b4957600060048281548110612a2b57612a2a613a9c565b5b90600052602060002090600491828204019190066008029054906101000a900467ffffffffffffffff16905060016002811115612a6b57612a6a61393d565b5b600760008973ffffffffffffffffffffffffffffffffffffffff1673ffffffffffffffffffffffffffffffffffffffff16815260200190815260200160002060008367ffffffffffffffff1667ffffffffffffffff16815260200190815260200160002060009054906101000a900460ff166002811115612aef57612aee61393d565b5b03612b375780848481518110612b0857612b07613a9c565b5b602002602001019067ffffffffffffffff16908167ffffffffffffffff168152505082612b3490613ae6565b92505b5080612b4290613ae6565b9050612a08565b50819350505050919050565b600181565b828054828255906000526020600020908101928215612ba2579160200282015b82811115612ba1578251829081612b919190613d70565b5091602001919060010190612b7a565b5b509050612baf9190612c0b565b5090565b6040518060600160405280600073ffffffffffffffffffffffffffffffffffffffff168152602001600060070b81526020016000151581525090565b6040518060400160405280606081526020016000151581525090565b5b80821115612c2b5760008181612c229190612c2f565b50600101612c0c565b5090565b508054612c3b90613505565b6000825580601f10612c4d5750612c6c565b601f016020900490600052602060002090810190612c6b9190612c6f565b5b50565b5b80821115612c88576000816000905550600101612c70565b5090565b60008160000b9050919050565b612ca281612c8c565b82525050565b6000602082019050612cbd6000830184612c99565b92915050565b600081519050919050565b600082825260208201905092915050565b6000819050602082019050919050565b600081519050919050565b600082825260208201905092915050565b60005b83811015612d29578082015181840152602081019050612d0e565b60008484015250505050565b6000601f19601f8301169050919050565b6000612d5182612cef565b612d5b8185612cfa565b9350612d6b818560208601612d0b565b612d7481612d35565b840191505092915050565b6000612d8b8383612d46565b905092915050565b6000602082019050919050565b6000612dab82612cc3565b612db58185612cce565b935083602082028501612dc785612cdf565b8060005b85811015612e035784840389528151612de48582612d7f565b9450612def83612d93565b925060208a01995050600181019050612dcb565b50829750879550505050505092915050565b60006020820190508181036000830152612e2f8184612da0565b905092915050565b600080fd5b600080fd5b600080fd5b600080fd5b600080fd5b60008083601f840112612e6657612e65612e41565b5b8235905067ffffffffffffffff811115612e8357612e82612e46565b5b602083019150836001820283011115612e9f57612e9e612e4b565b5b9250929050565b60008160070b9050919050565b612ebc81612ea6565b8114612ec757600080fd5b50565b600081359050612ed981612eb3565b92915050565b600080600060408486031215612ef857612ef7612e37565b5b600084013567ffffffffffffffff811115612f1657612f15612e3c565b5b612f2286828701612e50565b93509350506020612f3586828701612eca565b9150509250925092565b60008060208385031215612f5657612f55612e37565b5b600083013567ffffffffffffffff811115612f7457612f73612e3c565b5b612f8085828601612e50565b92509250509250929050565b600067ffffffffffffffff82169050919050565b612fa981612f8c565b8114612fb457600080fd5b50565b600081359050612fc681612fa0565b92915050565b600060208284031215612fe257612fe1612e37565b5b6000612ff084828501612fb7565b91505092915050565b600073ffffffffffffffffffffffffffffffffffffffff82169050919050565b600061302482612ff9565b9050919050565b61303481613019565b811461303f57600080fd5b50565b6000813590506130518161302b565b92915050565b60008083601f84011261306d5761306c612e41565b5b8235905067ffffffffffffffff81111561308a57613089612e46565b5b6020830191508360208202830111156130a6576130a5612e4b565b5b9250929050565b6000806000604084860312156130c6576130c5612e37565b5b60006130d486828701613042565b935050602084013567ffffffffffffffff8111156130f5576130f4612e3c565b5b61310186828701613057565b92509250509250925092565b60008115159050919050565b6131228161310d565b82525050565b600060208201905061313d6000830184613119565b92915050565b60008060006040848603121561315c5761315b612e37565b5b600061316a86828701612fb7565b935050602084013567ffffffffffffffff81111561318b5761318a612e3c565b5b61319786828701612e50565b92509250509250925092565b6131ac81612ea6565b82525050565b60006020820190506131c760008301846131a3565b92915050565b600080604083850312156131e4576131e3612e37565b5b60006131f285828601613042565b925050602061320385828601612fb7565b9150509250929050565b6000806020838503121561322457613223612e37565b5b600083013567ffffffffffffffff81111561324257613241612e3c565b5b61324e85828601613057565b92509250509250929050565b600081519050919050565b600082825260208201905092915050565b6000819050602082019050919050565b61328f81612f8c565b82525050565b60006132a18383613286565b60208301905092915050565b6000602082019050919050565b60006132c58261325a565b6132cf8185613265565b93506132da83613276565b8060005b8381101561330b5781516132f28882613295565b97506132fd836132ad565b9250506001810190506132de565b5085935050505092915050565b6000602082019050818103600083015261333281846132ba565b905092915050565b61334381613019565b82525050565b61335281612ea6565b82525050565b6133618161310d565b82525050565b60608201600082015161337d600085018261333a565b5060208201516133906020850182613349565b5060408201516133a36040850182613358565b50505050565b60006060820190506133be6000830184613367565b92915050565b600082825260208201905092915050565b60006133e082612cc3565b6133ea81856133c4565b9350836020820285016133fc85612cdf565b8060005b8581101561343857848403895281516134198582612d7f565b945061342483612d93565b925060208a01995050600181019050613400565b50829750879550505050505092915050565b6000604083016000830151848203600086015261346782826133d5565b915050602083015161347c6020860182613358565b508091505092915050565b600060208201905081810360008301526134a1818461344a565b905092915050565b6000602082840312156134bf576134be612e37565b5b60006134cd84828501613042565b91505092915050565b7f4e487b7100000000000000000000000000000000000000000000000000000000600052602260045260246000fd5b6000600282049050600182168061351d57607f821691505b6020821081036135305761352f6134d6565b5b50919050565b600082905092915050565b7f4e487b7100000000000000000000000000000000000000000000000000000000600052604160045260246000fd5b60008190508160005260206000209050919050565b60006020601f8301049050919050565b600082821b905092915050565b6000600883026135d27fffffffffffffffffffffffffffffffffffffffffffffffffffffffffffffffff82613595565b6135dc8683613595565b95508019841693508086168417925050509392505050565b6000819050919050565b6000819050919050565b600061362361361e613619846135f4565b6135fe565b6135f4565b9050919050565b6000819050919050565b61363d83613608565b6136516136498261362a565b8484546135a2565b825550505050565b600090565b613666613659565b613671818484613634565b505050565b5b818110156136955761368a60008261365e565b600181019050613677565b5050565b601f8211156136da576136ab81613570565b6136b484613585565b810160208510156136c3578190505b6136d76136cf85613585565b830182613676565b50505b505050565b600082821c905092915050565b60006136fd600019846008026136df565b1980831691505092915050565b600061371683836136ec565b9150826002028217905092915050565b6137308383613536565b67ffffffffffffffff81111561374957613748613541565b5b6137538254613505565b61375e828285613699565b6000601f83116001811461378d576000841561377b578287013590505b613785858261370a565b8655506137ed565b601f19841661379b86613570565b60005b828110156137c35784890135825560018201915060208501945060208101905061379e565b868310156137e057848901356137dc601f8916826136ec565b8355505b6001600288020188555050505b50505050505050565b600081905092915050565b82818337600083830152505050565b600061381c83856137f6565b9350613829838584613801565b82840190509392505050565b6000613842828486613810565b91508190509392505050565b7f4e487b7100000000000000000000000000000000000000000000000000000000600052601160045260246000fd5b600061388882612ea6565b915061389383612ea6565b92508282039050677fffffffffffffff81137fffffffffffffffffffffffffffffffffffffffffffffffff8000000000000000821217156138d7576138d661384e565b5b92915050565b60006138e882612ea6565b91506138f383612ea6565b925082820190507fffffffffffffffffffffffffffffffffffffffffffffffff80000000000000008112677fffffffffffffff821317156139375761393661384e565b5b92915050565b7f4e487b7100000000000000000000000000000000000000000000000000000000600052602160045260246000fd5b600082825260208201905092915050565b7f50726f6475637420616c726561647920636c61696d6564000000000000000000600082015250565b60006139b360178361396c565b91506139be8261397d565b602082019050919050565b600060208201905081810360008301526139e2816139a6565b9050919050565b6139f281613019565b82525050565b613a0181612f8c565b82525050565b6000604082019050613a1c60008301856139e9565b613a2960208301846139f8565b9392505050565b7f596f7520617265206e6f7420746865206f776e65722100000000000000000000600082015250565b6000613a6660168361396c565b9150613a7182613a30565b602082019050919050565b60006020820190508181036000830152613a9581613a59565b9050919050565b7f4e487b7100000000000000000000000000000000000000000000000000000000600052603260045260246000fd5b6000602082019050613ae060008301846139e9565b92915050565b6000613af1826135f4565b91507fffffffffffffffffffffffffffffffffffffffffffffffffffffffffffffffff8203613b2357613b2261384e565b5b600182019050919050565b7f4e6f7420656e6f75676820746f6b656e73000000000000000000000000000000600082015250565b6000613b6460118361396c565b9150613b6f82613b2e565b602082019050919050565b60006020820190508181036000830152613b9381613b57565b9050919050565b7f52657669657720616c7265616479206578697374730000000000000000000000600082015250565b6000613bd060158361396c565b9150613bdb82613b9a565b602082019050919050565b60006020820190508181036000830152613bff81613bc3565b9050919050565b7f50726f64756374206e6f7420636c61696d6564206f7220616c7265616479207260008201527f6576696577656400000000000000000000000000000000000000000000000000602082015250565b6000613c6260278361396c565b9150613c6d82613c06565b604082019050919050565b60006020820190508181036000830152613c9181613c55565b9050919050565b7f50726f6475637420646f65736e27742065786973740000000000000000000000600082015250565b6000613cce60158361396c565b9150613cd982613c98565b602082019050919050565b60006020820190508181036000830152613cfd81613cc1565b9050919050565b7f50726f6475637420616c72656164792065786973747300000000000000000000600082015250565b6000613d3a60168361396c565b9150613d4582613d04565b602082019050919050565b60006020820190508181036000830152613d6981613d2d565b9050919050565b613d7982612cef565b67ffffffffffffffff811115613d9257613d91613541565b5b613d9c8254613505565b613da7828285613699565b600060209050601f831160018114613dda5760008415613dc8578287015190505b613dd2858261370a565b865550613e3a565b601f198416613de886613570565b60005b82811015613e1057848901518255600182019150602085019450602081019050613deb565b86831015613e2d5784890151613e29601f8916826136ec565b8355505b6001600288020188555050505b50505050505056fea2646970667358221220de257360f6904313cb5471449a6d11833efd0201fde4ff70d00672126e87152264736f6c63430008110033",
  "immutableReferences": {},
  "source": "// SPDX-License-Identifier: GPL-v3\n\npragma solidity >=0.7.0 <0.9;\n\ncontract Derp {\n    enum ProductState {\n        UNCLAIMED,\n        CLAIMED,\n        REVIEWED\n    }\n\n    // The product for which an user wants to make a review.\n    // This is indexed as a combination of the store ID and the product ID\n    // local to that store.\n    //\n    // Example:\n    //    store ID = 1,\n    //    local product ID = 1,\n    //    product ID = 0x100000001\n    struct Product {\n        bytes[] reviewHashes;\n        bool _initialized;\n    }\n\n    // A review made by a reviewer.\n    // The text of the review is stored on IPFS.\n    struct Review {\n        address reviewer;\n        int64 upvotes;\n        bool _initialized;\n    }\n\n    // The deployer of the contract.\n    // Used to check the authenticity of the reviews.\n    address private owner;\n\n    // Mapping for the NFTs used on the website.\n    mapping(address => int64) private reviewTokens;\n    mapping(address => int64) private profileTokens;\n\n    // Mapping from the uint64 product ID to the stored products.\n    mapping(uint64 => Product) private products;\n\n    // Array used to retrieve all the products stored on-chain.\n    uint64[] private registeredProducts;\n\n    // Mapping from the IPFS' Content Identifier of the review to the actual\n    // review.\n    mapping(bytes => Review) private reviews;\n\n    // Mapping used for retrieving the IPFS' CIDs of the reviews made by an\n    // address.\n    mapping(address => bytes[]) private reviewsFromAddress;\n\n    // Mapping of the products actually claimed by an user.\n    // Used to store on-chain the validity of the reviews.\n    mapping(address => mapping(uint64 => ProductState)) private productsClaimed;\n\n    //Array used to retrieve all the profile items stored on-chain\n    //that can be bought with user tokens\n    //This could be expanded in the future with a struct\n    bytes[] private profileItems;\n\n    //Mapping with the price of profile items\n    mapping(bytes => int64) private profileItemPrices;\n\n    //Mapping with a list of item profile purchased by a user\n    mapping(address => bytes[]) private userProfileItems;\n\n    // Events emitted when an user wants to know if some review tokens can be\n    // obtained.\n    //\n    // ReviewTokensGranted is emitted when the response is affirmative.\n    event AllReviewTokensRequested(address account);\n    event ReviewTokenRequested(address account, uint64 product);\n    event ReviewTokensGranted(address account);\n\n    // Event emitted when an user wants to refresh the products for which they\n    // can create a review.\n    event ProductRefreshRequested();\n\n    // Constants used by the contract\n\n    int8 public constant REVIEW_COST = 2;\n    int8 public constant REVIEW_REWARD = 1;\n    int8 public constant UPVOTE_COST = 2;\n    int8 public constant UPVOTE_REWARD = 1;\n    int8 public constant PER_PURCHASE_TOKENS = 10;\n\n    modifier onlyOwner() {\n        require(msg.sender == owner, \"You are not the owner!\");\n        _;\n    }\n\n    constructor() {\n        owner = msg.sender;\n    }\n\n    function requestAllReviewTokens() external {\n        emit AllReviewTokensRequested(msg.sender);\n    }\n\n    function requestReviewToken(uint64 productId) external {\n        // Check if the product was already claimed.\n        require(\n            productsClaimed[msg.sender][productId] == ProductState.UNCLAIMED,\n            \"Product already claimed\"\n        );\n\n        emit ReviewTokenRequested(msg.sender, productId);\n    }\n\n    function rewardReviewToken(address account, uint64 productId)\n        external\n        onlyOwner\n    {\n        if (!products[productId]._initialized) {\n            Product memory p = Product({\n                _initialized: true,\n                reviewHashes: new bytes[](0)\n            });\n\n            registeredProducts.push(productId);\n            products[productId] = p;\n        }\n\n        if (productsClaimed[account][productId] == ProductState.UNCLAIMED) {\n            productsClaimed[account][productId] = ProductState.CLAIMED;\n            reviewTokens[account] += PER_PURCHASE_TOKENS;\n\n            emit ReviewTokensGranted(account);\n        }\n    }\n\n    function rewardReviewTokens(address account, uint64[] calldata productIds)\n        external\n        onlyOwner\n    {\n        for (uint256 i = 0; i < productIds.length; ++i) {\n            uint64 pId = productIds[i];\n            if (!products[pId]._initialized) {\n                Product memory p = Product({\n                    _initialized: true,\n                    reviewHashes: new bytes[](0)\n                });\n\n                registeredProducts.push(pId);\n                products[pId] = p;\n            }\n\n            if (productsClaimed[account][pId] == ProductState.UNCLAIMED) {\n                productsClaimed[account][pId] = ProductState.CLAIMED;\n                reviewTokens[account] += PER_PURCHASE_TOKENS;\n\n                emit ReviewTokensGranted(account);\n            }\n        }\n    }\n\n    // Reviewer is msg.sender\n    function makeReview(uint64 productId, bytes calldata reviewHash)\n        external\n        returns (bool)\n    {\n        require(reviewTokens[msg.sender] >= REVIEW_COST, \"Not enough tokens\");\n        require(!reviews[reviewHash]._initialized, \"Review already exists\");\n\n        // Stops the user from making reviews of products they have not claimed.\n        require(\n            productsClaimed[msg.sender][productId] == ProductState.CLAIMED,\n            \"Product not claimed or already reviewed\"\n        );\n\n        // Avoids creating a review for a product that doesn't exist.\n        require(products[productId]._initialized, \"Product doesn't exist\");\n\n        Review memory r = Review({\n            reviewer: msg.sender,\n            upvotes: 1,\n            _initialized: true\n        });\n\n        reviewsFromAddress[msg.sender].push(reviewHash);\n\n        reviews[reviewHash] = r;\n        products[productId].reviewHashes.push(reviewHash);\n\n        reviewTokens[msg.sender] -= REVIEW_COST;\n        profileTokens[msg.sender] += REVIEW_REWARD;\n\n        productsClaimed[msg.sender][productId] = ProductState.REVIEWED;\n\n        return true;\n    }\n\n    function upvoteReview(bytes calldata reviewHash) external {\n        Review storage review = reviews[reviewHash];\n        require(review._initialized);\n        require(reviewTokens[msg.sender] >= UPVOTE_COST);\n\n        reviewTokens[msg.sender] -= UPVOTE_COST;\n\n        review.upvotes += 1;\n\n        profileTokens[review.reviewer] += UPVOTE_REWARD;\n    }\n\n    function addProduct(uint64 productId) external onlyOwner {\n        require(!products[productId]._initialized, \"Product already exists\");\n\n        Product memory p = Product({\n            _initialized: true,\n            reviewHashes: new bytes[](0)\n        });\n\n        if (!products[productId]._initialized) {\n            registeredProducts.push(productId);\n            products[productId] = p;\n        }\n    }\n\n    function addProducts(uint64[] calldata productIds) external onlyOwner {\n        for (uint256 i = 0; i < productIds.length; ++i) {\n            Product memory p = Product({\n                _initialized: true,\n                reviewHashes: new bytes[](0)\n            });\n\n            if (!products[productIds[i]]._initialized) {\n                registeredProducts.push(productIds[i]);\n                products[productIds[i]] = p;\n            }\n        }\n    }\n\n    function buyProfileItem(bytes calldata itemHash) external {\n        require(\n            profileTokens[msg.sender] > profileItemPrices[itemHash],\n            \"Not enough tokens\"\n        );\n\n        profileTokens[msg.sender] -= profileItemPrices[itemHash];\n        userProfileItems[msg.sender].push(itemHash);\n    }\n\n    //This function allows to register new NFTS for the profile\n    //TODO: It can be called only by the server\n    function addProfileItem(bytes calldata itemHash, int64 price) external {\n        //itemHash is the hash of the css from ipfs\n        profileItems.push(itemHash);\n        //We also update the price in the mapping\n        profileItemPrices[itemHash] = price;\n    }\n\n    // Utility functions below\n    // You should only call these functions on your local node without\n    // spending gas.\n\n    function reviewExists(bytes calldata reviewHash)\n        public\n        view\n        returns (bool)\n    {\n        return reviews[reviewHash]._initialized;\n    }\n\n    function getProduct(uint64 productId) public view returns (Product memory) {\n        require(products[productId]._initialized, \"Product doesn't exist\");\n\n        return products[productId];\n    }\n\n    function getProducts() public view returns (uint64[] memory) {\n        return registeredProducts;\n    }\n\n    function getProductsToBeReviewed() public view returns (uint64[] memory) {\n        uint256 maxProducts = 0;\n        for (uint256 i = 0; i < registeredProducts.length; ++i) {\n            uint64 pId = registeredProducts[i];\n            if (productsClaimed[msg.sender][pId] == ProductState.CLAIMED) {\n                ++maxProducts;\n            }\n        }\n\n        uint64[] memory ret = new uint64[](maxProducts);\n        uint256 retIdx = 0;\n        for (uint256 i = 0; i < registeredProducts.length; ++i) {\n            uint64 pId = registeredProducts[i];\n            if (productsClaimed[msg.sender][pId] == ProductState.CLAIMED) {\n                ret[retIdx] = pId;\n                ++retIdx;\n            }\n        }\n\n        return ret;\n    }\n\n    function getClaimedProductsFromAccount(address account)\n        public\n        view\n        returns (uint64[] memory)\n    {\n        uint256 maxProducts = 0;\n        for (uint256 i = 0; i < registeredProducts.length; ++i) {\n            uint64 pId = registeredProducts[i];\n            if (productsClaimed[account][pId] == ProductState.CLAIMED) {\n                ++maxProducts;\n            }\n        }\n\n        uint64[] memory ret = new uint64[](maxProducts);\n        uint256 retIdx = 0;\n        for (uint256 i = 0; i < registeredProducts.length; ++i) {\n            uint64 pId = registeredProducts[i];\n            if (productsClaimed[account][pId] == ProductState.CLAIMED) {\n                ret[retIdx] = pId;\n                ++retIdx;\n            }\n        }\n\n        return ret;\n    }\n\n    function getReviewTokens() public view returns (int64) {\n        return reviewTokens[msg.sender];\n    }\n\n    function getProfileTokens() public view returns (int64) {\n        return profileTokens[msg.sender];\n    }\n\n    function getReview(bytes calldata hash)\n        public\n        view\n        returns (Review memory)\n    {\n        return reviews[hash];\n    }\n\n    function getReviews() public view returns (bytes[] memory) {\n        return reviewsFromAddress[msg.sender];\n    }\n\n    function getProfileItems() public view returns (bytes[] memory) {\n        return userProfileItems[msg.sender];\n    }\n\n    function getBuyableProfileItems() public view returns (bytes[] memory) {\n        return profileItems;\n    }\n\n    function getUserProfileItems() public view returns (bytes[] memory) {\n        return userProfileItems[msg.sender];\n    }\n}\n",
  "sourcePath": "/app/contracts/Derp.sol",
  "compiler": {
    "name": "solc",
    "version": "0.8.17+commit.8df45f5f.Emscripten.clang"
  },
  "schemaVersion": "3.4.11",
  "updatedAt": "2023-02-01T15:16:18.437Z",
  "networkType": "ethereum",
  "devdoc": {
    "kind": "dev",
    "methods": {},
    "version": 1
  },
  "userdoc": {
    "kind": "user",
    "methods": {},
    "version": 1
  }
}