{
  "contractName": "Derp",
  "abi": [
    {
      "inputs": [],
      "stateMutability": "nonpayable",
      "type": "constructor"
    },
    {
      "inputs": [],
      "name": "PER_PURCHASE_TOKENS",
      "outputs": [
        {
          "internalType": "int8",
          "name": "",
          "type": "int8"
        }
      ],
      "stateMutability": "view",
      "type": "function",
      "constant": true
    },
    {
      "inputs": [],
      "name": "REVIEW_COST",
      "outputs": [
        {
          "internalType": "int8",
          "name": "",
          "type": "int8"
        }
      ],
      "stateMutability": "view",
      "type": "function",
      "constant": true
    },
    {
      "inputs": [],
      "name": "REVIEW_REWARD",
      "outputs": [
        {
          "internalType": "int8",
          "name": "",
          "type": "int8"
        }
      ],
      "stateMutability": "view",
      "type": "function",
      "constant": true
    },
    {
      "inputs": [],
      "name": "UPVOTE_COST",
      "outputs": [
        {
          "internalType": "int8",
          "name": "",
          "type": "int8"
        }
      ],
      "stateMutability": "view",
      "type": "function",
      "constant": true
    },
    {
      "inputs": [],
      "name": "UPVOTE_REWARD",
      "outputs": [
        {
          "internalType": "int8",
          "name": "",
          "type": "int8"
        }
      ],
      "stateMutability": "view",
      "type": "function",
      "constant": true
    },
    {
      "inputs": [
        {
          "internalType": "address",
          "name": "account",
          "type": "address"
        },
        {
          "internalType": "uint64",
          "name": "productId",
          "type": "uint64"
        }
      ],
      "name": "obtainReviewToken",
      "outputs": [],
      "stateMutability": "nonpayable",
      "type": "function"
    },
    {
      "inputs": [
        {
          "internalType": "uint64",
          "name": "productId",
          "type": "uint64"
        },
        {
          "internalType": "bytes",
          "name": "reviewHash",
          "type": "bytes"
        }
      ],
      "name": "makeReview",
      "outputs": [
        {
          "internalType": "bool",
          "name": "",
          "type": "bool"
        }
      ],
      "stateMutability": "nonpayable",
      "type": "function"
    },
    {
      "inputs": [
        {
          "internalType": "bytes",
          "name": "reviewHash",
          "type": "bytes"
        }
      ],
      "name": "upvoteReview",
      "outputs": [],
      "stateMutability": "nonpayable",
      "type": "function"
    },
    {
      "inputs": [],
      "name": "refreshProducts",
      "outputs": [],
      "stateMutability": "nonpayable",
      "type": "function"
    },
    {
      "inputs": [
        {
          "internalType": "bytes",
          "name": "reviewHash",
          "type": "bytes"
        }
      ],
      "name": "reviewExists",
      "outputs": [
        {
          "internalType": "bool",
          "name": "",
          "type": "bool"
        }
      ],
      "stateMutability": "view",
      "type": "function",
      "constant": true
    },
    {
      "inputs": [
        {
          "internalType": "uint64",
          "name": "productId",
          "type": "uint64"
        }
      ],
      "name": "getProduct",
      "outputs": [
        {
          "components": [
            {
              "internalType": "bytes[]",
              "name": "reviewHashes",
              "type": "bytes[]"
            },
            {
              "internalType": "bool",
              "name": "_initialized",
              "type": "bool"
            }
          ],
          "internalType": "struct Derp.Product",
          "name": "",
          "type": "tuple"
        }
      ],
      "stateMutability": "view",
      "type": "function",
      "constant": true
    },
    {
      "inputs": [],
      "name": "getReviewTokens",
      "outputs": [
        {
          "internalType": "int64",
          "name": "",
          "type": "int64"
        }
      ],
      "stateMutability": "view",
      "type": "function",
      "constant": true
    },
    {
      "inputs": [],
      "name": "getProfileTokens",
      "outputs": [
        {
          "internalType": "int64",
          "name": "",
          "type": "int64"
        }
      ],
      "stateMutability": "view",
      "type": "function",
      "constant": true
    }
  ],
  "bytecode": "0x608060405234801561001057600080fd5b5033600560006101000a81548173ffffffffffffffffffffffffffffffffffffffff021916908373ffffffffffffffffffffffffffffffffffffffff160217905550611867806100616000396000f3fe608060405234801561001057600080fd5b50600436106100cf5760003560e01c80636c4abdb11161008c57806396593c9e1161006657806396593c9e146101ee578063b100488f1461020c578063e904394c1461022a578063fa95bbbf1461025a576100cf565b80636c4abdb1146101705780636d1febb1146101a05780637c89f5b3146101d0576100cf565b80630bfa59c2146100d457806326551e78146100f2578063396c62261461010e5780635edda63b1461012a5780635fe86bfd1461014857806368cf232d14610152575b600080fd5b6100dc610278565b6040516100e99190610e89565b60405180910390f35b61010c60048036038101906101079190610f4c565b61027d565b005b61012860048036038101906101239190610ff1565b610413565b005b610132610635565b60405161013f9190610e89565b60405180910390f35b61015061063a565b005b61015a61073b565b6040516101679190610e89565b60405180910390f35b61018a60048036038101906101859190610ff1565b610740565b6040516101979190611059565b60405180910390f35b6101ba60048036038101906101b59190611074565b61077b565b6040516101c79190611059565b60405180910390f35b6101d8610b4f565b6040516101e591906110f0565b60405180910390f35b6101f6610ba3565b60405161020391906110f0565b60405180910390f35b610214610bf7565b6040516102219190610e89565b60405180910390f35b610244600480360381019061023f919061110b565b610bfc565b60405161025191906112d6565b60405180910390f35b610262610d72565b60405161026f9190610e89565b60405180910390f35b600a81565b600a60008373ffffffffffffffffffffffffffffffffffffffff1673ffffffffffffffffffffffffffffffffffffffff16815260200190815260200160002060008267ffffffffffffffff1667ffffffffffffffff16815260200190815260200160002060009054906101000a900460ff16156102f957600080fd5b6000600190508061030957600080fd5b6001600a60008573ffffffffffffffffffffffffffffffffffffffff1673ffffffffffffffffffffffffffffffffffffffff16815260200190815260200160002060008467ffffffffffffffff1667ffffffffffffffff16815260200190815260200160002060006101000a81548160ff021916908315150217905550600a60000b600660008573ffffffffffffffffffffffffffffffffffffffff1673ffffffffffffffffffffffffffffffffffffffff16815260200190815260200160002060008282829054906101000a900460070b6103e59190611327565b92506101000a81548167ffffffffffffffff021916908360070b67ffffffffffffffff160217905550505050565b6000600983836040516104279291906113c6565b9081526020016040518091039020905080600001601c9054906101000a900460ff1661045257600080fd5b600260000b600660003373ffffffffffffffffffffffffffffffffffffffff1673ffffffffffffffffffffffffffffffffffffffff16815260200190815260200160002060009054906101000a900460070b60070b12156104b257600080fd5b600260000b600660003373ffffffffffffffffffffffffffffffffffffffff1673ffffffffffffffffffffffffffffffffffffffff16815260200190815260200160002060008282829054906101000a900460070b61051191906113df565b92506101000a81548167ffffffffffffffff021916908360070b67ffffffffffffffff16021790555060018160000160148282829054906101000a900460070b61055b9190611327565b92506101000a81548167ffffffffffffffff021916908360070b67ffffffffffffffff160217905550600160000b600760008360000160009054906101000a900473ffffffffffffffffffffffffffffffffffffffff1673ffffffffffffffffffffffffffffffffffffffff1673ffffffffffffffffffffffffffffffffffffffff16815260200190815260200160002060008282829054906101000a900460070b6106079190611327565b92506101000a81548167ffffffffffffffff021916908360070b67ffffffffffffffff160217905550505050565b600281565b60006001905060006001905060006040518060400160405280600067ffffffffffffffff81111561066e5761066d61143f565b5b6040519080825280602002602001820160405280156106a157816020015b606081526020019060019003908161068c5790505b50815260200160011515815250905060008263ffffffff1660208563ffffffff16901b63ffffffff1617905081600860008367ffffffffffffffff1667ffffffffffffffff1681526020019081526020016000206000820151816000019080519060200190610711929190610d77565b5060208201518160010160006101000a81548160ff02191690831515021790555090505050505050565b600281565b6000600983836040516107549291906113c6565b9081526020016040518091039020600001601c9054906101000a900460ff16905092915050565b6000600260000b600660003373ffffffffffffffffffffffffffffffffffffffff1673ffffffffffffffffffffffffffffffffffffffff16815260200190815260200160002060009054906101000a900460070b60070b12156107dd57600080fd5b600983836040516107ef9291906113c6565b9081526020016040518091039020600001601c9054906101000a900460ff161561081857600080fd5b600a60003373ffffffffffffffffffffffffffffffffffffffff1673ffffffffffffffffffffffffffffffffffffffff16815260200190815260200160002060008567ffffffffffffffff1667ffffffffffffffff16815260200190815260200160002060009054906101000a900460ff1661089357600080fd5b600860008567ffffffffffffffff1667ffffffffffffffff16815260200190815260200160002060010160009054906101000a900460ff166108d457600080fd5b600060405180606001604052803373ffffffffffffffffffffffffffffffffffffffff168152602001600160070b815260200160011515815250905080600985856040516109239291906113c6565b908152602001604051809103902060008201518160000160006101000a81548173ffffffffffffffffffffffffffffffffffffffff021916908373ffffffffffffffffffffffffffffffffffffffff16021790555060208201518160000160146101000a81548167ffffffffffffffff021916908360070b67ffffffffffffffff160217905550604082015181600001601c6101000a81548160ff021916908315150217905550905050600860008667ffffffffffffffff1667ffffffffffffffff168152602001908152602001600020600001848490918060018154018082558091505060019003906000526020600020016000909192909192909192909192509182610a3292919061168f565b50600260000b600660003373ffffffffffffffffffffffffffffffffffffffff1673ffffffffffffffffffffffffffffffffffffffff16815260200190815260200160002060008282829054906101000a900460070b610a9291906113df565b92506101000a81548167ffffffffffffffff021916908360070b67ffffffffffffffff160217905550600160000b600760003373ffffffffffffffffffffffffffffffffffffffff1673ffffffffffffffffffffffffffffffffffffffff16815260200190815260200160002060008282829054906101000a900460070b610b1a9190611327565b92506101000a81548167ffffffffffffffff021916908360070b67ffffffffffffffff16021790555060019150509392505050565b6000600760003373ffffffffffffffffffffffffffffffffffffffff1673ffffffffffffffffffffffffffffffffffffffff16815260200190815260200160002060009054906101000a900460070b905090565b6000600660003373ffffffffffffffffffffffffffffffffffffffff1673ffffffffffffffffffffffffffffffffffffffff16815260200190815260200160002060009054906101000a900460070b905090565b600181565b610c04610dd0565b600860008367ffffffffffffffff1667ffffffffffffffff16815260200190815260200160002060010160009054906101000a900460ff16610c4557600080fd5b600860008367ffffffffffffffff1667ffffffffffffffff16815260200190815260200160002060405180604001604052908160008201805480602002602001604051908101604052809291908181526020016000905b82821015610d48578382906000526020600020018054610cbb906114a8565b80601f0160208091040260200160405190810160405280929190818152602001828054610ce7906114a8565b8015610d345780601f10610d0957610100808354040283529160200191610d34565b820191906000526020600020905b815481529060010190602001808311610d1757829003601f168201915b505050505081526020019060010190610c9c565b5050505081526020016001820160009054906101000a900460ff1615151515815250509050919050565b600181565b828054828255906000526020600020908101928215610dbf579160200282015b82811115610dbe578251829081610dae919061175f565b5091602001919060010190610d97565b5b509050610dcc9190610dec565b5090565b6040518060400160405280606081526020016000151581525090565b5b80821115610e0c5760008181610e039190610e10565b50600101610ded565b5090565b508054610e1c906114a8565b6000825580601f10610e2e5750610e4d565b601f016020900490600052602060002090810190610e4c9190610e50565b5b50565b5b80821115610e69576000816000905550600101610e51565b5090565b60008160000b9050919050565b610e8381610e6d565b82525050565b6000602082019050610e9e6000830184610e7a565b92915050565b600080fd5b600080fd5b600073ffffffffffffffffffffffffffffffffffffffff82169050919050565b6000610ed982610eae565b9050919050565b610ee981610ece565b8114610ef457600080fd5b50565b600081359050610f0681610ee0565b92915050565b600067ffffffffffffffff82169050919050565b610f2981610f0c565b8114610f3457600080fd5b50565b600081359050610f4681610f20565b92915050565b60008060408385031215610f6357610f62610ea4565b5b6000610f7185828601610ef7565b9250506020610f8285828601610f37565b9150509250929050565b600080fd5b600080fd5b600080fd5b60008083601f840112610fb157610fb0610f8c565b5b8235905067ffffffffffffffff811115610fce57610fcd610f91565b5b602083019150836001820283011115610fea57610fe9610f96565b5b9250929050565b6000806020838503121561100857611007610ea4565b5b600083013567ffffffffffffffff81111561102657611025610ea9565b5b61103285828601610f9b565b92509250509250929050565b60008115159050919050565b6110538161103e565b82525050565b600060208201905061106e600083018461104a565b92915050565b60008060006040848603121561108d5761108c610ea4565b5b600061109b86828701610f37565b935050602084013567ffffffffffffffff8111156110bc576110bb610ea9565b5b6110c886828701610f9b565b92509250509250925092565b60008160070b9050919050565b6110ea816110d4565b82525050565b600060208201905061110560008301846110e1565b92915050565b60006020828403121561112157611120610ea4565b5b600061112f84828501610f37565b91505092915050565b600081519050919050565b600082825260208201905092915050565b6000819050602082019050919050565b600081519050919050565b600082825260208201905092915050565b60005b8381101561119e578082015181840152602081019050611183565b60008484015250505050565b6000601f19601f8301169050919050565b60006111c682611164565b6111d0818561116f565b93506111e0818560208601611180565b6111e9816111aa565b840191505092915050565b600061120083836111bb565b905092915050565b6000602082019050919050565b600061122082611138565b61122a8185611143565b93508360208202850161123c85611154565b8060005b85811015611278578484038952815161125985826111f4565b945061126483611208565b925060208a01995050600181019050611240565b50829750879550505050505092915050565b6112938161103e565b82525050565b600060408301600083015184820360008601526112b68282611215565b91505060208301516112cb602086018261128a565b508091505092915050565b600060208201905081810360008301526112f08184611299565b905092915050565b7f4e487b7100000000000000000000000000000000000000000000000000000000600052601160045260246000fd5b6000611332826110d4565b915061133d836110d4565b925082820190507fffffffffffffffffffffffffffffffffffffffffffffffff80000000000000008112677fffffffffffffff82131715611381576113806112f8565b5b92915050565b600081905092915050565b82818337600083830152505050565b60006113ad8385611387565b93506113ba838584611392565b82840190509392505050565b60006113d38284866113a1565b91508190509392505050565b60006113ea826110d4565b91506113f5836110d4565b92508282039050677fffffffffffffff81137fffffffffffffffffffffffffffffffffffffffffffffffff800000000000000082121715611439576114386112f8565b5b92915050565b7f4e487b7100000000000000000000000000000000000000000000000000000000600052604160045260246000fd5b600082905092915050565b7f4e487b7100000000000000000000000000000000000000000000000000000000600052602260045260246000fd5b600060028204905060018216806114c057607f821691505b6020821081036114d3576114d2611479565b5b50919050565b60008190508160005260206000209050919050565b60006020601f8301049050919050565b600082821b905092915050565b60006008830261153b7fffffffffffffffffffffffffffffffffffffffffffffffffffffffffffffffff826114fe565b61154586836114fe565b95508019841693508086168417925050509392505050565b6000819050919050565b6000819050919050565b600061158c6115876115828461155d565b611567565b61155d565b9050919050565b6000819050919050565b6115a683611571565b6115ba6115b282611593565b84845461150b565b825550505050565b600090565b6115cf6115c2565b6115da81848461159d565b505050565b5b818110156115fe576115f36000826115c7565b6001810190506115e0565b5050565b601f82111561164357611614816114d9565b61161d846114ee565b8101602085101561162c578190505b611640611638856114ee565b8301826115df565b50505b505050565b600082821c905092915050565b600061166660001984600802611648565b1980831691505092915050565b600061167f8383611655565b9150826002028217905092915050565b611699838361146e565b67ffffffffffffffff8111156116b2576116b161143f565b5b6116bc82546114a8565b6116c7828285611602565b6000601f8311600181146116f657600084156116e4578287013590505b6116ee8582611673565b865550611756565b601f198416611704866114d9565b60005b8281101561172c57848901358255600182019150602085019450602081019050611707565b868310156117495784890135611745601f891682611655565b8355505b6001600288020188555050505b50505050505050565b61176882611164565b67ffffffffffffffff8111156117815761178061143f565b5b61178b82546114a8565b611796828285611602565b600060209050601f8311600181146117c957600084156117b7578287015190505b6117c18582611673565b865550611829565b601f1984166117d7866114d9565b60005b828110156117ff578489015182556001820191506020850194506020810190506117da565b8683101561181c5784890151611818601f891682611655565b8355505b6001600288020188555050505b50505050505056fea2646970667358221220be923a145c7d52c218f15d8a8806fac40ded8960a3b54a55753a907b4f1560e364736f6c63430008110033",
  "immutableReferences": {},
  "source": "// SPDX-License-Identifier: GPL-v3\n\npragma solidity >=0.7.0 <0.9;\n\nimport \"../provable/provableAPI.sol\";\n\ncontract Derp is usingProvable {\n    struct Product {\n        bytes[] reviewHashes;\n        bool _initialized;\n    }\n\n    struct Review {\n        address reviewer;\n        int64 upvotes;\n        bool _initialized;\n    }\n\n    address private owner;\n\n    mapping(address => int64) private reviewTokens;\n    mapping(address => int64) private profileTokens;\n\n    mapping(uint64 => Product) private products;\n    mapping(bytes => Review) private reviews;\n    mapping(address => mapping(uint64 => bool)) private productsClaimed;\n\n    // newID = products.push({});\n\n    int8 public constant REVIEW_COST = 2;\n    int8 public constant REVIEW_REWARD = 1;\n    int8 public constant UPVOTE_COST = 2;\n    int8 public constant UPVOTE_REWARD = 1;\n    int8 public constant PER_PURCHASE_TOKENS = 10;\n\n    constructor() {\n        owner = msg.sender;\n    }\n\n    /*\n    function obtainAllReviewTokens(address account) public {\n        require(!productsClaimed[account][productId]);\n\n        // store_id\n\n        // Oracle?\n        bool boughtItem = true;\n        require(boughtItem);\n\n        // [local_product_id]\n\n        productsClaimed[account][productId] = true;\n        reviewTokens[account] += PER_PURCHASE_TOKENS;\n    }\n    */\n\n    function obtainReviewToken(address account, uint64 productId) public {\n        require(!productsClaimed[account][productId]);\n\n        // Oracle?\n        bool boughtItem = true;\n        require(boughtItem);\n\n        productsClaimed[account][productId] = true;\n        reviewTokens[account] += PER_PURCHASE_TOKENS;\n    }\n\n    // Reviewer is msg.sender\n    function makeReview(uint64 productId, bytes calldata reviewHash)\n        public\n        returns (bool)\n    {\n        require(reviewTokens[msg.sender] >= REVIEW_COST);\n        require(!reviews[reviewHash]._initialized);\n        require(productsClaimed[msg.sender][productId]);\n\n        // Avoids creating a review for a product that doesn't exist.\n        require(products[productId]._initialized);\n\n        Review memory r = Review({\n            reviewer: msg.sender,\n            upvotes: 1,\n            _initialized: true\n        });\n\n        reviews[reviewHash] = r;\n        products[productId].reviewHashes.push(reviewHash);\n\n        reviewTokens[msg.sender] -= REVIEW_COST;\n        profileTokens[msg.sender] += REVIEW_REWARD;\n\n        return true;\n    }\n\n    function upvoteReview(bytes calldata reviewHash) public {\n        Review storage review = reviews[reviewHash];\n        require(review._initialized);\n        require(reviewTokens[msg.sender] >= UPVOTE_COST);\n\n        reviewTokens[msg.sender] -= UPVOTE_COST;\n\n        review.upvotes += 1;\n\n        profileTokens[review.reviewer] += UPVOTE_REWARD;\n    }\n\n    function refreshProducts() public {\n        // Oracle\n\n        uint32 storeId = 1;\n        uint32 localProductId = 1;\n\n        Product memory p = Product({_initialized: true, reviewHashes: new bytes[](0)});\n\n        uint64 productId = uint64(storeId << 32) | uint64(localProductId);\n\n        products[productId] = p;\n    }\n\n    // Utility functions below\n    // You should only call these functions on your local node without\n    // spending gas.\n\n    function reviewExists(bytes calldata reviewHash)\n        public\n        view\n        returns (bool)\n    {\n        return reviews[reviewHash]._initialized;\n    }\n\n    function getProduct(uint64 productId)\n        public\n        view\n        returns (Product memory)\n    {\n        require(products[productId]._initialized);\n\n        return products[productId];\n    }\n\n    function getReviewTokens() public view returns (int64) {\n        return reviewTokens[msg.sender];\n    }\n\n    function getProfileTokens() public view returns (int64) {\n        return profileTokens[msg.sender];\n    }\n}\n",
  "sourcePath": "/app/contracts/Derp.sol",
  "compiler": {
    "name": "solc",
    "version": "0.8.17+commit.8df45f5f.Emscripten.clang"
  },
  "schemaVersion": "3.4.11",
  "updatedAt": "2023-01-06T16:51:05.854Z",
  "networkType": "ethereum",
  "devdoc": {
    "kind": "dev",
    "methods": {},
    "version": 1
  },
  "userdoc": {
    "kind": "user",
    "methods": {},
    "version": 1
  }
}