{
  "contractName": "Derp",
  "abi": [
    {
      "inputs": [],
      "stateMutability": "nonpayable",
      "type": "constructor"
    },
    {
      "inputs": [],
      "name": "PER_PURCHASE_TOKENS",
      "outputs": [
        {
          "internalType": "int8",
          "name": "",
          "type": "int8"
        }
      ],
      "stateMutability": "view",
      "type": "function",
      "constant": true
    },
    {
      "inputs": [],
      "name": "REVIEW_COST",
      "outputs": [
        {
          "internalType": "int8",
          "name": "",
          "type": "int8"
        }
      ],
      "stateMutability": "view",
      "type": "function",
      "constant": true
    },
    {
      "inputs": [],
      "name": "REVIEW_REWARD",
      "outputs": [
        {
          "internalType": "int8",
          "name": "",
          "type": "int8"
        }
      ],
      "stateMutability": "view",
      "type": "function",
      "constant": true
    },
    {
      "inputs": [],
      "name": "UPVOTE_COST",
      "outputs": [
        {
          "internalType": "int8",
          "name": "",
          "type": "int8"
        }
      ],
      "stateMutability": "view",
      "type": "function",
      "constant": true
    },
    {
      "inputs": [],
      "name": "UPVOTE_REWARD",
      "outputs": [
        {
          "internalType": "int8",
          "name": "",
          "type": "int8"
        }
      ],
      "stateMutability": "view",
      "type": "function",
      "constant": true
    },
    {
      "inputs": [
        {
          "internalType": "address",
          "name": "account",
          "type": "address"
        },
        {
          "internalType": "uint64",
          "name": "productId",
          "type": "uint64"
        }
      ],
      "name": "obtainReviewToken",
      "outputs": [],
      "stateMutability": "nonpayable",
      "type": "function"
    },
    {
      "inputs": [
        {
          "internalType": "uint64",
          "name": "productId",
          "type": "uint64"
        },
        {
          "internalType": "bytes",
          "name": "reviewHash",
          "type": "bytes"
        }
      ],
      "name": "makeReview",
      "outputs": [
        {
          "internalType": "bool",
          "name": "",
          "type": "bool"
        }
      ],
      "stateMutability": "nonpayable",
      "type": "function"
    },
    {
      "inputs": [
        {
          "internalType": "bytes",
          "name": "reviewHash",
          "type": "bytes"
        }
      ],
      "name": "upvoteReview",
      "outputs": [],
      "stateMutability": "nonpayable",
      "type": "function"
    },
    {
      "inputs": [],
      "name": "refreshProducts",
      "outputs": [],
      "stateMutability": "nonpayable",
      "type": "function"
    },
    {
      "inputs": [
        {
          "internalType": "bytes",
          "name": "reviewHash",
          "type": "bytes"
        }
      ],
      "name": "reviewExists",
      "outputs": [
        {
          "internalType": "bool",
          "name": "",
          "type": "bool"
        }
      ],
      "stateMutability": "view",
      "type": "function",
      "constant": true
    },
    {
      "inputs": [
        {
          "internalType": "uint64",
          "name": "productId",
          "type": "uint64"
        }
      ],
      "name": "getProduct",
      "outputs": [
        {
          "components": [
            {
              "internalType": "bytes[]",
              "name": "reviewHashes",
              "type": "bytes[]"
            },
            {
              "internalType": "bool",
              "name": "_initialized",
              "type": "bool"
            }
          ],
          "internalType": "struct Derp.Product",
          "name": "",
          "type": "tuple"
        }
      ],
      "stateMutability": "view",
      "type": "function",
      "constant": true
    },
    {
      "inputs": [],
      "name": "getReviewTokens",
      "outputs": [
        {
          "internalType": "int64",
          "name": "",
          "type": "int64"
        }
      ],
      "stateMutability": "view",
      "type": "function",
      "constant": true
    },
    {
      "inputs": [],
      "name": "getProfileTokens",
      "outputs": [
        {
          "internalType": "int64",
          "name": "",
          "type": "int64"
        }
      ],
      "stateMutability": "view",
      "type": "function",
      "constant": true
    }
  ],
  "bytecode": "0x608060405234801561001057600080fd5b5033600560006101000a81548173ffffffffffffffffffffffffffffffffffffffff021916908373ffffffffffffffffffffffffffffffffffffffff160217905550611bcb806100616000396000f3fe608060405234801561001057600080fd5b50600436106100cf5760003560e01c80636c4abdb11161008c57806396593c9e1161006657806396593c9e146101ee578063b100488f1461020c578063e904394c1461022a578063fa95bbbf1461025a576100cf565b80636c4abdb1146101705780636d1febb1146101a05780637c89f5b3146101d0576100cf565b80630bfa59c2146100d457806326551e78146100f2578063396c62261461010e5780635edda63b1461012a5780635fe86bfd1461014857806368cf232d14610152575b600080fd5b6100dc610278565b6040516100e99190610fc0565b60405180910390f35b61010c60048036038101906101079190611083565b61027d565b005b61012860048036038101906101239190611128565b610449565b005b61013261066b565b60405161013f9190610fc0565b60405180910390f35b610150610670565b005b61015a610764565b6040516101679190610fc0565b60405180910390f35b61018a60048036038101906101859190611128565b610769565b6040516101979190611190565b60405180910390f35b6101ba60048036038101906101b591906111ab565b6107a4565b6040516101c79190611190565b60405180910390f35b6101d8610c50565b6040516101e59190611227565b60405180910390f35b6101f6610ca4565b6040516102039190611227565b60405180910390f35b610214610cf8565b6040516102219190610fc0565b60405180910390f35b610244600480360381019061023f9190611242565b610cfd565b604051610251919061140d565b60405180910390f35b610262610ea9565b60405161026f9190610fc0565b60405180910390f35b600a81565b600a60008373ffffffffffffffffffffffffffffffffffffffff1673ffffffffffffffffffffffffffffffffffffffff16815260200190815260200160002060008267ffffffffffffffff1667ffffffffffffffff16815260200190815260200160002060009054906101000a900460ff161561032f576040517f08c379a00000000000000000000000000000000000000000000000000000000081526004016103269061148c565b60405180910390fd5b6000600190508061033f57600080fd5b6001600a60008573ffffffffffffffffffffffffffffffffffffffff1673ffffffffffffffffffffffffffffffffffffffff16815260200190815260200160002060008467ffffffffffffffff1667ffffffffffffffff16815260200190815260200160002060006101000a81548160ff021916908315150217905550600a60000b600660008573ffffffffffffffffffffffffffffffffffffffff1673ffffffffffffffffffffffffffffffffffffffff16815260200190815260200160002060008282829054906101000a900460070b61041b91906114db565b92506101000a81548167ffffffffffffffff021916908360070b67ffffffffffffffff160217905550505050565b60006009838360405161045d92919061157a565b9081526020016040518091039020905080600001601c9054906101000a900460ff1661048857600080fd5b600260000b600660003373ffffffffffffffffffffffffffffffffffffffff1673ffffffffffffffffffffffffffffffffffffffff16815260200190815260200160002060009054906101000a900460070b60070b12156104e857600080fd5b600260000b600660003373ffffffffffffffffffffffffffffffffffffffff1673ffffffffffffffffffffffffffffffffffffffff16815260200190815260200160002060008282829054906101000a900460070b6105479190611593565b92506101000a81548167ffffffffffffffff021916908360070b67ffffffffffffffff16021790555060018160000160148282829054906101000a900460070b61059191906114db565b92506101000a81548167ffffffffffffffff021916908360070b67ffffffffffffffff160217905550600160000b600760008360000160009054906101000a900473ffffffffffffffffffffffffffffffffffffffff1673ffffffffffffffffffffffffffffffffffffffff1673ffffffffffffffffffffffffffffffffffffffff16815260200190815260200160002060008282829054906101000a900460070b61063d91906114db565b92506101000a81548167ffffffffffffffff021916908360070b67ffffffffffffffff160217905550505050565b600281565b6000806001905060006040518060400160405280600067ffffffffffffffff81111561069f5761069e6115f3565b5b6040519080825280602002602001820160405280156106d257816020015b60608152602001906001900390816106bd5790505b50815260200160011515815250905060008260208567ffffffffffffffff16901b17905081600860008367ffffffffffffffff1667ffffffffffffffff168152602001908152602001600020600082015181600001908051906020019061073a929190610eae565b5060208201518160010160006101000a81548160ff02191690831515021790555090505050505050565b600281565b60006009838360405161077d92919061157a565b9081526020016040518091039020600001601c9054906101000a900460ff16905092915050565b6000600260000b600660003373ffffffffffffffffffffffffffffffffffffffff1673ffffffffffffffffffffffffffffffffffffffff16815260200190815260200160002060009054906101000a900460070b60070b121561083c576040517f08c379a00000000000000000000000000000000000000000000000000000000081526004016108339061166e565b60405180910390fd5b6009838360405161084e92919061157a565b9081526020016040518091039020600001601c9054906101000a900460ff16156108ad576040517f08c379a00000000000000000000000000000000000000000000000000000000081526004016108a4906116da565b60405180910390fd5b600a60003373ffffffffffffffffffffffffffffffffffffffff1673ffffffffffffffffffffffffffffffffffffffff16815260200190815260200160002060008567ffffffffffffffff1667ffffffffffffffff16815260200190815260200160002060009054906101000a900460ff1661095e576040517f08c379a000000000000000000000000000000000000000000000000000000000815260040161095590611746565b60405180910390fd5b600860008567ffffffffffffffff1667ffffffffffffffff16815260200190815260200160002060010160009054906101000a900460ff166109d5576040517f08c379a00000000000000000000000000000000000000000000000000000000081526004016109cc906117b2565b60405180910390fd5b600060405180606001604052803373ffffffffffffffffffffffffffffffffffffffff168152602001600160070b81526020016001151581525090508060098585604051610a2492919061157a565b908152602001604051809103902060008201518160000160006101000a81548173ffffffffffffffffffffffffffffffffffffffff021916908373ffffffffffffffffffffffffffffffffffffffff16021790555060208201518160000160146101000a81548167ffffffffffffffff021916908360070b67ffffffffffffffff160217905550604082015181600001601c6101000a81548160ff021916908315150217905550905050600860008667ffffffffffffffff1667ffffffffffffffff168152602001908152602001600020600001848490918060018154018082558091505060019003906000526020600020016000909192909192909192909192509182610b339291906119f3565b50600260000b600660003373ffffffffffffffffffffffffffffffffffffffff1673ffffffffffffffffffffffffffffffffffffffff16815260200190815260200160002060008282829054906101000a900460070b610b939190611593565b92506101000a81548167ffffffffffffffff021916908360070b67ffffffffffffffff160217905550600160000b600760003373ffffffffffffffffffffffffffffffffffffffff1673ffffffffffffffffffffffffffffffffffffffff16815260200190815260200160002060008282829054906101000a900460070b610c1b91906114db565b92506101000a81548167ffffffffffffffff021916908360070b67ffffffffffffffff16021790555060019150509392505050565b6000600760003373ffffffffffffffffffffffffffffffffffffffff1673ffffffffffffffffffffffffffffffffffffffff16815260200190815260200160002060009054906101000a900460070b905090565b6000600660003373ffffffffffffffffffffffffffffffffffffffff1673ffffffffffffffffffffffffffffffffffffffff16815260200190815260200160002060009054906101000a900460070b905090565b600181565b610d05610f07565b600860008367ffffffffffffffff1667ffffffffffffffff16815260200190815260200160002060010160009054906101000a900460ff16610d7c576040517f08c379a0000000000000000000000000000000000000000000000000000000008152600401610d73906117b2565b60405180910390fd5b600860008367ffffffffffffffff1667ffffffffffffffff16815260200190815260200160002060405180604001604052908160008201805480602002602001604051908101604052809291908181526020016000905b82821015610e7f578382906000526020600020018054610df29061180c565b80601f0160208091040260200160405190810160405280929190818152602001828054610e1e9061180c565b8015610e6b5780601f10610e4057610100808354040283529160200191610e6b565b820191906000526020600020905b815481529060010190602001808311610e4e57829003601f168201915b505050505081526020019060010190610dd3565b5050505081526020016001820160009054906101000a900460ff1615151515815250509050919050565b600181565b828054828255906000526020600020908101928215610ef6579160200282015b82811115610ef5578251829081610ee59190611ac3565b5091602001919060010190610ece565b5b509050610f039190610f23565b5090565b6040518060400160405280606081526020016000151581525090565b5b80821115610f435760008181610f3a9190610f47565b50600101610f24565b5090565b508054610f539061180c565b6000825580601f10610f655750610f84565b601f016020900490600052602060002090810190610f839190610f87565b5b50565b5b80821115610fa0576000816000905550600101610f88565b5090565b60008160000b9050919050565b610fba81610fa4565b82525050565b6000602082019050610fd56000830184610fb1565b92915050565b600080fd5b600080fd5b600073ffffffffffffffffffffffffffffffffffffffff82169050919050565b600061101082610fe5565b9050919050565b61102081611005565b811461102b57600080fd5b50565b60008135905061103d81611017565b92915050565b600067ffffffffffffffff82169050919050565b61106081611043565b811461106b57600080fd5b50565b60008135905061107d81611057565b92915050565b6000806040838503121561109a57611099610fdb565b5b60006110a88582860161102e565b92505060206110b98582860161106e565b9150509250929050565b600080fd5b600080fd5b600080fd5b60008083601f8401126110e8576110e76110c3565b5b8235905067ffffffffffffffff811115611105576111046110c8565b5b602083019150836001820283011115611121576111206110cd565b5b9250929050565b6000806020838503121561113f5761113e610fdb565b5b600083013567ffffffffffffffff81111561115d5761115c610fe0565b5b611169858286016110d2565b92509250509250929050565b60008115159050919050565b61118a81611175565b82525050565b60006020820190506111a56000830184611181565b92915050565b6000806000604084860312156111c4576111c3610fdb565b5b60006111d28682870161106e565b935050602084013567ffffffffffffffff8111156111f3576111f2610fe0565b5b6111ff868287016110d2565b92509250509250925092565b60008160070b9050919050565b6112218161120b565b82525050565b600060208201905061123c6000830184611218565b92915050565b60006020828403121561125857611257610fdb565b5b60006112668482850161106e565b91505092915050565b600081519050919050565b600082825260208201905092915050565b6000819050602082019050919050565b600081519050919050565b600082825260208201905092915050565b60005b838110156112d55780820151818401526020810190506112ba565b60008484015250505050565b6000601f19601f8301169050919050565b60006112fd8261129b565b61130781856112a6565b93506113178185602086016112b7565b611320816112e1565b840191505092915050565b600061133783836112f2565b905092915050565b6000602082019050919050565b60006113578261126f565b611361818561127a565b9350836020820285016113738561128b565b8060005b858110156113af5784840389528151611390858261132b565b945061139b8361133f565b925060208a01995050600181019050611377565b50829750879550505050505092915050565b6113ca81611175565b82525050565b600060408301600083015184820360008601526113ed828261134c565b915050602083015161140260208601826113c1565b508091505092915050565b6000602082019050818103600083015261142781846113d0565b905092915050565b600082825260208201905092915050565b7f50726f6475637420616c726561647920636c61696d6564000000000000000000600082015250565b600061147660178361142f565b915061148182611440565b602082019050919050565b600060208201905081810360008301526114a581611469565b9050919050565b7f4e487b7100000000000000000000000000000000000000000000000000000000600052601160045260246000fd5b60006114e68261120b565b91506114f18361120b565b925082820190507fffffffffffffffffffffffffffffffffffffffffffffffff80000000000000008112677fffffffffffffff82131715611535576115346114ac565b5b92915050565b600081905092915050565b82818337600083830152505050565b6000611561838561153b565b935061156e838584611546565b82840190509392505050565b6000611587828486611555565b91508190509392505050565b600061159e8261120b565b91506115a98361120b565b92508282039050677fffffffffffffff81137fffffffffffffffffffffffffffffffffffffffffffffffff8000000000000000821217156115ed576115ec6114ac565b5b92915050565b7f4e487b7100000000000000000000000000000000000000000000000000000000600052604160045260246000fd5b7f4e6f7420656e6f75676820746f6b656e73000000000000000000000000000000600082015250565b600061165860118361142f565b915061166382611622565b602082019050919050565b600060208201905081810360008301526116878161164b565b9050919050565b7f52657669657720616c7265616479206578697374730000000000000000000000600082015250565b60006116c460158361142f565b91506116cf8261168e565b602082019050919050565b600060208201905081810360008301526116f3816116b7565b9050919050565b7f50726f64756374206e6f7420636c61696d656400000000000000000000000000600082015250565b600061173060138361142f565b915061173b826116fa565b602082019050919050565b6000602082019050818103600083015261175f81611723565b9050919050565b7f50726f6475637420646f65736e27742065786973740000000000000000000000600082015250565b600061179c60158361142f565b91506117a782611766565b602082019050919050565b600060208201905081810360008301526117cb8161178f565b9050919050565b600082905092915050565b7f4e487b7100000000000000000000000000000000000000000000000000000000600052602260045260246000fd5b6000600282049050600182168061182457607f821691505b602082108103611837576118366117dd565b5b50919050565b60008190508160005260206000209050919050565b60006020601f8301049050919050565b600082821b905092915050565b60006008830261189f7fffffffffffffffffffffffffffffffffffffffffffffffffffffffffffffffff82611862565b6118a98683611862565b95508019841693508086168417925050509392505050565b6000819050919050565b6000819050919050565b60006118f06118eb6118e6846118c1565b6118cb565b6118c1565b9050919050565b6000819050919050565b61190a836118d5565b61191e611916826118f7565b84845461186f565b825550505050565b600090565b611933611926565b61193e818484611901565b505050565b5b818110156119625761195760008261192b565b600181019050611944565b5050565b601f8211156119a7576119788161183d565b61198184611852565b81016020851015611990578190505b6119a461199c85611852565b830182611943565b50505b505050565b600082821c905092915050565b60006119ca600019846008026119ac565b1980831691505092915050565b60006119e383836119b9565b9150826002028217905092915050565b6119fd83836117d2565b67ffffffffffffffff811115611a1657611a156115f3565b5b611a20825461180c565b611a2b828285611966565b6000601f831160018114611a5a5760008415611a48578287013590505b611a5285826119d7565b865550611aba565b601f198416611a688661183d565b60005b82811015611a9057848901358255600182019150602085019450602081019050611a6b565b86831015611aad5784890135611aa9601f8916826119b9565b8355505b6001600288020188555050505b50505050505050565b611acc8261129b565b67ffffffffffffffff811115611ae557611ae46115f3565b5b611aef825461180c565b611afa828285611966565b600060209050601f831160018114611b2d5760008415611b1b578287015190505b611b2585826119d7565b865550611b8d565b601f198416611b3b8661183d565b60005b82811015611b6357848901518255600182019150602085019450602081019050611b3e565b86831015611b805784890151611b7c601f8916826119b9565b8355505b6001600288020188555050505b50505050505056fea264697066735822122060dcd151a77f7846d26f22a85a12b909868d1ea2a573699b1a01d7819cd025b564736f6c63430008110033",
  "immutableReferences": {},
  "source": "// SPDX-License-Identifier: GPL-v3\n\npragma solidity >=0.7.0 <0.9;\n\nimport \"../dependencies/provable/provableAPI.sol\";\n\ncontract Derp is usingProvable {\n    struct Product {\n        bytes[] reviewHashes;\n        bool _initialized;\n    }\n\n    struct Review {\n        address reviewer;\n        int64 upvotes;\n        bool _initialized;\n    }\n\n    address private owner;\n\n    mapping(address => int64) private reviewTokens;\n    mapping(address => int64) private profileTokens;\n\n    mapping(uint64 => Product) private products;\n    mapping(bytes => Review) private reviews;\n    mapping(address => mapping(uint64 => bool)) private productsClaimed;\n\n    // newID = products.push({});\n\n    int8 public constant REVIEW_COST = 2;\n    int8 public constant REVIEW_REWARD = 1;\n    int8 public constant UPVOTE_COST = 2;\n    int8 public constant UPVOTE_REWARD = 1;\n    int8 public constant PER_PURCHASE_TOKENS = 10;\n\n    constructor() {\n        owner = msg.sender;\n    }\n\n    /*\n    function obtainAllReviewTokens(address account) public {\n        require(!productsClaimed[account][productId]);\n\n        // store_id\n\n        // Oracle?\n        bool boughtItem = true;\n        require(boughtItem);\n\n        // [local_product_id]\n\n        productsClaimed[account][productId] = true;\n        reviewTokens[account] += PER_PURCHASE_TOKENS;\n    }\n    */\n\n    function obtainReviewToken(address account, uint64 productId) external {\n        require(\n            !productsClaimed[account][productId],\n            \"Product already claimed\"\n        );\n\n        // Oracle?\n        bool boughtItem = true;\n        require(boughtItem);\n\n        productsClaimed[account][productId] = true;\n        reviewTokens[account] += PER_PURCHASE_TOKENS;\n    }\n\n    // Reviewer is msg.sender\n    function makeReview(uint64 productId, bytes calldata reviewHash)\n        external\n        returns (bool)\n    {\n        require(reviewTokens[msg.sender] >= REVIEW_COST, \"Not enough tokens\");\n        require(!reviews[reviewHash]._initialized, \"Review already exists\");\n        require(productsClaimed[msg.sender][productId], \"Product not claimed\");\n\n        // Avoids creating a review for a product that doesn't exist.\n        require(products[productId]._initialized, \"Product doesn't exist\");\n\n        Review memory r = Review({\n            reviewer: msg.sender,\n            upvotes: 1,\n            _initialized: true\n        });\n\n        reviews[reviewHash] = r;\n        products[productId].reviewHashes.push(reviewHash);\n\n        reviewTokens[msg.sender] -= REVIEW_COST;\n        profileTokens[msg.sender] += REVIEW_REWARD;\n\n        return true;\n    }\n\n    function upvoteReview(bytes calldata reviewHash) external {\n        Review storage review = reviews[reviewHash];\n        require(review._initialized);\n        require(reviewTokens[msg.sender] >= UPVOTE_COST);\n\n        reviewTokens[msg.sender] -= UPVOTE_COST;\n\n        review.upvotes += 1;\n\n        profileTokens[review.reviewer] += UPVOTE_REWARD;\n    }\n\n    function refreshProducts() external {\n        // Oracle\n\n        uint64 storeId = 0;\n        uint64 localProductId = 1;\n\n        Product memory p = Product({\n            _initialized: true,\n            reviewHashes: new bytes[](0)\n        });\n\n        uint64 productId = (storeId << 32) | localProductId;\n\n        products[productId] = p;\n    }\n\n    // Utility functions below\n    // You should only call these functions on your local node without\n    // spending gas.\n\n    function reviewExists(bytes calldata reviewHash)\n        public\n        view\n        returns (bool)\n    {\n        return reviews[reviewHash]._initialized;\n    }\n\n    function getProduct(uint64 productId) public view returns (Product memory) {\n        require(products[productId]._initialized, \"Product doesn't exist\");\n\n        return products[productId];\n    }\n\n    function getReviewTokens() public view returns (int64) {\n        return reviewTokens[msg.sender];\n    }\n\n    function getProfileTokens() public view returns (int64) {\n        return profileTokens[msg.sender];\n    }\n}\n",
  "sourcePath": "/app/contracts/Derp.sol",
  "compiler": {
    "name": "solc",
    "version": "0.8.17+commit.8df45f5f.Emscripten.clang"
  },
  "schemaVersion": "3.4.11",
  "updatedAt": "2023-01-13T14:27:44.572Z",
  "networkType": "ethereum",
  "devdoc": {
    "kind": "dev",
    "methods": {},
    "version": 1
  },
  "userdoc": {
    "kind": "user",
    "methods": {},
    "version": 1
  }
}