{
  "contractName": "Derp",
  "abi": [
    {
      "inputs": [],
      "stateMutability": "nonpayable",
      "type": "constructor"
    },
    {
      "inputs": [],
      "name": "PER_PURCHASE_TOKENS",
      "outputs": [
        {
          "internalType": "int8",
          "name": "",
          "type": "int8"
        }
      ],
      "stateMutability": "view",
      "type": "function",
      "constant": true
    },
    {
      "inputs": [],
      "name": "REVIEW_COST",
      "outputs": [
        {
          "internalType": "int8",
          "name": "",
          "type": "int8"
        }
      ],
      "stateMutability": "view",
      "type": "function",
      "constant": true
    },
    {
      "inputs": [],
      "name": "REVIEW_REWARD",
      "outputs": [
        {
          "internalType": "int8",
          "name": "",
          "type": "int8"
        }
      ],
      "stateMutability": "view",
      "type": "function",
      "constant": true
    },
    {
      "inputs": [],
      "name": "UPVOTE_COST",
      "outputs": [
        {
          "internalType": "int8",
          "name": "",
          "type": "int8"
        }
      ],
      "stateMutability": "view",
      "type": "function",
      "constant": true
    },
    {
      "inputs": [],
      "name": "UPVOTE_REWARD",
      "outputs": [
        {
          "internalType": "int8",
          "name": "",
          "type": "int8"
        }
      ],
      "stateMutability": "view",
      "type": "function",
      "constant": true
    },
    {
      "inputs": [
        {
          "internalType": "address",
          "name": "account",
          "type": "address"
        },
        {
          "internalType": "uint64",
          "name": "productId",
          "type": "uint64"
        }
      ],
      "name": "obtainReviewToken",
      "outputs": [],
      "stateMutability": "nonpayable",
      "type": "function"
    },
    {
      "inputs": [
        {
          "internalType": "uint64",
          "name": "productId",
          "type": "uint64"
        },
        {
          "internalType": "bytes",
          "name": "reviewHash",
          "type": "bytes"
        }
      ],
      "name": "makeReview",
      "outputs": [
        {
          "internalType": "bool",
          "name": "",
          "type": "bool"
        }
      ],
      "stateMutability": "nonpayable",
      "type": "function"
    },
    {
      "inputs": [
        {
          "internalType": "bytes",
          "name": "reviewHash",
          "type": "bytes"
        }
      ],
      "name": "upvoteReview",
      "outputs": [],
      "stateMutability": "nonpayable",
      "type": "function"
    },
    {
      "inputs": [],
      "name": "refreshProducts",
      "outputs": [],
      "stateMutability": "nonpayable",
      "type": "function"
    },
    {
      "inputs": [
        {
          "internalType": "bytes",
          "name": "reviewHash",
          "type": "bytes"
        }
      ],
      "name": "reviewExists",
      "outputs": [
        {
          "internalType": "bool",
          "name": "",
          "type": "bool"
        }
      ],
      "stateMutability": "view",
      "type": "function",
      "constant": true
    },
    {
      "inputs": [
        {
          "internalType": "uint64",
          "name": "productId",
          "type": "uint64"
        }
      ],
      "name": "getProduct",
      "outputs": [
        {
          "components": [
            {
              "internalType": "bytes[]",
              "name": "reviewHashes",
              "type": "bytes[]"
            },
            {
              "internalType": "bool",
              "name": "_initialized",
              "type": "bool"
            }
          ],
          "internalType": "struct Derp.Product",
          "name": "",
          "type": "tuple"
        }
      ],
      "stateMutability": "view",
      "type": "function",
      "constant": true
    },
    {
      "inputs": [],
      "name": "getReviewTokens",
      "outputs": [
        {
          "internalType": "int64",
          "name": "",
          "type": "int64"
        }
      ],
      "stateMutability": "view",
      "type": "function",
      "constant": true
    },
    {
      "inputs": [],
      "name": "getProfileTokens",
      "outputs": [
        {
          "internalType": "int64",
          "name": "",
          "type": "int64"
        }
      ],
      "stateMutability": "view",
      "type": "function",
      "constant": true
    },
    {
      "inputs": [],
      "name": "getReviews",
      "outputs": [
        {
          "internalType": "bytes[]",
          "name": "",
          "type": "bytes[]"
        }
      ],
      "stateMutability": "view",
      "type": "function",
      "constant": true
    }
  ],
  "bytecode": "0x608060405234801561001057600080fd5b5033600560006101000a81548173ffffffffffffffffffffffffffffffffffffffff021916908373ffffffffffffffffffffffffffffffffffffffff160217905550611e3d806100616000396000f3fe608060405234801561001057600080fd5b50600436106100ea5760003560e01c80636c4abdb11161008c57806396593c9e1161006657806396593c9e14610227578063b100488f14610245578063e904394c14610263578063fa95bbbf14610293576100ea565b80636c4abdb1146101a95780636d1febb1146101d95780637c89f5b314610209576100ea565b8063396c6226116100c8578063396c6226146101475780635edda63b146101635780635fe86bfd1461018157806368cf232d1461018b576100ea565b80630bfa59c2146100ef5780631b1e13241461010d57806326551e781461012b575b600080fd5b6100f76102b1565b604051610104919061118a565b60405180910390f35b6101156102b6565b60405161012291906112f7565b60405180910390f35b610145600480360381019061014091906113c1565b6103cc565b005b610161600480360381019061015c9190611466565b610598565b005b61016b6107ba565b604051610178919061118a565b60405180910390f35b6101896107bf565b005b6101936108b3565b6040516101a0919061118a565b60405180910390f35b6101c360048036038101906101be9190611466565b6108b8565b6040516101d091906114ce565b60405180910390f35b6101f360048036038101906101ee91906114e9565b6108f3565b60405161020091906114ce565b60405180910390f35b610211610e1a565b60405161021e9190611565565b60405180910390f35b61022f610e6e565b60405161023c9190611565565b60405180910390f35b61024d610ec2565b60405161025a919061118a565b60405180910390f35b61027d60048036038101906102789190611580565b610ec7565b60405161028a919061167f565b60405180910390f35b61029b611073565b6040516102a8919061118a565b60405180910390f35b600a81565b6060600a60003373ffffffffffffffffffffffffffffffffffffffff1673ffffffffffffffffffffffffffffffffffffffff168152602001908152602001600020805480602002602001604051908101604052809291908181526020016000905b828210156103c3578382906000526020600020018054610336906116d0565b80601f0160208091040260200160405190810160405280929190818152602001828054610362906116d0565b80156103af5780601f10610384576101008083540402835291602001916103af565b820191906000526020600020905b81548152906001019060200180831161039257829003601f168201915b505050505081526020019060010190610317565b50505050905090565b600b60008373ffffffffffffffffffffffffffffffffffffffff1673ffffffffffffffffffffffffffffffffffffffff16815260200190815260200160002060008267ffffffffffffffff1667ffffffffffffffff16815260200190815260200160002060009054906101000a900460ff161561047e576040517f08c379a00000000000000000000000000000000000000000000000000000000081526004016104759061175e565b60405180910390fd5b6000600190508061048e57600080fd5b6001600b60008573ffffffffffffffffffffffffffffffffffffffff1673ffffffffffffffffffffffffffffffffffffffff16815260200190815260200160002060008467ffffffffffffffff1667ffffffffffffffff16815260200190815260200160002060006101000a81548160ff021916908315150217905550600a60000b600660008573ffffffffffffffffffffffffffffffffffffffff1673ffffffffffffffffffffffffffffffffffffffff16815260200190815260200160002060008282829054906101000a900460070b61056a91906117ad565b92506101000a81548167ffffffffffffffff021916908360070b67ffffffffffffffff160217905550505050565b6000600983836040516105ac92919061184c565b9081526020016040518091039020905080600001601c9054906101000a900460ff166105d757600080fd5b600260000b600660003373ffffffffffffffffffffffffffffffffffffffff1673ffffffffffffffffffffffffffffffffffffffff16815260200190815260200160002060009054906101000a900460070b60070b121561063757600080fd5b600260000b600660003373ffffffffffffffffffffffffffffffffffffffff1673ffffffffffffffffffffffffffffffffffffffff16815260200190815260200160002060008282829054906101000a900460070b6106969190611865565b92506101000a81548167ffffffffffffffff021916908360070b67ffffffffffffffff16021790555060018160000160148282829054906101000a900460070b6106e091906117ad565b92506101000a81548167ffffffffffffffff021916908360070b67ffffffffffffffff160217905550600160000b600760008360000160009054906101000a900473ffffffffffffffffffffffffffffffffffffffff1673ffffffffffffffffffffffffffffffffffffffff1673ffffffffffffffffffffffffffffffffffffffff16815260200190815260200160002060008282829054906101000a900460070b61078c91906117ad565b92506101000a81548167ffffffffffffffff021916908360070b67ffffffffffffffff160217905550505050565b600281565b6000806001905060006040518060400160405280600067ffffffffffffffff8111156107ee576107ed6118c5565b5b60405190808252806020026020018201604052801561082157816020015b606081526020019060019003908161080c5790505b50815260200160011515815250905060008260208567ffffffffffffffff16901b17905081600860008367ffffffffffffffff1667ffffffffffffffff1681526020019081526020016000206000820151816000019080519060200190610889929190611078565b5060208201518160010160006101000a81548160ff02191690831515021790555090505050505050565b600281565b6000600983836040516108cc92919061184c565b9081526020016040518091039020600001601c9054906101000a900460ff16905092915050565b6000600260000b600660003373ffffffffffffffffffffffffffffffffffffffff1673ffffffffffffffffffffffffffffffffffffffff16815260200190815260200160002060009054906101000a900460070b60070b121561098b576040517f08c379a000000000000000000000000000000000000000000000000000000000815260040161098290611940565b60405180910390fd5b6009838360405161099d92919061184c565b9081526020016040518091039020600001601c9054906101000a900460ff16156109fc576040517f08c379a00000000000000000000000000000000000000000000000000000000081526004016109f3906119ac565b60405180910390fd5b600b60003373ffffffffffffffffffffffffffffffffffffffff1673ffffffffffffffffffffffffffffffffffffffff16815260200190815260200160002060008567ffffffffffffffff1667ffffffffffffffff16815260200190815260200160002060009054906101000a900460ff16610aad576040517f08c379a0000000000000000000000000000000000000000000000000000000008152600401610aa490611a18565b60405180910390fd5b600860008567ffffffffffffffff1667ffffffffffffffff16815260200190815260200160002060010160009054906101000a900460ff16610b24576040517f08c379a0000000000000000000000000000000000000000000000000000000008152600401610b1b90611a84565b60405180910390fd5b600060405180606001604052803373ffffffffffffffffffffffffffffffffffffffff168152602001600160070b8152602001600115158152509050600a60003373ffffffffffffffffffffffffffffffffffffffff1673ffffffffffffffffffffffffffffffffffffffff168152602001908152602001600020848490918060018154018082558091505060019003906000526020600020016000909192909192909192909192509182610bda929190611c65565b508060098585604051610bee92919061184c565b908152602001604051809103902060008201518160000160006101000a81548173ffffffffffffffffffffffffffffffffffffffff021916908373ffffffffffffffffffffffffffffffffffffffff16021790555060208201518160000160146101000a81548167ffffffffffffffff021916908360070b67ffffffffffffffff160217905550604082015181600001601c6101000a81548160ff021916908315150217905550905050600860008667ffffffffffffffff1667ffffffffffffffff168152602001908152602001600020600001848490918060018154018082558091505060019003906000526020600020016000909192909192909192909192509182610cfd929190611c65565b50600260000b600660003373ffffffffffffffffffffffffffffffffffffffff1673ffffffffffffffffffffffffffffffffffffffff16815260200190815260200160002060008282829054906101000a900460070b610d5d9190611865565b92506101000a81548167ffffffffffffffff021916908360070b67ffffffffffffffff160217905550600160000b600760003373ffffffffffffffffffffffffffffffffffffffff1673ffffffffffffffffffffffffffffffffffffffff16815260200190815260200160002060008282829054906101000a900460070b610de591906117ad565b92506101000a81548167ffffffffffffffff021916908360070b67ffffffffffffffff16021790555060019150509392505050565b6000600760003373ffffffffffffffffffffffffffffffffffffffff1673ffffffffffffffffffffffffffffffffffffffff16815260200190815260200160002060009054906101000a900460070b905090565b6000600660003373ffffffffffffffffffffffffffffffffffffffff1673ffffffffffffffffffffffffffffffffffffffff16815260200190815260200160002060009054906101000a900460070b905090565b600181565b610ecf6110d1565b600860008367ffffffffffffffff1667ffffffffffffffff16815260200190815260200160002060010160009054906101000a900460ff16610f46576040517f08c379a0000000000000000000000000000000000000000000000000000000008152600401610f3d90611a84565b60405180910390fd5b600860008367ffffffffffffffff1667ffffffffffffffff16815260200190815260200160002060405180604001604052908160008201805480602002602001604051908101604052809291908181526020016000905b82821015611049578382906000526020600020018054610fbc906116d0565b80601f0160208091040260200160405190810160405280929190818152602001828054610fe8906116d0565b80156110355780601f1061100a57610100808354040283529160200191611035565b820191906000526020600020905b81548152906001019060200180831161101857829003601f168201915b505050505081526020019060010190610f9d565b5050505081526020016001820160009054906101000a900460ff1615151515815250509050919050565b600181565b8280548282559060005260206000209081019282156110c0579160200282015b828111156110bf5782518290816110af9190611d35565b5091602001919060010190611098565b5b5090506110cd91906110ed565b5090565b6040518060400160405280606081526020016000151581525090565b5b8082111561110d57600081816111049190611111565b506001016110ee565b5090565b50805461111d906116d0565b6000825580601f1061112f575061114e565b601f01602090049060005260206000209081019061114d9190611151565b5b50565b5b8082111561116a576000816000905550600101611152565b5090565b60008160000b9050919050565b6111848161116e565b82525050565b600060208201905061119f600083018461117b565b92915050565b600081519050919050565b600082825260208201905092915050565b6000819050602082019050919050565b600081519050919050565b600082825260208201905092915050565b60005b8381101561120b5780820151818401526020810190506111f0565b60008484015250505050565b6000601f19601f8301169050919050565b6000611233826111d1565b61123d81856111dc565b935061124d8185602086016111ed565b61125681611217565b840191505092915050565b600061126d8383611228565b905092915050565b6000602082019050919050565b600061128d826111a5565b61129781856111b0565b9350836020820285016112a9856111c1565b8060005b858110156112e557848403895281516112c68582611261565b94506112d183611275565b925060208a019950506001810190506112ad565b50829750879550505050505092915050565b600060208201905081810360008301526113118184611282565b905092915050565b600080fd5b600080fd5b600073ffffffffffffffffffffffffffffffffffffffff82169050919050565b600061134e82611323565b9050919050565b61135e81611343565b811461136957600080fd5b50565b60008135905061137b81611355565b92915050565b600067ffffffffffffffff82169050919050565b61139e81611381565b81146113a957600080fd5b50565b6000813590506113bb81611395565b92915050565b600080604083850312156113d8576113d7611319565b5b60006113e68582860161136c565b92505060206113f7858286016113ac565b9150509250929050565b600080fd5b600080fd5b600080fd5b60008083601f84011261142657611425611401565b5b8235905067ffffffffffffffff81111561144357611442611406565b5b60208301915083600182028301111561145f5761145e61140b565b5b9250929050565b6000806020838503121561147d5761147c611319565b5b600083013567ffffffffffffffff81111561149b5761149a61131e565b5b6114a785828601611410565b92509250509250929050565b60008115159050919050565b6114c8816114b3565b82525050565b60006020820190506114e360008301846114bf565b92915050565b60008060006040848603121561150257611501611319565b5b6000611510868287016113ac565b935050602084013567ffffffffffffffff8111156115315761153061131e565b5b61153d86828701611410565b92509250509250925092565b60008160070b9050919050565b61155f81611549565b82525050565b600060208201905061157a6000830184611556565b92915050565b60006020828403121561159657611595611319565b5b60006115a4848285016113ac565b91505092915050565b600082825260208201905092915050565b60006115c9826111a5565b6115d381856115ad565b9350836020820285016115e5856111c1565b8060005b8581101561162157848403895281516116028582611261565b945061160d83611275565b925060208a019950506001810190506115e9565b50829750879550505050505092915050565b61163c816114b3565b82525050565b6000604083016000830151848203600086015261165f82826115be565b91505060208301516116746020860182611633565b508091505092915050565b600060208201905081810360008301526116998184611642565b905092915050565b7f4e487b7100000000000000000000000000000000000000000000000000000000600052602260045260246000fd5b600060028204905060018216806116e857607f821691505b6020821081036116fb576116fa6116a1565b5b50919050565b600082825260208201905092915050565b7f50726f6475637420616c726561647920636c61696d6564000000000000000000600082015250565b6000611748601783611701565b915061175382611712565b602082019050919050565b600060208201905081810360008301526117778161173b565b9050919050565b7f4e487b7100000000000000000000000000000000000000000000000000000000600052601160045260246000fd5b60006117b882611549565b91506117c383611549565b925082820190507fffffffffffffffffffffffffffffffffffffffffffffffff80000000000000008112677fffffffffffffff821317156118075761180661177e565b5b92915050565b600081905092915050565b82818337600083830152505050565b6000611833838561180d565b9350611840838584611818565b82840190509392505050565b6000611859828486611827565b91508190509392505050565b600061187082611549565b915061187b83611549565b92508282039050677fffffffffffffff81137fffffffffffffffffffffffffffffffffffffffffffffffff8000000000000000821217156118bf576118be61177e565b5b92915050565b7f4e487b7100000000000000000000000000000000000000000000000000000000600052604160045260246000fd5b7f4e6f7420656e6f75676820746f6b656e73000000000000000000000000000000600082015250565b600061192a601183611701565b9150611935826118f4565b602082019050919050565b600060208201905081810360008301526119598161191d565b9050919050565b7f52657669657720616c7265616479206578697374730000000000000000000000600082015250565b6000611996601583611701565b91506119a182611960565b602082019050919050565b600060208201905081810360008301526119c581611989565b9050919050565b7f50726f64756374206e6f7420636c61696d656400000000000000000000000000600082015250565b6000611a02601383611701565b9150611a0d826119cc565b602082019050919050565b60006020820190508181036000830152611a31816119f5565b9050919050565b7f50726f6475637420646f65736e27742065786973740000000000000000000000600082015250565b6000611a6e601583611701565b9150611a7982611a38565b602082019050919050565b60006020820190508181036000830152611a9d81611a61565b9050919050565b600082905092915050565b60008190508160005260206000209050919050565b60006020601f8301049050919050565b600082821b905092915050565b600060088302611b117fffffffffffffffffffffffffffffffffffffffffffffffffffffffffffffffff82611ad4565b611b1b8683611ad4565b95508019841693508086168417925050509392505050565b6000819050919050565b6000819050919050565b6000611b62611b5d611b5884611b33565b611b3d565b611b33565b9050919050565b6000819050919050565b611b7c83611b47565b611b90611b8882611b69565b848454611ae1565b825550505050565b600090565b611ba5611b98565b611bb0818484611b73565b505050565b5b81811015611bd457611bc9600082611b9d565b600181019050611bb6565b5050565b601f821115611c1957611bea81611aaf565b611bf384611ac4565b81016020851015611c02578190505b611c16611c0e85611ac4565b830182611bb5565b50505b505050565b600082821c905092915050565b6000611c3c60001984600802611c1e565b1980831691505092915050565b6000611c558383611c2b565b9150826002028217905092915050565b611c6f8383611aa4565b67ffffffffffffffff811115611c8857611c876118c5565b5b611c9282546116d0565b611c9d828285611bd8565b6000601f831160018114611ccc5760008415611cba578287013590505b611cc48582611c49565b865550611d2c565b601f198416611cda86611aaf565b60005b82811015611d0257848901358255600182019150602085019450602081019050611cdd565b86831015611d1f5784890135611d1b601f891682611c2b565b8355505b6001600288020188555050505b50505050505050565b611d3e826111d1565b67ffffffffffffffff811115611d5757611d566118c5565b5b611d6182546116d0565b611d6c828285611bd8565b600060209050601f831160018114611d9f5760008415611d8d578287015190505b611d978582611c49565b865550611dff565b601f198416611dad86611aaf565b60005b82811015611dd557848901518255600182019150602085019450602081019050611db0565b86831015611df25784890151611dee601f891682611c2b565b8355505b6001600288020188555050505b50505050505056fea26469706673582212206254dbde0a18a83be0d5949d39960d990f1d1d2274b86ab6fbb2455949976e0164736f6c63430008110033",
  "immutableReferences": {},
  "source": "// SPDX-License-Identifier: GPL-v3\n\npragma solidity >=0.7.0 <0.9;\n\nimport \"../dependencies/provable/provableAPI.sol\";\n\ncontract Derp is usingProvable {\n    struct Product {\n        bytes[] reviewHashes;\n        bool _initialized;\n    }\n\n    struct Review {\n        address reviewer;\n        int64 upvotes;\n        bool _initialized;\n    }\n\n    address private owner;\n\n    mapping(address => int64) private reviewTokens;\n    mapping(address => int64) private profileTokens;\n\n    mapping(uint64 => Product) private products;\n    mapping(bytes => Review) private reviews;\n    mapping(address => bytes[]) private reviewsFromAddress;\n    mapping(address => mapping(uint64 => bool)) private productsClaimed;\n\n    // newID = products.push({});\n\n    int8 public constant REVIEW_COST = 2;\n    int8 public constant REVIEW_REWARD = 1;\n    int8 public constant UPVOTE_COST = 2;\n    int8 public constant UPVOTE_REWARD = 1;\n    int8 public constant PER_PURCHASE_TOKENS = 10;\n\n    constructor() {\n        owner = msg.sender;\n    }\n\n    /*\n    function obtainAllReviewTokens(address account) public {\n        require(!productsClaimed[account][productId]);\n\n        // store_id\n\n        // Oracle?\n        bool boughtItem = true;\n        require(boughtItem);\n\n        // [local_product_id]\n\n        productsClaimed[account][productId] = true;\n        reviewTokens[account] += PER_PURCHASE_TOKENS;\n    }\n    */\n\n    function obtainReviewToken(address account, uint64 productId) external {\n        require(\n            !productsClaimed[account][productId],\n            \"Product already claimed\"\n        );\n\n        // Oracle?\n        bool boughtItem = true;\n        require(boughtItem);\n\n        productsClaimed[account][productId] = true;\n        reviewTokens[account] += PER_PURCHASE_TOKENS;\n    }\n\n    // Reviewer is msg.sender\n    function makeReview(uint64 productId, bytes calldata reviewHash)\n        external\n        returns (bool)\n    {\n        require(reviewTokens[msg.sender] >= REVIEW_COST, \"Not enough tokens\");\n        require(!reviews[reviewHash]._initialized, \"Review already exists\");\n        require(productsClaimed[msg.sender][productId], \"Product not claimed\");\n\n        // Avoids creating a review for a product that doesn't exist.\n        require(products[productId]._initialized, \"Product doesn't exist\");\n\n        Review memory r = Review({\n            reviewer: msg.sender,\n            upvotes: 1,\n            _initialized: true\n        });\n\n        reviewsFromAddress[msg.sender].push(reviewHash);\n\n        reviews[reviewHash] = r;\n        products[productId].reviewHashes.push(reviewHash);\n\n        reviewTokens[msg.sender] -= REVIEW_COST;\n        profileTokens[msg.sender] += REVIEW_REWARD;\n\n        return true;\n    }\n\n    function upvoteReview(bytes calldata reviewHash) external {\n        Review storage review = reviews[reviewHash];\n        require(review._initialized);\n        require(reviewTokens[msg.sender] >= UPVOTE_COST);\n\n        reviewTokens[msg.sender] -= UPVOTE_COST;\n\n        review.upvotes += 1;\n\n        profileTokens[review.reviewer] += UPVOTE_REWARD;\n    }\n\n    function refreshProducts() external {\n        // Oracle\n\n        uint64 storeId = 0;\n        uint64 localProductId = 1;\n\n        Product memory p = Product({\n            _initialized: true,\n            reviewHashes: new bytes[](0)\n        });\n\n        uint64 productId = (storeId << 32) | localProductId;\n\n        products[productId] = p;\n    }\n\n    // Utility functions below\n    // You should only call these functions on your local node without\n    // spending gas.\n\n    function reviewExists(bytes calldata reviewHash)\n        public\n        view\n        returns (bool)\n    {\n        return reviews[reviewHash]._initialized;\n    }\n\n    function getProduct(uint64 productId) public view returns (Product memory) {\n        require(products[productId]._initialized, \"Product doesn't exist\");\n\n        return products[productId];\n    }\n\n    function getReviewTokens() public view returns (int64) {\n        return reviewTokens[msg.sender];\n    }\n\n    function getProfileTokens() public view returns (int64) {\n        return profileTokens[msg.sender];\n    }\n\n    function getReviews() public view returns (bytes[] memory) {\n        return reviewsFromAddress[msg.sender];\n    }\n}\n",
  "sourcePath": "/app/contracts/Derp.sol",
  "compiler": {
    "name": "solc",
    "version": "0.8.17+commit.8df45f5f.Emscripten.clang"
  },
  "schemaVersion": "3.4.11",
  "updatedAt": "2023-01-17T16:33:38.984Z",
  "networkType": "ethereum",
  "devdoc": {
    "kind": "dev",
    "methods": {},
    "version": 1
  },
  "userdoc": {
    "kind": "user",
    "methods": {},
    "version": 1
  }
}